:100000000C94070C0C942F0C0C942F0C0C942F0CAC
:100010000C942F0C0C942F0C0C942F0C0C942F0C74
:100020000C942F0C0C943A180C942F0C0C9415185B
:100030000C942F0C0C942F0C0C942F0C0C942F0C54
:100040000C942F0C0C942F0C0C942F0C0C942F0C44
:100050000C942F0C2020202020202020232320203F
:10006000202023232020202323232320202020207E
:100070002320202020202020202020202323202077
:10008000202023232020232320202323202020235B
:100090002323202020202020202020202323202054
:1000A000202023232023232020202023202023233B
:1000B0002023232020232320202323202323202028
:1000C000202023232023232020202020202323201E
:1000D0002020232320232320202323202323202008
:1000E00020202323202323202020202020232320FE
:1000F00020202323202323202023232023232020E8
:1001000020202323202323202323232320232323CE
:1001100023232323202323202023232023232020C1
:1001200020202323202323202020232320232320B7
:1001300020202323202323202023232020232320A7
:100140002023232020232320202023232023232097
:100150002020232320232323232320202020232384
:100160002323202020202323202023232023232077
:100170002020232320232320202020202020202370
:10018000232020202020202323232023202323205A
:1001900020202323202323202020204D6963726FF9
:1001A0005647412064656D6F206170706C696361B2
:1001B00074696F6E232320202020202020202020FF
:1001C000202020202020202020202020202020202F
:1001D000202020207777772E4D6963726F56474134
:1001E0002E636F6D2C207777772E7365636F6E7338
:1001F0002E636F6D001B5B324A1B5B316DDBDBDBFB
:100200001B5B34326DB2B21B5B33326D1B5B343718
:100210006DB1B2B21B5B34306DDBDBDBDBDBDBDB18
:10022000DBDFDFDFDFDFDFDFDFDFDFDFDFDFDFDFE2
:10023000DFDFDFDFDFDFDFDBDBDBDBDBDBDBDBDBF2
:10024000DBDBDBDBDBDBDBDBDBDBDBDBDBDBDBDCFD
:10025000DCDCDCDC1B5B306D0D0A1B5B316D1B5B7A
:1002600033326D1B5B34376DB21B5B33376D1B5BF9
:1002700034326DB2B2B11B5B33326D1B5B34306D07
:10028000DBDBDBDBDFDFDFDF1B5B306D201B5B31AC
:100290006DDCDCDCDC1B5B34366DB2DBB2B2DBDB8D
:1002A000B21B5B33366D1B5B34376DB2B2B21B5B76
:1002B00034306DDBDBDBDBDBDBDBDBDBDBDCDCDC4B
:1002C000DC1B5B306D201B5B316D1B5B33326DDFE4
:1002D000DFDFDFDFDFDBDBDBDBDBDBDBDBDBDBDB5A
:1002E000DBDBDBDBDBDBDBDBDBDBDBDBDBDCDCDC5B
:1002F0001B5B306D0D0A1B5B316D1B5B34326DB1C6
:10030000B11B5B33326D1B5B34306DDBDBDF1B5BA2
:10031000306D201B5B316DDCDCDCDB1B5B34366D50
:10032000B2B2B1B11B5B33366D1B5B34376DB2B209
:100330001B5B34306DDBDBDBDBDBDBDB1B5B343699
:100340006DDFDFDFDFDFDF1B5B34306DDBDBDBDB53
:10035000DBDBDBDBDBDBDBDBDBDBDBDBDBDBDCDCEB
:10036000DCDCDC1B5B306D201B5B316D1B5B3332D7
:100370006DDFDFDFDFDFDFDFDFDFDFDFDBDBDBDB0F
:10038000DBDBDBDBDBDBDBDBDBDC1B5B306D0D0AB4
:100390001B5B316D1B5B33326D1B5B34376DB21BE6
:1003A0005B34306DDBDF1B5B33376D20DCDB1B5BCD
:1003B00034366DB21B5B33366D1B5B34376DB2B2B6
:1003C0001B5B34306DDBDB1B5B34366DDF1B5B345A
:1003D000306DDFDFDF1B5B306D1B5B33366DDF1B8A
:1003E0005B33376D1B5B36431B5B316D1B5B3331FE
:1003F0006DDCDCDCDCDCDCDCDCDCDCDCDCDC201B29
:100400005B33376DDFDFDFDF1B5B34376DDB1B5B9F
:1004100034366DB2B2DBB21B5B33366D1B5B3437E7
:100420006DB2B2B21B5B34306DDBDBDBDBDBDBDB05
:10043000DBDBDBDBDBDBDBDBDCDCDCDCDCDCDCDC04
:10044000DCDC1B5B306D1B5B33366DDCDCDCDCDC49
:10045000DC1B5B33376D0D0A1B5B316D1B5B33326D
:100460006DDB1B5B33376D20DCDB1B5B34366DB221
:100470001B5B33366D1B5B34376DB2B2B21B5B3422
:10048000366DDF1B5B306D1B5B33366DDF1B5B3303
:10049000376D20201B5B316D1B5B33316DDCDCDC89
:1004A000DBDBDBDBDBDBDBDBDBDBDBDBDBDBDBDB9C
:1004B000DBDBDBDBDBDBDBDBDCDCDCDCDC1B5B3072
:1004C0006D201B5B316DDFDFDFDFDB1B5B33366DE8
:1004D0001B5B34376DB21B5B33376D1B5B34366D82
:1004E000B21B5B33366D1B5B34306DDBDBDBDBDB80
:1004F000DBDBDBDBDBDBDBDBDBDBDBDBDBDBDBDB4C
:10050000DBDBDBDBDB1B5B306D1B5B33366DDB1B4F
:100510005B33376D0D0A1B5B316D1B5B33326DDB5B
:100520001B5B33366DDE1B5B33376DDB1B5B33369A
:100530006D1B5B34376DB21B5B34306DDBDB1B5BDB
:1005400034366DDF1B5B306D1B5B33366DDF1B5B41
:1005500033376D201B5B33366DDCDC1B5B33376D53
:100560002020201B5B316D1B5B33316DDFDFDFDF54
:10057000DFDBDBDBDBDBDBDBDBDBDBDBDBDBDBDBC7
:10058000DBDBDBDBDBDBDBDBDBDBDBDBDBDBDCDCB9
:100590001B5B306D20201B5B316DDFDFDB1B5B33B2
:1005A000366D1B5B34376DB2B11B5B34306DDBDCF9
:1005B000DC1B5B33376D2020DFDFDFDFDFDB1B5B26
:1005C00033366D1B5B34376DB21B5B34306DDBDB58
:1005D000DFDFDFDFDFDFDF1B5B306D1B5B33366DA3
:1005E000DB1B5B33376D0D0A1B5B316D1B5B3332DD
:1005F0006D201B5B33366DDB1B5B33376DDB1B5BA9
:1006000033366DDBDBDB1B5B306D1B5B33366DDD47
:10061000DCDB1B5B316D1B5B34366DDC1B5B34300C
:100620006DDBDBDBDBDBDBDCDCDCDCDCDCDCDCDC7F
:100630001B5B306D201B5B316D1B5B33316DDEDB73
:10064000DBDBDBDBDBDBDBDBDBDBDBDBDBDBDBDBFA
:10065000DBDF1B5B306D20201B5B316D1B5B33359B
:100660006DDCDCDD1B5B306D1B5B33316DDEDBDC99
:100670001B5B316D1B5B33366D201B5B306D201BAC
:100680005B316DDFDB1B5B33366D1B5B34376DB26B
:100690001B5B34306DDBDBDCDC1B5B33376D201B1D
:1006A0005B33326DDB1B5B33376D20DCDB1B5B3375
:1006B000366D1B5B34376DB21B5B34306DDBDB1B7F
:1006C0005B306D201B5B316D1B5B33326DDBDBDB25
:1006D000DBDCDC1B5B306D0D0A1B5B316D1B5B33A0
:1006E000326D201B5B33366DDB1B5B34376DB21B09
:1006F0005B34306DDBDBDBDBDBDBDBDBDBDBDBDB8A
:10070000DBDBDBDBDBDBDBDBDBDB1B5B306D201B0D
:100710005B316D1B5B33316DDEDBDBDBDBDBDBDBBE
:10072000DBDBDBDBDBDBDBDBDBDBDB1B5B306D202D
:100730001B5B316DDB1B5B33356D1B5B34376DB180
:100740001B5B34306DDBDBDD1B5B306D1B5B3331E2
:100750006DDEDBDBDBDB1B5B33336DDC1B5B3337DD
:100760006D201B5B316DDFDB1B5B34366DB21B5BB9
:1007700033366D1B5B34306DDBDBDC1B5B33326D82
:1007800020201B5B33376DDB1B5B33366D1B5B340B
:10079000376DB21B5B34306DDBDB1B5B306D201BB8
:1007A0005B316D1B5B33326DDCDBDBDBDBDBDBDB2F
:1007B0001B5B306D0D0A1B5B316D1B5B33326D2093
:1007C0001B5B33366DDBDBDBDB1B5B34356DB21B58
:1007D0005B33356D1B5B34306DDD1B5B306D202072
:1007E0001B5B316D1B5B33316DDCDCDCDCDCDCDCAA
:1007F0001B5B306D201B5B316D1B5B33366DDFDFA8
:10080000DFDFDFDFDF1B5B306D1B5B33366DDF1B34
:100810005B33376D201B5B316D1B5B33316DDEDB72
:10082000DBDBDBDBDBDBDBDBDBDBDBDBDBDBDBDB18
:100830001B5B306D1B5B33316DDB1B5B33376D2016
:100840001B5B316DDB1B5B33356D1B5B34376DB16F
:100850001B5B34306DDBDBDD1B5B33366D201B5BDC
:1008600033306D1B5B34316D7469661B5B306D1BFF
:100870005B33316DDB1B5B33336D1B5B34316DDF01
:100880001B5B34306DDBDC1B5B33376D201B5B3156
:100890006DDBDB1B5B33366DDBDBDC1B5B33376D0A
:1008A00020DB1B5B33356D1B5B34366DB01B5B335C
:1008B000366D1B5B34306DDBDB1B5B306D201B5BEF
:1008C000316D1B5B33326DDBDBDBDBDBDBDBDB1B4F
:1008D0005B306D0D0A1B5B316D1B5B33326D201B72
:1008E0005B33366DDEDB1B5B34356DB2B2B21B5B46
:1008F00033356D1B5B34306DDD1B5B306D201B5B56
:10090000316D1B5B33316DDEDBDBDBDBDBDBDBDB4C
:10091000DBDBDBDBDBDBDBDBDBDBDBDBDBDBDBDB27
:10092000DBDBDBDBDBDBDBDBDBDBDB1B5B34316D16
:10093000DD1B5B306D201B5B316DDFDB1B5B3335FB
:100940006D1B5B34376DB11B5B34306DDBDB1B5BC8
:10095000306D201B5B316D1B5B33366D201B5B33B1
:10096000306D1B5B34316D6F6164611B5B306D1BDF
:100970005B33316DDB1B5B33336DDBDD1B5B316D5B
:100980001B5B33376DDEDB1B5B34366DB11B5B33BA
:10099000366D1B5B34356DB2B11B5B34306DDC1BC7
:1009A0005B33376D1B5B34376DDB1B5B33356D1B86
:1009B0005B34366DB0B01B5B33366D1B5B34356D0D
:1009C000B11B5B306D201B5B316D1B5B33326DDB0C
:1009D000DBDBDBDBDBDBDB1B5B306D0D0A1B5B3149
:1009E0006D1B5B33346DDC1B5B33376D201B5B335E
:1009F000366DDF1B5B34356DB1B1B11B5B33356DCB
:100A00001B5B34366DB21B5B34306DDC1B5B3336E5
:100A10006D201B5B306D1B5B33316DDF1B5B316DFC
:100A20001B5B34316DDFDF1B5B34306DDBDBDBDB0D
:100A3000DBDBDBDBDBDBDBDBDBDBDBDBDBDBDBDB06
:100A4000DBDBDBDBDBDBDBDBDBDBDBDB1B5B343187
:100A50006DDD1B5B306D1B5B33316DDB1B5B333737
:100A60006D201B5B316DDB1B5B33356D1B5B3437DE
:100A70006DB11B5B34306DDBDBDBDC1B5B33366D58
:100A8000201B5B306D1B5B33316DDF1B5B316D1BDE
:100A90005B33306D1B5B34316D6D1B5B306D1B5BED
:100AA00033316DDBDBDB1B5B33336DDB1B5B3337E0
:100AB0006D201B5B316DDB1B5B34376DDB1B5B33E8
:100AC000366D1B5B34356DB11B5B33356D1B5B3491
:100AD000366DB2B21B5B33366D1B5B34356DB0B017
:100AE0001B5B33356D1B5B34366DB11B5B34306D76
:100AF000DD1B5B33326DDCDBDBDBDBDBDBDBDB1B02
:100B00005B306D0D0A1B5B316D1B5B33346DDBDBC2
:100B10001B5B33376D201B5B306D1B5B33356DDF2B
:100B20001B5B316D1B5B34376DB21B5B34366DB2B2
:100B30001B5B34306DDBDBDB1B5B306D1B5B3335EC
:100B40006DDC1B5B316D1B5B33366D201B5B306DC9
:100B50001B5B33316DDFDF1B5B316D1B5B34316D34
:100B6000DFDFDF1B5B34306DDBDBDBDBDBDBDBDBC9
:100B7000DBDBDBDBDBDBDFDFDFDFDFDFDBDBDBDBAD
:100B8000DBDBDBDBDB1B5B306D1B5B33316DDB1BCE
:100B90005B33376D201B5B316DDB1B5B33356D1BAE
:100BA0005B34376DB11B5B34306DDB1B5B34356DF3
:100BB000DF1B5B34306DDBDB1B5B34356DDC1B5BBB
:100BC000306D1B5B33356DDC1B5B33376D201B5B7E
:100BD00033316DDFDFDB1B5B33336DDB1B5B3337A7
:100BE0006D201B5B316D1B5B33356DDB1B5B34365E
:100BF0006DB2B21B5B34306DDBDD1B5B34356DDEFB
:100C00001B5B34306DDBDBDD1B5B33326DDBDBDB31
:100C1000DBDBDBDB1B5B34336DB11B5B33336D1B09
:100C20005B34326DB11B5B306D0D0A1B5B316D1B8C
:100C30005B33346DDBDBDBDC1B5B306D201B5B333C
:100C4000356DDF1B5B316DB2B2DBDBDB1B5B34353B
:100C50006DDC1B5B34306DDC1B5B306D1B5B333537
:100C60006DDC1B5B316D1B5B33366D201B5B306DA8
:100C70001B5B33316DDFDFDFDB1B5B316D1B5B34F7
:100C8000316DDF1B5B34306DDBDBDBDBDBDBDBDBC8
:100C9000DB1B5B33366D201B5B33376DDB1B5B343B
:100CA000376DDB1B5B34356DB2B11B5B33356D1BB0
:100CB0005B34376DB21B5B34306DDC1B5B33366DE0
:100CC000201B5B33316DDFDBDBDBDBDBDB1B5B3412
:100CD000316D201B5B306D1B5B33316DDF1B5B3374
:100CE000376D201B5B316DDB1B5B33356D1B5B345C
:100CF000376DB11B5B34306DDBDB1B5B306D1B5B19
:100D000033356DDE1B5B316D1B5B34356DDF1B5B7B
:100D100034306DDBDBDB1B5B34356DDC1B5B34306F
:100D20006DDC1B5B306D1B5B33356DDC1B5B333760
:100D30006D20201B5B316D1B5B33356DDEDBDBDB38
:100D4000DD1B5B34356DDE1B5B34306DDBDBDD1BA7
:100D50005B33326DDBDBDBDBDBDBDB1B5B33336D20
:100D60001B5B34326DB1DB1B5B306D0D0A1B5B31DD
:100D70006D1B5B33346DDBDBDBDBDBDC1B5B3336BA
:100D80006D201B5B306D1B5B33356DDF1B5B316D85
:100D90001B5B34356DDF1B5B34306DDB1B5B343725
:100DA0006DB2B21B5B33376D1B5B34356DB1B1B1C6
:100DB000B11B5B33356DDC1B5B34306DDCDC1B5BE6
:100DC000306D1B5B33356DDC1B5B316D1B5B33366C
:100DD0006D201B5B306D1B5B33316DDFDFDFDFDBD5
:100DE0001B5B316D1B5B34316DDFDFDF1B5B33362B
:100DF0006D1B5B34306D201B5B33376DDFDB1B5BA2
:100E000034356DB2B21B5B33356D1B5B34376DB15E
:100E1000B21B5B34306DDBDC1B5B33366D201B5B40
:100E200033316DDFDBDBDB1B5B34316D201B5B3073
:100E30006D1B5B33316DDF1B5B33376D201B5B310B
:100E40006DDB1B5B34356DB2B11B5B33356D1B5BEA
:100E500034306DDBDF1B5B33326D201B5B306D206C
:100E60001B5B33356DDF1B5B316DDF1B5B34356D19
:100E7000DF1B5B34306DDBDBDBDB1B5B34356DDCB8
:100E8000DC1B5B34306DDBDBDB1B5B306D1B5B33F2
:100E9000356DDD1B5B316D1B5B34356DDEDB1B5B44
:100EA00034306DDBDD1B5B33326DDBDBDBDBDB1B0F
:100EB0005B34336DB11B5B33336D1B5B34326DB10F
:100EC000B1DB1B5B306D0D0A1B5B316D1B5B33347B
:100ED0006DDBDBDBDBDBDBDBDCDC1B5B306D1B5B67
:100EE00033356DDF1B5B316DDF1B5B34356DDF1B15
:100EF0005B33376DB2B21B5B33356D1B5B34306DCA
:100F0000DB1B5B33376D1B5B34356DB2B2B2B21B8A
:100F10005B33356D1B5B34306DDBDBDBDB1B5B3444
:100F2000356DDC1B5B34306DDCDCDC1B5B306D1B3A
:100F30005B33356DDC1B5B316D1B5B33366D201B0A
:100F40005B306D1B5B33316DDF1B5B33376D2020F6
:100F50001B5B316DDFDB1B5B34376DDB1B5B3335BC
:100F60006DB21B5B34306DDBDBDBDC1B5B306D207B
:100F70001B5B33316DDFDF1B5B33376D20201B5B69
:100F8000316DDB1B5B34366DB21B5B34356DB11BD1
:100F90005B306D1B5B33356DDB1B5B316DDF1B5BCA
:100FA000306D201B5B316D1B5B33326DDBDBDC1B7B
:100FB0005B306D2020201B5B33356DDF1B5B316D9B
:100FC000DFDFDFDFDFDF1B5B34356DDF1B5B306DA9
:100FD0001B5B33356DDDDF1B5B316DDFDFDF1B5BE3
:100FE00033326D20DBDB1B5B34336DB11B5B333382
:100FF0006D1B5B34326DB11B5B34306DDBDBDBDFD3
:101000001B5B306D0D0A1B5B316D1B5B33346DDB7D
:10101000DBDBDBDBDBDBDBDBDBDBDCDC1B5B3336AB
:101020006D201B5B306D1B5B33356DDF1B5B316DE2
:10103000DF1B5B34356DDF1B5B34376DB2B2B2B290
:101040001B5B34306DDBDBDBDBDBDBDBDBDBDBDBF0
:101050001B5B34356DDCDC1B5B34376DB21B5B34E2
:10106000356DDF1B5B34306DDBDBDBDBDBDC201B5A
:101070005B33326DDFDCDC201B5B33376D1B5B3495
:10108000356DB11B5B33326D1B5B34306D20DCDBA7
:10109000DBDBDBDBDBDBDBDBDBDBDBDBDCDCDCDC9C
:1010A000DBDBDB1B5B33336D1B5B34326DB1B1B10A
:1010B0001B5B34306DDBDBDF1B5B33376DDF1B5BB2
:1010C000306D0D0A1B5B316D1B5B33346DDBDBDB7D
:1010D000DBDBDBDBDBDBDBDBDBDBDBDCDCDCDCDC5B
:1010E0001B5B33366D201B5B306D1B5B33356DDF57
:1010F0001B5B316DDFDFDFDF1B5B34356DDF1B5BBF
:1011000034306DDBDBDBDBDBDB1B5B34356DDF1BA6
:101110005B34306DDFDF1B5B306D1B5B33356DDFA8
:101120001B5B316DDEDBDBDBDB1B5B34356DDF1B1B
:101130005B306D1B5B33356DDB1B5B316D1B5B33D4
:10114000326D2020DFDCDCDCDBDBDBDBDBDBDBDB75
:10115000DBDBDBDBDB1B5B33336D1B5B34326DB105
:10116000B2B21B5B34306DDBDBDBDBDBDBDFDF1BD9
:101170005B306D0D0A1B5B316D1B5B33346D1B5B8C
:1011800034346DB21B5B34306DDBDBDBDBDBDBDB94
:10119000DBDBDBDBDBDBDBDBDBDBDBDB1B5B34342D
:1011A0006DB2B2B0B11B5B306D1B5B33346DDCDCF8
:1011B000DCDCDCDCDCDCDCDCDBDB1B5B316D1B5B0F
:1011C00033356DDEDFDF1B5B34356DDF1B5B306D70
:1011D0001B5B33356DDBDF1B5B316D201B5B3332FB
:1011E0006DDC1B5B33336D1B5B34326DB2B11B5B4B
:1011F00033326D1B5B34306DDCDBDBDBDBDBDBDBFD
:10120000DBDBDBDB1B5B33336D1B5B34326DB21B13
:101210005B34306DDBDBDBDBDBDFDF1B5B33376D50
:10122000DF1B5B306D0D0A1B5B316D1B5B33346D57
:10123000DFDBDB1B5B34326DB1B1B11B5B34306D76
:10124000DBDBDBDBDBDBDBDBDBDBDBDBDBDBDBDBEE
:10125000DBDB1B5B34346DDC201B5B306D1B5B33D5
:10126000346DDBDBDFDFDFDF1B5B33376D202020FE
:10127000201B5B316D1B5B33356DDEDCDCDC1B5B07
:10128000306D1B5B33356DDD1B5B33376D20201BF1
:101290005B316D1B5B33336DDFDF1B5B33326DDF27
:1012A000DFDBDBDBDBDBDBDBDB1B5B33336D1B5BC8
:1012B00034326DB11B5B34306DDBDBDFDF1B5B3049
:1012C0006D0D0A1B5B316D1B5B33346D202020DFFD
:1012D000DFDFDBDBDBDBDB1B5B34326DB2B2B11B90
:1012E0005B34306DDBDBDBDBDBDBDBDBDBDBDBDB8E
:1012F0001B5B306D1B5B33346DDD1B5B33376D2047
:101300001B5B316D2E202A2A2A2A2A2A206C6F671D
:10131000696E20616C72656164791B5B33326DDFCD
:10132000DF1B5B34336DB1B11B5B33336D1B5B343F
:10133000376DDB1B5B34306DDF1B5B306D0D0A1BC3
:101340005B39431B5B316D1B5B33346DDFDFDFDFEC
:10135000DBDBDBDB1B5B34326DB21B5B34306DDB04
:10136000DBDBDBDBDBDBDB1B5B306D1B5B33346D23
:10137000DD201B5B316D1B5B33376D7C1B5B306D80
:101380001B5B3230431B5B316D1B5B33306D2020A8
:101390001B5B306D20201B5B316DDF1B5B306D0DE7
:1013A0000A1B5B3136431B5B316D1B5B33346DDFD6
:1013B000DFDBDB1B5B34326DB11B5B34306DDBDBA1
:1013C000DBDBDB1B5B306D20201B5B316D602D2D6B
:1013D0003E201B5B306D1B5B33316D1B5B34376D07
:1013E0002020484F4C59202A2A2A2A2049274D20BC
:1013F0001B5B356D434F4D494E471B5B306D1B5B8F
:1014000033316D1B5B34376D20201B5B33376D1B15
:101410005B34306D201B5B316D2D2D2D2D2C1B5B16
:10142000306D1B5B3230431B5B316D1B5B33346DA6
:10143000DF1B5B34376DDB1B5B34336DB1B11B5B82
:1014400033306D1B5B34306DDF1B5B306D1B5B33EA
:1014500037431B5B316D7C1B5B306D1B5B32324352
:101460001B5B316D201B5B306D1B5B3134431B5BA1
:10147000316D72656B637566726568746F6D6472E9
:101480006F77737361701B5B306D201B5B316D3C3C
:101490002D2D2D271B5B306D1B5B3532432D2D20F1
:1014A0005449466F6144414D202841736369692D59
:1014B00061727420636F757274657379206F662032
:1014C000687474703A2F2F7369787465656E636FF2
:1014D0006C6F72732E6E65742F29002028676E75ED
:1014E0002900CFF0EEE5EAF23A2068747470733A9E
:1014F0002F2F6D7973766E2E72752F6176722F7421
:10150000656D706C617465732F755647412F00C00F
:10151000E2F2EEF020F1E1EEF0EAE83A20CCE5E785
:10152000E5EDF6E5E220C22E20CD2E2028756E696D
:10153000686F6D656C61624079612E72752900502B
:10154000696E626F6172642049492C204D69637233
:101550006F5647412C2041546D65676131362040FC
:1015600020313620CCC3F62C20E2E5F0F1E8FF2054
:10157000F1E1EEF0EAE83A2000C2F0E5ECFF2028C5
:10158000F7F73AECEC3AF1F1292020202020202036
:1015900020202000C4E0F2E02028E4E43AECEC3A19
:1015A000E3E3E3E3292020202020202000C4E0F210
:1015B000E020E820E2F0E5ECFF00CDE0E6ECE8F228
:1015C000E52045534320E4EBFF20E2FBF5EEE4E0A9
:1015D00000C2FB20EDE520E2E2E5EBE820E8ECFFCD
:1015E0002100C2E0F8E520E8ECFF3A0A00C2E2E59B
:1015F000E4E8F2E520F1E2EEB820E8ECFF3A00087A
:1016000008080808080808080800544553543530ED
:101610003D3E00202868656C702920E4EBFF20EF38
:10162000EEECEEF9E82E0D0A000D0ACAEEECE0ED44
:10163000E4E020EDE520EFEEE4E4E5F0E6E8E2E0CA
:10164000E5F2F1FF2E20C2E2E5E4E8F2E520002019
:101650002D2028717569742920E2FBF5EEE42E0D2A
:101660000A00202D202868656C702920E2FBE2EE3C
:10167000E420EFEEE4F1EAE0E7EAE82E0D0A000DDF
:101680000AC4EEF1F2F3EFEDFBE520EAEEECE0ED5B
:10169000E4FB3A0D0A005B41546D65676131365DCC
:1016A0002420000D0AC0E2F2EEF03A20CCE5E7E596
:1016B000EDF6E5E220C2FFF7E5F1EBE0E220287568
:1016C0006E69686F6D656C61624079612E72752913
:1016D0000D0A0D0A00C4E0F2E020F1E1EEF0EAE8C4
:1016E00020EFF0EEE5EAF2E03A2000C8EDF2E5F096
:1016F000EFF0E5F2E0F2EEF02C20E2E5F0F1E8FFA9
:101700002000323320EDEEFFE1F0FF2032303132A5
:1017100020E32E00C2FB20EDE0E6E0EBE820EAEB60
:10172000E0E2E8F8F33A2000D0E5E6E8EC20EEF25B
:10173000EBE0E4EAE83A0D0A00CFF0EEF1ECEEF26D
:10174000F020EFE0ECFFF2E83A20CEC7D3202843A8
:101750005031323531290020202C2020202020201B
:1017600020203C202020202027272222F92D2D2058
:1017700020203E20202020FF20206A20207C20F0F6
:1017800020202220202020F8204969202020FAF162
:101790002320226A537320808182838485868788F0
:1017A000898A8B8C8D8E8F90919293949596979831
:1017B000999A9B9C9D9E9FA0A1A2A3A4A5A6A7A821
:1017C000A9AAABACADAEAFE0E1E2E3E4E5E6E7E861
:1017D000E9EAEBECEDEEEF1B5B001B5B324A001B12
:1017E0005B4B001B5B323568001B5B32356C0000C5
:1017F000001F003B005A0078009700B500D400F3AA
:1018000000110130014E0100570C34150E1811243F
:101810001FBECFE5D4E0DEBFCDBF11E0A0E6B0E053
:10182000E8ECF4E302C005900D92AA3CB107D9F7A9
:1018300012E0AAECB1E001C01D92AB36B107E1F7AE
:1018400018E1CEE0D8E104C02297FE010E94531AAD
:10185000C830D107C9F70E94D0190C94621A0C94B1
:10186000000022E037E1C9010895000001972FEF41
:101870008F3F9207D1F70895AC018F9A979A9B01F9
:101880000000215030408FEF2F3F3807C9F797985D
:101890009B010000215030408FEF2F3F3807C9F7E0
:1018A0004115510519F041505040E8CF089584E5A5
:1018B00090E09093CB018093CA0185EF91E09093E3
:1018C000CD018093CC010895BF92CF92DF92EF9229
:1018D000FF920F931F93CF93DF937C0192E0B92E79
:1018E000670181E06B2D0E94F4148BE00E94851447
:1018F00084E00E94BC1418E01150E12FEE0FEE0FAF
:10190000C70102C096958795EA95E2F7FC01EF7052
:10191000F070E954FE4F808160E00E94E0131123D3
:1019200059F780E690E060E00E9454148FE00E9436
:101930008514E70100E0E881F0E084E0F595E795A3
:101940008A95E1F7E954FE4F808160E00E94E01340
:10195000E991F0E0EF70F070E954FE4F808160E0B3
:101960000E94E01380E260E00E94E013073041F43F
:101970008DE260E00E94E01380E260E00E94E013EC
:101980000F5F0031C1F683EB60E00E94E01380E25C
:1019900060E00E94E013F6018081803210F061E087
:1019A00002C08EE260E00E94E0131F5F103121F060
:1019B0000894C11CD11CEFCF0E946D14B39480E138
:1019C00090E0E80EF91E99E1B91609F089CFDF9190
:1019D000CF911F910F91FF90EF90DF90CF90BF902C
:1019E0000895EF92FF920F931F93CF93DF93182FD9
:1019F000092F81E069E10E94F414212F302FC901E1
:101A00007C0100E08FE00E94851480E00E94BC14FD
:101A1000802F8150883020F480E260E00E94E01343
:101A2000093031F481E360E00E94E01380E306C0F6
:101A3000802F6AE00E94FC19892F8F5C60E00E9471
:101A4000E0138FE00E94851482E00E94BC14F7012D
:101A5000C081D18110E0209729F08881882311F07E
:101A6000219601C080E260E00E94E0131F5F163003
:101A700091F70F5F82E090E0E80EF91E0A3011F650
:101A8000DF91CF911F910F91FF90EF900895CF9329
:101A9000DF9387E00E94E8140E9465148091CC01D6
:101AA0009091CD0160E00E944014C0E4DCE9CE01D9
:101AB0000197F1F70E94CB138B31C9F7DF91CF91DA
:101AC0000895CF93DF9381E061E00E94F4148BE2EC
:101AD0000E94E814C0E0D0E08AE096E160E00E9455
:101AE0004014CE0160E177E20E94081ACB016AE05F
:101AF00070E00E94081A805D60E00E94E013CE0151
:101B000068EE73E00E94081ACB016AE070E00E9460
:101B1000081A805D60E00E94E0138FEF95E160E0BD
:101B20000E944014219683ECC035D807A9F6DF91B6
:101B3000CF9108951F93CF93DF9387E00E94E8141D
:101B40000E94651488E297E161E00E944014C0E4BD
:101B5000DCE9CE010197F1F70E94CB13182F8823FF
:101B6000C1F38B3179F084E197E161E00E94401488
:101B7000812F60E00E94E01384E690E060E00E9424
:101B80005414E7CFDF91CF911F910895BF92CF9268
:101B9000DF92EF92FF920F931F93CF93DF93D82E94
:101BA000162FC42EB22E802F0E94E8148D2D612F87
:101BB0000E94F4148AED60E00E94E01300E0CC2D56
:101BC000D0E0219605C084EC60E00E94E0130F5F36
:101BD000802F90E0C817D907B4F78FEB60E00E9420
:101BE000E0131F5FE12EFF241FC08D2D6E2D0E947C
:101BF000F41483EB60E00E94E01380E260E00E9456
:101C0000E01300E005C080E260E00E94E0130F5F97
:101C10000C15C8F380E260E00E94E01383EB60E003
:101C20000E94E013F394E394FB14F8F21B0D8D2D46
:101C3000612F0E94F41480EC60E00E94E01300E049
:101C400005C084EC60E00E94E0130F5F802F90E0FD
:101C5000C817D907B4F789ED60E00E94E013DF915F
:101C6000CF911F910F91FF90EF90DF90CF90BF9099
:101C700008950F93CF93DF938AE065E042E22FE06F
:101C800008E00E94C60DC0E4DCE9CE010197F1F73F
:101C90000E94CB138B31C9F7DF91CF910F9108953B
:101CA0000F931F93CF93DF9387E40E94E8140E9461
:101CB00065148FE00E94851482E00E94BC148DEAB6
:101CC00095E161E00E9440140E946D14C0E9D1E0EA
:101CD00085E392E00E942B160E947D148FE20E9401
:101CE000E81484E064E00E94F4148AED60E00E944D
:101CF000E01310E005C084EC60E00E94E0131F5F79
:101D00001432C9F78FEB60E00E94E01384E065E0D5
:101D10000E94F41483EB60E00E94E01380E260E034
:101D20000E94E01384E995E161E00E9440148091F3
:101D30003B0290913C026AE070E00E94081A862FF4
:101D4000805D60E00E94E01380913B0290913C0234
:101D50006AE070E00E94081A805D60E00E94E01373
:101D60008DE260E00E94E01380913702909138028A
:101D70006AE070E00E94081A862F805D60E00E9491
:101D8000E01380913702909138026AE070E00E947F
:101D9000081A805D60E00E94E0138DE260E00E941E
:101DA000E0130091350210913602C80168EE73E02D
:101DB0000E94081A862F805D60E00E94E013C8012F
:101DC00068EE73E00E94081A182F092F64E670E08D
:101DD0000E94081A862F805D60E00E94E013812F28
:101DE000902F64E670E00E94081A182F092F6AE00D
:101DF00070E00E94081A862F805D60E00E94E01368
:101E0000812F902F6AE070E00E94081A805D60E0E8
:101E10000E94E01380E260E00E94E01383EB60E048
:101E20000E94E01384E066E00E94F41483EB60E01B
:101E30000E94E01380E260E00E94E01389E795E1F0
:101E400061E00E94401480913D0290913E026AE060
:101E500070E00E94081A862F805D60E00E94E01307
:101E600080913D0290913E026AE070E00E94081A63
:101E7000805D60E00E94E0138AE360E00E94E0136E
:101E800080913F02909140026AE070E00E94081A3F
:101E9000862F805D60E00E94E01380913F02909168
:101EA00040026AE070E00E94081A805D60E00E94D3
:101EB000E0138AE360E00E94E01380914102909178
:101EC00042026AE070E00E94081A862F805D60E09E
:101ED0000E94E01380914102909142026AE070E01A
:101EE0000E94081A805D60E00E94E01380E260E0DA
:101EF0000E94E01383EB60E00E94E01384E067E05F
:101F00000E94F41480EC60E00E94E01310E005C031
:101F100084EC60E00E94E0131F5F1432C9F789ED82
:101F200060E00E94E0130E94CB138B3141F080E10E
:101F300097E2FE013197F1F70197D9F7C9CEDF910A
:101F4000CF911F910F9108950F93CF93DF938AE064
:101F50006AE048E229E00FE10E94C60D8CE06CE0E7
:101F60000E94F4148DEE95E161E00E9440148CE033
:101F70006EE00E94F4148FE00E94E81400E080E21A
:101F800060E00E94E0130F5F0832C9F78CE06EE05A
:101F90000E94F4148FEC91E00E94F513EC018CE0A8
:101FA00060E10E94F4148FE10E94E8148881882384
:101FB00031F481ED95E161E00E9440140DC082EEA4
:101FC00095E161E00E9440148CE061E10E94F4140C
:101FD000CE0160E00E9454140E947D1487E163E109
:101FE0000E94F4148FE10E94E8148AEB95E161E00D
:101FF0000E944014C0E4DCE9CE010197F1F70E9491
:10200000CB138B31C9F7DF91CF910F91089587E002
:102010000E94E8140E94651481E069E10E94F414B2
:102020008BEE96E161E00E9440148BE492E060E068
:102030000E94541484E690E060E00E94541485ED00
:1020400096E161E00E94401482E097E161E00E9425
:10205000401483EA96E161E00E94401482E00E940D
:10206000E81486E996E160E00E94401487E00E944F
:10207000E8148FEC91E00E94F513FC018081882325
:1020800031F484E690E060E00E945414E7CF883693
:1020900039F58181882349F58FE00E94E8148FE7A4
:1020A00096E161E00E94401489E00E94E81488E60D
:1020B00060E00E94E0138FE00E94E81482E696E15F
:1020C00061E00E94401489E00E94E81481E760E02A
:1020D0000E94E0138FE00E94E8148FE496E1BBCFEA
:1020E000813719F481818823B1F08FE00E94E814D0
:1020F00089E296E161E00E94401489E00E94E814C0
:1021000087E690E060E00E9454148FE00E94E8149B
:1021100083E196E1A0CF08950F931F93CF93DF93B0
:10212000182F092F87E40E94E8140E9465148FE09D
:102130000E94851482E00E94BC1489E397E161E06B
:102140000E9440140E946D140E947D148AE790E062
:102150000E94F10C212F302FC9018C01C0E4DCE971
:10216000C8010E94640CCE010197F1F70E94CB13C5
:102170008823C9F3813429F0823449F08B3181F707
:1021800009C00031110560F300511040E9CF005F34
:102190001F4FE6CF0E947514DF91CF911F910F91D1
:1021A00008952F923F924F925F926F927F928F92FB
:1021B0009F92AF92BF92CF92DF92EF92FF920F93D6
:1021C0001F93DF93CF9300D000D00F92CDB7DEB72F
:1021D000A82E69832A01022F0150BB244AE00BC0BC
:1021E0009F5FF901E90FF11D80818823C9F7491725
:1021F00008F4492FB3946B2C7724F301EE0FFF1FE3
:10220000E40DF51D208131812115310511F090E09B
:10221000E8CF22E0222E240EB01620F400E002C007
:1022200000E00DC0822C99240894811C911C3980F7
:102230003394232D2B0D2A833B2D31503B830E9459
:102240007D148FE20E94E8148A2D69810E94F414A3
:102250008AED60E00E94E01310E005C084EC60E0CD
:102260000E94E0131F5F812F90E088169906B4F753
:102270008FEB60E00E94E0137201C32CDD2444C0A8
:102280008A2D6C2D0E94F41483EB60E00E94E01311
:1022900080E260E00E94E013D01619F48BE00E9407
:1022A000E81410E01D821C821CC08C819D81009767
:1022B00049F0FC018081882329F03196FD83EC836D
:1022C00061E002C080E260E00E94E0132C813D8169
:1022D000232B31F4F7010190F081E02DFD83EC8395
:1022E0001F5F121510F38FE20E94E81480E260E095
:1022F0000E94E01383EB60E00E94E013D39422E09D
:1023000030E0E20EF31EC394DB1408F4B9CF8A2D3B
:102310006A810E94F41480EC60E00E94E01310E0F7
:1023200005C084EC60E00E94E0131F5F812F90E005
:1023300088169906B4F789ED60E00E94E01380E406
:102340009CE90197F1F70E94CB138093CE0188237B
:10235000B1F3833341F1843390F48B3191F18C31BB
:1023600038F48A3009F452C08D3009F068CF4EC07D
:10237000813309F455CF823309F061CF12C086331F
:10238000C1F0873330F4843381F0853309F057CFBF
:102390000EC0883391F0883370F0893309F04FCF45
:1023A0000EC001E04CCF02E04ACF03E048CF04E08A
:1023B00046CF05E044CF06E042CF07E040CF08E03B
:1023C0003ECF0E94CB138093CE01882321F40E943C
:1023D000751480E01FC08B3509F031CF0E94CB13FC
:1023E0008093CE01813421F0823409F028CF06C0D9
:1023F000002311F0015023CF0B8121CF802F8F5F5D
:1024000090E0B3010E94081A082F19CF0E9475149A
:10241000802F8F5F0F900F900F900F900F90CF91A4
:10242000DF911F910F91FF90EF90DF90CF90BF90C1
:10243000AF909F908F907F906F905F904F903F9064
:102440002F90089588E06AE04DEA51E020E00E9474
:10245000D110813009F0F6C08CE790E063EA72E0B9
:102460000E943C0C8EE690E066EF72E00E943C0C0D
:1024700088EF90E063EA72E00E943C0C82EE94E008
:1024800020E931E0F9013197F1F70197D9F785EAB1
:1024900090E063EF73E00E943C0C84EC99E020E94B
:1024A00031E0F9013197F1F70197D9F782EE94E025
:1024B00020E931E0F9013197F1F70197D9F783E885
:1024C00090E06DE772E00E943C0C8CE790E063EADC
:1024D00072E00E943C0C83E890E06DE772E00E949D
:1024E0003C0C82EE94E020E931E0F9013197F1F7FC
:1024F0000197D9F78CE790E063EA72E00E943C0C08
:1025000082EE94E020E931E0F9013197F1F701978B
:10251000D9F78CED90E066EF72E00E943C0C82EE01
:1025200094E020E931E0F9013197F1F70197D9F70B
:1025300084EC99E020E931E0F9013197F1F7019756
:10254000D9F783E890E06DE772E00E943C0C8CE7DD
:1025500090E063EA72E00E943C0C86E091E06DE757
:1025600072E00E943C0C82EE94E020E931E0F90137
:102570003197F1F70197D9F785EA90E063EF73E0BF
:102580000E943C0C84EC99E020E931E0F90131979C
:10259000F1F70197D9F782EE94E020E931E0F901F3
:1025A0003197F1F70197D9F78EE690E066EF72E088
:1025B0000E943C0C82E690E062E573E00E943C0CD5
:1025C0008EE690E066EF72E00E943C0C82EE94E0B2
:1025D00020E931E0F9013197F1F70197D9F782E667
:1025E00090E062E573E00E943C0C82EE94E020E90A
:1025F00031E0F9013197F1F70197D9F78CE590E0D7
:1026000065E873E00E943C0C82EE94E020E931E042
:10261000F9013197F1F70197D9F78EE690E066EF6F
:1026200072E00E943C0C82EE94E020E931E0F90176
:102630003197F1F70197D9F784EC90E062E573E008
:102640000E943C0C0895EF92FF920F931F93CF933B
:10265000DF93FF2484E00E94BC140E9465148FE085
:102660000E94851482E00E94BC148FE395E161E032
:102670000E9440148BE492E060E00E9454148BEDC1
:1026800094E160E00E9440140E946D1488E00E9472
:10269000851484E00E94BC1481E068E10E94F41477
:1026A0008FE095E161E00E94401481E069E10E94C1
:1026B000F41482EE94E161E00E9440144BE0E42EB9
:1026C00000E010E08EE26E2D0E94F414C0E0D0E035
:1026D000CE01800F911FE091CA01F091CB01E80F6C
:1026E000F91F8491833209F48BED60E00E94E013BE
:1026F0002196C032D10561F7E394005E1F4F88E157
:10270000E81601F785E065E04DE251E02F2D0E94CB
:10271000D110F82E85E0F81679F18F1590F082E04F
:10272000F81609F18F1528F081E0F81609F092CF1C
:1027300015C083E0F816D1F084E0F81609F08ACFCE
:1027400018C087E0F816F1F0F816C8F088E0F8161F
:10275000E1F089E0F81609F07DCF1AC080E090E042
:102760000E948C1077CF0E949A0D74CF0E94610D49
:1027700071CF0E9422126ECF0E9407106BCF0E9471
:10278000470D68CF0E94A40F65CF0E94500E62CF04
:102790000E94390E5FCFF894909113028091140239
:1027A000981711F480E00AC0E92FF0E0EF70F070A4
:1027B000ED5FFD4F80819F5F9093130278940895A1
:1027C0005D9BFECF662361F0613059F487FF08C03E
:1027D0008F77E091F701F091F801E80FF11D8491F6
:1027E0008CB95E9BFECF58980895EF92FF920F939D
:1027F0001F93CF93DF93EC0100E080E4E82E8CE997
:10280000F82EC7010197F1F70E94CB13182F8823E8
:10281000C1F38A3049F18D3039F18830A1F40023B9
:1028200081F3FE01E00FF11D1082015088E060E0AD
:102830000E94E01380E260E00E94E01388E060E024
:102840000E94E013DECF805B8033D8F21032C8F2F2
:10285000143FB8F6812F60E00E94E013FE01E00F04
:10286000F11D10830F5FCDCFFE01E00FF11D10822F
:10287000CE01DF91CF911F910F91FF90EF900895BE
:10288000FF920F931F93F62EFC0107C08F010F5F7D
:102890001F4F6F2D0E94E013F80184918823B1F738
:1028A0001F910F91FF9008951F93CF93DF93EC0139
:1028B000162F04C02196612F0E94E013888188237F
:1028C000C9F7DF91CF911F9108958091FB019091FD
:1028D000FC0160E00E94401408958091FD019091F8
:1028E000FE0160E00E94401408958091FF019091E4
:1028F000000260E00E9440140895809101029091CE
:10290000020260E00E94401408951F93CF93DF936A
:10291000182F8091F9019091FA0160E00E94401413
:10292000C12FD0E013FF02C081E301C082E360E069
:102930000E94E0138DE660E00E94E0138091F901AF
:102940009091FA0160E00E94401483E360E00E94ED
:10295000E013CE01877090706AE070E00E941C1A4C
:10296000805D60E00E94E0138DE660E00E94E0136D
:10297000DF91CF911F9108951F93182F8091F90136
:102980009091FA0160E00E94401413FF02C085E3B9
:1029900001C086E360E00E94E0138DE660E00E94E3
:1029A000E0138091F9019091FA0160E00E944014D7
:1029B00084E360E00E94E0131770812F805D60E087
:1029C0000E94E0138DE660E00E94E0131F910895DD
:1029D0001F93182F8F700E948514812F82958F70FE
:1029E0000E94BC141F9108950F931F93082F162F58
:1029F0008823B9F16623A9F1813598F56A3188F504
:102A00008091F9019091FA0160E00E944014812FB9
:102A10006AE00E94FC19805D60E00E94E013812F53
:102A20006AE00E94FC19892F805D60E00E94E0133B
:102A30008BE360E00E94E013802F6AE00E94FC19A3
:102A4000805D60E00E94E013802F6AE00E94FC1924
:102A5000892F805D60E00E94E01386E660E00E94BE
:102A6000E0131F910F91089587E597E19093F80186
:102A70008093F70187ED97E19093FA018093F90134
:102A80008AED97E19093FC018093FB018FED97E134
:102A90009093FE018093FD0183EE97E190930002F5
:102AA0008093FF0189EE97E19093020280930102E7
:102AB00008959C01462F633020F160E971E00E9487
:102AC000081A892B29F0C90183709070892BC9F4E9
:102AD000C90164E670E00E94081A892B91F0842FE6
:102AE00090E00197880F991FE0911502F09116026E
:102AF000E80FF91F2491822F3196E4919E2F0196C1
:102B000010C0842F90E00197880F991FE091150263
:102B1000F0911602E80FF91F2491822F3196E4916B
:102B20009E2F40E050E0BC01CA0108956F927F9251
:102B30008F929F92AF92BF92CF92DF92EF92FF92CD
:102B40000F931F935C01CC24DD245EE4652E58EFC7
:102B5000752E5FEF852E5FEF952E6A0C7B1C8C1C0B
:102B60009D1C840173010894E11CF11C011D111DC1
:102B700042E016950795F794E7944A95D1F783E9D3
:102B800098EFAFEFBFEFA80EB91ECA1EDB1EC6013D
:102B9000B50124E630E040E050E00E942F1AE20E3A
:102BA000F31E041F151FC401B3012DE631E040E000
:102BB00050E00E94DD19E60EF71E081F191F8CE277
:102BC00091E0A0E0B0E0A80EB91ECA1EDB1EC6014F
:102BD000B50120E931E040E050E00E942F1AE20EFA
:102BE000F31E041F151FB701C8011F910F91FF901D
:102BF000EF90DF90CF90BF90AF909F908F907F909D
:102C00006F9008956091450270914602809147024D
:102C10009091480208956093450270934602809314
:102C200047029093480208956091450270914602D0
:102C300080914702909148020895FC018081918122
:102C4000A281B3818093450290934602A0934702EC
:102C5000B09348020895BF92CF92DF92EF92FF9215
:102C60000F931F93CF93DF93EC0160914502709116
:102C70004602809147029091480220E831E541E008
:102C800050E00E942F1A79018A01E0922102F0920D
:102C900022020093230210932402C801B7016D5F42
:102CA0007F4F8F4F9F4F27E030E040E050E00E9481
:102CB0002F1A60931C02C801B7012DE631E040E0F5
:102CC00050E00E942F1ADA01C9018E54984F909358
:102CD0001E0280931D020E94961560932902709334
:102CE0002A0280932B0290932C0220912102309192
:102CF00022024091230250912402261737074807E9
:102D0000590780F48FEF9FEF90931E0280931D026E
:102D10000E9496156093290270932A0280932B02D9
:102D200090932C02609121027091220280912302E3
:102D3000909124026F5F7F4F8F4F9F4F2091290208
:102D400030912A0240912B0250912C02621B730B8E
:102D5000840B950B609325027093260280932702C3
:102D6000909328022DE130E040E050E00E942F1ABD
:102D70002F5F3F4F4F4F5F4F2D30310541055105BC
:102D800020F02CE030E040E050E0209317028091EA
:102D90001D0290911E02622F0E94591560932D0210
:102DA00070932E0280932F0290933002209125027F
:102DB0003091260240912702509128026217730732
:102DC0008407950790F08FEF8093170280911D0282
:102DD00090911E026FEF0E94591560932D0270931F
:102DE0002E0280932F0290933002D0902502809182
:102DF0002D02D81AD09218021092200210921F02AF
:102E0000609145027091460280914702909148027C
:102E100020E831E541E050E00E942F1A162F072FDD
:102E2000F82EE92E2CE330E040E050E00E942F1A0B
:102E3000B62E60931B02612F702F8F2D9E2D2CE3D9
:102E400030E040E050E00E942F1A122F032FF42EA2
:102E5000E52E209331023093320240933302509397
:102E60003402622F732F842F952F2CE330E040E043
:102E700050E00E942F1AC62E60931A02612F702F05
:102E80008F2D9E2D2CE330E040E050E00E942F1A61
:102E90002093190280911D0290911E0299838883CC
:102EA000809117028A831B8280911C028C831D8271
:102EB000DE821F8228871986CA861B86BC861D86ED
:102EC0001F861E86DF91CF911F910F91FF90EF908B
:102ED000DF90CF90BF90089585E392E00E942B167B
:102EE00080913902089585E392E00E942B1680912B
:102EF000430290E0089585E392E00E942B168091B2
:102F00004102089585E392E00E942B1680913F02D2
:102F1000089585E392E00E942B1680913D0208956A
:102F200085E392E00E942B1680913B02089585E391
:102F300092E00E942B1680913702089585E392E07B
:102F40000E942B1680913502909136020895CF92FF
:102F5000DF92EF92FF920F931F938C01FC0180810F
:102F600091810E9496156B017C01F801808191810D
:102F700062810E9459159B01AC01F801668177813D
:102F800080E090E061507040804090406C0D7D1D6D
:102F90008E1D9F1D620F731F841F951F20E831E552
:102FA00041E050E00E94DD196B017C01F801608571
:102FB000718580E090E02CE330E040E050E00E943A
:102FC000DD199B01AC01F8016285738580E090E01A
:102FD000620F731F841F951F2CE330E040E050E028
:102FE0000E94DD19F8012485358540E050E0620F2C
:102FF000731F841F951F6C0D7D1D8E1D9F1D60937B
:1030000045027093460280934702909348021F91B5
:103010000F91FF90EF90DF90CF9008958FEE97E1A2
:10302000909316028093150208951F920F920FB687
:103030000F9211242F933F934F935F936F937F933E
:103040008F939F93AF93BF93EF93FF938CB10E94A5
:103050004219FF91EF91BF91AF919F918F917F9115
:103060006F915F914F913F912F910F900FBE0F90F5
:103070001F9018951F920F920FB60F9211242F9345
:103080003F934F935F936F937F938F939F93AF93F0
:10309000BF93EF93FF930E945F19FF91EF91BF9150
:1030A000AF919F918F917F916F915F914F913F91E0
:1030B0002F910F900FBE0F901F901895AF92BF9257
:1030C000CF92DF92EF92FF920F931F93DF93CF93F4
:1030D00000D000D00F92CDB7DEB77B018C011695E2
:1030E0000795F794E794A80197015695479537956A
:1030F00027952E0D3F1D401F511F79018A0174E055
:1031000016950795F794E7947A95D1F7E20EF31E9A
:10311000041F151FAF2CB02EC12EDD24AE0CBF1C1A
:10312000C01ED11E9601442755272A0D3B1D4C1D5C
:103130005D1D79018A0183E016950795F794E79460
:103140008A95D1F7287F621B8E2D880F681B6A3005
:1031500030F06A500894E11CF11C011D111DE98238
:10316000FA820B831C832E2D3A814B815C8170E0A7
:1031700080E090E00F900F900F900F900F90CF9104
:10318000DF911F910F91FF90EF90DF90CF90BF9054
:10319000AF900895CF92DF92EF92FF920F931F931B
:1031A000DF93CF93CDB7DEB72A970FB6F894DEBF83
:1031B0000FBECDBFFA018A01065F1F4F12866E0156
:1031C0000894C11CD11CA6E0EA2EF12CEC0EFD1EC9
:1031D0000E945E182E833F83488759876A87D601ED
:1031E000F70185E001900D928150E1F78D81805DBE
:1031F000F80182938F0169817A818B819C816115AD
:1032000071058105910521F7CF012A960FB6F89433
:10321000DEBF0FBECDBFCF91DF911F910F91FF9009
:10322000EF90DF90CF90089580B78B7F80BF1ABA60
:1032300017BA14BA82E881BB1BBA18BA15BA91E062
:1032400092BB83E083BF85E082BF1CBE80E28BB966
:103250001AB880E189B910BC88E98AB986E880BDCE
:1032600085B78F7085BF85B785BF99BF08950895CD
:103270000895089508950895089508950895089566
:1032800008950895382F20911402E22FF0E08091E4
:103290001302AF01481B51094031510541F0EF7055
:1032A000F070ED5FFD4F30832F5F2093140208957F
:1032B000089508950895089508950895089585E05E
:1032C00082BF8091490290914A02019690934A02EE
:1032D00080934902885E934061F40E9402166F5FFA
:1032E0007F4F8F4F9F4F0E940B1610924A021092F1
:1032F00049020895CF92DF92EF92FF920F931F93AE
:103300001BE5C12E12E0D12E60E070E080E090E07D
:10331000A6010E94CA18BC010BE412E0C8010E9479
:10332000571AB8ECEB2EB1E0FB2EC801B7010E9492
:10333000571A60E070E080E090E0A6010E94CA1891
:10334000BC01C8010E94571AC801B7010E94571A50
:1033500060E070E080E090E0A6010E94CA18BC0125
:10336000C8010E94571AC801B7010E94571A68E0A5
:1033700070E080E090E0A6010E94CA18BC01C8017C
:103380000E94571A78940E94231360E070E080E056
:1033900090E01F910F91FF90EF90DF90CF900895F4
:1033A0000E94141960E070E080E090E00E940B162B
:1033B0000E947A1980E090E00895629FD001739F87
:1033C000F001829FE00DF11D649FE00DF11D929FC1
:1033D000F00D839FF00D749FF00D659FF00D992700
:1033E000729FB00DE11DF91F639FB00DE11DF91F24
:1033F000BD01CF0111240895991B79E004C0991FE4
:10340000961708F0961B881F7A95C9F7809508953E
:10341000AA1BBB1B51E107C0AA1FBB1FA617B707FA
:1034200010F0A61BB70B881F991F5A95A9F7809516
:103430009095BC01CD01089597FB092E07260AD06F
:1034400077FD04D0E5DF06D000201AF47095619571
:103450007F4F0895F6F7909581959F4F0895A1E2CB
:103460001A2EAA1BBB1BFD010DC0AA1FBB1FEE1FFE
:10347000FF1FA217B307E407F50720F0A21BB30B49
:10348000E40BF50B661F771F881F991F1A9469F7C5
:1034900060957095809590959B01AC01BD01CF0121
:1034A0000895EE0FFF1F0590F491E02D0994FB01A4
:1034B000DC010D900020E9F7119701900D9200209A
:0834C000E1F70895F894FFCF35
:1034C8003A2020000D0A00680048656C70004479B5
:1034D8006E4D656D0051756974006900000000004B
:1034E80000006E0000000000000000007500312E92
:1034F80020CFF0EEF1ECEEF2F020EFE0ECFFF2E896
:1035080000322E20CEF2EBE0E4EAE020E220EAEE00
:10351800EDF1EEEBE800332E20D2E5F1F220F1EAEE
:10352800EEF0EEF1F2E800342E20C2EBEEE6E5ED27
:10353800EDFBE520ECE5EDFE00352E20C8EDF2E5CB
:10354800F0EFF0E5F2E0F2EEF000362E20CFF1E5F4
:10355800E2E4EEE3F0E0F4E8EAE000372E20CEEA19
:10356800EDEE20E2E2EEE4E000382E20C4E0F2E0E6
:1035780020E820E2F0E5ECFF00392E20D2E0E1EB74
:10358800E8F6E020F1E8ECE2EEEBEEE2008E00A1D6
:1035980000B600C700D900EA00FB000901190100C4
:1035A800005B4575726F70655D202D2046696E6100
:1035B8006C20436F756E74646F776E005B436F7237
:1035C8006F6E615D202D20527974686D206F6620C2
:1035D800546865204E69676874005B4A65616E20AF
:1035E8004D696368656C204A617272655D202D20A3
:1035F8004F787967656E65203130005B5469746176
:103608006E69635D202D205468656D650041015C1D
:10361800017A019B010000303132333435363738B6
:0A36280039414243444546002E009C
:00000001FF
