:020000020000FC
:100000000C94960A189518951895189518951895A2
:1000100018951895189518950C946E0A18951895BA
:10002000189518950C942C01189518950C94220A83
:100030000C94FC09189518950C944F011895189577
:100040001895189518951895189518951895189548
:1000500018951895AABBCC00C1814001C080410110
:10006000C0804100C1814001C0804100C181400089
:10007000C1814001C0804101C0804100C181400078
:10008000C1814001C0804100C1814001C080410167
:10009000C0804100C1814001C0804100C181400059
:1000A000C1814001C0804100C1814001C080410147
:1000B000C0804100C1814000C1814001C080410138
:1000C000C0804100C1814001C0804100C181400029
:1000D000C1814001C0804101C0804100C181400018
:1000E000C1814001C0804100C1814001C080410107
:1000F000C0804100C1814000C1814001C0804101F8
:10010000C0804100C1814001C0804100C1814000E8
:10011000C1814001C0804100C1814001C0804101D6
:10012000C0804100C1814001C0804100C1814000C8
:10013000C1814001C0804101C0804100C1814000B7
:10014000C1814001C0804100C1814001C0804101A6
:10015000C0804100C1814000C0C101C30302C2C6CA
:100160000607C705C5C404CC0C0DCD0FCFCE0E0AB3
:10017000CACB0BC90908C8D81819D91BDBDA1A1E53
:10018000DEDF1FDD1D1CDC14D4D515D71716D6D223
:100190001213D311D1D010F03031F133F3F23236E3
:1001A000F6F737F53534F43CFCFD3DFF3F3EFEFAF3
:1001B0003A3BFB39F9F83828E8E929EB2B2AEAEE33
:1001C0002E2FEF2DEDEC2CE42425E527E7E6262263
:1001D000E2E323E12120E0A06061A163A3A26266C3
:1001E000A6A767A56564A46CACAD6DAF6F6EAEAA33
:1001F0006A6BAB69A9A86878B8B979BB7B7ABABED3
:100200007E7FBF7DBDBC7CB47475B577B7B67672A2
:10021000B2B373B17170B0509091519353529296A2
:10022000565797559594549C5C5D9D5F9F9E5E5A72
:100230009A9B5B99595898884849894B8B8A4A4EB2
:100240008E8F4F8D4D4C8C448485458747468682E2
:07025000424383418180401D
:100258008A93FA93EA933A922A921A920A927A9392
:100268006A935A934A933A932A931A930A938FB7A5
:100278000E94E3018FBF0991199129913991499100
:100288005991699179910990199029903990E9913A
:10029800F991899118958A93FA93EA933A922A9256
:1002A8001A920A927A936A935A934A933A932A93A0
:1002B8001A930A938FB704B115B10E945602DACF88
:1002C80000E010E020E030E008950FE210E020E0C8
:1002D80030E008950D01F80100E0283E13E03107F1
:1002E80028F1B901640F751F6D3E7340F8F46091F1
:1002F800A8007091A900261B370B142F152BB9F0F5
:10030800B901660F771FDB01A551BF4F11966C919C
:100318006193B901660F771FDB01A551BF4F6D913E
:1003280061932F5F3F4F41505040E7CF01E0D0012C
:10033800089501E00895FDCFFCCF2397E4E5F0E0B0
:10034800059115912491088319832A8330E040E8A8
:1003580055E260E070E020E01AE000E00E947E02D2
:1003680043E050E09E0111E004E30E940D087894F8
:100378000E9411030E9469010093EF001093F0009E
:100388000E9464010093F1001093F2000E9421037F
:100398000091E7001091E8000093EB001093EC0047
:1003A8000091E9001091EA000093ED001093EE002F
:1003B800EDCF0E9468020E9461020C945702EDED95
:1003C800F0E0008111810F5F1F4F00831183EFED73
:1003D800F0E0008111810F5F1F4F00831183E1EE70
:1003E800F0E0008111810F5F1F4F00831183E3EE5E
:1003F800F0E0008111810F5F1F4F00831183E5EE4C
:10040800F0E0008111810F5F1F4F0083118301EC21
:1004180002BF0091DD001091DE000A3020E010409C
:1004280021F42093DD002093DE000091DF0010917D
:10043800E0000436104021F42093DF002093E00010
:100448000091E1001091E200043F114021F4209353
:10045800E1002093E2000091E3001091E400083EDF
:10046800134061F42093E3002093E400E7EEF0E00A
:10047800008111810F5F1F4F008311830091E500F8
:100488001091E6000838134161F42093E5002093A9
:10049800E600E9EEF0E0008111810F5F1F4F008355
:1004A80011830895089505B70F7005BF05B705BFF7
:1004B80000E00BBF01E009BF089503E003BF01ECB2
:1004C80002BF00E00CBF089500B70B7F00BF00E03B
:1004D8000ABB07BB04BB02E001BB00E00BBB08BBC7
:1004E80005BB02BB08950E94DD010E94A10100E046
:1004F80010E008959A938A93802F022E232F1123B8
:1005080021F0012F0A95073F10F092E07FC0109369
:10051800F300082F882319F00A95B1F1F6CF0EE7FA
:1005280018E00093F7001093F8000AE818E0009329
:10053800F9001093FA0002EC18E00093F50010930C
:10054800F60002E918E00093FB001093FC0000E0BD
:100558000093FD000093FE0005E119E00093FF0001
:10056800109300010CE519E00093010110930201BA
:1005780004E919E00093030110930401102D009180
:10058800F3000E94510834C006EE13E00093F70010
:100598001093F80001EF13E00093F9001093FA00AC
:1005A80001E314E00093F5001093F6000AEF13E05E
:1005B8000093FB001093FC0000E00093FD00009303
:1005C800FE0004E714E00093FF001093000101E02F
:1005D80015E0009301011093020107E715E000936D
:1005E800030110930401102D0091F3000E94D10320
:1005F800902F992359F40E94B809002311F493E02D
:1006080005C08093F40001E00093AA00092F8991A6
:1006180099910895082F899108958A9380E000910F
:10062800AA00013041F4E091F700F091F800099533
:100638008093AA0001C086E0EDCF9A938A93219710
:100648000091AA00002311F006E0A5C08E010E94C7
:10065800C309013009F09EC008810A9519F00A956E
:10066800E1F098C049E051E025E031E007E011E011
:10067800E091FB00F091FC000995002309F08AC085
:10068800009107011091F300011719F0002309F0F8
:1006980081C002E00E94BD097DC0E0910501F09192
:1006A800060100810093080101E000930B0180E03E
:1006B80090E003E010E0AC010E94AA0AF801E555B9
:1006C800FF4F0081002339F103E010E00E94AA0ADD
:1006D800F801E555FF4F0081109108010117B1F4A9
:1006E80029E031E0609105017091060143E050E096
:1006F8008C010E94AA0AF801E555FF4F0181F28199
:10070800E02F8B01099500930B0105C001968031FC
:1007180000E0900774F2009107010023D9F10091DD
:100728000B01002341F100E00093090100930A0145
:10073800009108010068E0910501F091060100832D
:10074800E9E0F1E0008111810F5F1F4F0083118301
:1007580000910B0120910901E0910501F09106013A
:10076800E20FF11F0083E9E0F1E0008111810F5FE2
:100778001F4F008311834091090150910A01209174
:100788000501309106010091F300E091F500F09128
:10079800F600099500E021963ACF8A93012F80E070
:1007A800F8941AE01093150117E00E94E20901304D
:1007B80011F083E006C000E21EE40E94370A01300F
:1007C800C1F78DC1F89410E001E00E94D20900E061
:1007D80000930D0178940C94BD09F89410E000E0A2
:1007E8000E94D2090E94640A789408950E94050B19
:1007F8002801C901DA016624F894E0910E01F0910C
:100808000F01339718F120910E0130910F010091DB
:10081800DB001091DC008ED10023C1F4E091DB00F5
:10082800F091DC000081F2010083E0910E01F0916B
:100838000F013297ED93FC930091DB001091DC00DF
:100848000F5F1F4FFC010083118302C005E0602E7B
:100858007894062DE7E00C940F0B8A9380E0F894C7
:1008680010910D011123D1F5215030402093110131
:100878003093120121E02093130180931401E09139
:100888001101F09112010083E3E1F1E0008111818F
:10089800040F151F00831183209113013091140157
:1008A800009111011091120145D12091130130914D
:1008B8001401F9013196E0931301F0931401E091CA
:1008C800DB00F091DC00E20FF31F008301E00093EE
:1008D8000C0111E000E00E94D20901C085E0FFC0D0
:1008E8008A93219780E08E010E94F80900910D01FA
:1008F800002309F471C00A9521F00A9509F44DC046
:1009080079C00E944E0A08810A3339F48093100195
:1009180080930E0180930F016DC00D3011F402E039
:1009280067C0EED010911001112319F01A95E9F063
:1009380061C020910E0130910F0111E0313080F437
:100948000295007F20910E0130910F01E091DB00AC
:10095800F091DC00E20FF31F0083109310014AC0EE
:1009680080930D010E94640A45C020910E013091C8
:100978000F01E091DB00F091DC00E20FF31F108122
:10098800102B1083EEE0F1E0008111810F5F1F4F03
:1009980000831183809310012DC0088110911501E7
:1009A800011749F40E94640A80930D0101E00E9436
:1009B800BD09802F1FC00A3361F480931001809312
:1009C8000E0180930F0101E000930D010E944E0A71
:1009D80011C080930D010EC008810A3359F40E949A
:1009E8004E0A80930E0180930F018093100101E05D
:1009F80000930D01082F219674C08A9380E000911E
:100A08000C01002309F466C00A9549F00A9581F0A3
:100A18000A9509F44BC00A9509F44EC05FC00AE371
:100A28000E94F60902E000930C018093100156C061
:100A38000091130110911401012B89F1009110010B
:100A4800002319F00A9579F049C0E0911101F0915D
:100A58001201008102950F7061D00E94F60901E031
:100A6800009310013BC0E0911101F0911201008147
:100A78000F7054D00E94F609E1E1F1E00081118184
:100A88000F5F1F4F0083118380931001E3E1F1E0B2
:100A98000081118101501040008311831FC00DE0B7
:100AA8000E94F60903E000930C0118C0009115019B
:100AB8000E94F60904E0F7CF80930C0103E00E943E
:100AC800BD09802F10E001E00E94D20900E00093E8
:100AD8000C0104C010E001E00E94D20901C0789422
:100AE800082F8991089500910D010A9511F00A9532
:100AF80019F400E000930D010E94640A00E00895D3
:100B0800102F10531A3010F400530895102F115459
:100B1800163010F4075308950FEF08950A3010F4B3
:100B2800005D0895102F1A50163010F4095C0895CE
:100B380000E3089560E004C0F80141918F01640F5B
:100B4800A90121503040452BB9F76195062F08952A
:100B5800282E6FEF8FEF11C0082EF80141918F01F9
:100B68000426E02DF0E0E95AFF4F44916427862FD0
:100B7800E02DF0E0E95AFE4F6491A9012150304080
:100B8800452B51F7162F082F822D08950E94070B29
:100B9800D90180E02D913C9111972530304009F022
:100BA80040C0F801318122812F5F3F4F138044817B
:100BB800042E4129B1F140ED041647E0140688F5EA
:100BC8008D938C93119701E001930D911C910F5F08
:100BD8001F4F1C930E93002D077043E0800129F0EE
:100BE8000E94B20A402E439403C00E94B20A402ECB
:100BF80041920D911C910F5F1F4F1C930E9360E063
:100C0800A0018F010E949F01002321F00E94A909E1
:100C1800802F08C00D911C91040D181F1C930E9372
:100C280001C083E0082FE5E00C94110B0E94080B2B
:100C38002297F80180E0D9010D911C9105301040F0
:100C480001F5318122812F5F3F4F04810023C9F4D0
:100C580003810F3F11F00023A1F4898303810F3F23
:100C680019F401E0088301C0888361E041E050E0A5
:100C78008E010E949F01002329F00E94A909802F5C
:100C880001C083E0082F2296E4E00C94120B0E9426
:100C9800080B0801D90180E0ED91FC911197369776
:100CA80078F1F801318122812F5F3F4F3380048131
:100CB800202E5581077043E0810121F00E94B20A7D
:100CC800039502C00E94B20A122D1329C9F011EB34
:100CD800211617E03106A0F4051791F461E0A1018F
:100CE80006E0000D181E112D0E949F01002321F01F
:100CF8000E94A909802F05C005E00D938C9301C0BF
:100D080083E0082FC1CF0E94070BD90180E02D9105
:100D18003C91119725303040F1F5F801318122815D
:100D28002F5F3F4F73814481642F472BA1F1603DB2
:100D380047E0740780F58D938C93119702E0019337
:100D48000D911C910F5F1F4F1C930E93062F077078
:100D580043E08B0129F00E94B20A402E439403C05D
:100D68000E94B20A402E41920D911C910F5F1F4FB5
:100D78001C930E93AB018F010E94A001002321F068
:100D88000E94A909802F08C00D911C91040D181FFD
:100D98001C930E9301C083E0082FE5E00C94110B1F
:100DA8008A9380E0F901208131812530304091F427
:100DB80061E041E050E0F801318122812F5F3F4F2F
:100DC8000D5F1F4F0E949D01002329F00E94A90971
:100DD800802F01C083E0082F899108950E94080B95
:100DE800D90180E0ED91FC911197369708F1F8014F
:100DF800318122812F5F3F4F538144816581742F58
:100E0800752BB1F04937580798F4742F770F671787
:100E180079F461E00A5F1F4F0E949D01002321F0D1
:100E28000E94A909802F05C005E00D938C9301C08D
:100E380083E0082FE4E00C94120B0E94070BD90101
:100E480044242D913C9111972530304099F5F801B3
:100E58003181228150E02F5F3F4F848190E0482FFD
:100E6800882341F18E3730F55D935C93119703E049
:100E780001930D911C910F5F1F4F1C930E93082F28
:100E8800000F01930D911C910F5F1F4F1C930E9340
:100E980060E08F010E949D01002319F00E94A909BA
:100EA8000AC0880F991F0D911C91080F191F1C93D8
:100EB8000E9302C003E0402E042DE5E00C94110BC4
:100EC8000E94030B2801D9018824ED91FC91119708
:100ED8003A9708F457C0F8017180628001E0600E0B
:100EE800781C93818481358126812F5F3F4F5781FC
:100EF80040856185082F092B09F442C08E37980573
:100F0800F8F5042F052BE1F14A375805C8F50A0111
:100F1800000C111C0616180499F561E0042D065FF3
:100F28001F4F0E949D01002331F58D928C921197DD
:100F380027E1F20121932D913C912F5F3F4F3C9384
:100F48002E93282F220F21938F012D913C912F5FF3
:100F58003F4F3C932E9360E0AC0193010E949D01AA
:100F6800002349F4880F991F0D911C91080F191F30
:100F78001C930E9307C0002329F00E94A90901C001
:100F880003E0802E082DE9E00C940D0B0E94070B5E
:100F9800D90144242D913C9111972530304099F581
:100FA800F801318122812F5F3F4F93814481842F43
:100FB800492B49F18D37940530F54D924C92119794
:100FC80004E001930D911C910F5F1F4F1C930E932A
:100FD800082F000F01930D911C910F5F1F4F1C9359
:100FE8000E93AC018F010E946E01002319F00E943C
:100FF800A9090AC0880F991F0D911C91080F191F84
:101008001C930E9302C003E0402E042DE5E00C94DF
:10101800110B0E94090BCA01A0E0FA013296B097A1
:10102800F8F40093160102E000933601A09337010B
:10103800112321F00FEF0093170102C0A0931701AD
:10104800042F052B71F008E111E00E941D0BE6E367
:10105800F1E000811181080F191F0083118301C07D
:10106800A4E00A2FE3E00C94130B0E94080BD901AB
:10107800409136015091370126E131E00F5F1F4F53
:101088000E941D0B809136019091370101968D9336
:101098009C9300E0E4E00C94120B0E94070B012FD4
:1010A800CA01DB014424F89418E00E94E2090130E7
:1010B80019F003E0402E19C081300BE49007A40515
:1010C800B40518F003E210E00CC0880F991FAA1F9E
:1010D800BB1FAC01BD0100EA1FE727E130E00E9419
:1010E800E00A0E94370A013021F77894042DE5E0E0
:1010F8000C94110BF89400E00093390110E001E022
:101108000E94D2090E944E0A78940895F89410E03B
:1011180000E00E94D2090E94640AF6CF0E94040BE4
:101128003801D901CA014424F894E0913E02F091B3
:101138003F023497E0F020913E0230913F020AE3EB
:1011480011E00E94AC05012B91F400913A01F301E2
:10115800008300913E0210913F0203501040FC01B1
:10116800008311830BE311E00D931C9302C005E08B
:10117800402E7894042DE8E00C940E0B8A9380E0BE
:10118800F89410913901113009F046C021503040CF
:1011980020933A0230933B0221E020933C02809353
:1011A8003D02E0913A02F0913B020083ECE3F2E069
:1011B80000811181040F151F0083118320913C02C7
:1011C80030913D0200913A0210913B020E94AC0519
:1011D80020913C0230913D02F9013196E0933C02A6
:1011E800F0933D02F901E65CFE4F008320913C023A
:1011F80030913D02F9013196E0933C02F0933D02B3
:10120800F901E65CFE4F108301E00093380111E01C
:1012180000E00E94D20901C085E07894082F8991E6
:1012280008959A938A9321978E010E94F809009154
:101238003901002331F00A9559F00A9509F10A9508
:1012480011F40E944E0A00E021968991999108951F
:1012580000E000933E0200933F0200913E0210918D
:101268003F02C801019680933E0290933F02288175
:10127800F801E65CFE4F208302E000933901E1CFDC
:1012880000913E0210913F02113080F400913E021D
:1012980010913F02C801019680933E0290933F024D
:1012A8002881F801E65CFE4F2083CBCF03E0E5CF31
:1012B8008A9380E000913801002319F00A9531F0F3
:1012C8002EC010E001E00E94D20929C000913C0222
:1012D80010913D02012BC1F0E0913A02F0913B02DE
:1012E80000810E94F609EAE3F2E0008111810F5FB4
:1012F8001F4F00831183ECE3F2E00081118101505C
:101308001040008311830BC003E00E94BD09802FA9
:1013180010E001E00E94D20900E0009338017ECF7E
:101328008A9380E000913901002319F0025019F0E6
:1013380006C000E001C001E00E94BD09802F0E94A4
:10134800640A01E00093390169CF002329F00A9566
:1013580029F0065029F006C000E0089502E008953B
:1013680006E0089504E0089500E00093410201E0DA
:10137800089511E01093410200934002F8CF20E055
:1013880030914102332341F020914002F80120833B
:1013980000E00093410221E0022F0895539A0023B0
:1013A8000AB111F0006901C00F760AB9112321F0C2
:1013B8000AB108620AB90895559808958A019B01EF
:1013C80044E00E94D80AA801B90100E019E02DE321
:1013D80030E00E94E00A0A9509B910E000E0DEDF7B
:1013E80001E008950CB9FCCF2CB1F8012083F8CFA7
:1013F8008A93FA93EA933A922A921A920A927A93E1
:101408006A935A934A933A932A931A930A938FB7F3
:10141800E0910101F091020109958FBF099119919D
:101428002991399149915991699179910990199026
:1014380029903990E991F991899118958A93FA93AD
:10144800EA933A922A921A920A927A936A935A9350
:101458004A933A932A931A930A938FB7E091FF001D
:10146800F0910001D9CF20E030E042E45FE060E095
:1014780070E00E94B80A40E25EE40E94E00A00932D
:1014880042021093430200E00FBD0EBD0FBD18D0FD
:1014980001E0089500E00DBD0CBD009142021091DD
:1014A8004302012B49F009B7006109BF00914202CC
:1014B800109143021BBD0ABD0EB505600EBD08950F
:1014C8000EB50A7F0EBD09B70F7E09BF08B70061C8
:1014D80008BF08958A93FA93EA933A922A921A9245
:1014E8000A927A936A935A934A933A932A931A934D
:1014F8000A938FB7E0910301F091040109958FBF1A
:101508000991199129913991499159916991799143
:101518000990199029903990E991F9918991189534
:101528000C94520B07EA0DBF00E00EBFC0E8D0E0F4
:101538000E941B0B002311F00E94380B0E947702B7
:101548000E94A80A0C94940A0C94940A149F102DD3
:10155800059F100D049F002D110D08954A951AF04E
:1015680016950795FBCF08952224349F302D259F8B
:10157800300D169F300D079F300D249F202D310D03
:10158800159F200D311D069F200D311D149F102D14
:10159800210D321D059F100D211D321D049F002DA8
:1015A800110D221D321D08954A952AF0000F111FB2
:1015B800221F331FF9CF0895002411241001E0E2FF
:1015C800EA9592F0001F111F221F331F001C111CE7
:1015D800221C331C041615062606370688F3041A3F
:1015E800150A260A370AECCF001F111F221F331FC6
:1015F800A001B101009510952095309508958A9223
:101608007A926A925A924A92BA93AA939A938A932E
:10161800089588847F806E805D804C80BB81AA811C
:1016280099818881F0E0EC0FFD1FEF01089501E03A
:101638000895BD01D801F90104C021912D934150AD
:101648005040242F252BC9F7DB01089520E006D050
:10165800E9F70895259102D0E9F708952D930150EF
:101668001040202F212B089586EA96E1FC01059170
:101678001491FC013296A591B491FC013496259100
:101688003491422F432B19F0F901E4DF01C0DEDF6A
:10169800069616E1823B910748F30895FFCF67014C
:1016A800DD0000003500A800B216E8030211390871
:1016B80004CA0703210710F20606D40617640701B7
:1016C800CA05051A060F4B0602870600000000002F
:0F16D800000000000000000000000000003A01C8
:0400000300000000F9
:00000001FF
