:100000000C944B010C9473010C9473010C947301C8
:100010000C949A010C9473010C9473010C94730169
:100020000C9473010C9473010C9473010C9475017E
:100030000C9473010C9473010C9473010C94730170
:100040000C9473010C9473010C9473010C94730160
:100050000C94730120202C20202020202020203CE4
:10006000202020202027272222F92D2D2020203E6D
:1000700020202020FF20206A20207C20F020202229
:1000800020202020F8204969202020FAF123202276
:100090006A537320808182838485868788898A8BCE
:1000A0008C8D8E8F909192939495969798999A9B18
:1000B0009C9D9E9FA0A1A2A3A4A5A6A7A8A9AAAB08
:1000C000ACADAEAFE0E1E2E3E4E5E6E7E8E9EAEBB8
:1000D000ECEDEEEF1B5B001B5B75001B5B73001B05
:1000E0005B3F32356C001B5B3F32356800CFF0EE72
:1000F000F1ECEEF2F020EFE0ECFFF2E83A204545BB
:1001000050524F4D20284350313235312900203292
:10011000207CD3E4E0EBE8F2FC002031207CD1EE3F
:10012000E7E4E0F2FC002030207CCEF7E8F1F2E8D2
:10013000F2FC0020457363207CC2FBF5EEE4000D69
:100140000A0068656C7000636C73006D656D002259
:1001500020EDE520FFE2EBFFE5F2F1FF20E2EDF319
:10016000F2F0E5EDEDE5E920EAEEECE0EDE4EEE9B4
:1001700020E8EBE820E8F1EFEEEBEDFFE5ECEEE94F
:1001800020EFF0EEE3F0E0ECECEEE92E0D0A0020BB
:100190002D20EFF0EEF1ECEEF2F020EFE0ECFFF2CC
:1001A000E82E0D0A00202D20EEF7E8F1F2EAE0201B
:1001B000FDEAF0E0EDE02E0D0A00202D20E2FBE24A
:1001C000EEE420EFEEE4F1EAE0E7EAE82E0D0A00C3
:1001D0000D0AC4EEF1F2F3EFEDFBE520EAEEECE000
:1001E000EDE4FB3A0D0A000D0A5B41546D65676151
:1001F00031365D2420000D0AC0E2F2EEF03A20CC48
:10020000E5E7E5EDF6E5E220C2FFF7E5F1EBE0E238
:100210002028766961636865736C61766D657A65BF
:100220006E7473657640676D61696C2E636F6D29BE
:100230000D0A00C4E0F2E020F1E1EEF0EAE820EF80
:10024000F0EEE5EAF2E03A20002028676E75290D0D
:100250000A00CAEEECE0EDE4EDE0FF20EEE1EEEBAB
:10026000EEF7EAE02C20E2E5F0F1E8FF2000302E86
:10027000312E353032372E3335393730003620EED7
:10028000EAF2FFE1F0FF203230313320E32E0000AC
:10029000C804EE04640611241FBECFE5D4E0DEBF1F
:1002A000CDBF10E0A0E6B0E0E4E3F2E102C00590CB
:1002B0000D92A039B107D9F711E0A0E9B0E001C073
:1002C0001D92A93BB107E1F712E0C6E9D2E004C0F4
:1002D0002297FE010E94E108C039D107C9F70E94A8
:1002E000C6080C9418090C9400001F920F920FB6C8
:1002F0000F9211242F933F934F935F936F937F93AC
:100300008F939F93AF93BF93EF93FF938CB10E9412
:100310002908FF91EF91BF91AF919F918F917F91AC
:100320006F915F914F913F912F910F900FBE0F9062
:100330001F9018951F920F920FB60F9211242F93B2
:100340003F934F935F936F937F938F939F93AF935D
:10035000BF93EF93FF930E945A08FF91EF91BF91D3
:10036000AF919F918F917F916F915F914F913F914D
:100370002F910F900FBE0F901F90189590918001B4
:100380000BC0E92FF0E0E057FF4F8081882319F47C
:100390001092800104C09F5F903F98F39FEF892FD8
:1003A0000895FF920F931F93082F0E94BE01F82E0D
:1003B0008FEFF816D9F0802F90E034E0880F991F66
:1003C0003A95E1F70F966F2D0E940B090F2D10E063
:1003D000C80124E0880F991F2A95E1F762E00E9486
:1003E0000B0900571F4F82E0F80180838F2D1F916A
:1003F0000F91FF900895DF92EF92FF920F931F935A
:10040000CF93DF93EC01F62EE42ED52E0E94BE0191
:1004100088838F3F11F481E034C019821B82FA82F5
:10042000082F10E044E0000F111F4A95E1F7C801C2
:1004300061E00E940B09C80101966F2D0E940B0913
:10044000C801029660E00E940B09C8010F9660E0A7
:100450000E940B09EE2DFD2DDF010D900020E9F724
:100460000D5F1F4FAE1BBF0B8E2D9D2DB801AD0133
:100470000E940109E881F0E0E057FF4F81E08083AE
:1004800080E0DF91CF911F910F91FF90EF90DF906F
:100490000895CF93DF93EC019881809180019817A4
:1004A00010F490938001888190E064E0880F991F98
:1004B0006A95E1F760E00E940B09E881F0E0E057FF
:1004C000FF4F1082888190E054E0880F991F5A9561
:1004D000E1F70F960E94F90888838E3FE9F6DF91D5
:1004E000CF9108957F928F929F92AF92BF92CF92B9
:1004F000DF92EF92FF920F931F93CF93DF937C01D4
:100500004B01D42EC22EFC018181841710F481E0AE
:1005100077C0842F6EE00E94D308082FF701138163
:100520000CC0812F90E0B4E0880F991FBA95E1F7D5
:100530000F960E94F908182F0150002391F71123FC
:10054000E9F5F70180810E94D101182FF70183831B
:1005500035C0FDE0FC1510F00C2D06C08D2D6EE0B1
:100560000E94D308072D091BC12FD0E0A4E0CC0FB7
:10057000DD1FAA95E1F7A02EBB248D2D6EE00E9411
:10058000D308BE01690F711D6F5F7F4FC401A501C4
:100590000E940109D00EC01AF70181818D1530F437
:1005A000CC2049F0812F0E94D10104C0CE010F96CA
:1005B0000E94F908182F8A0C9B1C02C0FEE07F2EB7
:1005C000CC2039F6812F90E0E4E0880F991FEA955E
:1005D000E1F70F966EEF0E940B09F70181818D15EF
:1005E00070F4F701808190E074E0880F991F7A958C
:1005F000E1F702966D2D0E940B09F701D18280E090
:10060000DF91CF911F910F91FF90EF90DF90CF90EE
:10061000BF90AF909F908F907F9008950F931F93FE
:10062000CF93DF938FEF80938001C0E0D0E000E0B4
:1006300010E0C8010E94F908982FFE01E057FF4F13
:100640008083809180018F3F21F4992311F4C0931E
:1006500080012196005F1F4FC03FD10551F7DF9108
:10066000CF911F910F9108955D9BFECF662361F09E
:10067000613059F487FF08C08F77E0918101F091D4
:100680008201E80FF11D84918CB95E9BFECF5898D2
:100690000895EF92FF920F931F93CF93DF93E62E6F
:1006A000EC01FF24042F10E0015010402F2D30E00A
:1006B000FE01E20FF31F8491882319F420173107FC
:1006C00031F484916E2D0E943403F394EFCFDF91C7
:1006D000CF911F910F91FF90EF900895EF92FF92AD
:1006E0000F931F93CF93DF937C01062F10E0C42F4D
:1006F000D0E0219704C0602F0E9434031F5F212F98
:1007000030E0F701E20FF31F80818823A1F72C1757
:100710003D0789F3DF91CF911F910F91FF90EF90EB
:1007200008951F93182F809183019091840160E0B8
:1007300040E00E944903113021F0113020F480E3A1
:1007400003C081E301C082E360E00E9434038AE4D5
:1007500060E00E9434031F9108951F93182F809129
:1007600083019091840160E040E00E9449031130D0
:1007700029F0113038F0123029F402C081E303C0AF
:1007800082E301C080E360E00E9434038BE460E018
:100790000E9434031F9108951F93182F8823E9F0B6
:1007A000809183019091840160E040E00E944903C0
:1007B000812F6AE00E94D308805D60E00E943403CC
:1007C000812F6AE00E94D308892F805D60E00E943B
:1007D000340388E560E00E9434031F91089586EE9B
:1007E00090E060E040E00E94490308958FED90E0C2
:1007F00060E040E00E94490308951F93182F809104
:1008000083019091840113FF06C060E040E00E94E4
:10081000490381E305C060E040E00E94490382E3B0
:1008200060E00E9434038DE660E00E943403809112
:1008300083019091840160E040E00E94490383E3DA
:1008400060E00E9434031770812F805D60E00E9499
:1008500034038DE660E00E9434031F9108951F93D6
:10086000182F809183019091840113FF06C060E0EE
:1008700040E00E94490385E305C060E040E00E943B
:10088000490386E360E00E9434038DE660E00E9445
:100890003403809183019091840160E040E00E94E4
:1008A000490384E360E00E9434031770812F805D68
:1008B00060E00E9434038DE660E00E9434031F91E3
:1008C00008951F93182F809183019091840160E017
:1008D00040E00E9449031F70812F805D60E00E940C
:1008E00034038DE660E00E9434031F9108950F9356
:1008F0001F93182F062F80E00E946104812F0E9411
:10090000FD03802F0E942F041F910F9108950F93D4
:100910001F93082F162F8823C1F16623B1F181356B
:10092000A0F56A3190F5809183019091840160E097
:1009300040E00E944903812F6AE00E94D308805D55
:1009400060E00E943403812F6AE00E94D308892F5F
:10095000805D60E00E9434038BE360E00E9434031A
:10096000802F6AE00E94D308805D60E00E9434031B
:10097000802F6AE00E94D308892F805D60E00E948A
:10098000340386E660E00E9434031F910F910895BE
:1009900084E590E0909382018093810184ED90E062
:1009A00090938401809383010895613039F0613020
:1009B00040F0623049F0633069F409C026E231E06A
:1009C0000BC023E331E008C02AE131E005C02EE08E
:1009D00031E002C020E030E0C90108958DEE90E0E2
:1009E000909398018093970108950F931F93CF934D
:1009F000DF93EC0180E00E94610481E069E10E94E4
:100A0000870400E0CE01602F0E94D504892B09F1F4
:100A100081E067E00E947704CE01602F0E94D50438
:100A2000FC01849111E013C08C3721F480E00E9416
:100A3000FD0303C061E00E943403CE01602F0E94D9
:100A4000D504E12FF0E01F5FE80FF91F84918823A0
:100A500059F70F5F0430B1F680E00E94AD03DF91DB
:100A6000CF911F910F910895FC01808191810E9487
:100A7000F90808957F928F929F92AF92BF92CF9282
:100A8000DF92EF92FF920F931F93DF93CF9300D0EB
:100A900000D0CDB7DEB7EE24FF2422E0D22E4E01E7
:100AA0000894811C911C93E0A92EB12CAC0EBD1EA4
:100AB000CE2C7F2CE982FA8281E06D2D0E94870482
:100AC00083E064E00E94770418E01150812F880FC2
:100AD000880FE981FA8102C0F695E7958A95E2F7D9
:100AE000EF70F070E558FF4F808160E00E943403A2
:100AF000112359F780E690E060E040E00E946E0329
:100B000087E00E94FD0300E0C4010E943405E82F45
:100B1000F0E084E0F595E7958A95E1F7E558FF4F19
:100B2000808160E00E943403C4010E943405E82FF4
:100B3000F0E0EF70F070E558FF4F808160E00E94B8
:100B4000340389819A8101969A83898380E260E0E7
:100B50000E943403073041F48DE260E00E943403C8
:100B600080E260E00E9434030F5F003169F683EB9E
:100B700060E00E94340380E260E00E943403CB8294
:100B80007C82C5010E943405803228F0C5010E9494
:100B9000340561E002C08EE260E00E9434038B8184
:100BA0009C8101969C838B831F5F103151F780E0FD
:100BB0000E94AD0380E190E0E80EF91ED39499E124
:100BC000D91609F075CF0F900F900F900F90CF911D
:100BD000DF911F910F91FF90EF90DF90CF90BF902A
:100BE000AF909F908F907F900895CF93DF938D303B
:100BF000910509F43FC08B31910521F088309105B2
:100C000081F438C00E94000784E690E0A0E0B0E0E4
:100C100080938C0090938D00A0938E00B0938F00F2
:100C200029C08133910581F082339105E9F0C097A5
:100C300009F5C0E0D0E0CE0160E00E940B092196EA
:100C4000C03FD105C1F714C089E991E06FEC44E6DB
:100C500050E00E94FB0189E991E06EE670E040E01F
:100C600028E00E94720204C089E991E00E944902D2
:100C70000E943A05DF91CF9108958FE064E00E94D1
:100C8000770482E00E9491030E94F60387E062E00D
:100C90000E947704809197019091980161E040E073
:100CA0000E94490380E00E94AD0308951092A601BE
:100CB0000E943D060E943A058DE991E00E94F504EC
:100CC00008951092A60108958FE391E090939F01FB
:100CD00080939E0182E491E09093A1018093A00112
:100CE00087E491E09093A3018093A2018BE491E0CB
:100CF0009093A5018093A40108958FE060E00E9485
:100D0000770482E00E94910381E069E10E948704F8
:100D100082E592E061E040E00E9449038EE692E0C5
:100D200060E040E00E94490389E492E060E040E036
:100D30000E94490383E392E061E040E00E9449039E
:100D40008DE792E061E040E00E94490386EF91E088
:100D500061E040E00E94490308959C0180E001C0E9
:100D60008F5F482F50E0F901E40FF51FE081E0327A
:100D7000B9F3E930A9F38823C1F060E006C0FD01B2
:100D8000E40FF51F80818C936F5F862F90E0F9014F
:100D900001900020E9F73197E21BF30BD901A80F6E
:100DA000B91F8E179F0758F31C92D9010D90002090
:100DB000E9F71197A21BB30B9A2F9150492F50E0DE
:100DC000F901E40FF51F80818032B9F38930A9F36E
:100DD00011974A175B0708F4118208958AE00E9470
:100DE000FD0387EE91E060E040E00E9449038FE060
:100DF0000E94FD0380E00E94AD030E94EF0308956E
:100E00001092A6010E947D060E94EE060895CF93DF
:100E1000DF93EB01CB010E94AD068881882311F19D
:100E20006091A0017091A101CE010E94E508892B7B
:100E300011F482E017C06091A2017091A301CE016C
:100E40000E94E508892B11F483E00CC06091A40195
:100E50007091A501CE010E94E508892B11F081E077
:100E600001C084E0DF91CF9108950F931F93DF932A
:100E7000CF9300D0CDB7DEB79A83898388309105B0
:100E800009F492C006EA11E08D30910509F0A5C081
:100E900086EB91E0B8010E9407078230D9F08330D9
:100EA00038F4882309F47BC0813009F07AC063C02C
:100EB000833021F0843009F074C04EC08FE060E0D0
:100EC0000E94770482E00E94910381E069E10E9420
:100ED000870465C087E00E94FD0380ED91E061E03A
:100EE00040E00E94490389E00E94FD038091A00137
:100EF0009091A10160E040E00E94490387E00E94D8
:100F0000FD038AEB91E061E040E00E94490389E043
:100F10000E94FD038091A2019091A30160E040E056
:100F20000E94490387E00E94FD0385EA91E061E0A9
:100F300040E00E94490389E00E94FD038091A401E2
:100F40009091A50160E040E00E94490387E00E9483
:100F5000FD038FE891E01FC00E94560685E690E0F1
:100F6000A0E0B0E080938C0090938D00A0938E0061
:100F7000B0938F0016C087E00E94FD0387E790E0E2
:100F800060E040E00E946E03C80161E040E00E9422
:100F90006E038FE491E061E040E00E9449030E940B
:100FA000EE061092A6012BC0E6EAF1E001900020C7
:100FB000E9F73197E65AF1401E2FEE2301F188E060
:100FC00060E00E94340381E00E94CC031150E12FC5
:100FD000F0E0EA55FE4F108212C0F80101900020A7
:100FE000E9F73197E65AF1403F9748F460E00E94F4
:100FF0003403C801BE016F5F7F4F0E94EE080F905F
:101000000F90CF91DF911F910F9108957894FFCFAA
:1010100080B78B7F80BF1ABA17BA14BA11BA1BBA3D
:1010200018BA15BA12BA84E085BD82E884BD80E2A0
:101030008BB91AB88CE089B910BC88E98AB986E8FE
:1010400080BD85B78F7085BF85B785BF80E489BFB8
:101050000895382F20919601E22FF0E080919501BC
:10106000AF01481B51094031510551F082E984BD5F
:10107000EF70F070EB57FE4F30832F5F2093960197
:10108000089520918C0030918D0040918E005091F8
:101090008F00243631054105510531F025363105E3
:1010A0004105510531F403C00E94350708950E949F
:1010B000F50508958091B7019091B801019690933C
:1010C000B8018093B70122E822BF0A9709F05DC0FA
:1010D0009091950120919601921709F452C0E92F41
:1010E000F0E0EF70F070EB57FE4FE081EB31C1F4B0
:1010F000892F8F5F80939501E82FF0E0EF70F070FB
:10110000EB57FE4FE081821711F0EB3119F48BE1C0
:1011100090E021C0EB35A9F59D5F9093950131C01A
:10112000E83091F4892F8F5F80939501821749F001
:10113000E82FF0E0EF70F070EB57FE4F80818830C1
:1011400001F588E090E007C0ED3041F49F5F909397
:1011500095018DE090E00E94410813C08E2F8A51C6
:10116000853630F08656803318F08054823348F448
:101170008E2F90E00E944108809195018F5F8093AF
:1011800095011092B8011092B70108950E940808C5
:101190000E940E030E9461060E9400070E9406083A
:1011A00080E090E00895991B79E004C0991F96179C
:1011B00008F0961B881F7A95C9F780950895EE0F61
:1011C000FF1F0590F491E02D0994FB01DC018D9146
:1011D000059080190110D9F3990B0895FB01DC01EA
:1011E0000D900020E9F7119701900D920020E1F792
:1011F0000895E199FECF9FBB8EBBE09A99278DB3EE
:101200000895DC01CB0103C02D910E940C094150CF
:101210005040D0F70895262FE199FECF9FBB8EBB9B
:101220002DBB0FB6F894E29AE19A0FBE019608958D
:04123000F894FFCF60
:101234003A202000CDE0F1F2F0EEE9EAE8002D31A9
:1012440032333435362D000D0A2200303132333436
:10125400353637383941424344454600640000007E
:00000001FF
