:100000000C942C030C9454030C9454030C9454033C
:100010000C947B030C9454030C9454030C945403DD
:100020000C9454030C9454030C9454030C945603F2
:100030000C9454030C9454030C9454030C945403E4
:100040000C9454030C9454030C9454030C945403D4
:100050000C94540300001F003B005A0078009700E6
:10006000B500D400F300110130014E0120202C20F6
:10007000202020202020203C202020202027272254
:1000800022F92D2D2020203E20202020FF20206A34
:1000900020207C20F020202220202020F8204969E8
:1000A000202020FAF12320226A537320808182834A
:1000B0008485868788898A8B8C8D8E8F9091929388
:1000C0009495969798999A9B9C9D9E9FA0A1A2A378
:1000D000A4A5A6A7A8A9AAABACADAEAFE0E1E2E3A8
:1000E000E4E5E6E7E8E9EAEBECEDEEEF1B5B001B8D
:1000F0005B75001B5B73001B5B3F32356C001B5B49
:100100003F3235680068656C7000636C730067612E
:100110006D65000D0AC0E2F2EEF03A20CCE5E7E5AD
:10012000EDF6E5E220C2FFF7E5F1EBE0E22028760C
:100130006961636865736C61766D657A656E747309
:10014000657640676D61696C2E636F6D290D0A00DD
:10015000C4E0F2E020F1E1EEF0EAE820EFF0EEE5B5
:10016000EAF2E03A20002028676E75290D0A00CADD
:10017000EEECE0EDE4EDE0FF20EEE1EEEBEEF7EA91
:10018000E02C20E2E5F0F1E8FF2000302E302E30A8
:100190002E333237003420E8FEEBFF20323031338B
:1001A00020E32E000D0A5B41546D65676131365DB9
:1001B0002420002220EDE520FFE2EBFFE5F2F1FF35
:1001C00020E2EDF3F2F0E5EDEDE5E920EAEEECE01A
:1001D000EDE4EEE920E8EBE820E8F1EFEEEBEDFFEF
:1001E000E5ECEEE920EFF0EEE3F0E0ECECEEE92EEA
:1001F0000D0A00202D20E7E0EFF3F1EA20E8E3F01C
:10020000FB20D2E5F2F0E8F12E0D0A00202D20E2CD
:10021000FBE2EEE420EFEEE4F1EAE0E7EAE82E0D9F
:100220000A000D0AC4EEF1F2F3EFEDFBE520EAEE71
:10023000ECE0EDE4FB3A0D0A0020457363207CC23C
:10024000FBF5EEE4002032207CCDEEE2E0FF20E87A
:10025000E3F0E0002030207CCFEEECEEF9FC002053
:1002600020202020202020787878787878787820CE
:10027000202020202020202020202020202020009E
:10028000202020207878202020202020787820200E
:1002900020202020787820202020202078782020FE
:1002A0000020202020202020207878787878787806
:1002B00078202020202020202020202020202020E6
:1002C00020002020787820202020202078782020EE
:1002D00020202020787820202020202078782020BE
:1002E00020200020202078782020202020207878CE
:1002F000202020207878787820202020202020209E
:1003000020202000202078787878787820202020FD
:10031000202078782020202020202020202020202D
:100320002020202000202078787878202020207835
:1003300078202020202020787820202020202020B5
:10034000202020202000202078782020202020201D
:10035000787878787878202020202020202020208D
:10036000202020202020002020207878787820204D
:10037000202020207878202020202020787820201D
:10038000202020202020200020207878787878787D
:1003900020207878202020202020202020202020AD
:1003A00020202020202020200020207878202020BD
:1003B000202020787820202020202078787878202D
:1003C000202020202020202020002020202020204D
:1003D000787820207878787878782020202020205D
:1003E0002020202020202020202000202078787825
:1003F0007820202020787878782020202020202045
:10040000202020202020202020202000202078785C
:1004100078782020202078787878202020202020CC
:100420002020202020202020202020200020207894
:100430007878782020202078787878202020202054
:1004400020202020202020202020202020002020CC
:1004500078787878202020207878787820202020DC
:1004600020202020202020202020202020200020AC
:10047000207878202020202020787878782020206C
:1004800020202078782020202020202020202000DC
:10049000202020207878787820207878787820209C
:1004A000202020202020202020202020202020204C
:1004B000002020787820202020202078787878204C
:1004C000202020202078782020202020202020207C
:1004D000200020202020787878782020787878787C
:1004E000202020202020202020202020202020200C
:1004F000202000202078782020202078787878200C
:10050000202020202078782020202020202020203B
:10051000202020007878787878782020202078783B
:1005200020202020202020202020202020202020CB
:1005300020202020002020787820202020202078D3
:1005400078787820202020787820202020202020F3
:10055000202020202000202078782020202078785B
:10056000787878782020202020202020202020202B
:100570002020202020200020207878202020207893
:1005800078787820202020787820202020202020B3
:10059000202020202020200078787878202020201B
:1005A00020207878787820202020202020202020EB
:1005B00020202020202020200020207878202020AB
:1005C000207878787820202020787820202020201B
:1005D00020202020202020202000787878782020DB
:1005E00020202020787878782020202020202020AB
:1005F000202020202020202020200020D2E5F2F002
:10060000E8F120002028676E75290050696E626F3E
:100610006172642049492C20D2E5F2F0E8F12C20E7
:1006200041546D6567613136204020313620CCC39E
:10063000F62C20E2E5F0F1E8FF20F1E1EEF0EAE847
:100640003A2000302E302E302E33323700009B05FA
:1006500015085B09190CC40E11241FBECFE5D4E0A8
:10066000DEBFCDBF10E0A0E6B0E0E4ECF5E202C0F2
:1006700005900D92A836B107D9F713E0A8E6B0E0CF
:1006800001C01D92A634B107E1F716E0C8E5D6E037
:1006900004C02297FE010E94D312CE34D107C9F7BD
:1006A0000E9456120C94E0120C9400001F920F92BC
:1006B0000FB60F9211242F933F934F935F936F9335
:1006C0007F938F939F93AF93BF93EF93FF938CB1DF
:1006D0000E944508FF91EF91BF91AF919F918F913B
:1006E0007F916F915F914F913F912F910F900FBE2E
:1006F0000F901F9018951F920F920FB60F92112412
:100700002F933F934F935F936F937F938F939F9319
:10071000AF93BF93EF93FF930E945D08FF91EF911A
:10072000BF91AF919F918F917F916F915F914F9109
:100730003F912F910F900FBE0F901F9018959C0125
:10074000462F633020F160E971E00E948812892B06
:1007500029F0C90183709070892BC9F4C90164E63E
:1007600070E00E948812892B91F0842F90E001970D
:10077000880F991FE0916800F0916900E80FF91F58
:100780002491822F3196E4919E2F019610C0842FE0
:1007900090E00197880F991FE0916800F09169003F
:1007A000E80FF91F2491822F3196E4919E2F40E0AB
:1007B00050E0BC01CA0108956F927F928F929F9280
:1007C000AF92BF92CF92DF92EF92FF920F931F935F
:1007D0005C01CC24DD245EE4652E58EF752E5FEFBE
:1007E000852E5FEF952E6A0C7B1C8C1C9D1C840152
:1007F00073010894E11CF11C011D111D42E01695C6
:100800000795F794E7944A95D1F783E998EFAFEF0E
:10081000BFEFA80EB91ECA1EDB1EC601B50124E635
:1008200030E040E050E00E94AF12E20EF31E041FE1
:10083000151FC401B3012DE631E040E050E00E94F5
:100840005D12E60EF71E081F191F8CE291E0A0E072
:10085000B0E0A80EB91ECA1EDB1EC601B50120E914
:1008600031E040E050E00E94AF12E20EF31E041FA0
:10087000151FB701C8011F910F91FF90EF90DF90F6
:10088000CF90BF90AF909F908F907F906F90089582
:10089000609198007091990080919A0090919B00CE
:1008A0000895609398007093990080939A009093B4
:1008B0009B000895BF92CF92DF92EF92FF920F9329
:1008C0001F93CF93DF93EC01609198007091990092
:1008D00080919A0090919B0020E831E541E050E042
:1008E0000E94AF1279018A01E0927400F0927500C3
:1008F0000093760010937700C801B7016D5F7F4FBA
:100900008F4F9F4F27E030E040E050E00E94AF1251
:1009100060936F00C801B7012DE631E040E050E080
:100920000E94AF12DA01C9018E54984F9093710062
:10093000809370000E94DC0360937C0070937D00C4
:1009400080937E0090937F00209174003091750019
:1009500040917600509177002617370748075907CE
:1009600080F48FEF9FEF90937100809370000E944E
:10097000DC0360937C0070937D0080937E009093F5
:100980007F00609174007091750080917600909165
:1009900077006F5F7F4F8F4F9F4F20917C0030918A
:1009A0007D0040917E0050917F00621B730B840B91
:1009B000950B609378007093790080937A00909300
:1009C0007B002DE130E040E050E00E94AF122F5F4D
:1009D0003F4F4F4F5F4F2D3031054105510520F0FE
:1009E0002CE030E040E050E020936A0080917000FD
:1009F00090917100622F0E949F036093800070931A
:100A00008100809382009093830020917800309140
:100A1000790040917A0050917B0062177307840738
:100A2000950790F08FEF80936A008091700090910D
:100A300071006FEF0E949F036093800070938100AC
:100A40008093820090938300D09078008091800002
:100A5000D81AD0926B0010927300109272006091BD
:100A600098007091990080919A0090919B0020E8E5
:100A700031E541E050E00E94AF12162F072FF82E0B
:100A8000E92E2CE330E040E050E00E94AF12B62E99
:100A900060936E00612F702F8F2D9E2D2CE330E020
:100AA00040E050E00E94AF12122F032FF42EE52EEB
:100AB00020938400309385004093860050938700F4
:100AC000622F732F842F952F2CE330E040E050E00D
:100AD0000E94AF12C62E60936D00612F702F8F2D74
:100AE0009E2D2CE330E040E050E00E94AF122093B6
:100AF0006C0080917000909171009983888380913F
:100B00006A008A831B8280916F008C831D82DE8243
:100B10001F8228871986CA861B86BC861D861F866B
:100B20001E86DF91CF911F910F91FF90EF90DF9084
:100B3000CF90BF90089584E590E0909369008093F2
:100B400068000895FC01118210821382128288E0ED
:100B500090E0958384830895CF93DF93DC01129610
:100B60002D913C9113978D919C911197821793072A
:100B700049F4DB01ECE9F0E082E101900D92815053
:100B8000E1F72AC0C901880F991FFC0123E0EE0F8D
:100B9000FF1F2A95E1F7E80FF91FEA0FFB1FEB0192
:100BA000369682E1019009928150E1F712962D91DB
:100BB0003C9113972F5F3F4F13963C932E931297C0
:100BC00014968D919C91159701978217930720F4A5
:100BD00013961C921E921297DF91CF910895FC01FB
:100BE00040815181828193818417950710F49A0185
:100BF0000AC04817590718F020E030E006C02481E9
:100C00003581240F351F281B390BC90108950F9317
:100C10001F93CF93DF93EC01162F072F0E94EF0550
:100C20002C813D812817390731F188819981880FFE
:100C3000991FFC0143E0EE0FFF1F4A95E1F7E80F13
:100C4000F91FEC0FFD1F3696212F302FC901DC0153
:100C500082E10D9001928150E1F7288139812F5F67
:100C60003F4F398328838C819D8101978217930799
:100C700010F419821882DF91CF911F910F9108957E
:100C80005D9BFECF662361F0613059F487FF08C099
:100C90008F77E091AE00F091AF00E80FF11D8491E5
:100CA0008CB95E9BFECF58980895EF92FF920F93F8
:100CB0001F93CF93DF93E62EEC01FF24042F10E067
:100CC000015010402F2D30E0FE01E20FF31F849100
:100CD000882319F42017310731F484916E2D0E9476
:100CE0004006F394EFCFDF91CF911F910F91FF90CA
:100CF000EF900895EF92FF920F931F93CF93DF939E
:100D00007C01062F10E0C42FD0E0219704C0602F93
:100D10000E9440061F5F212F30E0F701E20FF31F12
:100D200080818823A1F72C173D0789F3DF91CF91AC
:100D30001F910F91FF90EF9008951F93182F8091AE
:100D4000B0009091B10060E040E00E945506113083
:100D500021F0113020F480E303C081E301C082E37D
:100D600060E00E9440068AE460E00E9440061F9115
:100D700008951F93182F8091B0009091B10060E00A
:100D800040E00E945506113029F0113038F0123041
:100D900029F402C081E303C082E301C080E360E084
:100DA0000E9440068BE460E00E9440061F91089577
:100DB0001F93182F8823E9F08091B0009091B10023
:100DC00060E040E00E945506812F6AE00E947C129C
:100DD000805D60E00E944006812F6AE00E947C12E4
:100DE000892F805D60E00E94400688E560E00E94F7
:100DF00040061F9108958EEF90E060E040E00E9471
:100E00005506089587EF90E060E040E00E945506A7
:100E1000089583EF90E060E040E00E945506089559
:100E20008FEE90E060E040E00E94550608951F9329
:100E3000182F8091B0009091B10013FF06C060E0C0
:100E400040E00E94550681E305C060E040E00E945A
:100E5000550682E360E00E9440068DE660E00E9455
:100E600040068091B0009091B10060E040E00E94A7
:100E7000550683E360E00E9440061770812F805D75
:100E800060E00E9440068DE660E00E9440061F91EF
:100E900008951F93182F8091B0009091B10013FF17
:100EA00006C060E040E00E94550685E305C060E0B2
:100EB00040E00E94550686E360E00E9440068DE611
:100EC00060E00E9440068091B0009091B10060E027
:100ED00040E00E94550684E360E00E9440061770DF
:100EE000812F805D60E00E9440068DE660E00E94F8
:100EF00040061F9108951F93182F8091B000909184
:100F0000B10060E040E00E9455061F70812F805DB7
:100F100060E00E9440068DE660E00E9440061F915E
:100F200008950F931F93182F062F80E00E947B07D0
:100F3000812F0E941707802F0E9449071F910F9150
:100F400008950F931F93082F162F8823C1F166234E
:100F5000B1F18135A0F56A3190F58091B0009091A2
:100F6000B10060E040E00E945506812F6AE00E94D7
:100F70007C12805D60E00E944006812F6AE00E9442
:100F80007C12892F805D60E00E9440068BE360E068
:100F90000E944006802F6AE00E947C12805D60E023
:100FA0000E944006802F6AE00E947C12892F805D9B
:100FB00060E00E94400686E660E00E9440061F91C5
:100FC0000F9108950F931F93082F162F8091B00053
:100FD0009091B10060E040E00E945506812F6AE0E8
:100FE0000E947C12805D60E00E944006812F6AE0D2
:100FF0000E947C12892F805D60E00E9440060130D3
:1010000049F0013028F0023049F0033039F404C0CF
:1010100081E405C082E403C084E401C083E460E0AD
:101020000E9440061F910F9108958CE690E09093E6
:10103000AF008093AE008CEE90E09093B10080936F
:10104000B000089580B78B7F80BF1ABA1BBA17BA59
:1010500018BA14BA15BA80E881BB12BA84E085BD0B
:1010600082E884BD13BC80E28BB91AB88CE089B9E0
:1010700010BC88E98AB986E880BD85B78F7085BFC6
:1010800085B785BF80E489BF0895382F2091C300BC
:10109000E22FF0E08091C200AF01481B51094031BE
:1010A000510551F082E984BDEF70F070EE54FF4FAE
:1010B00030832F5F2093C30008952091C4003091A6
:1010C000C5002F5F3F4F3093C5002093C40080912F
:1010D000C6009091C70001969093C7008093C60008
:1010E0008091C8009091C90001969093C9008093A7
:1010F000C8008091CA009091CB0001969093CB00DC
:101100008093CA008091CC009091CD00019690937D
:10111000CD008093CC0082E884BD2A30310509F0EF
:101120009AC08091C2009091C300891709F48DC0C4
:10113000E82FF0E0EF70F070EE54FF4F60816B31FC
:1011400009F04EC08F5F8093C200E82FF0E0EF708F
:10115000F070EE54FF4FE081891711F0EB3119F474
:101160008BE16BE14FC0EB3509F06FC08F5F80936F
:10117000C200E82FF0E0EF70F070EE54FF4FE08116
:10118000E13431F48F5F8093C20086E261E43AC0BB
:10119000E23431F48F5F8093C20088E262E432C0AF
:1011A000E33431F48F5F8093C20085E263E42AC0A8
:1011B000E43431F48F5F8093C20087E264E422C09C
:1011C000E83431F48F5F8093C20084E268E41AC08F
:1011D000EB34D9F58F5F8093C20083E26BE412C0D9
:1011E000683099F4E82FEF5FE093C200E91741F00F
:1011F000F0E0EF70F070EE54FF4F8081883029F5F9
:1012000088E068E00E94BA0920C0693029F48F5F45
:101210008093C20089E0F6CF6D3029F48F5F809310
:10122000C2008DE0EFCF862F8A51853630F086568A
:10123000803318F08054823340F4862F0E94BA091C
:101240008091C2008F5F8093C2000E94790A109241
:10125000C5001092C4008091C6009091C7008436EA
:10126000910531F40E944C0A1092C7001092C600FA
:101270008091C8009091C900845F914031F40E9430
:101280001F0A1092C9001092C8008091CA00909164
:10129000CB00885E934071F40E9448046F5F7F4FDB
:1012A0008F4F9F4F0E9451040E94F2091092CB0071
:1012B0001092CA0008958AE291E00E94A205089562
:1012C0008091E2009091E300A091E400B091E500EC
:1012D0000097A105B10591F08091C0019091C101E5
:1012E00062EE70E00E940706A2EEB0E0ECE9F0E0EA
:1012F00082E101900D928150E1F708958091F40010
:101300009091F500A091F600B091F7000097A1052B
:10131000B10591F08091C0019091C10164EF70E03E
:101320000E940706A4EFB0E0ECE9F0E082E1019052
:101330000D928150E1F70895809106019091070187
:10134000A0910801B09109010097A105B10589F0AC
:101350008091C0019091C10166E071E00E94070692
:10136000A6E0B1E0ECE9F0E082E101900D9281505D
:10137000E1F70895EF92FF920F931F932091DE0003
:101380003091DF004091E0005091E1002093060190
:1013900030930701409308015093090120E031E0A8
:1013A00030930B0120930A0190E0A0E0B0E080931D
:1013B0000C0190930D01A0930E01B0930F01E62E46
:1013C000FF2400E010E0E0921001F0921101009380
:1013D0001201109313010E9460091F910F91FF9059
:1013E000EF9008958091DE009091DF00A091E000E1
:1013F000B091E1008093F4009093F500A093F60083
:10140000B093F70083E191E09093F9008093F800A6
:1014100084E090E0A0E0B0E08093FA009093FB00BD
:10142000A093FC00B093FD001092FE001092FF000C
:1014300010920001109201010E94600908958091AC
:10144000DE009091DF00A091E000B091E100809378
:10145000F4009093F500A093F600B093F70083E1B9
:1014600091E09093F9008093F80083E090E0A0E091
:10147000B0E08093FA009093FB00A093FC00B0933F
:10148000FD001092FE001092FF00109200011092D9
:1014900001010E94600908958091DE009091DF00B3
:1014A000A091E000B091E1008093F4009093F500EA
:1014B000A093F600B093F70083E191E09093F900D8
:1014C0008093F80082E090E0A0E0B0E08093FA0022
:1014D0009093FB00A093FC00B093FD001092FE00DF
:1014E0001092FF0010920001109201010E94600909
:1014F00008958091DE009091DF00A091E000B0910E
:10150000E1008093F4009093F500A093F600B0936F
:10151000F70083E191E09093F9008093F80081E077
:1015200090E0A0E0B0E08093FA009093FB00A093DD
:10153000FC00B093FD001092FE001092FF0010928C
:101540000001109201010E94600908956F927F923C
:101550008F929F92AF92BF92CF92DF92EF92FF92C3
:101560000F931F936B017C019090DE008090DF0051
:101570007090E0006090E1009092E2008092E300C1
:101580007092E4006092E50086E0A82EB12CB09243
:10159000E700A092E6001092E8001092E900109295
:1015A000EA001092EB000CEE10E0C092EC00D0923A
:1015B000ED00E092EE00F092EF000E946009C09210
:1015C000E200D092E300E092E400F092E500B092F5
:1015D000E700A092E60081E090E0A0E0B0E0809318
:1015E000E8009093E900A093EA00B093EB0090929A
:1015F000EC00F8018182728263820E946009C092CD
:10160000DE00D092DF00E092E000F092E100692D70
:10161000782D872D962D1F910F91FF90EF90DF90E1
:10162000CF90BF90AF909F908F907F906F900895D4
:101630006093E2007093E3008093E4009093E500F0
:101640008FE090E09093E7008093E6001092E8002E
:101650001092E9001092EA001092EB001092EC0058
:101660001092ED001092EE001092EF000E946009BF
:1016700081E00895EF92FF920F931F937B018C01FD
:101680006093E2007093E3008093E4009093E500A0
:101690004093E6001092E7001092E8001092E900F3
:1016A0001092EA001092EB001092EC001092ED0004
:1016B0001092EE001092EF000E946009C801B7017D
:1016C0000E94A60A81E01F910F91FF90EF9008956C
:1016D000AF92BF92CF92DF92EF92FF920F931F9340
:1016E000FC0180819181A281B38184369105A1059D
:1016F000B10589F4448155810681178120853185A2
:10170000C284D384E484F58464E670E080E090E0F1
:101710000E94A90D1CC085369105A105B10529F0CF
:1017200020E030E040E050E014C024813581E680C4
:10173000F78000851185A284B384C484D58487E5AD
:1017400092E045E650E060E070E00E9468119B0185
:10175000AC01B901CA011F910F91FF90EF90DF908A
:10176000CF90BF90AF900895AF92BF92CF92DF928B
:10177000EF92FF920F931F93FC015A016B01D90165
:1017800078018091C0019091C101BF01A60195012E
:101790008D010E94AC0581E01F910F91FF90EF90A9
:1017A000DF90CF90BF90AF9008950F931F936091FB
:1017B000640070916500809166009091670045E03B
:1017C0000E943A0B60916400709165008091660000
:1017D000909167000E94180B04C088E191E00E947C
:1017E000680B88E191E040E050E060E070E020E0CC
:1017F00030E000E010E00E94B40B882371F7809184
:101800001E0190911F011F910F91089578940E94DD
:10181000D50B0895F8948AE291E09093C1018093EA
:10182000C0010E9422080E94160C08951092C8015F
:10183000089585E091E09093C3018093C2018AE00E
:1018400091E09093C5018093C4018EE091E0909364
:10185000C7018093C60108958FE060E00E94910760
:1018600082E00E949D0681E069E10E94A1078FE667
:1018700091E061E040E00E9455068BE891E060E075
:1018800040E00E94550686E691E060E040E00E945C
:10189000550680E591E061E040E00E94550685E94B
:1018A00091E061E040E00E94550683E191E061E053
:1018B00040E00E94550608958AE00E94170784EAD6
:1018C00091E060E040E00E9455068FE00E9417071B
:1018D00080E00E94B9060E94FB0608959C0180E00A
:1018E00001C08F5F482F50E0F901E40FF51FE08140
:1018F000E032B9F3E930A9F38823C1F060E006C013
:10190000FD01E40FF51F80818C936F5F862F90E0BF
:10191000F90101900020E9F73197E21BF30BD9019F
:10192000A80FB91F8E179F0758F31C92D9010D906D
:101930000020E9F71197A21BB30B9A2F9150492F62
:1019400050E0F901E40FF51F80818032B9F389304E
:10195000A9F311974A175B0708F411820895CF93F2
:10196000DF93EB01CB010E946E0C8881882311F17B
:101970006091C2017091C301CE010E94D712892BE0
:1019800011F482E017C06091C4017091C501CE01CD
:101990000E94D712892B11F483E00CC06091C6011C
:1019A0007091C701CE010E94D712892B11F081E0FE
:1019B00001C084E0DF91CF9108951F93CF93DF930F
:1019C000EC018B31910509F4C0C08C31910560F4B4
:1019D0008930910509F4B9C08D309105B1F0883096
:1019E000910509F098C083C08632910509F4ADC015
:1019F0008732910528F48397029708F08CC0A5C020
:101A00008832910509F087C0A0C088E492E068ECB4
:101A100071E00E94AF0C8230D9F0833038F4882313
:101A200009F460C0813009F05FC047C0833021F005
:101A3000843009F059C03AC08FE060E00E949107FD
:101A400082E00E949D0681E069E10E94A1074AC0F0
:101A500087E00E94170782E292E061E040E00E9486
:101A6000550689E00E9417078091C2019091C30139
:101A700060E040E00E94550687E00E9417078CE076
:101A800092E061E040E00E94550689E00E9417075D
:101A90008091C6019091C70160E040E00E94550628
:101AA00087E00E94170783EF91E018C065E670E0B9
:101AB00080E090E00E94A60A17C087E00E94170706
:101AC00080E690E060E040E00E947A0688EC91E0D9
:101AD00061E040E00E947A0683EB91E061E040E043
:101AE0000E9455060E945C0C1092C8012EC0E8ECC2
:101AF000F1E001900020E9F73197E85CF1401E2FFA
:101B0000EE2319F188E060E00E94400681E00E9427
:101B1000D806115015C0E8ECF1E001900020E9F77B
:101B20003197E85CF1401E2FEF3778F48C2F60E09E
:101B30000E944006E12FF0E0E853FE4FC0831F5F94
:101B4000E12FF0E0E853FE4F1082DF91CF911F911B
:101B500008950F931F934630510521F04050514096
:101B600081F40CC0013011052105310551F41092AA
:101B7000C8010E942C0C0E945C0C03C0C8010E948A
:101B8000DD0C60E070E080E090E01F910F9108951F
:101B9000613039F0613040F0623049F0633069F40F
:101BA00009C021EA32E00BC022EC32E008C020E894
:101BB00032E005C02FE532E002C020E030E0C9018C
:101BC0000895613039F0613040F0623049F063309F
:101BD00069F409C025E233E00BC026E433E008C015
:101BE00024E033E005C023EE32E002C020E030E024
:101BF000C9010895613039F0613040F0623049F038
:101C0000633069F409C029EA33E00BC02AEC33E001
:101C100008C028E833E005C027E633E002C020E032
:101C200030E0C9010895613039F0613040F0623030
:101C300049F0633069F409C02DE234E00BC02EE4B2
:101C400034E008C02CE034E005C02BEE33E002C0E5
:101C500020E030E0C9010895613039F0613040F092
:101C6000623049F0633069F409C021EB34E00BC005
:101C700022ED34E008C020E934E005C02FE634E06E
:101C800002C020E030E0C9010895613039F06130D0
:101C900040F0623049F0633069F409C025E335E073
:101CA0000BC026E535E008C024E135E005C023EF90
:101CB00034E002C020E030E0C9010895613039F01D
:101CC000613040F0623049F0633069F409C029EBBB
:101CD00035E00BC02AED35E008C028E935E005C045
:101CE00027E735E002C020E030E0C9010895613007
:101CF00029F0613030F0623051F406C025E432E062
:101D000008C024E532E005C029E332E002C020E04B
:101D100030E0C9010895CF93DF93EC01CB0140E09F
:101D200050E010C0FC01E20FF31FE491ED932F5F30
:101D30003F4F28303105B1F7485F5F4F089640327A
:101D4000510531F0DE01A40FB51F20E030E0EACFED
:101D5000CE01DF91CF91089597E190934B0284E0FB
:101D600080934C029093490280934A0288E08093CA
:101D70004D0281E080934E02EAE7F2E0119283E0A7
:101D8000E634F807D9F708951092570210925802D6
:101D900008950F931F93CF93DF93EB0180E00E9490
:101DA0007B0781E069E10E94A10700E0CE01602F7E
:101DB0000E94770E892B09F181E067E00E9491076C
:101DC000CE01602F0E94770EFC01849111E013C0B8
:101DD0008C3721F480E00E94170703C061E00E9465
:101DE0004006CE01602F0E94770EE12FF0E01F5FCA
:101DF000E80FF91F8491882359F70F5F0330B1F67C
:101E000080E00E94B906DF91CF911F910F91089554
:101E1000CF92DF92EF92FF920F931F93CF93DF93B6
:101E2000FC018181813009F0DCC080914B028093FC
:101E3000490280914C0280934A0280E00E947B0715
:101E400080E00E944907EE24FF2445C0D02E8091F7
:101E50004B02C82FD0E02F97C00FD11FCE0162E0F8
:101E600070E00E949C1280914C0290E004978E0DCD
:101E70009F1D9C01220F331F280F391F220F331F74
:101E8000220F331F620F731F6C3C7105C0F4FB01FE
:101E9000E658FD4FC0FF02C0808102C0808182955C
:101EA0008F700E94170780914B0260914C026C0D5D
:101EB0008D0D0E94A1078BED60E00E9440060F5F30
:101EC0001F4F0830110511F60894E11CF11CF4E0D5
:101ED000EF16F10421F0CE2C00E010E0B7CF809196
:101EE0004C028F5F80934C02843198F084E08093A1
:101EF0004C0280914E028F5F67E00E947C129093AB
:101F00004E0280914D028F5F0E947C12995F9093E8
:101F10004D0280914D0260E00E94910780914E0237
:101F2000833001F1843028F4813081F08230A0F4D4
:101F300007C0853019F18530D8F0863079F524C096
:101F400080E592E060E00E94C80D23C081E592E048
:101F500060E00E94E10D1DC082E592E060E00E9419
:101F6000FA0D17C083E592E060E00E94130E11C0E5
:101F700084E592E060E00E942C0E0BC085E592E0C3
:101F800060E00E94450E05C086E592E060E00E9498
:101F90005E0EBC018AE592E00E948B0EEE2400E00A
:101FA00010E01AC08881883761F480914B026091FB
:101FB0004C026E0D8F0D0E94A1078BED60E00E9418
:101FC0004006F394219688E0F81661F7E394085FE1
:101FD0001F4FE4E0EE1629F0E801C65ADD4FFF245A
:101FE000E1CFDF91CF911F910F91FF90EF90DF90A4
:101FF000CF900895AF92BF92CF92DF92EF92FF926F
:102000000F931F93CF93DF93D62EF42EB22EA02ED4
:102010008E2D6C2D0E9491078D2D6F2D0E94A10792
:102020008AED60E00E94400610E0CB2DD0E02196C2
:1020300005C084EC60E00E9440061F5F812F90E0A5
:10204000C817D907B4F78FEB60E00E944006EF2C69
:1020500010E00B2D0E5F1AC08D2D6E2D0E94A10772
:1020600083EB60E00E94400680E00E944907802FD9
:102070000E94D80682E0602F0E94E2078C2D0E9409
:10208000490783EB60E00E9440061F5FE3941A1546
:1020900018F3F394FA0C8D2D6F2D0E94A1078FEC8D
:1020A00060E00E94400600E005C08DEC60E00E9408
:1020B00040060F5F802F90E0C817D907B4F78FEC68
:1020C00060E00E944006DF91CF911F910F91FF9039
:1020D000EF90DF90CF90BF90AF9008959F92AF9216
:1020E000BF92CF92DF92EF92FF920F931F93CF9305
:1020F000DF93B62ED42EA22E902E0E2D862F642F77
:102100000E94A1078E2D6C2D0E94910789EC60E042
:102110000E9440068DEC60E00E9440068BE560E086
:102120000E94400682E00E9417078EEF60E00E9446
:1021300040068E2D0E9417078DE560E00E94400644
:102140008A2D8695E82EFF24E701269710E005C02A
:102150008DEC60E00E9440061F5F812F90E08C179D
:102160009D07B4F38BEF95E061E040E00E945506D7
:1021700010E0E701249705C08DEC60E00E94400666
:102180001F5F812F90E08C179D07B4F38BEB60E00D
:102190000E94400680E064E00E9491078CED60E0C0
:1021A0000E944006802F6C2D0E949107FD2C10E0AC
:1021B00052E0E52EEA0C20C08B2D6F2D0E94A10766
:1021C0008AEB60E00E9440068E2D0E94D80682E0D5
:1021D0006E2D0E94E2078AEB60E00E94400680E0DC
:1021E00064E00E9491078BED60E00E944006802F22
:1021F0006C2D0E9491071F5FF3941915E8F2092DC9
:102200000D0D602F6F5F8B2D0E94A10788EC60E0A1
:102210000E94400610E0EA2CFF24E701219605C049
:102220008DEC60E00E9440061F5F812F90E0C81790
:10223000D907B4F78CEB60E00E94400680E064E0D0
:102240000E9491078BED60E00E9440060E5F8B2D8F
:102250008F5F602F0E94A10780E064E00E949107D9
:1022600010E0E701239605C08FED60E00E94400674
:102270001F5F812F90E0C817D907B4F7DF91CF9186
:102280001F910F91FF90EF90DF90CF90BF90AF9094
:102290009F90089581E061E00E94A10780E067E0DF
:1022A0000E9491078BE096E061E040E00E945506B5
:1022B0008BE891E060E040E00E94550684E096E003
:1022C00060E040E00E94550680E00E94B906089553
:1022D000CF92EF92FF920F931F93CF93DF93EC0176
:1022E00081E020303807C9F181E02331380709F453
:1022F00064C02630310509F0CDC081E0E816F10454
:102300000105110509F0C6C0CE010E94AC0E0E9465
:1023100002078FE064E00E94910782E00E949D0620
:10232000CE010E944A11CE016FE472E00E94C90EF4
:10233000CE016DE042E024E304E1EFE0EE2E77E031
:10234000C72E0E946E10CE016EE043E02AE103E149
:102350000E94FA0F81E089839DC085E2E816F104AE
:1023600078F483E2E816F10408F094C089E0E816F6
:10237000F10409F48FC08BE1E816F10489F40AC076
:1023800086E2E816F10409F485C088E2E816F10453
:1023900039F480C0198264E670E080E090E00AC001
:1023A00082E3E816F10409F075C0198265E670E071
:1023B00080E090E00E94A60A6DC083E0E816F10478
:1023C0000105110541F084E0E816F104010511054D
:1023D00009F060C053C088E890E00E945A040E944F
:1023E000090789E461E00E94A10780E067E00E949C
:1023F000910780919000909191006AE070E00E94B6
:102400008812605D6093CE006093CF004AE34093F2
:10241000D0002091920030919300C9016AE070E0F1
:102420000E948812605D6093D100C9016AE070E08B
:102430000E948812805D8093D2004093D300209147
:10244000940030919500C9016AE070E00E94881202
:10245000605D6093D400C9016AE070E00E94881258
:10246000805D8093D5001092D6008EEC90E060E005
:1024700040E00E947A060E9410070CC0809158022A
:10248000813041F480915702882321F487E592E05E
:102490000E94080F60E070E080E090E0DF91CF9153
:1024A0001F910F91FF90EF90CF9008950E940A0C1A
:1024B0000E94060C80E090E00895629FD001739F17
:1024C000F001829FE00DF11D649FE00DF11D929FD0
:1024D000F00D839FF00D749FF00D659FF00D99270F
:1024E000729FB00DE11DF91F639FB00DE11DF91F33
:1024F000BD01CF0111240895991B79E004C0991FF3
:10250000961708F0961B881F7A95C9F7809508954D
:10251000AA1BBB1B51E107C0AA1FBB1FA617B70709
:1025200010F0A61BB70B881F991F5A95A9F7809525
:102530009095BC01CD01089597FB092E07260AD07E
:1025400077FD04D0E5DF06D000201AF47095619580
:102550007F4F0895F6F7909581959F4F0895A1E2DA
:102560001A2EAA1BBB1BFD010DC0AA1FBB1FEE1F0D
:10257000FF1FA217B307E407F50720F0A21BB30B58
:10258000E40BF50B661F771F881F991F1A9469F7D4
:1025900060957095809590959B01AC01BD01CF0130
:1025A0000895EE0FFF1F0590F491E02D0994FB01B3
:1025B000DC018D91059080190110D9F3990B0895D4
:0425C000F894FFCFBD
:0825C4000D0A22006400000072
:00000001FF
