:100000000C9415030C943D030C943D030C943D0398
:100010000C943D030C943D030C943D030C943D0360
:100020000C943D030C9464030C943D030C943F0327
:100030000C943D030C943D030C943D030C943D0340
:100040000C943D030C943D030C943D030C943D0330
:100050000C943D0300001F003B005A0078009700FD
:10006000B500D400F300110130014E0120202C20F6
:10007000202020202020203C202020202027272254
:1000800022F92D2D2020203E20202020FF20206A34
:1000900020207C20F020202220202020F8204969E8
:1000A000202020FAF12320226A537320808182834A
:1000B0008485868788898A8B8C8D8E8F9091929388
:1000C0009495969798999A9B9C9D9E9FA0A1A2A378
:1000D000A4A5A6A7A8A9AAABACADAEAFE0E1E2E3A8
:1000E000E4E5E6E7E8E9EAEBECEDEEEF1B5B001B8D
:1000F0005B75001B5B73001B5B3F32356C001B5B49
:100100003F323568001B5B4B001B5B324A000D0A17
:1001100000202868656C702920E4EBFF20EFEEECEE
:10012000EEF9E82E0D0A000D0ACAEEECE0EDE4E06F
:1001300020EDE520EFEEE4E4E5F0E6E8E2E0E5F2CC
:10014000F1FF2E20C2E2E5E4E8F2E52000202D20B8
:10015000287465747269732920E7E0EFF3F1EA20EF
:10016000E8E3F0FB20D2E5F2F0E8F12E0D0A0020E2
:100170002D202868656C702920E2FBE2EEE420EF78
:10018000EEE4F1EAE0E7EAE82E0D0A000D0AC4EE1B
:10019000F1F2F3EFEDFBE520EAEEECE0EDE4FB3A03
:1001A0000D0A005B41546D65676131365D242000A6
:1001B0000D0AC0E2F2EEF03A20CCE5E7E5EDF6E517
:1001C000E220C2FFF7E5F1EBE0E22028756E6968F6
:1001D0006F6D656C61624079612E7275290D0A0D33
:1001E0000A00C4E0F2E020F1E1EEF0EAE820EFF0EE
:1001F000EEE5EAF2E03A2000CAEEECE0EDE4EDE0F4
:10020000FF20EEE1EEEBEEF7EAE02C20E2E5F0F184
:10021000E8FF20003620E4E5EAE0E1F0FF2032309C
:10022000313220E32E00C2FBF5EEE400CDEEE2E039
:10023000FF20E8E3F0E000CFEEECEEF9FC00202038
:1002400020202020202078787878787878782020EE
:1002500020202020202020202020202020200020BE
:10026000202020787820202020202078782020202E
:10027000202020787820202020202078782020003E
:1002800020202020202020207878787878787878AE
:10029000202020202020202020202020202020205E
:1002A000002020787820202020202078782020200E
:1002B00020202078782020202020207878202020DE
:1002C00020002020207878202020202020787820EE
:1002D00020202078787878202020202020202020BE
:1002E000202000202078787878787820202020201E
:1002F000207878202020202020202020202020204E
:1003000020202000202078787878202020207878FD
:10031000202020202020787820202020202020202D
:1003200020202020002020787820202020202078E5
:100330007878787878202020202020202020202005
:10034000202020202000202020787878782020206D
:10035000202020787820202020202078782020203D
:10036000202020202020002020787878787878209D
:1003700020787820202020202020202020202020CD
:1003800020202020202020002020787820202020DD
:10039000202078782020202020207878787820204D
:1003A0002020202020202020002020202020207815
:1003B00078202078787878787820202020202020D5
:1003C00020202020202020202000202078787878ED
:1003D00020202020787878782020202020202020BD
:1003E0002020202020202020202000202078787825
:1003F0007820202020787878782020202020202045
:10040000202020202020202020202000202078785C
:1004100078782020202078787878202020202020CC
:100420002020202020202020202020200020207894
:100430007878782020202078787878202020202054
:1004400020202020202020202020202020002020CC
:10045000787820202020202078787878202020208C
:1004600020207878202020202020202020200020FC
:1004700020202078787878202078787878202020BC
:10048000202020202020202020202020202020008C
:10049000202078782020202020207878787820204C
:1004A000202020207878202020202020202020209C
:1004B000002020202078787878202078787878209C
:1004C000202020202020202020202020202020202C
:1004D000200020207878202020207878787820202C
:1004E000202020207878202020202020202020205C
:1004F000202000787878787878202020207878205C
:1005000020202020202020202020202020202020EB
:10051000202020002020787820202020202078789B
:10052000787820202020787820202020202020206B
:100530002020202000202078782020202078787823
:1005400078787820202020202020202020202020A3
:10055000202020202000202078782020202078785B
:10056000787820202020787820202020202020202B
:10057000202020202020007878787820202020203B
:10058000207878787820202020202020202020200B
:1005900020202020202020002020787820202020CB
:1005A000787878782020202078782020202020203B
:1005B00020202020202020200078787878202020FB
:1005C00020202078787878202020202020202020CB
:1005D0002020202020202020200020D2E5F2F0E85A
:1005E000F120002028676E75290050696E626F61E6
:1005F00072642049492C20D2E5F2F0E8F12C204128
:10060000546D6567613136204020313620CCC3F609
:100610002C20E2E5F0F1E8FF20F1E1EEF0EAE83A23
:10062000200084051F071B08CC0A11241FBECFE53C
:10063000D4E0DEBFCDBF10E0A0E6B0E0E0E2FDE137
:1006400002C005900D92A236B107D9F711E0A2E6DB
:10065000B0E001C01D92AD3CB107E1F716E0CAE27F
:10066000D6E004C02297FE010E947F0EC232D1075D
:10067000C9F70E94020E0C948E0E0C9400001F927B
:100680000F920FB60F9211242F933F934F935F93C6
:100690006F937F938F939F93AF93BF93EF93FF934A
:1006A0008CB10E940508FF91EF91BF91AF919F918E
:1006B0008F917F916F915F914F913F912F910F900B
:1006C0000FBE0F901F9018951F920F920FB60F92AA
:1006D00011242F933F934F935F936F937F938F9347
:1006E0009F93AF93BF93EF93FF930E942208FF91D4
:1006F000EF91BF91AF919F918F917F916F915F919A
:100700004F913F912F910F900FBE0F901F90189512
:100710009C01462F633020F160E971E00E94340EA5
:10072000892B29F0C90183709070892BC9F4C90104
:1007300064E670E00E94340E892B91F0842F90E0E3
:100740000197880F991FE0916200F0916300E80F14
:10075000F91F2491822F3196E4919E2F019610C0AB
:10076000842F90E00197880F991FE0916200F0912B
:100770006300E80FF91F2491822F3196E4919E2F98
:1007800040E050E0BC01CA0108956F927F928F92C1
:100790009F92AF92BF92CF92DF92EF92FF920F9310
:1007A0001F935C01CC24DD245EE4652E58EF752E8A
:1007B0005FEF852E5FEF952E6A0C7B1C8C1C9D1CB9
:1007C000840173010894E11CF11C011D111D42E01C
:1007D00016950795F794E7944A95D1F783E998EF32
:1007E000AFEFBFEFA80EB91ECA1EDB1EC601B501D2
:1007F00024E630E040E050E00E945B0EE20EF31E83
:10080000041F151FC401B3012DE631E040E050E0A4
:100810000E94090EE60EF71E081F191F8CE291E0D8
:10082000A0E0B0E0A80EB91ECA1EDB1EC601B501CD
:1008300020E931E040E050E00E945B0EE20EF31E42
:10084000041F151FB701C8011F910F91FF90EF9072
:10085000DF90CF90BF90AF909F908F907F906F90E0
:10086000089560919200709193008091940090910E
:100870009500089560939200709393008093940084
:10088000909395000895BF92CF92DF92EF92FF92DE
:100890000F931F93CF93DF93EC01609192007091BF
:1008A0009300809194009091950020E831E541E01B
:1008B00050E00E945B0E79018A01E0926E00F09296
:1008C0006F000093700010937100C801B7016D5F55
:1008D0007F4F8F4F9F4F27E030E040E050E00E9475
:1008E0005B0E60936900C801B7012DE631E040E07E
:1008F00050E00E945B0EDA01C9018E54984F90932C
:100900006B0080936A000E94C50360937600709329
:100910007700809378009093790020916E00309159
:100920006F004091700050917100261737074807FB
:10093000590780F48FEF9FEF90936B0080936A00CC
:100940000E94C503609376007093770080937800CF
:100950009093790060916E0070916F0080917000AB
:10096000909171006F5F7F4F8F4F9F4F2091760066
:10097000309177004091780050917900621B730BA1
:10098000840B950B609372007093730080937400D6
:10099000909375002DE130E040E050E00E945B0E46
:1009A0002F5F3F4F4F4F5F4F2D30310541055105B0
:1009B00020F02CE030E040E050E020936400809193
:1009C0006A0090916B00622F0E94880360937A0006
:1009D00070937B0080937C0090937D002091720047
:1009E0003091730040917400509175006217730745
:1009F0008407950790F08FEF8093640080916A00E0
:100A000090916B006FEF0E94880360937A0070935F
:100A10007B0080937C0090937D00D0907200809149
:100A20007A00D81AD092650010926D0010926C0076
:100A30006091920070919300809194009091950044
:100A400020E831E541E050E00E945B0E162F072FB1
:100A5000F82EE92E2CE330E040E050E00E945B0EDF
:100A6000B62E60936800612F702F8F2D9E2D2CE382
:100A700030E040E050E00E945B0E122F032FF42E76
:100A8000E52E20937E0030937F00409380005093AA
:100A90008100622F732F842F952F2CE330E040E0EC
:100AA00050E00E945B0EC62E60936700612F702F8E
:100AB0008F2D9E2D2CE330E040E050E00E945B0E35
:100AC0002093660080916A0090916B0099838883DF
:100AD000809164008A831B82809169008C831D82CF
:100AE000DE821F8228871986CA861B86BC861D86E1
:100AF0001F861E86DF91CF911F910F91FF90EF907F
:100B0000DF90CF90BF90089584E590E090936300CC
:100B1000809362000895F8949091AA008091AB00B0
:100B2000981711F480E00AC0E92FF0E0EF70F07040
:100B3000E656FF4F80819F5F9093AA0078940895B6
:100B40005D9BFECF662361F0613059F487FF08C0DA
:100B50008F77E0919600F0919700E80FF11D849156
:100B60008CB95E9BFECF58980895EF92FF920F9339
:100B70001F93CF93DF93EC0100E080E4E82E8CE933
:100B8000F82EC7010197F1F70E948B05182F8823D3
:100B9000C1F38A3049F18D3039F18830A1F4002356
:100BA00081F3FE01E00FF11D1082015088E060E04A
:100BB0000E94A00580E260E00E94A00588E060E05D
:100BC0000E94A005DECF805B8033D8F21032C8F2DD
:100BD000143FB8F6812F60E00E94A005FE01E00FEF
:100BE000F11D10830F5FCDCFFE01E00FF11D1082CC
:100BF000CE01DF91CF911F910F91FF90EF9008955B
:100C0000EF92FF920F931F93CF93DF93E62EEC01A9
:100C1000FF24042F10E0015010402F2D30E0FE0182
:100C2000E20FF31F8491882319F42017310731F460
:100C300084916E2D0E94A005F394EFCFDF91CF91A8
:100C40001F910F91FF90EF900895EF92FF920F93F5
:100C50001F93CF93DF937C01062F10E0C42FD0E0C9
:100C6000219704C0602F0E94A0051F5F212F30E054
:100C7000F701E20FF31F80818823A1F72C173D07AE
:100C800089F3DF91CF911F910F91FF90EF9008951D
:100C900089E091E060E040E00E940006089585E070
:100CA00091E060E040E00E94000608958EEF90E041
:100CB00060E040E00E940006089587EF90E060E069
:100CC00040E00E94000608951F93182F809198001D
:100CD0009091990013FF06C060E040E00E9400067A
:100CE00081E305C060E040E00E94000682E360E02E
:100CF0000E94A0058DE660E00E94A005809198000A
:100D00009091990060E040E00E94000683E360E07B
:100D10000E94A0051770812F805D60E00E94A005F1
:100D20008DE660E00E94A0051F9108951F93182F83
:100D3000809198009091990013FF06C060E040E018
:100D40000E94000685E305C060E040E00E940006C6
:100D500086E360E00E94A0058DE660E00E94A005A9
:100D6000809198009091990060E040E00E94000618
:100D700084E360E00E94A0051770812F805D60E031
:100D80000E94A0058DE660E00E94A0051F910895D5
:100D90001F93182F809198009091990060E040E097
:100DA0000E9400061F70812F805D60E00E94A005F8
:100DB0008DE660E00E94A0051F9108950F931F9398
:100DC000082F162F8823C1F16623B1F18135A0F5D4
:100DD0006A3190F5809198009091990060E040E030
:100DE0000E940006812F6AE00E94280E805D60E06C
:100DF0000E94A005812F6AE00E94280E892F805D45
:100E000060E00E94A0058BE360E00E94A005802FB7
:100E10006AE00E94280E805D60E00E94A005802F9D
:100E20006AE00E94280E892F805D60E00E94A00584
:100E300086E660E00E94A0051F910F9108958CE660
:100E400090E090939700809396008CEE90E09093C2
:100E50009900809398000895AF92BF92CF92DF924D
:100E6000EF92FF920F931F93DF93CF9300D000D0A8
:100E70000F92CDB7DEB77B018C0116950795F794DD
:100E8000E794A801970156954795379527952E0D1C
:100E90003F1D401F511F79018A0174E01695079587
:100EA000F794E7947A95D1F7E20EF31E041F151F0D
:100EB000AF2CB02EC12EDD24AE0CBF1CC01ED11E27
:100EC0009601442755272A0D3B1D4C1D5D1D7901B8
:100ED0008A0183E016950795F794E7948A95D1F7F0
:100EE000287F621B8E2D880F681B6A3030F06A5095
:100EF0000894E11CF11C011D111DE982FA820B838B
:100F00001C832E2D3A814B815C8170E080E090E063
:100F10000F900F900F900F900F90CF91DF911F9136
:100F20000F91FF90EF90DF90CF90BF90AF9008951A
:100F3000CF92DF92EF92FF920F931F93DF93CF93A5
:100F4000CDB7DEB72A970FB6F894DEBF0FBECDBF80
:100F5000FA018A01065F1F4F12866E010894C11CB8
:100F6000D11CA6E0EA2EF12CEC0EFD1E0E942C07EF
:100F70002E833F83488759876A87D601F70185E02A
:100F800001900D928150E1F78D81805DF80182938F
:100F90008F0169817A818B819C8161157105810541
:100FA000910521F7CF012A960FB6F894DEBF0FBE48
:100FB000CDBFCF91DF911F910F91FF90EF90DF9008
:100FC000CF90089580B78B7F80BF1ABA17BA14BA32
:100FD00082E881BB1BBA18BA15BA91E092BB83E0D4
:100FE00083BF85E082BF1CBE80E28BB91AB880E166
:100FF00089B910BC88E98AB986E880BD85B78F7049
:1010000085BF85B785BF99BF0895382F2091AB0064
:10101000E22FF0E08091AA00AF01481B5109403156
:10102000510541F0EF70F070E656FF4F30832F5FAF
:101030002093AB0008958EE091E09093AD008093F3
:10104000AC00089585E082BF8091AE009091AF0022
:1010500001969093AF008093AE00885E934009F0B4
:101060007DC00E9431046F5F7F4F8F4F9F4F0E9462
:101070003A048091DF00813009F06CC082E890E092
:101080000E94430489E461E00E94DE0680E00E9441
:10109000C80680E00E94640687E00E949606809160
:1010A0008A0090918B006AE070E00E94340E862FD7
:1010B000805D60E00E94A00580918A0090918B0085
:1010C0006AE070E00E94340E805D60E00E94A0053E
:1010D0008AE360E00E94A00580918C0090918D00D1
:1010E0006AE070E00E94340E862F805D60E00E940E
:1010F000A00580918C0090918D006AE070E00E94C4
:10110000340E805D60E00E94A0058AE360E00E94EA
:10111000A00580918E0090918F006AE070E00E949F
:10112000340E862F805D60E00E94A00580918E00C5
:1011300090918F006AE070E00E94340E805D60E064
:101140000E94A0058091DE00882321F48EED90E0BE
:101150000E94E50A1092AF001092AE000895CF925F
:10116000EF920F9380E00E94C80680E00E949606EE
:101170008FE00E9464060E94480681E069E10E94B7
:10118000DE0688EF91E061E040E00E94000680EB1F
:1011900090E060E040E00E9425068091AC009091D4
:1011A000AD0060E040E00E94000682EE91E061E068
:1011B00040E00E94000684E192E061E040E00E948D
:1011C000000680EB91E061E040E00E94000680E0D4
:1011D0000E94C8060E9456068AE00E94640683EABE
:1011E00091E060E040E00E9400068FE00E9464060B
:1011F00080EC90E00E94B505FC018081882331F4E9
:101200008091AC009091AD0060E0DECF883651F562
:101210008181882309F061C087E00E9464068CE820
:1012200091E061E040E00E94000689E00E946406CF
:1012300088E660E00E94A00587E00E9464068FE6D1
:1012400091E061E040E00E94000689E00E946406AF
:1012500084E760E00E94A00587E00E9464068DE4B8
:1012600091E0B1CF8437C9F581818823B1F58EED46
:1012700090E00E94E00D8EED90E00E94BE0D8EED9C
:1012800090E066ED70E00E945E0D8EED90E06DE006
:1012900042E024E304E13FE0E32EB7E0CB2E0E94DE
:1012A0005B0C8EED90E06EE043E02AE103E10E94EA
:1012B000D90B8EED90E00E94D10A80E00E94C80612
:1012C00080E00E9496068FE00E9464060E94480615
:1012D00081E069E10E94DE067ACF87E00E94640621
:1012E00087E291E061E040E00E94000689E00E9410
:1012F000640688E660E00E94A00587E00E9464061C
:1013000081E191E060CFCF92DF92EF92FF920F9355
:101310001F93DF93CF9300D0CDB7DEB780916000ED
:10132000909161009A83898340ECC42E40E0D42ED2
:1013300060E070E080E090E0A6010E949807BC01A8
:1013400000EB10E0C8010E94830EC8017E010894E2
:10135000E11CF11CB7010E94830E60E070E080E0A8
:1013600090E0A6010E949807BC01C8010E94830E6C
:10137000C801B7010E94830E60E070E080E090E059
:10138000A6010E949807BC01C8010E94830EC801F3
:10139000B7010E94830E6AEC70E080E090E0A60145
:1013A0000E949807BC01C8010E94830E78940E9495
:1013B000AF0860E070E080E090E00F900F90CF9178
:1013C000DF911F910F91FF90EF90DF90CF900895E4
:1013D000613039F0613040F0623049F0633069F4D7
:1013E00009C020E832E00BC021EA32E008C02FE556
:1013F00032E005C02EE332E002C020E030E0C90157
:101400000895613039F0613040F0623049F0633066
:1014100069F409C024E033E00BC025E233E008C0E2
:1014200023EE32E005C022EC32E002C020E030E0E2
:10143000C9010895613039F0613040F0623049F0FF
:10144000633069F409C028E833E00BC029EA33E0CF
:1014500008C027E633E005C026E433E002C020E000
:1014600030E0C9010895613039F0613040F06230F8
:1014700049F0633069F409C02CE034E00BC02DE280
:1014800034E008C02BEE33E005C02AEC33E002C0A4
:1014900020E030E0C9010895613039F0613040F05A
:1014A000623049F0633069F409C020E934E00BC0D0
:1014B00021EB34E008C02FE634E005C02EE434E030
:1014C00002C020E030E0C9010895613039F0613098
:1014D00040F0623049F0633069F409C024E135E03E
:1014E0000BC025E335E008C023EF34E005C022ED52
:1014F00034E002C020E030E0C9010895613039F0E5
:10150000613040F0623049F0633069F409C028E985
:1015100035E00BC029EB35E008C027E735E005C012
:1015200026E535E002C020E030E0C90108956230D0
:1015300029F0693049F0662321F009C02CE232E03D
:1015400008C027E332E005C026E232E002C020E016
:1015500030E0C9010895CF93DF93EC01CB0140E067
:1015600050E010C0FC01E20FF31FE491ED932F5FF8
:101570003F4F28303105B1F7485F5F4F0896403242
:10158000510531F0DE01A40FB51F20E030E0EACFB5
:10159000CE01DF91CF9108951092DE001092DF000E
:1015A0000895CF93DF93EC0181E0898380EC90E094
:1015B0000E94B505FC0180818137C1F781818823B4
:1015C000A9F71982DF91CF910895CF92DF92EF9220
:1015D000FF920F931F93CF93DF93FC0181818130A2
:1015E00009F0DEC08091D2008093D0008091D300BA
:1015F0008093D10080E00E94C80680E00E94960699
:10160000EE24FF2445C0D02E8091D200C82FD0E018
:101610002F97C00FD11FCE0162E070E00E94480EEC
:101620008091D30090E004978E0D9F1D9C01220FA6
:10163000331F280F391F220F331F220F331F620F52
:10164000731F6C3C7105C0F4FB01EF5FFE4FC0FFE0
:1016500002C0808102C0808182958F700E946406E2
:101660008091D2006091D3006C0D8D0D0E94DE063A
:101670008BED60E00E94A0050F5F1F4F0830110541
:1016800011F60894E11CF11CF4E0EF16F10421F0CE
:10169000CE2C00E010E0B7CF8091D3008F5F809315
:1016A000D300843198F084E08093D3008091D500FA
:1016B0008F5F67E00E94280E9093D5008091D40040
:1016C0008F5F0E94280E995F9093D40080E00E9463
:1016D00096068091D4000E9464068091D5008330E4
:1016E00001F1843028F4813081F08230A0F407C009
:1016F000853019F18530D8F0863079F524C087ED32
:1017000090E060E00E94E80923C088ED90E060E08E
:101710000E94010A1DC089ED90E060E00E941A0A53
:1017200017C08AED90E060E00E94330A11C08BED93
:1017300090E060E00E944C0A0BC08CED90E060E00D
:101740000E94650A05C08DED90E060E00E947E0A6F
:10175000BC0181EE90E00E94AB0AEE2400E010E0B4
:101760001AC08881883761F48091D2006091D300DB
:101770006E0D8F0D0E94DE068BED60E00E94A005CD
:10178000F394219688E0F81661F7E394085F1F4F01
:10179000E4E0EE1629F0E801CF51DF4FFF24E1CF5E
:1017A000DF91CF911F910F91FF90EF90DF90CF903D
:1017B0000895AF92BF92CF92DF92EF92FF920F9374
:1017C0001F93CF93DF93D62EF42EB22EA02E80E05F
:1017D0000E94C8068C2D0E9496068E2D0E946406DB
:1017E0008D2D6F2D0E94DE068AED60E00E94A0051F
:1017F00010E0CB2DD0E0219605C084EC60E00E9483
:10180000A0051F5F812F90E0C817D907B4F78FEBB1
:1018100060E00E94A005EF2CE394FE2C00E025C0C0
:101820008D2D6F2D0E94DE0683EB60E00E94A005E7
:1018300080E00E94960680E260E00E94A00510E031
:1018400005C080E260E00E94A0051F5F1B15C8F381
:1018500080E260E00E94A0058C2D0E94960683EB3A
:1018600060E00E94A0050F5FF3940A15C8F2EA0C2D
:101870008D2D6E2D0E94DE068FEC60E00E94A0058B
:1018800010E005C08DEC60E00E94A0051F5F812F75
:1018900090E0C817D907B4F78FEC60E00E94A0056C
:1018A000DF91CF911F910F91FF90EF90DF90CF903C
:1018B000BF90AF9008958F929F92AF92BF92CF92B8
:1018C000DF92EF92FF920F931F93CF93DF93A62E99
:1018D000B42E922E802EDE2C80E00E94C8068E2D23
:1018E0000E9464068C2D0E9496068A2D6B2D0E9404
:1018F000DE0689EC60E00E94A0058DEC60E00E94AD
:10190000A0058BE560E00E94A00582E00E946406CD
:101910008EEF60E00E94A0058E2D0E9464068DE58A
:1019200060E00E94A005892D8695E82EFF24E7013E
:10193000269710E005C08DEC60E00E94A0051F5FB7
:10194000812F90E08C179D07B4F38AED95E061E05C
:1019500040E00E94000610E0E701249705C08DECEE
:1019600060E00E94A0051F5F812F90E08C179D070B
:10197000B4F38BEB60E00E94A00580E00E94C806F3
:1019800080E00E94640684E00E9496068CED60E090
:101990000E94A0058D2D0E9464068C2D0E94960643
:1019A000FB2CF39400E032C08A2D6F2D0E94DE06DE
:1019B0008AEB60E00E94A00580E260E00E94A00542
:1019C00010E005C080E260E00E94A0051F5F1915CD
:1019D000C8F380E260E00E94A0058AEB60E00E940C
:1019E000A00580E00E94C80680E00E94640684E0B2
:1019F0000E9496068BED60E00E94A0058D2D0E944E
:101A000064068C2D0E9496060F5FF394081560F211
:101A1000082D0B0D602F6F5F8A2D0E94DE0688EC6B
:101A200060E00E94A00510E0E92CFF24E701219668
:101A300005C08DEC60E00E94A0051F5F812F90E043
:101A4000C817D907B4F78CEB60E00E94A00580E0CE
:101A50000E94C80680E00E94640684E00E94960608
:101A60008BED60E00E94A0050E5F8A2D8F5F602FD6
:101A70000E94DE0680E00E94C80680E00E946406A4
:101A800084E00E94960610E0E701239605C08FEDE2
:101A900060E00E94A0051F5F812F90E0C817D90762
:101AA000B4F7DF91CF911F910F91FF90EF90DF90EE
:101AB000CF90BF90AF909F908F900895AF92BF92BC
:101AC000CF92DF92EF92FF920F931F93DF93CF930A
:101AD00000D00F92CDB7DEB76B0180E00E94C80640
:101AE00081E069E10E94DE06EE24FF2487015E01A9
:101AF0000894A11CB11CC6016E2D0E94970A892B67
:101B000011F181E00E94640687E00E94960680E25F
:101B100060E00E94A005C801B701A5010E949807D6
:101B200060E040E00E94250680E260E00E94A0059F
:101B300080E00E946406C6016E2D0E94970A61E053
:101B400040E00E9400060894E11CF11C011D111DDB
:101B50008AE0E816F1040105110569F60E944F06B6
:101B60000F900F900F90CF91DF911F910F91FF90E9
:101B7000EF90DF90CF90BF90AF90089580E00E94EB
:101B8000C80681E061E00E94DE0680E00E946406F3
:101B900087E00E9496068AEE95E061E040E00E94B0
:101BA000000680EB90E060E040E00E94250683EEB6
:101BB00095E060E040E00E9400060E944F06089514
:101BC00097E19093D20084E08093D3009093D0006B
:101BD0008093D10088E08093D40081E08093D50089
:101BE000E1E0F1E0119281E0ED3CF807D9F70E94C5
:101BF0005D0680E00E94C80684E00E9496060E946E
:101C0000480608950E94E2070E94830980E090E060
:101C10000895629FD001739FF001829FE00DF11D36
:101C2000649FE00DF11D929FF00D839FF00D749F56
:101C3000F00D659FF00D9927729FB00DE11DF91F02
:101C4000639FB00DE11DF91FBD01CF01112408955F
:101C5000991B79E004C0991F961708F0961B881FFE
:101C60007A95C9F780950895AA1BBB1B51E107C05F
:101C7000AA1FBB1FA617B70710F0A61BB70B881F1C
:101C8000991F5A95A9F780959095BC01CD010895AB
:101C900097FB092E07260AD077FD04D0E5DF06D092
:101CA00000201AF4709561957F4F0895F6F790958E
:101CB00081959F4F0895A1E21A2EAA1BBB1BFD011F
:101CC0000DC0AA1FBB1FEE1FFF1FA217B307E4071B
:101CD000F50720F0A21BB30BE40BF50B661F771F73
:101CE000881F991F1A9469F7609570958095909553
:101CF0009B01AC01BD01CF010895EE0FFF1F0590C0
:101D0000F491E02D0994FB01DC010D900020E9F72E
:101D1000119701900D920020E1F70895F894FFCFFC
:021D20002E0093
:00000001FF
