:100000000C9410030C9438030C9438030C943803AC
:100010000C9438030C9438030C9438030C94380374
:100020000C9438030C945F030C9438030C943A033B
:100030000C9438030C9438030C9438030C94380354
:100040000C9438030C9438030C9438030C94380344
:100050000C94380300001F003B005A007800970002
:10006000B500D400F300110130014E0120202C20F6
:10007000202020202020203C202020202027272254
:1000800022F92D2D2020203E20202020FF20206A34
:1000900020207C20F020202220202020F8204969E8
:1000A000202020FAF12320226A537320808182834A
:1000B0008485868788898A8B8C8D8E8F9091929388
:1000C0009495969798999A9B9C9D9E9FA0A1A2A378
:1000D000A4A5A6A7A8A9AAABACADAEAFE0E1E2E3A8
:1000E000E4E5E6E7E8E9EAEBECEDEEEF1B5B001B8D
:1000F0005B324A001B5B4B001B5B323568001B5BAD
:1001000032356C000D0A00202868656C702920E4E7
:10011000EBFF20EFEEECEEF9E82E0D0A000D0ACA17
:10012000EEECE0EDE4E020EDE520EFEEE4E4E5F0D8
:10013000E6E8E2E0E5F2F1FF2E20C2E2E5E4E8F2D3
:10014000E52000202D20287465747269732920E74A
:10015000E0EFF3F1EA20E8E3F0FB20D2E5F2F0E88B
:10016000F12E0D0A00202D202868656C702920E2F0
:10017000FBE2EEE420EFEEE4F1EAE0E7EAE82E0D40
:100180000A000D0AC4EEF1F2F3EFEDFBE520EAEE12
:10019000ECE0EDE4FB3A0D0A005B41546D656761EC
:1001A00031365D2420000D0AC0E2F2EEF03A20CC98
:1001B000E5E7E5EDF6E5E220C2FFF7E5F1EBE0E289
:1001C0002028756E69686F6D656C61624079612E7B
:1001D0007275290D0A0D0A00C4E0F2E020F1E1EE8B
:1001E000F0EAE820EFF0EEE5EAF2E03A2000CAEEAD
:1001F000ECE0EDE4EDE0FF20EEE1EEEBEEF7EAE01F
:100200002C20E2E5F0F1E8FF20003620E4E5EAE00A
:10021000E1F0FF203230313220E32E00C2FBF5EE58
:10022000E400CDEEE2E0FF20E8E3F0E000CFEEEC0A
:10023000EEF9FC00202020202020202078787878FB
:10024000787878782020202020202020202020204E
:10025000202020200020202020787820202020200E
:10026000207878202020202020787820202020202E
:10027000207878202000202020202020202078783E
:10028000787878787878202020202020202020205E
:1002900020202020202000202078782020202020CE
:1002A00020787820202020202078782020202020EE
:1002B00020787820202020002020207878202020FE
:1002C000202020787820202020787878782020201E
:1002D0002020202020202020002020787878787886
:1002E0007820202020202078782020202020202006
:1002F00020202020202020202000202078787878BE
:10030000202020207878202020202020787820208D
:10031000202020202020202020200020207878204D
:1003200020202020207878787878782020202020BD
:100330002020202020202020202020002020207885
:1003400078787820202020202078782020202020F5
:1003500020787820202020202020202000202078B5
:100360007878787878202078782020202020202025
:10037000202020202020202020202020200020209D
:10038000787820202020202078782020202020200D
:10039000787878782020202020202020202000201D
:1003A000202020202078782020787878787878208D
:1003B000202020202020202020202020202020005D
:1003C000202078787878202020207878787820206D
:1003D000202020202020202020202020202020201D
:1003E000002020787878782020202078787878206D
:1003F00020202020202020202020202020202020FD
:10040000200020207878787820202020787878784C
:1004100020202020202020202020202020202020DC
:100420002020002020787878782020202078787884
:100430007820202020202020202020202020202064
:10044000202020002020787820202020202078786C
:10045000787820202020202078782020202020203C
:1004600020202020002020202078787878202078F4
:100470007878782020202020202020202020202074
:1004800020202020200020207878202020202020DC
:10049000787878782020202020207878202020204C
:1004A000202020202020002020202078787878200C
:1004B00020787878782020202020202020202020DC
:1004C000202020202020200020207878202020209C
:1004D000787878782020202020207878202020200C
:1004E000202020202020202000787878787878201C
:1004F000202020787820202020202020202020204C
:10050000202020202020202020002020787820205B
:1005100020202020787878782020202078782020CB
:10052000202020202020202020200020207878203B
:1005300020202078787878787820202020202020AB
:10054000202020202020202020202000202078781B
:10055000202020207878787820202020787820208B
:1005600020202020202020202020202000787878A3
:1005700078202020202020787878782020202020C3
:10058000202020202020202020202020200020208B
:10059000787820202020787878782020202078789B
:1005A0002020202020202020202020202020007813
:1005B00078787820202020202078787878202020D3
:1005C000202020202020202020202020202020004B
:1005D00020D2E5F2F0E8F120002028676E752900AE
:1005E00050696E626F6172642049492C20D2E5F235
:1005F000F0E8F12C2041546D6567613136204020D0
:10060000313620CCC3F62C20E2E5F0F1E8FF20F1F2
:10061000E1EEF0EAE83A2000950328053C06690877
:1006200011241FBECFE5D4E0DEBFCDBF10E0A0E6B1
:10063000B0E0E4EEF6E102C005900D92A236B107FB
:10064000D9F711E0A2E6B0E001C01D92A23DB107CA
:10065000E1F716E0C0E2D6E004C02297FE010E9456
:10066000610BC831D107C9F70E94250B0C94700BA0
:100670000C9400001F920F920FB60F9211242F932B
:100680003F934F935F936F937F938F939F93AF931A
:10069000BF93EF93FF938CB10E942606FF91EF91D9
:1006A000BF91AF919F918F917F916F915F914F918A
:1006B0003F912F910F900FBE0F901F9018951F9292
:1006C0000F920FB60F9211242F933F934F935F9386
:1006D0006F937F938F939F93AF93BF93EF93FF930A
:1006E0000E944306FF91EF91BF91AF919F918F912F
:1006F0007F916F915F914F913F912F910F900FBE1E
:100700000F901F9018956091640070916500809122
:10071000660090916700089560936400709365008F
:100720008093660090936700089584E590E090932D
:100730006300809362000895F89490918400809102
:100740008500981711F480E00AC0E92FF0E0EF70FF
:10075000F070EC58FF4F80819F5F909384007894F5
:1007600008955D9BFECF662361F0613059F487FFE9
:1007700008C08F77E0916800F0916900E80FF11DE3
:1007800084918CB95E9BFECF58980895EF92FF92AA
:100790000F931F93CF93DF93EC0100E080E4E82EEA
:1007A0008CE9F82EC7010197F1F70E949C03182FDE
:1007B0008823C1F38A3049F18D3039F18830A1F4B2
:1007C000002381F3FE01E00FF11D1082015088E04B
:1007D00060E00E94B10380E260E00E94B10388E023
:1007E00060E00E94B103DECF805B8033D8F210322C
:1007F000C8F2143FB8F6812F60E00E94B103FE01F9
:10080000E00FF11D10830F5FCDCFFE01E00FF11D52
:100810001082CE01DF91CF911F910F91FF90EF9049
:100820000895EF92FF920F931F93CF93DF93E62EDD
:10083000EC01FF24042F10E0015010402F2D30E078
:10084000FE01E20FF31F8491882319F4201731076A
:1008500031F484916E2D0E94B103F394EFCFDF91B8
:10086000CF911F910F91FF90EF900895EF92FF921B
:100870000F931F93CF93DF937C01062F10E0C42FBB
:10088000D0E0219704C0602F0E94B1031F5F212F89
:1008900030E0F701E20FF31F80818823A1F72C17C6
:1008A0003D0789F3DF91CF911F910F91FF90EF905A
:1008B000089580916C0090916D0060E040E00E948E
:1008C0001104089580916E0090916F0060E040E007
:1008D0000E9411040895809172009091730060E06D
:1008E00040E00E94110408951F93CF93DF93182FC7
:1008F00080916A0090916B0060E040E00E941104DA
:10090000C12FD0E013FF02C081E301C082E360E0A9
:100910000E94B1038DE660E00E94B10380916A00FD
:1009200090916B0060E040E00E94110483E360E07E
:100930000E94B103CE01877090706AE070E00E945F
:100940004C0B805D60E00E94B1038DE660E00E9488
:10095000B103DF91CF911F9108951F93182F8091BC
:100960006A0090916B0060E040E00E94110413FF68
:1009700002C085E301C086E360E00E94B1038DE61A
:1009800060E00E94B10380916A0090916B0060E08A
:1009900040E00E94110484E360E00E94B1031770FC
:1009A000812F805D60E00E94B1038DE660E00E94CF
:1009B000B1031F9108951F93182F8F700E94740424
:1009C000812F82958F700E94AD041F9108950F931F
:1009D0001F93082F162F8823C1F16623B1F18135AB
:1009E000A0F56A3190F580916A0090916B0060E00B
:1009F00040E00E941104812F6AE00E942C0B805D70
:100A000060E00E94B103812F6AE00E942C0B892FC5
:100A1000805D60E00E94B1038BE360E00E94B1035F
:100A2000802F6AE00E942C0B805D60E00E94B10381
:100A3000802F6AE00E942C0B892F805D60E00E946D
:100A4000B10386E660E00E94B1031F910F91089503
:100A50008CE690E090936900809368008CEE90E0C3
:100A600090936B0080936A008FEE90E090936D00FE
:100A700080936C0084EF90E090936F0080936E0001
:100A800088EF90E090937100809370008EEF90E07B
:100A900090937300809372000895AF92BF92CF92AB
:100AA000DF92EF92FF920F931F93DF93CF9300D0CB
:100AB00000D00F92CDB7DEB77B018C01169507955C
:100AC000F794E794A8019701569547953795279590
:100AD0002E0D3F1D401F511F79018A0174E01695AC
:100AE0000795F794E7947A95D1F7E20EF31E041F69
:100AF000151FAF2CB02EC12EDD24AE0CBF1CC01EA6
:100B0000D11E9601442755272A0D3B1D4C1D5D1D06
:100B100079018A0183E016950795F794E7948A9501
:100B2000D1F7287F621B8E2D880F681B6A3030F04A
:100B30006A500894E11CF11C011D111DE982FA8222
:100B40000B831C832E2D3A814B815C8170E080E009
:100B500090E00F900F900F900F900F90CF91DF913A
:100B60001F910F91FF90EF90DF90CF90BF90AF90CB
:100B70000895CF92DF92EF92FF920F931F93DF932E
:100B8000CF93CDB7DEB72A970FB6F894DEBF0FBE6E
:100B9000CDBFFA018A01065F1F4F12866E010894CD
:100BA000C11CD11CA6E0EA2EF12CEC0EFD1E0E9409
:100BB0004D052E833F83488759876A87D601F70101
:100BC00085E001900D928150E1F78D81805DF80103
:100BD00082938F0169817A818B819C816115710576
:100BE0008105910521F7CF012A960FB6F894DEBF53
:100BF0000FBECDBFCF91DF911F910F91FF90EF906E
:100C0000DF90CF90089580B78B7F80BF1ABA17BA54
:100C100014BA82E881BB1BBA18BA15BA91E092BB2C
:100C200083E083BF85E082BF1CBE80E28BB91AB827
:100C300080E189B910BC88E98AB986E880BD85B7AA
:100C40008F7085BF85B785BF99BF0895382F2091D4
:100C50008500E22FF0E080918400AF01481B51092C
:100C60004031510541F0EF70F070EC58FF4F308388
:100C70002F5F20938500089584E091E09093870092
:100C800080938600089585E082BF809188009091CE
:100C9000890001969093890080938800885E934034
:100CA000A1F40E9483036F5F7F4F8F4F9F4F0E947D
:100CB0008C038091B800882321F488EB90E00E9497
:100CC000320A10928900109288000895CF92EF9214
:100CD0000F9387E00E94DB040E94590481E069E1E0
:100CE0000E94E7048EEE91E061E040E00E94110472
:100CF0008AE890E060E040E00E943604809186003F
:100D00009091870060E040E00E94110488ED91E03E
:100D100061E040E00E9411048AE092E061E040E07E
:100D20000E94110486EA91E061E040E00E94110413
:100D300082E00E94DB0489E991E060E040E00E94EB
:100D4000110487E00E94DB048AE990E00E94C60358
:100D5000FC018081882331F4809186009091870086
:100D600060E0E3CF883651F58181882309F052C0D5
:100D70008FE00E94DB0482E891E061E040E00E94A5
:100D8000110489E00E94DB0488E660E00E94B10360
:100D90008FE00E94DB0485E691E061E040E00E9484
:100DA000110489E00E94DB0484E760E00E94B10343
:100DB0008FE00E94DB0483E491E0B6CF843751F5E5
:100DC0008181882339F588EB90E00E94060B88EB3F
:100DD00090E00E94120A88EB90E060EB70E00E94C5
:100DE000B50988EB90E06DE042E024E304E13FE0E8
:100DF000E32EB7E0CB2E0E940A0988EB90E06EE06C
:100E000043E02AE103E10E948B0888EB90E00E9416
:100E10006E088ECF8FE00E94DB048DE191E061E0EF
:100E200040E00E94110489E00E94DB0488E660E053
:100E30000E94B1038FE00E94DB0487E091E074CF51
:100E4000CF92DF92EF92FF920F931F93DF93CF9396
:100E500000D0CDB7DEB780916000909161009A8399
:100E600089834AE9C42E40E0D42E60E070E080E03F
:100E700090E0A6010E94B905BC010AE810E0C80193
:100E80000E94650BC8017E010894E11CF11CB701AA
:100E90000E94650B60E070E080E090E0A6010E9497
:100EA000B905BC01C8010E94650BC801B7010E94C9
:100EB000650B60E070E080E090E0A6010E94B9055B
:100EC000BC01C8010E94650BC801B7010E94650BF7
:100ED00068E970E080E090E0A6010E94B905BC01DD
:100EE000C8010E94650B78940E94660660E070E07D
:100EF00080E090E00F900F90CF91DF911F910F91C4
:100F0000FF90EF90DF90CF900895613039F061301D
:100F100040F0623049F0633069F409C026E732E0FE
:100F20000BC027E932E008C025E532E005C024E324
:100F300032E002C020E030E0C9010895613039F0AC
:100F4000613040F0623049F0633069F409C02AEF43
:100F500032E00BC02BE133E008C029ED32E005C0E0
:100F600028EB32E002C020E030E0C9010895613092
:100F700039F0613040F0623049F0633069F409C003
:100F80002EE733E00BC02FE933E008C02DE533E056
:100F900005C02CE333E002C020E030E0C901089531
:100FA000613039F0613040F0623049F0633069F40B
:100FB00009C022E034E00BC023E234E008C021EE97
:100FC00033E005C020EC33E002C020E030E0C9018E
:100FD0000895613039F0613040F0623049F063309B
:100FE00069F409C026E834E00BC027EA34E008C001
:100FF00025E634E005C024E434E002C020E030E01F
:10100000C9010895613039F0613040F0623049F033
:10101000633069F409C02AE035E00BC02BE235E00B
:1010200008C029EE34E005C028EC34E002C020E01E
:1010300030E0C9010895613039F0613040F062302C
:1010400049F0633069F409C02EE835E00BC02FEA9F
:1010500035E008C02DE635E005C02CE435E002C0DF
:1010600020E030E0C9010895623029F0693049F08C
:10107000662321F009C022E232E008C02DE232E00E
:1010800005C02CE132E002C020E030E0C901089543
:10109000CF93DF93EC01CB0140E050E010C0FC01A6
:1010A000E20FF31FE491ED932F5F3F4F283031059E
:1010B000B1F7485F5F4F08964032510531F0DE01CD
:1010C000A40FB51F20E030E0EACFCE01DF91CF9131
:1010D00008951092B8001092B9000895CF93DF934D
:1010E000EC0181E089838AE990E00E94C603FC015B
:1010F00080818137C1F781818823A9F7198287E030
:101100000E94DB040E94590481E069E10E94E70427
:10111000DF91CF910895AF92BF92CF92DF92EF927D
:10112000FF920F931F93CF93DF93D62EF42EB22E00
:10113000A02E8E2D0E9474048C2D0E94AD048D2D46
:101140006F2D0E94E7048AED60E00E94B10310E079
:10115000CB2DD0E0219605C084EC60E00E94B10365
:101160001F5F812F90E0C817D907B4F78FEB60E0BD
:101170000E94B103EF2CE394FE2C00E025C08D2DDE
:101180006F2D0E94E70483EB60E00E94B10380E0D2
:101190000E94AD0480E260E00E94B10310E005C04F
:1011A00080E260E00E94B1031F5F1B15C8F380E27C
:1011B00060E00E94B1038C2D0E94AD0483EB60E0DF
:1011C0000E94B1030F5FF3940A15C8F2EA0C8D2D4B
:1011D0006E2D0E94E7048FEC60E00E94B10310E0E6
:1011E00005C08DEC60E00E94B1031F5F812F90E08D
:1011F000C817D907B4F78FEC60E00E94B103DF9104
:10120000CF911F910F91FF90EF90DF90CF90BF9003
:10121000AF9008959F92AF92BF92CF92DF92EF92DC
:10122000FF920F931F93CF93DF93D62EA42EB22E4F
:10123000902E8E2D0E9474048C2D0E94AD048D2D55
:101240006A2D0E94E70489EC60E00E94B1038DECF6
:1012500060E00E94B1038BE560E00E94B10382E090
:101260000E9474048EEF60E00E94B1038E2D0E94F4
:1012700074048DE560E00E94B1038B2D8695E82E05
:10128000FF24E701269710E005C08DEC60E00E9486
:10129000B1031F5F812F90E08C179D07B4F380EDA1
:1012A00095E061E040E00E94110410E0E70124971E
:1012B00005C08DEC60E00E94B1031F5F812F90E0BC
:1012C0008C179D07B4F38BEB60E00E94B103FA2CFE
:1012D000F394EF2C00E01FC08D2D6E2D0E94E704CB
:1012E0008AEB60E00E94B10380E260E00E94B103FB
:1012F00010E005C080E260E00E94B1031F5F1B1593
:10130000C8F380E260E00E94B1038AEB60E00E94D3
:10131000B1030F5FE3940915F8F2F90C8D2D6F2DD1
:101320000E94E70488EC60E00E94B10310E0CB2D3E
:10133000D0E0219605C08DEC60E00E94B1031F5FF4
:10134000812F90E0C817D907B4F78CEB60E00E94BA
:10135000B103DF91CF911F910F91FF90EF90DF903C
:10136000CF90BF90AF909F900895AF92BF92CF92D1
:10137000DF92EF92FF920F931F93DF93CF9300D0F2
:101380000F92CDB7DEB76B0181E069E10E94E704FF
:10139000EE24FF2487015E010894A11CB11CC60144
:1013A0006E2D0E943408892B11F181E00E94740493
:1013B00087E00E94AD0480E260E00E94B103C801B2
:1013C000B701A5010E94B90560E040E00E94360423
:1013D00080E260E00E94B10380E00E947404C601D4
:1013E0006E2D0E94340861E040E00E9411040894D0
:1013F000E11CF11C011D111D8AE0E816F104010534
:10140000110569F60E9462040F900F900F90CF9122
:10141000DF911F910F91FF90EF90DF90CF90BF90E1
:10142000AF90089584E00E94AD040E94590480E0CA
:101430000E94740487E00E94AD0480EE95E061E0B4
:1014400040E00E9411048AE890E060E040E00E94E1
:10145000360489ED95E060E040E00E9411040E94AE
:1014600062040895EF92FF920F931F93CF93DF933F
:10147000FC018181813009F0C2C00E946B0480911F
:10148000AC008093AA008091AD008093AB0080E017
:101490000E94AD0400E08DE0F82E2BC08091AC00DE
:1014A0006091AD00600F810F0E94E7042091AC00B5
:1014B00030E02E5030408091AD008F9DF00111241E
:1014C000C90162E070E00E944C0BE60FF71FEC547C
:1014D000FF4F20FF02C0808102C0808182958F7003
:1014E00060E00E94B1031F5F1830C1F60F5F043047
:1014F00011F010E0D3CF8091AD008F5F8093AD00ED
:10150000843198F086E08093AD008091AF008F5FCA
:1015100067E00E942C0B9093AF008091AE008F5F2C
:1015200069E00E942C0B9093AE008091AE000E9467
:1015300074048091AF00833001F1843028F481304D
:1015400081F08230A0F407C0853019F18530D8F0E1
:10155000863079F524C081EB90E060E00E94850739
:1015600023C082EB90E060E00E949E071DC083EBE9
:1015700090E060E00E94B70717C084EB90E060E065
:101580000E94D00711C085EB90E060E00E94E9075F
:101590000BC086EB90E060E00E94020805C087EB7C
:1015A00090E060E00E941B08BC018BEB90E00E9481
:1015B0004808EE2400E010E01AC08881883761F402
:1015C0008091AC006091AD006E0D8F0D0E94E7041C
:1015D0008BED60E00E94B103F3942196F8E0FF16D2
:1015E00061F7E394085F1F4F84E0E81629F0E801F3
:1015F000C554DF4FFF24E1CF80E00E947404DF91E7
:10160000CF911F910F91FF90EF90089594E19093E7
:10161000AC0086E08093AD009093AA008093AB006D
:1016200084E08093AE0081E08093AF00EBEDF0E0CA
:10163000119281E0E23DF807D9F782E1809312012F
:101640000E9459040E946B0408950E9403060E94A0
:10165000200780E090E00895991B79E004C0991F6D
:10166000961708F0961B881F7A95C9F780950895FC
:10167000AA1BBB1B51E107C0AA1FBB1FA617B707B8
:1016800010F0A61BB70B881F991F5A95A9F78095D4
:101690009095BC01CD01089597FB092E07260AD02D
:1016A00077FD04D0E5DF06D000201AF4709561952F
:1016B0007F4F0895F6F7909581959F4F0895EE0F0F
:1016C000FF1F0590F491E02D0994FB01DC010D90C2
:1016D0000020E9F7119701900D920020E1F708959D
:0416E000F894FFCFAC
:0216E4002E00D6
:00000001FF
