:1000000082C099C098C097C096C095C074C296C26D
:1000100092C091C090C08FC08EC08DC08CC08BC06C
:100020008AC089C088C01B5B3F323568001B5B00FB
:1000300020202C20202020202020203C2020202098
:100040002027272222F92D2D2020203E202020208D
:10005000FF20206A20207C20F02020222020202049
:10006000F8204969202020FAF12320226A537320C6
:10007000808182838485868788898A8B8C8D8E8F08
:10008000909192939495969798999A9B9C9D9E9FF8
:10009000A0A1A2A3A4A5A6A7A8A9AAABACADAEAFE8
:1000A000E0E1E2E3E4E5E6E7E8E9EAEBECEDEEEFD8
:1000B0000D0A5B415474696E79323331335D24200B
:1000C00000302E312E353034362E33373939310069
:1000D0002028676E75290D0A00CAEEECE0EDE4ED0C
:1000E000E0FF20EEE1EEEBEEF7EAE02C20E2E5F0B7
:1000F000F1E8FF2000636C730068656C70000D0A06
:100100000000ED01C90311241FBECFEDCDBF10E0EB
:10011000A0E6B0E001C01D92A139B107E1F711E0FE
:10012000C6E0D1E003C02297FE015BD3C230D10705
:10013000D1F742D363C364CF5D9BFECF662361F0EA
:10014000613059F487FF08C08F77E0917400F09117
:100150007500E80FF11D84918CB95E9BFECF589815
:100160000895EF92FF920F931F93CF93DF938C012B
:10017000E62EF12CC42FD0E02197F801EF0DF11DF0
:1001800024918F2D90E08C179D0729F484916E2D7A
:10019000D3DFF394F2CF2111F9CFDF91CF911F91EB
:1001A0000F91FF90EF900895CF93C82F40E060E04B
:1001B0008091720090917300D4DFC13021F030F44F
:1001C00060E080E305C060E081E302C060E082E3BC
:1001D000B3DF60E08AE4CF91AFCFCF93C82F40E088
:1001E00060E08091720090917300BBDFC13031F00C
:1001F00040F0C23031F460E082E305C060E081E3AA
:1002000002C060E080E398DF60E08BE4CF9194CFA0
:100210001F93CF93DF931F92CDB7DD27182F88232D
:10022000D1F040E060E0809172009091730099DF1E
:10023000812F6AE0C8D260E0805D99837DDF60E055
:10024000998180E3890F78DF60E088E50F90DF9186
:10025000CF911F9171CF0F90DF91CF911F91089592
:1002600040E060E086E290E07CDF0895CF93C82F05
:1002700040E060E0809172009091730072DF60E076
:10028000C3FF02C081E301C082E356DF60E08DE678
:1002900053DF40E060E0809172009091730061DF75
:1002A00060E083E349DF8C2F877060E0805D44DF8E
:1002B00060E08DE6CF9140CFCF93C82F40E060E063
:1002C00080917200909173004CDF60E0C3FF02C028
:1002D00085E301C086E330DF60E08DE62DDF40E09E
:1002E00060E080917200909173003BDF60E084E3F6
:1002F00023DF8C2F877060E0805D1EDF60E08DE67D
:10030000CF911ACFCF93C82F40E060E08091720068
:100310009091730026DF8C2F8F7060E0805D0CDF82
:1003200060E08DE6CF9108CF1F93CF93DF931F92AC
:10033000CDB7DD27182F80E06983E4DF812F96DFBA
:100340006981862F0F90DF91CF911F91B5CFFF92DA
:100350000F931F93CF93DF931F92CDB7DD27082F05
:10036000162F8FEF800F803588F58FEF860F89313C
:1003700068F540E060E08091720090917300F1DEDA
:100380008AE0F82E812F6F2D1ED260E0805D998368
:10039000D3DE60E0998180E3890FCEDE60E08BE3FD
:1003A000CBDE802F6F2D0FD260E0805D9983C4DE9D
:1003B00060E0998180E3890FBFDE60E086E60F9000
:1003C000DF91CF911F910F91FF90B6CE0F90DF91EB
:1003D000CF911F910F91FF90089580E390E090934B
:1003E0007500809374008DE290E090937300809389
:1003F000720008957894D2E8C3E0809178009091DB
:100400007900892BD1F313BE809178009091790007
:1004100056D11092790010927800D2BFC3BFEDCFB1
:10042000F89483E083BF82E882BF83E389B912B87E
:1004300088E98AB986E083B982E089BF089580910E
:1004400076009091770001969093770080937600E4
:100450000A9709F04FC090916000209161009217B7
:1004600009F444C0E92FEF70F0E0E05AFF4F8281B9
:10047000E1E0E90FE09360008B31A1F4AE2FAF70A3
:10048000B0E0A05ABF4F12968C91E21711F08B3159
:1004900019F48BE190E026C08B3541F59D5F909378
:1004A000600024C0883061F4E21739F0EF70F0E0AA
:1004B000E05AFF4F82818830C9F488E090E012C092
:1004C0008D3019F48DE090E00DC096EE980F9536C2
:1004D00040F090E8980F903320F090E4980F92331A
:1004E00028F490E090937900809378001092770040
:1004F0001092760008951F920F920FB60F9211245A
:100500002F933F934F935F936F937F938F939F931B
:10051000AF93BF93EF93FF9392DFFF91EF91BF9162
:10052000AF919F918F917F916F915F914F913F918B
:100530002F910F900FBE0F901F9018951F920F9242
:100540000FB60F9211242F933F934F938F939F9346
:10055000EF93FF933CB120916100822F90E0409196
:100560006000841B9109409751F012BEE22FEF709A
:10057000F0E0E05AFF4F32832F5F20936100FF913C
:10058000EF919F918F914F913F912F910F900FBEBF
:100590000F901F90189520E0422F50E0FC01E40FCF
:1005A000F51F3081303211F42F5FF6CF3930E1F38F
:1005B0002223C1F060E0262F30E0FC0101900020F2
:1005C000E9F73197E81BF90BDC01A20FB31F2E17D7
:1005D0003F0738F4FD01E40FF51F20812C936F5F76
:1005E000EACF1C92FC0101900020E9F73197E81B4B
:1005F000F90B20E030E07FEF7E0F472F421B50E0E9
:10060000DC01A40FB51F6C91603219F42F5F3F4FCE
:10061000F4CF6930D9F331974E175F0710F4119674
:100620001C920895CF93DF93EB01CB01B4DF888157
:10063000882391F060918D0070918E00CE01D5D00D
:10064000892B61F060918B0070918C00CE01CDD030
:10065000892B31F483E005C080E003C082E001C053
:1006600081E0DF91CF91089510927B00089560E0C2
:100670008FE05ADE82E098DD69E181E068DE40E0EB
:1006800061E089ED90E06DDD40E060E081EC90E0BC
:1006900068DD40E060E080ED90E063DD08958AE091
:1006A000E5DD40E060E080EB90E05BDD8FE0DEDDEB
:1006B00080E093DDD5CD10927B00D9DFF0CFEF92B3
:1006C000FF920F931F93CF93DF938C018830910596
:1006D00071F18D309105E1F56BE770E08AE790E00C
:1006E000A1DF823021F08330C9F4C1DF17C040E0C0
:1006F00060E080918F009091900033DD89E0B6DD5D
:1007000040E060E080918D0090918E002ADD40E015
:1007100060E080918F009091900023DD10927B002B
:10072000DF91CF911F910F91FF90EF90B8CFCBE762
:10073000D0E009900020E9F72197CB57D040CC2397
:1007400009F160E088E0F8DC81E062DDC15016C0AC
:10075000CBE7D0E009900020E9F72197CB57D040B4
:100760007E01FF248FE0E816F10460F460E0802F42
:10077000E3DCF701E558FF4F0083CF5FD0E0C558B9
:10078000DF4F1882DF91CF911F910F91FF90EF9073
:1007900008958EEF90E09093900080938F0089EF02
:1007A00090E090938E0080938D0085EF90E0909381
:1007B0008C0080938B00089533DE56DF7CDF1ADED9
:1007C00080E090E00895991B79E004C0991F961786
:1007D00008F0961B881F7A95C9F780950895EE0F4B
:1007E000FF1F0590F491E02D0994FB01DC018D9130
:1007F000059080190110D9F3990B0895F894FFCF53
:00000001FF
