:1000000086C09DC09CC09BC09AC099C031C2FFC130
:1000100096C095C094C093C092C091C090C08FC04C
:100020008EC08DC08CC020202C202020202020209D
:10003000203C202020202027272222F92D2D20209F
:10004000203E20202020FF20206A20207C20F0203D
:10005000202220202020F8204969202020FAF123A6
:1000600020226A53732080818283848586878889D1
:100070008A8B8C8D8E8F9091929394959697989968
:100080009A9B9C9D9E9FA0A1A2A3A4A5A6A7A8A958
:10009000AAABACADAEAFE0E1E2E3E4E5E6E7E8E968
:1000A000EAEBECEDEEEF1B5B001B5B75001B5B737B
:1000B000001B5B3F32356C001B5B3F323568000D27
:1000C0000A0068656C7000636C73000D0A5B415434
:1000D00074696E79323331335D2420002028676ED5
:1000E00075290D0A00CAEEECE0EDE4EDE0FF20EE2C
:1000F000E1EEEBEEF7EAE02C20E2E5F0F1E8FF209C
:1001000000302E302E302E333100DB01C602112498
:100110001FBECFEDCDBF10E0A0E6B0E001C01D9244
:10012000AF38B107E1F711E0CEE0D1E003C022978C
:10013000FE0148D3CA30D107D1F72FD350C360CFC7
:100140005D9BFECF662361F0613059F487FF08C0E4
:100150008F77E0916000F0916100E80FF11D8491CC
:100160008CB95E9BFECF58980895EF92FF920F9343
:100170001F93CF93DF93E62EEC01FF24042F10E0B2
:10018000015010402F2D30E0FE01E20FF31F84914B
:10019000882319F42017310729F484916E2DD0DFBC
:1001A000F394F0CFDF91CF911F910F91FF90EF90DB
:1001B00008951F93182F809162009091630060E072
:1001C00040E0D3DF113021F0113020F480E303C090
:1001D00081E301C082E360E0B3DF8AE460E0B0DF86
:1001E0001F9108951F93182F8091620090916300D2
:1001F00060E040E0BADF113029F0113038F0123001
:1002000029F402C081E303C082E301C080E360E01F
:1002100097DF8BE460E094DF1F9108951F93182F00
:100220008823B9F0809162009091630060E040E023
:100230009CDF812F6AE0B8D2805D60E081DF812F92
:100240006AE0B2D2892F805D60E07ADF88E560E005
:1002500077DF1F91089588EB90E060E040E085DF54
:1002600008951F93182F809162009091630013FFEF
:1002700005C060E040E079DF81E304C060E040E079
:1002800074DF82E360E05CDF8DE660E059DF80913F
:1002900062009091630060E040E067DF83E360E02C
:1002A0004FDF1770812F805D60E04ADF8DE660E0F0
:1002B00047DF1F9108951F93182F8091620090913E
:1002C000630013FF05C060E040E04FDF85E304C03A
:1002D00060E040E04ADF86E360E032DF8DE660E028
:1002E0002FDF809162009091630060E040E03DDF8D
:1002F00084E360E025DF1770812F805D60E020DF00
:100300008DE660E01DDF1F9108951F93182F8091E7
:1003100062009091630060E040E027DF1F70812F52
:10032000805D60E00DDF8DE660E00ADF1F910895DB
:100330000F931F93182F062F80E0E7DF812F91DFA7
:10034000802FB9DF1F910F9108950F931F93082FEE
:10035000162F882369F1662359F1813548F56A31F2
:1003600038F5809162009091630060E040E0FDDE2E
:10037000812F6AE019D2805D60E0E2DE812F6AE0C1
:1003800013D2892F805D60E0DBDE8BE360E0D8DE96
:10039000802F6AE009D2805D60E0D2DE802F6AE0C3
:1003A00003D2892F805D60E0CBDE86E660E0C8DEA8
:1003B0001F910F91089586E290E0909361008093E1
:1003C000600086EA90E09093630080936200089555
:1003D0007894FFCFF8941ABA1BBA17BA18BA11BAA0
:1003E00012BA83E083BF82E882BF80E28BB91AB879
:1003F0008CE089B912B888E98AB986E083B985B7F3
:100400008F7885BF85B785BF82E089BF08951F9229
:100410000F920FB60F9211242F933F934F935F9338
:100420008F939F93EF93FF933CB120917500E22F40
:10043000F0E080917400AF01481B51094031510533
:1004400051F082E982BFEF70F070EC59FF4F3083BA
:100450002F5F20937500FF91EF919F918F915F9196
:100460004F913F912F910F900FBE0F901F901895B5
:100470001F920F920FB60F9211242F933F934F9319
:100480005F936F937F938F939F93AF93BF93EF93FC
:10049000FF9380917600909177000196909377007A
:1004A0008093760022E822BF0A9709F05BC0909102
:1004B000740020917500921709F450C0E92FF0E004
:1004C000EF70F070EC59FF4FE081EB31C1F4892FF0
:1004D0008F5F80937400E82FF0E0EF70F070EC59BC
:1004E000FF4FE081821711F0EB3119F48BE190E0BE
:1004F00019C0EB3599F59D5F909374002FC0E830DB
:1005000099F4892F8F5F80937400821749F0E82F48
:10051000F0E0EF70F070EC59FF4F80818830F1F41B
:1005200088E090E0D1D01AC0ED3031F49F5F909315
:1005300074008DE090E0F6CF8E2F8A51853630F032
:100540008656803318F08054823340F48E2F90E02A
:10055000BBD0809174008F5F8093740010927700FD
:1005600010927600FF91EF91BF91AF919F918F9183
:100570007F916F915F914F913F912F910F900FBE9F
:100580000F901F90189510927E0008958FEB90E0C9
:10059000909379008093780082EC90E090937B00B8
:1005A00080937A0087EC90E090937D0080937C00AC
:1005B00008959C0180E001C08F5F482F50E0F90151
:1005C000E40FF51FE081E032B9F3E930A9F38823A5
:1005D000C1F060E006C0FD01E40FF51F80818C933F
:1005E0006F5F862F90E0F90101900020E9F73197C5
:1005F000E21BF30BD901A80FB91F8E179F0758F301
:100600001C92D9010D900020E9F71197A21BB30BA2
:100610009A2F9150492F50E0F901E40FF51F808186
:100620008032B9F38930A9F311974A175B0708F4B0
:10063000118208958AE015DE8BEC90E060E040E0E6
:1006400094DD8FE00EDE80E0CDDD05DE08958FE0E5
:1006500060E06EDE82E0ADDD81E069E176DE85EEB0
:1006600090E061E040E081DD81E091E060E040E029
:100670007CDD8CED90E060E040E077DD0895109245
:100680007E00E5DFD7DF0895CF93DF93EB01CB0149
:1006900090DF88818823A9F060917A0070917B00B7
:1006A000CE0194D0892B11F482E00BC060917C00C4
:1006B00070917D00CE018AD0892B11F081E001C0BC
:1006C00083E0DF91CF9108951F93CF93DF93EC01E7
:1006D00088309105B1F1EEE7F0E08D30910509F039
:1006E00042C08EE890E0BF01CFDF813031F1813030
:1006F00020F1823021F0833009F5A9DF1EC08091FE
:1007000078009091790060E040E02FDD89E0A9DD7C
:1007100080917A0090917B0060E040E026DD80913E
:1007200078009091790060E040E01FDD80917C00CE
:1007300090917D0060E040E018DD7CDF10927E004B
:1007400028C0EEE7F0E001900020E9F73197EE577E
:10075000F0401E2FEE23E9F088E060E0F1DC81E05C
:100760005DDD115011C001900020E9F73197EE577F
:10077000F0401E2FEF3068F460E0E2DCE12FF0E0A3
:10078000E258FF4FC0831F5FE12FF0E0E258FF4FB8
:100790001082DF91CF911F9108951CDEF4DE6FDF90
:1007A00017DE80E090E00895991B79E004C0991F5E
:1007B000961708F0961B881F7A95C9F780950895BB
:1007C000EE0FFF1F0590F491E02D0994FB01DC0171
:1007D0008D91059080190110D9F3990B0895F89423
:0207E000FFCF49
:00000001FF
