:100000000C942A001895000018950000189500001F
:10001000189500001895000018950000189500002C
:10002000189500001895000018950000189500001C
:10003000189500001895000018950000189500000C
:1000400018950000189500001895000018950000FC
:10005000189500008FE58DBFC8E3E0E04E2E84E0E8
:100060008EBFD4E0F4E05F2EA89584B7082E877F7A
:1000700084BF88E1992781BD91BDEEEFF3E0A0E652
:10008000B0E088278D933197E9F788E089B980E05F
:1000900080BD88E18AB9662470E071B970E270B9F8
:1000A0000E9459120E9427135A924A928FE0D2015D
:1000B0008C9381E00E9474135A924A9280E0D2019C
:1000C0008C9381E00E9474130E945D0D249682E05F
:1000D0000E94AD125A924A9282E0D2018C9381E042
:1000E0000E9474130E94DC07229681E00E94AD12E8
:1000F000E8E2F5E280E090E00E949913A7E6B0E024
:100100000E9478135A924A9281E0D2018C9381E046
:100110000E9474135A924A9281E0D2018C9381E03A
:100120000E9474130E948C0D249682E00E94AD12EE
:100130005A924A9280E0D2018C9381E00E9474131B
:100140005A924A9287E0D2018C9381E00E94741304
:100150000E945D0D249682E00E94AD12A7E6B0E0F9
:10016000BA93AA935A924A9281E0D2018C9381E089
:100170000E9474130E943106249681E00E94AD1201
:100180005A924A9280E0D2018C9381E00E947413CB
:100190000E946408229681E00E94AD12A7E6B0E0BA
:1001A00088278C935A924A9281E0D2018C9381E005
:1001B0000E9474135A924A9282E0D2018C9381E099
:1001C0000E9474135A924A9280E5D2018C9381E086
:1001D0000E9474135A924A9287E1D2018C9381E073
:1001E0000E9474135A924A928FE0D2018C9381E05C
:1001F0000E9474135A924A9284E0D2018C9381E057
:100200000E947413A7E6B0E0BA93AA930E94830FEA
:100210002E9686E00E94AD125A924A9289E1D2014E
:100220008C9381E00E9474135A924A928AE0D20120
:100230008C9381E00E9474135A924A9284E1D20115
:100240008C9381E00E9474135A924A9284E0D20106
:100250008C9381E00E9474135A924A9280E0D201FA
:100260008C9381E00E9474135A924A9287E0D201E3
:100270008C9381E00E947413A7E6B0E0BA93AA932E
:100280000E94830F2E9686E00E94AD12E2E0F5E216
:1002900080E090E00E949913A7E6B0E00E947813F6
:1002A0005A924A928BE1D2018C9381E00E9474139E
:1002B0005A924A928BE0D2018C9381E00E9474138F
:1002C0000E948C0D249682E00E94AD12A7E6B0E059
:1002D000BA93AA935A924A9281E0D2018C9381E018
:1002E0000E9474130E943106249681E00E94AD1290
:1002F000EAE0F5E280E090E00E949913A7E6B0E022
:100300000E9478135A924A928BE1D2018C9381E039
:100310000E9474135A924A928CE0D2018C9381E02D
:100320000E9474130E948C0D249682E00E94AD12EC
:10033000A7E6B0E0BA93AA935A924A9281E0D2011A
:100340008C9381E00E9474130E943106249681E010
:100350000E94AD120E945A055A924A9208EE13E08A
:1003600020E030E0D2010D931D932D933C9384E067
:100370000E9474130E94E905229684E00E94AD1247
:10038000A0E6B0E0BA93AA930E94170222960E94B8
:10039000110A5A924A9280E0D2018C9381E00E9425
:1003A00074135A924A9287E0D2018C9381E00E94A2
:1003B00074130E945D0D249682E00E94AD12A0E6A7
:1003C000B0E0BA93AA935A924A9281E2D2018C93F6
:1003D00081E00E9474135A924A928BE0D2018C936E
:1003E00081E00E9474130E94E003269682E00E943E
:1003F000AD12A0E6B0E0BA93AA935A924A9281E273
:10040000D2018C9381E00E9474135A924A928CE03C
:10041000D2018C9381E00E9474130E94620226969E
:1004200082E00E94AD120C94AA01F894FFCF0E94C2
:100430003C1310ED0E94441310E00E9444130E94EC
:100440003C1311ED0E9444130E946113A881B981ED
:100450001C930E946113A880B980A1E0B0E0AA0DAE
:10046000BB1D1C930E946113A880B980A2E0B0E07C
:10047000AA0DBB1D1C930E946113A880B980A3E044
:10048000B0E0AA0DBB1D1C930E946113A880B98027
:10049000A4E0B0E0AA0DBB1D1C930E946113A880CC
:1004A000B980A5E0B0E0AA0DBB1D1C930E945F13AC
:1004B000A880B980A6E0B0E0AA0DBB1D1C930E94E5
:1004C0003E13089581E00E946E1381E00E946E1336
:1004D00081E00E946E1381E00E946E135A924A924C
:1004E000AC85BD858C91D2018C9381E00E94741300
:1004F0005A924A92AC85BD858C91D2018C9381E051
:100500000E9474130E948C0D249682E00E94AD120A
:10051000AC84BD84A4E0B0E0AA0DBB1D8C91A88181
:10052000B9818C93A881B9819C910E940813A881FC
:10053000B9818C93AC84BD84A5E0B0E0AA0DBB1D4D
:100540008C91AA81BB818C93AA81BB819C910E94D2
:100550000813AA81BB818C93AC84BD84A6E0B0E073
:10056000AA0DBB1D8C91AC81BD818C93AC81BD81EA
:100570009C910E940813AC81BD818C93A881B981A4
:100580000C914AE00E94B513AE81BF810C93AE81FD
:10059000BF818C91805D8C935A924A92A885B985CF
:1005A0008C91D2018C9381E00E9474135A924A92EA
:1005B00080E0D2018C9381E00E9474130E940806AF
:1005C000249682E00E94AD12A881B9810C914AE084
:1005D0000E94B513AE81BF818C93AE81BF818C9197
:1005E000805D8C935A924A92A885B9858C91D201EC
:1005F0008C9381E00E9474135A924A9280E0D20157
:100600008C9381E00E9474130E940806249682E075
:100610000E94AD128DE2AE81BF818C935A924A92B4
:10062000A885B9858C91D2018C9381E00E947413C6
:100630005A924A9280E0D2018C9381E00E94741316
:100640000E940806249682E00E94AD12AA81BB8116
:100650000C914AE00E94B513AE81BF810C93AE812C
:10066000BF818C91805D8C935A924A92A885B985FE
:100670008C91D2018C9381E00E9474135A924A9219
:1006800080E0D2018C9381E00E9474130E940806DE
:10069000249682E00E94AD12AA81BB810C914AE0AF
:1006A0000E94B513AE81BF818C93AE81BF818C91C6
:1006B000805D8C935A924A92A885B9858C91D2011B
:1006C0008C9381E00E9474135A924A9280E0D20186
:1006D0008C9381E00E9474130E940806249682E0A5
:1006E0000E94AD128DE2AE81BF818C935A924A92E4
:1006F000A885B9858C91D2018C9381E00E947413F6
:100700005A924A9280E0D2018C9381E00E94741345
:100710000E940806249682E00E94AD12AC81BD8141
:100720000C914AE00E94B513AE81BF810C93AE815B
:10073000BF818C91805D8C935A924A92A885B9852D
:100740008C91D2018C9381E00E9474135A924A9248
:1007500080E0D2018C9381E00E9474130E9408060D
:10076000249682E00E94AD12AC81BD810C914AE0DA
:100770000E94B513AE81BF818C93AE81BF818C91F5
:10078000805D8C935A924A92A885B9858C91D2014A
:100790008C9381E00E9474135A924A9280E0D201B5
:1007A0008C9381E00E9474130E940806249682E0D4
:1007B0000E94AD1284E0481A80E0580A28960895F5
:1007C00081E00E946E1381E00E946E1381E00E941E
:1007D0006E1381E00E946E135A924A92AC85BD85D9
:1007E0008C91D2018C9381E00E9474135A924A92A8
:1007F000AC85BD858C91D2018C9381E00E947413ED
:100800000E948C0D249682E00E94AD12AC85BD85BD
:100810008C91A881B9818C93A881B9819C910E9407
:100820000813A881B9818C93AC84BD84A1E0B0E0A9
:10083000AA0DBB1D8C91AA81BB818C93AA81BB811F
:100840009C910E940813AA81BB818C93AC84BD84C7
:10085000A2E0B0E0AA0DBB1D8C91AC81BD818C9350
:10086000AC81BD819C910E940813AC81BD818C93A9
:10087000AC81BD810C914AE00E94B513AE81BF816D
:100880000C93AE81BF818C91805D8C935A924A9279
:10089000A885B9858C91D2018C9381E00E94741354
:1008A0005A924A9280E0D2018C9381E00E947413A4
:1008B0000E940806249682E00E94AD12AC81BD81A0
:1008C0000C914AE00E94B513AE81BF818C93AE813A
:1008D000BF818C91805D8C935A924A92A885B9858C
:1008E0008C91D2018C9381E00E9474135A924A92A7
:1008F00080E0D2018C9381E00E9474130E9408066C
:10090000249682E00E94AD128AE3AE81BF818C936F
:100910005A924A92A885B9858C91D2018C9381E034
:100920000E9474135A924A9280E0D2018C9381E023
:100930000E9474130E940806249682E00E94AD1261
:10094000AA81BB810C914AE00E94B513AE81BF81A0
:100950000C93AE81BF818C91805D8C935A924A92A8
:10096000A885B9858C91D2018C9381E00E94741383
:100970005A924A9280E0D2018C9381E00E947413D3
:100980000E940806249682E00E94AD12AA81BB81D3
:100990000C914AE00E94B513AE81BF818C93AE8169
:1009A000BF818C91805D8C935A924A92A885B985BB
:1009B0008C91D2018C9381E00E9474135A924A92D6
:1009C00080E0D2018C9381E00E9474130E9408069B
:1009D000249682E00E94AD128AE3AE81BF818C939F
:1009E0005A924A92A885B9858C91D2018C9381E064
:1009F0000E9474135A924A9280E0D2018C9381E053
:100A00000E9474130E940806249682E00E94AD1290
:100A1000A881B9810C914AE00E94B513AE81BF81D3
:100A20000C93AE81BF818C91805D8C935A924A92D7
:100A3000A885B9858C91D2018C9381E00E947413B2
:100A40005A924A9280E0D2018C9381E00E94741302
:100A50000E940806249682E00E94AD12A881B98106
:100A60000C914AE00E94B513AE81BF818C93AE8198
:100A7000BF818C91805D8C935A924A92A885B985EA
:100A80008C91D2018C9381E00E9474135A924A9205
:100A900080E0D2018C9381E00E9474130E940806CA
:100AA000249682E00E94AD1284E0481A80E0580A41
:100AB00028960895EAE1F5E280E090E00E9499131B
:100AC000A7E6B0E00E9478135A924A928AE0D201D7
:100AD0008C9381E00E9474135A924A9280E0D20172
:100AE0008C9381E00E9474130E945D0D249682E035
:100AF0000E94AD125A924A9281E0D2018C9381E019
:100B00000E9474135A924A9289E1D2018C9381E037
:100B10000E9474130E948C0D249682E00E94AD12F4
:100B2000A7E6B0E0BA93AA935A924A9281E0D20122
:100B30008C9381E00E9474130E943106249681E018
:100B40000E94AD125A924A928FE0D2018C9381E0BA
:100B50000E9474130E941C0B229681E00E94AD1229
:100B60000E94960A5A924A9280E0D2018C9381E0C8
:100B70000E9474130E946408229681E00E94AD12C4
:100B80000E94D90A0E948C09089540E050E060E07C
:100B900070E0A881B9810D911D912D913C910417B0
:100BA00015072607370718F011F00C94D9050C9497
:100BB000E805000000000000000000000000000048
:100BC00000000000A881B9810E94B5120C94C505EF
:100BD000089540E050E060E070E0A881B9810D9197
:100BE0001D912D913C91041715072607370718F022
:100BF00011F00C94FD050C94070681E090E00E9432
:100C00001813A881B9810E94B5120C94E9050895C2
:100C1000A881B9810C91003011F00C9411060C944C
:100C20002B06013011F00C942B06AA81BB810C918C
:100C300007FB16F00C942B06AA81BB818C918F7751
:100C40008C93ECE2F4E2AA81BB818C919927AA8172
:100C5000BB810E94961331E0AA81BB810E94FF12E2
:100C6000089581E00E946E1381E00E946E1382E07D
:100C70000E946E13A885B9850E94C513082F003005
:100C800011F00C9445060C94890681E0AC81BD817D
:100C90008C93A885B9850E94C513482FAC81BD816E
:100CA0000C91041718F011F00C948906AC81BD81E9
:100CB0008C91E885F98501E00A93A981BA810E94A7
:100CC000A613A881B9818C91AA81BB818C935A9279
:100CD0004A92AC81BD818C91D2018C9381E00E94BB
:100CE00074135A924A92AA85BB858C91D2018C9337
:100CF00081E00E9474130E940806249682E00E94FC
:100D0000AD12AC81BD818C918F5F8C9310F40C94EB
:100D1000490684E0481A80E0580A2696089581E042
:100D20000E946E135A924A928BE1D2018C9381E019
:100D30000E9474135A924A9280E0D2018C9381E00F
:100D40000E9474130E940806249682E00E94AD124D
:100D50005A924A928BE5D2018C9381E00E947413DF
:100D60005A924A9280E0D2018C9381E00E947413DF
:100D70000E940806249682E00E94AD12AC81BD81DB
:100D80000C9144E60E94B513A881B9810C93A88107
:100D9000B9818C91805D8C935A924A92AA81BB81D1
:100DA0008C91D2018C9381E00E9474135A924A92E2
:100DB00080E0D2018C9381E00E9474130E940806A7
:100DC000249682E00E94AD12AC81BD810D911C91F0
:100DD00044E650E00E94E512AC81BD810D931C9366
:100DE000AC81BD810C914AE00E94B513A881B98104
:100DF0000C93A881B9818C91805D8C935A924A9210
:100E0000AA81BB818C91D2018C9381E00E947413E2
:100E10005A924A9280E0D2018C9381E00E9474132E
:100E20000E940806249682E00E94AD12AC81BD812A
:100E30000C914AE00E94B513A881B9818C93A881D6
:100E4000B9818C91805D8C935A924A92AA81BB8120
:100E50008C91D2018C9381E00E9474135A924A9231
:100E600080E0D2018C9381E00E9474130E940806F6
:100E7000249682E00E94AD128BE3A881B9818C9305
:100E80005A924A92AA81BB818C91D2018C9381E0C3
:100E90000E9474135A924A9280E0D2018C9381E0AE
:100EA0000E9474130E940806249682E00E94AD12EC
:100EB000AA81BB810C914AE00E94B513A881B98137
:100EC0000C93A881B9818C91805D8C935A924A923F
:100ED000AA81BB818C91D2018C9381E00E94741312
:100EE0005A924A9280E0D2018C9381E00E9474135E
:100EF0000E940806249682E00E94AD12AA81BB815E
:100F00000C914AE00E94B513A881B9818C93A88105
:100F1000B9818C91805D8C935A924A92AA81BB814F
:100F20008C91D2018C9381E00E9474135A924A9260
:100F300080E0D2018C9381E00E9474130E94080625
:100F4000249682E00E94AD1282E4A881B9818C933C
:100F50005A924A92AA81BB818C91D2018C9381E0F2
:100F60000E9474135A924A9280E0D2018C9381E0DD
:100F70000E9474130E940806249682E00E94AD121B
:100F80005A924A9287E0D2018C9381E00E947413B6
:100F90005A924A9280E0D2018C9381E00E947413AD
:100FA0000E940806249682E00E94AD1281E0481A51
:100FB00080E0580A2296089581E00E946E135A92AA
:100FC0004A928BE1D2018C9381E00E9474135A9271
:100FD0004A9280E0D2018C9381E00E9474130E94B7
:100FE0000806249682E00E94AD125A924A928BE53E
:100FF000D2018C9381E00E9474135A924A9280E04D
:10100000D2018C9381E00E9474130E9408062496FA
:1010100082E00E94AD12AA81BB810C91003011F0D8
:101020000C94180880E3A881B9818C930C94300843
:10103000013011F00C94220881E3A881B9818C93CE
:101040000C943008023011F00C942C0882E3A88133
:10105000B9818C930C94300882E3A881B9818C9378
:101060005A924A92AA81BB818C91D2018C9381E0E1
:101070000E9474135A924A9280E0D2018C9381E0CC
:101080000E9474130E940806249682E00E94AD120A
:101090005A924A928AE4D2018C9381E00E9474139E
:1010A0005A924A9280E0D2018C9381E00E9474139C
:1010B0000E940806249682E00E94AD1281E0481A40
:1010C00080E0580A2296089581E00E946E135A9299
:1010D0004A928BE1D2018C9381E00E9474135A9260
:1010E0004A9280E0D2018C9381E00E9474130E94A6
:1010F0000806249682E00E94AD125A924A928BE52D
:10110000D2018C9381E00E9474135A924A9280E03B
:10111000D2018C9381E00E9474130E9408062496E9
:1011200082E00E94AD12AA81BB810C91003011F0C7
:101130000C94A00880E3A881B9818C930C94B80822
:10114000013011F00C94AA0881E3A881B9818C9335
:101150000C94B808023011F00C94B40882E3A88112
:10116000B9818C930C94B80880E3A881B9818C93E1
:101170005A924A92AA81BB818C91D2018C9381E0D0
:101180000E9474135A924A9280E0D2018C9381E0BB
:101190000E9474130E940806249682E00E94AD12F9
:1011A0005A924A928BE4D2018C9381E00E9474138C
:1011B0005A924A9280E0D2018C9381E00E9474138B
:1011C0000E940806249682E00E94AD1281E0481A2F
:1011D00080E0580A2296089581E00E946E13AA8149
:1011E000BB810C91003011F00C94F8080C94860926
:1011F0005A924A928BE1D2018C9381E00E9474133F
:101200005A924A9280E0D2018C9381E00E9474133A
:101210000E940806249682E00E94AD125A924A92D9
:101220008BE5D2018C9381E00E9474135A924A920A
:1012300080E0D2018C9381E00E9474130E94080622
:10124000249682E00E94AD12AA81BB810C914AE0F3
:101250000E94B513A881B9810C93A881B9818C91A2
:10126000805D8C935A924A92AA81BB818C91D20163
:101270008C9381E00E9474135A924A9280E0D201CA
:101280008C9381E00E9474130E940806249682E0E9
:101290000E94AD12AA81BB810C914AE00E94B51355
:1012A000A881B9818C93A881B9818C91805D8C9340
:1012B0005A924A92AA81BB818C91D2018C9381E08F
:1012C0000E9474135A924A9280E0D2018C9381E07A
:1012D0000E9474130E940806249682E00E94AD12B8
:1012E0005A924A9288E5D2018C9381E00E9474134D
:1012F0005A924A9280E0D2018C9381E00E9474134A
:101300000E940806249682E00E94AD1281E0481AED
:1013100080E0580A229608955A924A928BE1D201AF
:101320008C9381E00E9474135A924A9280E0D20119
:101330008C9381E00E9474130E940806249682E038
:101340000E94AD125A924A928BE5D2018C9381E0B1
:101350000E9474135A924A9280E0D2018C9381E0E9
:101360000E9474130E940806249682E00E94AD1227
:101370005A924A928FE3D2018C9381E00E947413B7
:101380005A924A9280E0D2018C9381E00E947413B9
:101390000E940806249682E00E94AD125A924A9258
:1013A00082E3D2018C9381E00E9474135A924A9294
:1013B00080E0D2018C9381E00E9474130E940806A1
:1013C000249682E00E94AD125A924A9285E3D2019D
:1013D0008C9381E00E9474135A924A9280E0D20169
:1013E0008C9381E00E9474130E940806249682E088
:1013F0000E94AD125A924A9288E6D2018C9381E003
:101400000E9474135A924A9280E0D2018C9381E038
:101410000E9474130E940806249682E00E94AD1276
:1014200008955A924A928BE1D2018C9381E00E94F6
:1014300074135A924A9280E0D2018C9381E00E9408
:1014400074130E940806249682E00E94AD125A92FC
:101450004A928BE5D2018C9381E00E9474135A92D8
:101460004A9280E0D2018C9381E00E9474130E9422
:101470000806249682E00E94AD125A924A928FE3A7
:10148000D2018C9381E00E9474135A924A9280E0B8
:10149000D2018C9381E00E9474130E940806249666
:1014A00082E00E94AD125A924A9282E3D2018C935A
:1014B00081E00E9474135A924A9280E0D2018C9388
:1014C00081E00E9474130E940806249682E00E9424
:1014D000AD125A924A9285E3D2018C9381E00E9428
:1014E00074135A924A9280E0D2018C9381E00E9458
:1014F00074130E940806249682E00E94AD125A924C
:101500004A928CE6D2018C9381E00E9474135A9225
:101510004A9280E0D2018C9381E00E9474130E9471
:101520000806249682E00E94AD1208955A924A92CB
:101530008BE1D2018C9381E00E9474135A924A92FB
:1015400080E0D2018C9381E00E9474130E9408060F
:10155000249682E00E94AD125A924A928BE5D20103
:101560008C9381E00E9474135A924A9280E0D201D7
:101570008C9381E00E9474130E940806249682E0F6
:101580000E94AD125A924A9283E7D2018C9381E075
:101590000E9474135A924A9280E0D2018C9381E0A7
:1015A0000E9474130E940806249682E00E94AD12E5
:1015B00008955A924A928BE1D2018C9381E00E9465
:1015C00074135A924A9280E0D2018C9381E00E9477
:1015D00074130E940806249682E00E94AD125A926B
:1015E0004A928BE5D2018C9381E00E9474135A9247
:1015F0004A9280E0D2018C9381E00E9474130E9491
:101600000806249682E00E94AD125A924A9285E71B
:10161000D2018C9381E00E9474135A924A9280E026
:10162000D2018C9381E00E9474130E9408062496D4
:1016300082E00E94AD12089581E00E946E135A92DA
:101640004A928BE1D2018C9381E00E9474135A92EA
:101650004A9280E0D2018C9381E00E9474130E9430
:101660000806249682E00E94AD125A924A928BE5B7
:10167000D2018C9381E00E9474135A924A9280E0C6
:10168000D2018C9381E00E9474130E940806249674
:1016900082E00E94AD12AA81BB810C9103FB16F07F
:1016A0000C94580B81E3A881B9818C930C945C0B4A
:1016B00082E3A881B9818C935A924A92AA81BB8114
:1016C0008C91D2018C9381E00E9474135A924A92B9
:1016D00080E0D2018C9381E00E9474130E9408067E
:1016E000249682E00E94AD125A924A928DE6D2016F
:1016F0008C9381E00E9474135A924A9280E0D20146
:101700008C9381E00E9474130E940806249682E064
:101710000E94AD125A924A928BE1D2018C9381E0E1
:101720000E9474135A924A9280E0D2018C9381E015
:101730000E9474130E940806249682E00E94AD1253
:101740005A924A928BE5D2018C9381E00E947413E5
:101750005A924A9280E0D2018C9381E00E947413E5
:101760000E940806249682E00E94AD125A924A9284
:1017700083E3D2018C9381E00E9474135A924A92BF
:1017800080E0D2018C9381E00E9474130E940806CD
:10179000249682E00E94AD12AA81BB818C91877051
:1017A0008C93AA81BB818C91805D8C935A924A92D2
:1017B000AC81BD818C91D2018C9381E00E94741325
:1017C0005A924A9280E0D2018C9381E00E94741375
:1017D0000E940806249682E00E94AD125A924A9214
:1017E0008DE6D2018C9381E00E9474135A924A9242
:1017F00080E0D2018C9381E00E9474130E9408065D
:10180000249682E00E94AD1281E0481A80E0580AD6
:101810002296089581E00E946E135A924A928BE1BB
:10182000D2018C9381E00E9474135A924A9280E014
:10183000D2018C9381E00E9474130E9408062496C2
:1018400082E00E94AD125A924A928BE5D2018C93AB
:1018500081E00E9474135A924A9280E0D2018C93E4
:1018600081E00E9474130E940806249682E00E9480
:10187000AD12AA81BB810C9103FB16F00C94460CAF
:1018800085E3A881B9818C930C944A0C86E3A881E6
:10189000B9818C935A924A92AA81BB818C91D201D0
:1018A0008C9381E00E9474135A924A9280E0D20194
:1018B0008C9381E00E9474130E940806249682E0B3
:1018C0000E94AD125A924A928DE6D2018C9381E029
:1018D0000E9474135A924A9280E0D2018C9381E064
:1018E0000E9474130E940806249682E00E94AD12A2
:1018F0005A924A928BE1D2018C9381E00E94741338
:101900005A924A9280E0D2018C9381E00E94741333
:101910000E940806249682E00E94AD125A924A92D2
:101920008BE5D2018C9381E00E9474135A924A9203
:1019300080E0D2018C9381E00E9474130E9408061B
:10194000249682E00E94AD125A924A9284E3D20118
:101950008C9381E00E9474135A924A9280E0D201E3
:101960008C9381E00E9474130E940806249682E002
:101970000E94AD12AA81BB818C9187708C93AA8141
:10198000BB818C91805D8C935A924A92AC81BD81CF
:101990008C91D2018C9381E00E9474135A924A92E6
:1019A00080E0D2018C9381E00E9474130E940806AB
:1019B000249682E00E94AD125A924A928DE6D2019C
:1019C0008C9381E00E9474135A924A9280E0D20173
:1019D0008C9381E00E9474130E940806249682E092
:1019E0000E94AD1281E0481A80E0580A22960895BC
:1019F0005A924A928BE1D2018C9381E00E94741337
:101A00005A924A9280E0D2018C9381E00E94741332
:101A10000E940806249682E00E94AD125A924A92D1
:101A20008BE5D2018C9381E00E9474135A924A9202
:101A300080E0D2018C9381E00E9474130E9408061A
:101A4000249682E00E94AD12A881B9818C918F709A
:101A50008C93A881B9818C91805D8C935A924A9223
:101A6000AA81BB818C91D2018C9381E00E94741376
:101A70005A924A9280E0D2018C9381E00E947413C2
:101A80000E940806249682E00E94AD125A924A9261
:101A90008DE6D2018C9381E00E9474135A924A928F
:101AA00080E0D2018C9381E00E9474130E940806AA
:101AB000249682E00E94AD1208955A924A9280E0E4
:101AC000D2018C9381E00E9474130E94F80C22963C
:101AD00081E00E94AD125A924A92AC81BD818C91F4
:101AE000D2018C9381E00E9474130E941C0B2296F9
:101AF00081E00E94AD125A924A92AA81BB818C91D8
:101B0000D2018C9381E00E9474130E940A0C2296E9
:101B100081E00E94AD12089581E00E946E13AC81B5
:101B2000BD810C91003081E009F080E08F93AA81A3
:101B3000BB810C91003081E009F080E09F91892BFE
:101B4000882311F40C94A60D0C94B50EAC81BD81C4
:101B50000C91003580E010F009F081E08F93AA81AC
:101B6000BB810C91093180E010F009F081E09F9178
:101B7000892B882311F40C94BF0D0C94B50E5A9246
:101B80004A928BE1D2018C9381E00E9474135A92A5
:101B90004A9280E0D2018C9381E00E9474130E94EB
:101BA0000806249682E00E94AD125A924A928BE572
:101BB000D2018C9381E00E9474135A924A9280E081
:101BC000D2018C9381E00E9474130E94080624962F
:101BD00082E00E94AD12AA81BB810C914AE00E9472
:101BE000B513A881B9810C93A881B9818C91805DCE
:101BF0008C935A924A92AA81BB818C91D2018C9388
:101C000081E00E9474135A924A9280E0D2018C9330
:101C100081E00E9474130E940806249682E00E94CC
:101C2000AD12AA81BB810C914AE00E94B513A88134
:101C3000B9818C93A881B9818C91805D8C935A92E3
:101C40004A92AA81BB818C91D2018C9381E00E943F
:101C500074135A924A9280E0D2018C9381E00E94E0
:101C600074130E940806249682E00E94AD128BE352
:101C7000A881B9818C935A924A92AA81BB818C9196
:101C8000D2018C9381E00E9474135A924A9280E0B0
:101C9000D2018C9381E00E9474130E94080624965E
:101CA00082E00E94AD12AC81BD810C914AE00E949D
:101CB000B513A881B9810C93A881B9818C91805DFD
:101CC0008C935A924A92AA81BB818C91D2018C93B7
:101CD00081E00E9474135A924A9280E0D2018C9360
:101CE00081E00E9474130E940806249682E00E94FC
:101CF000AD12AC81BD810C914AE00E94B513A88160
:101D0000B9818C93A881B9818C91805D8C935A9212
:101D10004A92AA81BB818C91D2018C9381E00E946E
:101D200074135A924A9280E0D2018C9381E00E940F
:101D300074130E940806249682E00E94AD125A9203
:101D40004A9286E6D2018C9381E00E9474135A92E3
:101D50004A9280E0D2018C9381E00E9474130E9429
:101D60000806249682E00E94AD1281E0481A80E0C5
:101D7000580A2296089581E00E946E135A924A9260
:101D80008BE1D2018C9381E00E9474135A924A92A3
:101D900080E0D2018C9381E00E9474130E940806B7
:101DA000249682E00E94AD125A924A928BE5D201AB
:101DB0008C9381E00E9474135A924A9280E0D2017F
:101DC0008C9381E00E9474130E940806249682E09E
:101DD0000E94AD12AA81BB810C914AE00E94B5130A
:101DE000A881B9810C93A881B9818C91805D8C9375
:101DF0005A924A92AA81BB818C91D2018C9381E044
:101E00000E9474135A924A9280E0D2018C9381E02E
:101E10000E9474130E940806249682E00E94AD126C
:101E2000AA81BB810C914AE00E94B513A881B981B7
:101E30008C93A881B9818C91805D8C935A924A923F
:101E4000AA81BB818C91D2018C9381E00E94741392
:101E50005A924A9280E0D2018C9381E00E947413DE
:101E60000E940806249682E00E94AD12AC81BD81DA
:101E70000C91003011F00C94430F81E4A881B981DA
:101E80008C930C94650F013011F00C944D0F82E48B
:101E9000A881B9818C930C94650F023011F00C94D9
:101EA000570F83E4A881B9818C930C94650F03309C
:101EB00011F00C94610F84E4A881B9818C930C9487
:101EC000650F83E4A881B9818C935A924A92AA81C2
:101ED000BB818C91D2018C9381E00E9474135A9241
:101EE0004A9280E0D2018C9381E00E9474130E9498
:101EF0000806249682E00E94AD1281E0481A80E034
:101F0000580A2296089581E00E946E1381E00E9493
:101F10006E1381E00E946E1381E00E946E1381E0D7
:101F20000E946E1381E00E946E135A924A92AA890F
:101F3000BB898C91D2018C9381E00E9474135A92D8
:101F40004A92AA89BB898C91D2018C9381E00E942C
:101F500074130E945D0D249682E00E94AD125A9285
:101F60004A92AA8DBB8D8C91D2018C9381E00E9404
:101F700074135A924A92AA8DBB8D8C91D2018C9384
:101F800081E00E9474130E948C0D249682E00E94CE
:101F9000AD12AC85BD850E94C513AC81BD818C930B
:101FA000AC89BD898C9182508C935A924A9289EC6B
:101FB000D2018C9381E00E9474135A924A9280E07D
:101FC000D2018C9381E00E9474130E94080624962B
:101FD00082E00E94AD12AC81BD810C91003011F401
:101FE0000C94B810AC89BD890C91AC81BD814C9129
:101FF000041BAA81BB810C9391E0AA81BB810E9442
:102000007E13AA81BB810E94B11281E0AA85BB85A3
:102010008C93AA81BB814C91AA85BB850C91041736
:1020200018F011F00C9432105A924A928DECD201B1
:102030008C9381E00E9474135A924A9280E0D201FC
:102040008C9381E00E9474130E940806249682E01B
:102050000E94AD12AA85BB858C918F5F8C9310F482
:102060000C9409105A924A9280E2D2018C9381E03A
:102070000E9474135A924A9280E0D2018C9381E0BC
:102080000E9474130E940806249682E00E94AD12FA
:10209000AC85BD85BA93AA935A924A9281E0D20147
:1020A0008C9381E00E9474130E943106249681E093
:1020B0000E94AD125A924A9280E2D2018C9381E042
:1020C0000E9474135A924A9280E0D2018C9381E06C
:1020D0000E9474130E940806249682E00E94AD12AA
:1020E000AC89BD890C91AA81BB814C91041BA8814C
:1020F000B9810C93A881B9810C91AC81BD814C91BF
:10210000041BA881B9810C93A881B9818C9182505C
:102110008C9381E0AA85BB858C93A881B9814C9171
:10212000AA85BB850C91041718F011F00C94B61019
:102130005A924A928DECD2018C9381E00E947413E2
:102140005A924A9280E0D2018C9381E00E947413EB
:102150000E940806249682E00E94AD12AA85BB85E3
:102160008C918F5F8C9310F40C948D100C94E5106F
:1021700081E0AA85BB858C93AC89BD894C91AA85E9
:10218000BB850C91041718F011F00C94E5105A92CD
:102190004A928DECD2018C9381E00E9474135A9282
:1021A0004A9280E0D2018C9381E00E9474130E94D5
:1021B0000806249682E00E94AD12AA85BB858C9108
:1021C0008F5F8C9310F40C94BC105A924A928BEB54
:1021D000D2018C9381E00E9474135A924A9280E05B
:1021E000D2018C9381E00E9474130E940806249609
:1021F00082E00E94AD12AA89BB890E94B11281E0DF
:10220000AA85BB858C93AA89BB894C91AA85BB857D
:102210000C91041718F011F00C949311AE89BF893A
:102220000C91AA85BB854C91040FAE81BF810C93A4
:102230005A924A92AA8DBB8D8C91D2018C9381E0E7
:102240000E9474135A924A92AA85BB858C91D2013E
:102250008C9381E00E9474130E948C0D249682E07E
:102260000E94AD125A924A928AEBD2018C9381E07D
:102270000E9474135A924A9280E0D2018C9381E0BA
:102280000E9474130E940806249682E00E94AD12F8
:1022900081E0A885B9858C93AC89BD894C91A885CE
:1022A000B9850C91041718F011F00C9475115A921D
:1022B0004A9280E2D2018C9381E00E9474135A9278
:1022C0004A9280E0D2018C9381E00E9474130E94B4
:1022D0000806249682E00E94AD12A885B9858C91EB
:1022E0008F5F8C9310F40C944C115A924A928AEBA3
:1022F000D2018C9381E00E9474135A924A9280E03A
:10230000D2018C9381E00E9474130E9408062496E7
:1023100082E00E94AD12AA85BB858C918F5F8C9361
:1023200010F40C940311AE89BF890C91AA89BB8962
:102330004C91040FAE81BF810C935A924A92AA8DA0
:10234000BB8D8C91D2018C9381E00E9474135A92C0
:102350004A92AA85BB858C91D2018C9381E00E9420
:1023600074130E948C0D249682E00E94AD125A9242
:102370004A9288ECD2018C9381E00E9474135A92A5
:102380004A9280E0D2018C9381E00E9474130E94F3
:102390000806249682E00E94AD1281E0AA85BB85E2
:1023A0008C93AC89BD894C91AA85BB850C9104178F
:1023B00018F011F00C94FA115A924A928DECD20155
:1023C0008C9381E00E9474135A924A9280E0D20169
:1023D0008C9381E00E9474130E940806249682E088
:1023E0000E94AD12AA85BB858C918F5F8C9310F4EF
:1023F0000C94D1115A924A928CEBD2018C9381E0C9
:102400000E9474135A924A9280E0D2018C9381E028
:102410000E9474130E940806249682E00E94AD1266
:1024200086E0481A80E0580A2C96089520202C2037
:10243000202020202020203C202020202027272270
:1024400022F92D2D2020203E20202020FF20206A50
:1024500020207C20F020202220202020F820496904
:10246000202020FAF12320226A5373208081828366
:102470008485868788898A8B8C8D8E8F90919293A4
:102480009495969798999A9B9C9D9E9FA0A1A2A394
:10249000A4A5A6A7A8A9AAABACADAEAFE0E1E2E3C4
:1024A000E4E5E6E7E8E9EAEBECEDEEEF0C94561232
:1024B00008950E9463120E945E12089570E07BBF2F
:1024C00070E079BF089570B77B7F70BF70E07ABB12
:1024D00070E07BBB73EF77BB70E078BB70E474BBDC
:1024E00070E075BB70E271BB74E172BB0895089532
:1024F00008950895089508950895089508950895F4
:10250000089554696D653A200000446174653A206D
:10251000000044533133303700005B41546D656730
:102520006131365D24200000CAEEECE0EDE4EDE020
:10253000FF20EEE1EEEBEEF7EAE02C20E2E5F0F131
:10254000E8FF20302E312028426173636F6D2041F7
:1025500056522900481A590A0895481A8827580AD5
:1025600008958C9181508C9308950D911D912D911A
:102570003C9101501040204030403C932E931E93DC
:102580000E93089500FC10D0089503D01ED001F8DA
:10259000F9CF0024E89457FF02C009D0689400F8EE
:1025A0000BD010F80124089502D009D00895509559
:1025B00040954F5F5F4F0895E89417FF0895009589
:1025C00010950F5F1F4F68940895352F242FE894BE
:1025D000452B11F468940895512F402F002711279F
:1025E00080E1440F551F001F111F021B130B416098
:1025F00018F4020F131F4E7F8A9599F708958D9155
:1026000003D03A95E1F708955D9BFECF8CB908950C
:10261000892F8F70905110F0865FFCCF089531970D
:10262000F1F70895689462F80895E89462F80895BF
:10263000EF93FF93EE27E82BE92B31F0E0EDF7E085
:102640003197F1F70197D1F7FF91EF910895A99A8A
:10265000A89AA198A0980895689446BF8F939F93D5
:1026600088279927019621F046B747FFFBCFE894CA
:102670009F918F9162F8089544EAEECF44E946BFF6
:1026800046B747FDFDCF089513B944E8E5DF8F93C2
:102690009F9388279927019669F041B1487F483F69
:1026A000D1F3E894483139F0483229F0403419F038
:1026B000403509F068949F918F9162F8089544E83D
:1026C00001C044ECC9DF13B141B1487F483FE1F399
:1026D00008955A924A92480E591E08955A924A9263
:1026E000480E8827581E0895480E8827581E0895BA
:1026F0000E9486130D920020D9F70895903029F09A
:102700008C9186959A95E9F78C930895C8953196A2
:102710000020089591E005C092E003C094E001C05C
:1027200098E0F4DF0D929A95E1F70895E80FF91F0C
:10273000F1CF882311F4992329F00E948613E9F739
:102740000197D9F7089588278D930895099191915C
:10275000992351F08A95D9F7319781918D930A95F4
:1027600019F08823D1F70895EECFFF93881BF9E085
:10277000001FFA9511F4FF910895881F841B18F427
:10278000840F8894F5CF0894F3CF8FEF83959D91B4
:062790009923E1F7089512
:00000001FF
