:100000000C942A001895000018950000189500001F
:10001000189500001895000018950000189500002C
:10002000189500001895000018950000189500001C
:10003000189500001895000018950000189500000C
:1000400018950000189500001895000018950000FC
:10005000189500008FE58DBFC8E3E0E04E2E84E0E8
:100060008EBFD4E0F4E05F2EA89584B7082E877F7A
:1000700084BF88E1992781BD91BDEEEFF3E0A0E652
:10008000B0E088278D933197E9F788E089B980E05F
:1000900080BD88E18AB9662470E071B970E270B9F8
:1000A0000E94890E0E94CE080E94B30A0E94B40AE0
:1000B0000E94410BA5E7B0E03EE20E9434113FB63A
:1000C000F894ABE6B0E0BA93AA930E94D1082296C6
:1000D000A5E7B0E0EEEBF4E20E944B1211F00C94B5
:1000E0007C003FB6F894ABE6B0E0BA93AA930E94C6
:1000F000EA0922960C94DA00A5E7B0E0E4ECF4E219
:100100000E944B1211F00C9490003FB6F894ABE6AD
:10011000B0E0BA93AA930E941D0922960C94DA00CB
:10012000A5E7B0E0EAECF4E20E944B1211F00C9467
:10013000AA000E94A80B0E944711A2E7B0E08C938E
:10014000009172000B3111F00C949B000E94B40AD4
:100150000C94DA00A5E7B0E0EEECF4E20E944B125A
:1001600011F00C94DA007FEF7ABB7AEA7BBB7FEF69
:1001700077BB7FE078BB0E9443053FB6F89482E0EE
:10018000D2018C9381E00E94D5110E94AE04229688
:1001900081E00E94C6110E94DE000E944711A2E782
:1001A000B0E08C93009172000B3111F00C94CD00F3
:1001B0000E94B40A0C945800F894FFCF81E00E948A
:1001C000CF1181E00E94CF1181E00E94CF1180E029
:1001D000A881B9818C93A881B9810C91063118F05E
:1001E00011F00C943701A881B9810C9142E0040F01
:1001F000AA81BB810C933FB6F89481E0D2018C9325
:1002000081E00E94D511AC81BD818C91D2018C938B
:1002100081E00E94D5110E940A06249682E00E9485
:10022000C611EAE7FDE1A881B9818C9199270E9466
:100230001912A5E7B0E00E94ED113FB6F894A5E7CA
:10024000B0E0BA93AA9380E0D2018C9381E00E943F
:10025000D5110E94C503249681E00E94C611A88191
:10026000B9818C918F5F8C9310F40C94EB0080E03B
:10027000AC81BD818C93AC81BD810C91073018F0AD
:1002800011F00C94A10104E0AC81BD814C91040FEC
:10029000AA81BB810C933FB6F89480E1D2018C9384
:1002A00081E00E94D511AC81BD818C91D2018C93EB
:1002B00081E00E94D5110E940A06249682E00E94E5
:1002C000C611A881B98186B38C93AC81BD819C9104
:1002D000A881B9810E94F311A881B9818C918170A4
:1002E0008C93A881B9810C91003011F00C94880195
:1002F0003FB6F89484E0D2018C9381E00E94D5113E
:100300000E946705229681E00E94C6110C94960116
:100310003FB6F89481E0D2018C9381E00E94D51120
:100320000E946705229681E00E94C6118EEF0E940E
:100330005E11AC81BD818C918F5F8C9310F40C9415
:100340003B0180E0AC81BD818C93AC81BD810C917F
:10035000073018F011F00C942802AC81BD810C918B
:10036000073011F00C94CA013FB6F89483E2D20131
:100370008C9381E00E94D51187E1D2018C9381E0BA
:100380000E94D5110E940A06249682E00E94C6119E
:100390000C94E80101E1AC81BD814C91040FAA816C
:1003A000BB810C933FB6F89480E1D2018C9381E03D
:1003B0000E94D511AC81BD818C91D2018C9381E0DA
:1003C0000E94D5110E940A06249682E00E94C6115E
:1003D000A881B98180B38C93AC81BD819C91A881A7
:1003E000B9810E94F311A881B9818C9181708C939D
:1003F000A881B9810C91003011F00C940F023FB626
:10040000F89484E0D2018C9381E00E94D5110E947F
:100410006705229681E00E94C6110C941D023FB62A
:10042000F89481E0D2018C9381E00E94D5110E9462
:100430006705229681E00E94C6118EEF0E945E1130
:10044000AC81BD818C918F5F8C9310F40C94A501CD
:1004500080E0AC81BD818C93AC81BD810C91073073
:1004600018F011F00C94920204E0AC81BD814C9123
:10047000040FAA81BB810C933FB6F89483E2D201AA
:100480008C9381E00E94D511AC81BD818C91D20109
:100490008C9381E00E94D5110E940A06249682E086
:1004A0000E94C611A881B98189B38C93AC81BD81AA
:1004B0009C91A881B9810E94F311A881B9818C9186
:1004C00081708C93A881B9810C91003011F00C944B
:1004D00079023FB6F89484E0D2018C9381E00E94C7
:1004E000D5110E946705229681E00E94C6110C94E6
:1004F00087023FB6F89481E0D2018C9381E00E949C
:10050000D5110E946705229681E00E94C6118EEFE8
:100510000E945E11AC81BD818C918F5F8C9310F431
:100520000C942C0280E0AC81BD818C93AC81BD81A8
:100530000C91073018F011F00C94FC0206E1AC812C
:10054000BD814C91041BAA81BB810C933FB6F894EA
:1005500083E2D2018C9381E00E94D511AC81BD81F0
:100560008C91D2018C9381E00E94D5110E940A06E1
:10057000249682E00E94C611A881B98183B38C932E
:10058000AC81BD819C91A881B9810E94F311A881A1
:10059000B9818C9181708C93A881B9810C910030C4
:1005A00011F00C94E3023FB6F89484E0D2018C93EE
:1005B00081E00E94D5110E946705229681E00E9489
:1005C000C6110C94F1023FB6F89481E0D2018C93ED
:1005D00081E00E94D5110E946705229681E00E9469
:1005E000C6118EEF0E945E11AC81BD818C918F5F30
:1005F0008C9310F40C94960283E0481A80E0580A19
:10060000269608953FBEAA81BB81ED91FC91A881F9
:10061000B9818C91808308953FBEA881B981ED9105
:10062000FC91AA81BB8180818C9308953FBE40E0FC
:1006300050E060E070E0A881B9810D911D912D918D
:100640003C91041715072607370718F011F00C9492
:100650002B030C943603EF93E3E0EA95F1F7EF9167
:10066000A881B9810E94E5100C94170308953FBE3C
:1006700040E050E060E070E0A881B9810D911D91EB
:100680002D913C91041715072607370718F011F034
:100690000C944C030C94560381E090E00E9472117C
:1006A000A881B9810E94E5100C94380308953FBEDB
:1006B000A881B9810C91003011F00C9461030C9465
:1006C0007B03013011F00C947B03AA81BB810C9158
:1006D00007FB16F00C947B03AA81BB818C918F776A
:1006E0008C93ECE1F1E1AA81BB818C919927AA81DD
:1006F000BB810E94161231E0AA81BB810E94561173
:10070000089581E00E94CF1181E00E94CF118BE11A
:10071000809360008BE58093610081E0AA81BB81BA
:100720008C93AA81BB81AD90BB24AFE5B0E0AA0D4C
:10073000BB1D8C91A881B9818C93A881B9810C9142
:10074000003018F011F00C94A7030C94BF0331E0B3
:10075000A881B9810E945611AA81BB818C918F5FBB
:100760008C93AA81BB81AD90BB24AFE5B0E0AA0D0C
:10077000BB1D8C91A881B9818C930C949D0382E060
:10078000481A80E0580A249608953FBE81E00E94EE
:10079000CF1182E00E94CF110E811F81A881B98103
:1007A0000D931C933FB6F894AA81BB81BA93AA9388
:1007B000AA81BB818D919C91D2018D939C9382E003
:1007C0000E94D5110E940C03249682E00E94C6115B
:1007D000AA81BB810C91003018F011F00C94F20347
:1007E0000C9426043FB6F894AA81BB818C91D20167
:1007F0008C9381E00E94D511AE81BF818C91D20192
:100800008C9381E00E94D5110E945703249682E0C8
:100810000E94C611A881B9810E94DE103FB6F894EB
:10082000AA81BB81BA93AA93AA81BB818D919C9125
:10083000D2018D939C9382E00E94D5110E940C03FB
:10084000249682E00E94C6110C94E80383E0481AC3
:1008500080E0580A249608958DE00E945E118AE097
:100860000E945E1108953FBE81E00E94CF11AC81CD
:10087000BD810C9144E60E943512A881B9810C9388
:10088000A881B9810C9140E3040FA2E6B0E00C937B
:10089000AC81BD810D911C9144E650E00E9418117D
:1008A000AC81BD810D931C93AC81BD810C914AE05C
:1008B0000E943512A881B9810C93A881B9810C914D
:1008C00040E3040FA3E6B0E00C93AC81BD810C9132
:1008D0004AE00E943512A881B9818C93A881B98120
:1008E0000C9140E3040FA4E6B0E00C938BE3A5E683
:1008F000B0E08C93AA81BB810C914AE00E94351232
:10090000A881B9810C93A881B9810C9140E3040FAF
:10091000A6E6B0E00C93AA81BB810C914AE00E944C
:100920003512A881B9818C93A881B9810C9140E3DB
:10093000040FA7E6B0E00C9382E4A8E6B0E08C9345
:1009400087E08093690080E080936A000E948103C1
:1009500081E0481A80E0580A229608953FBE82E35B
:10096000A2E6B0E08C93A881B9810C91003011F01F
:100970000C94C00480E3A2E6B0E08C930C94C8040D
:10098000013011F00C94C80481E3A2E6B0E08C932E
:100990008AE48093630080E0809364000E94810376
:1009A00008953FBE80E3A2E6B0E08C93A881B981B0
:1009B0000C91013011F00C94E30481E3A2E6B0E065
:1009C0008C930C94EB04023011F00C94EB0482E352
:1009D000A2E6B0E08C938BE48093630080E0809388
:1009E00064000E94810308953FBE81E00E94CF1100
:1009F000AA81BB810C91003011F00C9401050C947C
:100A00002B05AA81BB810C914AE00E943512A88176
:100A1000B9810C93A881B9810C9140E3040FA2E63F
:100A2000B0E00C93AA81BB810C914AE00E94351280
:100A3000A881B9818C93A881B9810C9140E3040FFE
:100A4000A3E6B0E00C9388E58093640080E0809397
:100A500065000E94810381E0481A80E0580A2296CE
:100A600008958FE38093620082E38093630085E3BF
:100A70008093640088E68093650080E08093660040
:100A80000E94810308958FE38093620082E3809344
:100A9000630085E3809364008CE68093650080E0CA
:100AA000809366000E948103089583E7809362002B
:100AB00080E0809363000E948103089585E780931E
:100AC000620080E0809363000E94810308953FBE2E
:100AD00002E3A881B9818C9183FB882780F9482F94
:100AE000041BA2E6B0E00C938DE68093630080E0E7
:100AF000809364000E94810383E380936200A88155
:100B0000B9818C9187708C93A881B9810C9140E355
:100B1000040FA3E6B0E00C938DE68093640080E0C0
:100B2000809365000E94810308953FBE06E3A8817B
:100B3000B9818C9183FB882780F9482F041BA2E69A
:100B4000B0E00C938DE68093630080E080936400B6
:100B50000E94810384E380936200A881B9818C9113
:100B600087708C93A881B9810C9140E3040FA3E6B0
:100B7000B0E00C938DE68093640080E08093650084
:100B80000E94810308953FBEA881B9818C918F7026
:100B90008C93A881B9810C9140E3040FA2E6B0E0E8
:100BA0000C938DE68093630080E0809364000E9444
:100BB000810308953FBE3FB6F89480E0D2018C9344
:100BC00081E00E94D5110E94C305229681E00E9417
:100BD000C6113FB6F894AA81BB818C91D2018C9347
:100BE00081E00E94D5110E946705229681E00E9453
:100BF000C6113FB6F894A881B9818C91D2018C932B
:100C000081E00E94D5110E949505229681E00E9404
:100C1000C61108953FBE81E00E94CF11AC81BD8115
:100C20000C91003081E009F080E08F93AA81BB81B4
:100C30000C91003081E009F080E09F91892B88239E
:100C400011F40C9425060C948E06AC81BD810C9198
:100C5000003580E010F009F081E08F93AA81BB811C
:100C60000C91093180E010F009F081E09F91892B0F
:100C7000882311F40C943E060C948E06AA81BB8145
:100C80000C914AE00E943512A881B9810C93A88189
:100C9000B9810C9140E3040FA2E6B0E00C93AA8165
:100CA000BB810C914AE00E943512A881B9818C93D6
:100CB000A881B9810C9140E3040FA3E6B0E00C9346
:100CC0008BE3A4E6B0E08C93AC81BD810C914AE04B
:100CD0000E943512A881B9810C93A881B9810C9129
:100CE00040E3040FA5E6B0E00C93AC81BD810C910C
:100CF0004AE00E943512A881B9818C93A881B981FC
:100D00000C9140E3040FA6E6B0E00C9386E68093D6
:100D1000670080E0809368000E94810381E0481AA8
:100D200080E0580A229608953FBE81E00E94CF11CC
:100D3000AA81BB810C914AE00E943512A881B98139
:100D40000C93A881B9810C9140E3040FA2E6B0E0B6
:100D50000C93AA81BB810C914AE00E943512A881B4
:100D6000B9818C93A881B9810C9140E3040FA3E66B
:100D7000B0E00C93AC81BD810C91003011F00C946B
:100D8000C70681E4A881B9818C930C94E9060130EF
:100D900011F00C94D10682E4A881B9818C930C9453
:100DA000E906023011F00C94DB0683E4A881B981D6
:100DB0008C930C94E906033011F00C94E50684E45E
:100DC000A881B9818C930C94E90683E4A881B98148
:100DD0008C93A881B9818C918093640080E080938A
:100DE00065000E94810381E0481A80E0580A22963B
:100DF00008953FBE81E00E94CF1181E00E94CF1193
:100E000081E00E94CF1181E00E94CF1181E00E9419
:100E1000CF1181E00E94CF113FB6F894A889B9891B
:100E20008C91D2018C9381E00E94D511A889B98957
:100E30008C91D2018C9381E00E94D5110E94DA0539
:100E4000249682E00E94C6113FB6F894A88DB98D11
:100E50008C91D2018C9381E00E94D511A88DB98D1F
:100E60008C91D2018C9381E00E94D5110E940A06D8
:100E7000249682E00E94C611AC85BD850E94451271
:100E8000AC81BD818C93AC89BD898C9182508C934F
:100E900089EC0E945E11AC81BD810C91003011F093
:100EA0000C946E0781E0AA85BB858C93AC89BD89C3
:100EB0004C91AA85BB850C91041718F011F00C9485
:100EC0006C078DEC0E945E11AA85BB858C918F5FAB
:100ED0008C9310F40C9456070C94E607AC89BD89EA
:100EE0000C91AC81BD814C91041BAA81BB810C93F8
:100EF00091E0AA81BB810E94F311AA81BB810E946B
:100F0000DA1081E0AA85BB858C93AA81BB814C91C4
:100F1000AA85BB850C91041718F011F00C949B075F
:100F20008DEC0E945E11AA85BB858C918F5F8C939E
:100F300010F40C94850780E20E945E113FB6F8948D
:100F4000AC85BD85BA93AA9381E0D2018C9381E0F0
:100F50000E94D5110E94C503249681E00E94C6110B
:100F600080E20E945E11AC89BD890C91AA81BB818F
:100F70004C91041BA881B9810C93A881B9810C9173
:100F8000AC81BD814C91041BA881B9810C93A881CF
:100F9000B9818C9182508C9381E0AA85BB858C931A
:100FA000A881B9814C91AA85BB850C91041718F0D2
:100FB00011F00C94E6078DEC0E945E11AA85BB85AA
:100FC0008C918F5F8C9310F40C94D0078BEB0E9464
:100FD0005E11AA89BB890E94DA1081E0AA85BB85CF
:100FE0008C93AA89BB894C91AA85BB850C91041767
:100FF00018F011F00C944608AE89BF890C91AA85AF
:10100000BB854C91040FAE81BF810C933FB6F89421
:10101000A88DB98D8C91D2018C9381E00E94D5115D
:10102000A885B9858C91D2018C9381E00E94D5115D
:101030000E940A06249682E00E94C6118AEB0E9452
:101040005E1181E0A885B9858C93AC89BD894C91EE
:10105000A885B9850C91041718F011F00C943B0881
:1010600080E20E945E11A885B9858C918F5F8C9378
:1010700010F40C9425088AEB0E945E11AA85BB85AA
:101080008C918F5F8C9310F40C94F107AE89BF891B
:101090000C91AA89BB894C91040FAE81BF810C933E
:1010A0003FB6F894A88DB98D8C91D2018C9381E0D4
:1010B0000E94D511A885B9858C91D2018C9381E0CD
:1010C0000E94D5110E940A06249682E00E94C61151
:1010D00088EC0E945E1181E0AA85BB858C93AC8967
:1010E000BD894C91AA85BB850C91041718F011F0AD
:1010F0000C9485088DEC0E945E11AA85BB858C91AD
:101100008F5F8C9310F40C946F088CEB0E945E112F
:1011100086E0481A80E0580A2C96089520202C205A
:10112000202020202020203C202020202027272293
:1011300022F92D2D2020203E20202020FF20206A73
:1011400020207C20F020202220202020F820496927
:10115000202020FAF12320226A5373208081828389
:101160008485868788898A8B8C8D8E8F90919293C7
:101170009495969798999A9B9C9D9E9FA0A1A2A3B7
:10118000A4A5A6A7A8A9AAABACADAEAFE0E1E2E3E7
:10119000E4E5E6E7E8E9EAEBECEDEEEF0E94811129
:1011A00008953FBE0E94961110ED0E949E1110E01E
:1011B0000E949E110E94961111ED0E949E110E94A4
:1011C000BB11A881B9811C930E94BB11A880B98072
:1011D000A1E0B0E0AA0DBB1D1C930E94BB11A8802A
:1011E000B980A2E0B0E0AA0DBB1D1C930E94BB1108
:1011F000A880B980A3E0B0E0AA0DBB1D1C930E949B
:10120000BB11A880B980A4E0B0E0AA0DBB1D1C935F
:101210000E94BB11A880B980A5E0B0E0AA0DBB1D5B
:101220001C930E94B911A880B980A6E0B0E0AA0D75
:10123000BB1D1C930E94981108953FBE81E00E943F
:10124000CF1181E00E94CF1181E00E94CF1181E097
:101250000E94CF11A884B984A4E0B0E0AA0DBB1D00
:101260008C91A881B9818C93A881B9819C910E94AD
:101270006211A881B9818C93A884B984A5E0B0E0FB
:10128000AA0DBB1D8C91AA81BB818C93AA81BB81C5
:101290009C910E946211AA81BB818C93A884B9841D
:1012A000A6E0B0E0AA0DBB1D8C91AC81BD818C93F2
:1012B000AC81BD819C910E946211AC81BD818C93F7
:1012C000A881B9810C914AE00E943512AE81BF819C
:1012D0000C93AE81BF818C91805D8C9331E0AE81A7
:1012E000BF810E945611A881B9810C914AE00E94E9
:1012F0003512AE81BF818C93AE81BF818C91805DB0
:101300008C9331E0AE81BF810E9456118DE2AE8197
:10131000BF818C9331E0AE81BF810E945611AA81BA
:10132000BB810C914AE00E943512AE81BF810C93C3
:10133000AE81BF818C91805D8C9331E0AE81BF81A5
:101340000E945611AA81BB810C914AE00E9435127D
:10135000AE81BF818C93AE81BF818C91805D8C9377
:1013600031E0AE81BF810E9456118DE2AE81BF8116
:101370008C9331E0AE81BF810E945611AC81BD815A
:101380000C914AE00E943512AE81BF810C93AE8170
:10139000BF818C91805D8C9331E0AE81BF810E94D2
:1013A0005611AC81BD810C914AE00E943512AE818C
:1013B000BF818C93AE81BF818C91805D8C9331E035
:1013C000AE81BF810E94561184E0481A80E0580A1D
:1013D000289608953FBE81E00E94CF1181E00E94CF
:1013E000CF1181E00E94CF1181E00E94CF11A8852A
:1013F000B9858C91A881B9818C93A881B9819C9180
:101400000E946211A881B9818C93A884B984A1E05B
:10141000B0E0AA0DBB1D8C91AA81BB818C93AA81DF
:10142000BB819C910E946211AA81BB818C93A8848C
:10143000B984A2E0B0E0AA0DBB1D8C91AC81BD8146
:101440008C93AC81BD819C910E946211AC81BD8165
:101450008C93AC81BD810C914AE00E943512AE8123
:10146000BF810C93AE81BF818C91805D8C9331E004
:10147000AE81BF810E945611AC81BD810C914AE0C2
:101480000E943512AE81BF818C93AE81BF818C9159
:10149000805D8C9331E0AE81BF810E9456118AE35A
:1014A000AE81BF818C9331E0AE81BF810E94561125
:1014B000AA81BB810C914AE00E943512AE81BF81A6
:1014C0000C93AE81BF818C91805D8C9331E0AE81B5
:1014D000BF810E945611AA81BB810C914AE00E94F3
:1014E0003512AE81BF818C93AE81BF818C91805DBE
:1014F0008C9331E0AE81BF810E9456118AE3AE81A8
:10150000BF818C9331E0AE81BF810E945611A881CA
:10151000B9810C914AE00E943512AE81BF810C93D3
:10152000AE81BF818C91805D8C9331E0AE81BF81B3
:101530000E945611A881B9810C914AE00E9435128F
:10154000AE81BF818C93AE81BF818C91805D8C9385
:1015500031E0AE81BF810E94561184E0481A80E0DC
:10156000580A2896089508953FB6F8948FE0D2015E
:101570008C9381E00E94D51180E0D2018C9381E0B0
:101580000E94D5110E94DA05249682E00E94C611BD
:101590003FB6F89482E0D2018C9381E00E94D5118D
:1015A0000E94AE04229681E00E94C6113FB6F894D4
:1015B00081E0D2018C9381E00E94D51189E1D201B2
:1015C0008C9381E00E94D5110E940A06249682E045
:1015D0000E94C611E6E2F7E180E090E00E94191255
:1015E000A5E7B0E00E94ED113FB6F894A5E7B0E0A2
:1015F000BA93AA9381E0D2018C9381E00E94D51125
:101600000E94C503249681E00E94C611A5E7B0E0C0
:10161000E2EDF4E20E94ED113FB6F894A5E7B0E0E8
:10162000BA93AA9381E0D2018C9381E00E94D511F4
:101630000E94C503249681E00E94C611EAEDF4E2FF
:101640000E944F11A5E7B0E0EEEDF4E20E94ED112B
:101650003FB6F894A5E7B0E0BA93AA9381E0D2012F
:101660008C9381E00E94D5110E94C503249681E0ED
:101670000E94C611E2EFF4E20E944F110E945B113A
:1016800008950E942C04E8E1F7E180E090E00E94D8
:101690001912A5E7B0E00E94ED113FB6F8948AE078
:1016A000D2018C9381E00E94D5110E946705229699
:1016B00081E00E94C6113FB6F894A5E7B0E0BA9366
:1016C000AA9381E0D2018C9381E00E94D5110E94FF
:1016D000C503249681E00E94C6113FB6F8948FE0BE
:1016E000D2018C9381E00E94D5110E946705229659
:1016F00081E00E94C6113FB6F89480E0D2018C933D
:1017000081E00E94D5110E94D104229681E00E94BE
:10171000C6110E94310508955B41546D65676131C2
:10172000365D24200000CAEEECE0EDE4EDE0FF20A1
:10173000EEE1EEEBEEF7EAE02028426173636F6DB5
:1017400020415652292C20E2E5F0F1E8FF2000006C
:101750000E94AF0B0E94120C0E94290E08953FB602
:10176000F8948FE0D2018C9381E00E94D51184E03F
:10177000D2018C9381E00E94D5110E94DA05249653
:1017800082E00E94C6113FB6F89482E0D2018C93A9
:1017900081E00E94D5110E94AE04229681E00E9451
:1017A000C6110E9443053FB6F89487E0D2018C939E
:1017B00081E00E94D51182E0D2018C9381E00E94E9
:1017C000D5110E94DA05249682E00E94C611ECED44
:1017D000FCE180E090E00E941912A5E7B0E00E94D1
:1017E000ED113FB6F894A5E7B0E0BA93AA9381E073
:1017F000D2018C9381E00E94D5110E94C5032496EA
:1018000081E00E94C6113FB6F89480E0D2018C932B
:1018100081E00E94D5110E94D104229681E00E94AD
:10182000C611089581E00E94CF1181E00E94CF117E
:1018300081E00E94CF1181E00E94CF1182E00E94DE
:10184000CF1182E00E94CF1182E00E94CF1182E08E
:101850000E94CF1180E690E0AE81BF818D939C9372
:10186000EAEFFCE180E090E00E941912A4EAB0E007
:101870000E94ED1180E0AE85BF858C93AE85BF855B
:101880000C91063118F011F00C94230EAE85BF8533
:101890000D91112740E150E00E94E311AA81BB8124
:1018A0000D931C93AA81BB810D911C91AE81BF81C8
:1018B0004D915C91040F151FAA81BB810D931C9360
:1018C000AE85BF850C9142E0040FAA85BB850C93C1
:1018D0003FB6F89481E0D2018C9381E00E94D5114B
:1018E000AC85BD858C91D2018C9381E00E94D5118D
:1018F0000E940A06249682E00E94C6113FB6F89420
:1019000083E0D2018C9381E00E94D51184E0D20162
:101910008C9381E00E94D5110E94DA05249682E022
:101920000E94C61188E0AC85BD858C93AC85BD85D1
:101930000E94DA10AA81BB818D919C91AC81BD81FE
:101940008D939C93AC85BD859C91AC81BD810E949B
:10195000FB11AC85BD859C91AC81BD810E94FB11C2
:10196000AC85BD859C91AC81BD810E94FB11AC858D
:10197000BD859C91AC81BD810E94FB11AC81BD8174
:101980000D911C914FE050E004231523AC81BD81E3
:101990000D931C93AC81BD810E94DE10AC81BD8192
:1019A0008C91E4EAF0E001E00A93A981BA810E94F7
:1019B0002612A881B9818C91A885B9858C9331E0D4
:1019C000A885B9850E945611AC85BD850C91003063
:1019D00011F00C94960C8AE3A885B9858C9331E0BC
:1019E000A885B9850E94561180E20E945E113FB61B
:1019F000F89487E0D2018C9381E00E94D5110E9477
:101A00006705229681E00E94C61180E0AC85BD8505
:101A10008C93AC85BD850C910F3018F011F00C94AF
:101A2000920D3FB6F894AA85BB85BA93AA93AC8170
:101A3000BD818D919C91D2018D939C9382E00E94F7
:101A4000D5110E940C03249682E00E94C611AA853B
:101A5000BB858C91A885B9858C9394E0A885B985C0
:101A60000E94F311A885B9858C918F5F8C93A8850E
:101A7000B9858C91E4EAF0E001E00A93A981BA818A
:101A80000E942612A881B9818C91A885B9858C9372
:101A900031E0A885B9850E945611AA85BB850C91B5
:101AA0004FE00423A885B9850C93A885B9858C914E
:101AB0008F5F8C93A885B9858C91E4EAF0E001E012
:101AC0000A93A981BA810E942612A881B9818C91BA
:101AD000A885B9858C9331E0A885B9850E945611F7
:101AE000AA81BB810E94DE1080E20E945E11AC855B
:101AF000BD850C91073011F00C948A0D8DE2A885FC
:101B0000B9858C9331E0A885B9850E94561180E291
:101B10000E945E11AC85BD858C918F5F8C9310F413
:101B20000C94090D83EB0E945E1180E20E945E110D
:101B3000AE85BF850D91112740E150E00E94E31171
:101B4000AA81BB810D931C93AA81BB810D911C912D
:101B5000AE81BF814D915C91040F151FAA81BB819D
:101B60000D931C9380E0AC85BD858C93AC85BD85C1
:101B70000C910F3018F011F00C940D0E3FB6F89444
:101B8000AA85BB85BA93AA93AC81BD818D919C91A6
:101B9000D2018D939C9382E00E94D5110E940C0388
:101BA000249682E00E94C61180E2482FAA85BB8558
:101BB0000C91041718F011F00C94E00D0C94F80D32
:101BC0003FB6F894AA85BB858C91D2018C9381E0B5
:101BD0000E94D51181E0D2018C9381E00E94D51141
:101BE0000E945703249682E00E94C6110C94010EB5
:101BF0008EE2A885B9858C9331E0A885B9850E94CD
:101C00005611AA81BB810E94DE10AC85BD858C91E6
:101C10008F5F8C9310F40C94B60D3FB6F89480E06F
:101C2000D2018C9381E00E94D5110E94D1042296AA
:101C300081E00E94C611AE85BF858C918F5F8C9329
:101C400010F40C943E0C8CE0481A80E0580A609620
:101C500008953FB6F89480E0D2018C9381E00E9411
:101C6000D5110E94C305229681E00E94C6113FB69D
:101C7000F89481E0D2018C9381E00E94D51189E132
:101C8000D2018C9381E00E94D5110E940A0624960D
:101C900082E00E94C6113FB6F89480E0D2018C9396
:101CA00081E00E94D51187E0D2018C9381E00E94EF
:101CB000D5110E94DA05249682E00E94C6113FB633
:101CC000F89480E0D2018C9381E00E94D5110E94AB
:101CD000D104229681E00E94C6110895CFF0EEF162
:101CE000ECEEF2F020EFE0ECFFF2E83A20CEC7D3C2
:101CF00020284350313235312900303132333435E8
:101D00003637383941424344454600000C94860E2C
:101D100008950E94930E0E948E0E089570E07BBF7E
:101D200070E079BF089570B77B7F70BF70E07ABBB9
:101D300070E07BBB73EF77BB70E078BB70E474BB83
:101D400070E075BB70E271BB74E172BB08950895D9
:101D5000089508950895089508950895089508959B
:101D6000089554696D653A200000446174653A2015
:101D70000000445331333037000020202020202041
:101D800020202020202020202020202041546D656C
:101D900067613136202D20504449502020202020DA
:101DA0002020202020202020002020202020202053
:101DB000202020202020202020202B2D2D2D2D2DD7
:101DC0002D2D2D2D2D2D2D2D2D2B20202020202093
:101DD00020202020202020002020202858434B2F86
:101DE00054302920504230202D7C202031202020CA
:101DF00020202020203430207C2D205041302028ED
:101E00004144433029200020202020202020285435
:101E1000312920504231202D7C20203220202020CA
:101E2000202020203339207C2D2050413120284192
:101E300044433129200028494E54322F41494E3025
:101E40002920504232202D7C2020332020202020A9
:101E50002020203338207C2D20504132202841443E
:101E6000433229200020284F43302F41494E312949
:101E700020504233202D7C20203420202020202080
:101E800020203337207C2D205041332028414443EB
:101E900033292000202020202020287E5353292071
:101EA000504234202D7C202035202020202020204E
:101EB000203336207C2D20504134202841444334A7
:101EC0002920002020202020284D4F534929205030
:101ED0004235202D7C20203620202020202020204C
:101EE0003335207C2D20504135202841444335296D
:101EF00020002020202020284D49534F29205042E7
:101F000036202D7C20203720202020202020203328
:101F100034207C2D2050413620284144433629204E
:101F2000002020202020202853434B2920504237D6
:101F3000202D7C20203820202020202020203333FA
:101F4000207C2D2050413720284144433729200050
:101F50002020202020202020207E52455345542040
:101F60002D7C2020392020202020202020333220CA
:101F70007C2D20415245462020202020202000207A
:101F80002020202020202020202020564343202DC8
:101F90007C20313020202020202020203331207C44
:101FA0002D20474E442020202020202020002020CB
:101FB00020202020202020202020474E44202D7C3F
:101FC00020313120202020202020203330207C2D63
:101FD0002041564343202020202020200020202084
:101FE000202020202020205854414C32202D7C20BD
:101FF000313220202020202020203239207C2D202A
:102000005043372028544F534332290020202020AA
:102010002020202020205854414C31202D7C20317C
:102020003320202020202020203238207C2D2050DA
:1020300043362028544F53433129002020202020AC
:1020400020285258442920504430202D7C203134FF
:1020500020202020202020203237207C2D2050439B
:1020600035202854444929202000202020202020E9
:10207000285458442920504431202D7C20313520CB
:10208000202020202020203236207C2D2050433458
:10209000202854444F292020002020202020284997
:1020A0004E54302920504432202D7C2031362020BF
:1020B0002020202020203235207C2D20504333202A
:1020C00028544D5329202000202020202028494E2C
:1020D00054312920504433202D7C203137202020BA
:1020E00020202020203234207C2D205043322028F4
:1020F00054434B292020002020202020284F43310A
:10210000422920504434202D7C20313820202020AA
:10211000202020203233207C2D2050433120285392
:102120004441292020002020202020284F433141F5
:102130002920504435202D7C20313920202020209A
:102140002020203232207C2D205043302028534341
:102150004C292020002020202020284943503129CC
:1021600020504436202D7C2032302020202020207A
:1021700020203231207C2D2050443720284F4332FC
:102180002920200020202020202020202020202066
:1021900020202020202B2D2D2D2D2D2D2D2D2D2DB2
:1021A0002D2D2D2D2B2020202020202020202020F0
:1021B000202000008C9181508C930895ED91FC912A
:1021C000EF5FFF4FFC93EE9308950D911D912D91BC
:1021D0003C9101501040204030403C932E931E9380
:1021E0000E93089509D00E94E31100FC10D00895C9
:1021F00003D01ED001F8F9CF0024E89457FF02C0A5
:1022000009D0689400F80BD010F80124089502D08A
:1022100009D00895509540954F5F5F4F0895E89419
:1022200017FF0895009510950F5F1F4F689408954C
:10223000352F242FE894452B11F468940895512FDD
:10224000402F0027112780E1440F551F001F111F49
:10225000021B130B416018F4020F131F4E7F8A9567
:1022600099F70895A8EEB3E016D08D3039F03323F6
:10227000D9F38D933A9563FE21D0F6CF63FC04C069
:102280008DE01CD08AE01AD088278C930895882787
:102290005F9B089500C05F9BFECF8CB108950E94A4
:1022A0000612802D11F00AD0FACF08958D9106D034
:1022B0003A95E1F708958DE001D08AE05D9BFECF6D
:1022C0008CB90895892F8F70905110F0865FFCCFE4
:1022D00008953197F1F70895689462F80895E894A5
:1022E00062F80895EF93FF93EE27E82BE92B31F086
:1022F000E0EDF7E03197F1F70197D1F7FF91EF911A
:102300000895A198A098A99AA89A0895689446BF9C
:102310008F939F9388279927019621F046B747FF0F
:10232000FBCFE8949F918F9162F8089544EAEECF35
:1023300044E946BF46B747FDFDCF089513B944E8C9
:10234000E5DF8F939F9388279927019669F041B124
:10235000487F483FD1F3E894483139F0483229F0BA
:10236000403419F0403509F068949F918F9162F8DC
:10237000089544E801C044ECC9DF13B141B1487F7E
:10238000483FE1F30895481A590A0895481A8827E2
:10239000580A08955A924A92480E591E08955A9220
:1023A0004A92480E8827581E08955A924A92480E1B
:1023B0008827581E88E2481684E0580608F40895D5
:1023C000689462F808950F92B801469F8001479F74
:1023D000100D569F100D0F9008950E9406120D9239
:1023E0000020D9F70895903029F08C9186959A9520
:1023F000E9F78C930895903041F00D911C9116955A
:1024000007959A95E1F71C930E930895C895319618
:102410000020089591E005C092E003C094E001C05F
:1024200098E0F4DF0D929A95E1F70895E80FF91F0F
:10243000F1CF882311F4992329F00E940612E9F7BD
:102440000197D9F7089588278D930895099191915F
:10245000992351F08A95D9F7319781918D930A95F7
:1024600019F08823D1F70895EECFFF93881BF9E088
:10247000001FFA9511F4FF910895881F841B18F42A
:10248000840F8894F5CF0894F3CF8FEF83959D91B7
:102490009923E1F70895689401C0E894AF93BF933E
:1024A0008D9116F0919103C00E940612902D89170C
:1024B00018F011F48823A1F7BF91AF9108957469C2
:1024C0006D65000064617465000072616D006D638C
:1024D0007500302E302E33390000202800003238AD
:1024E0002D31302D323031332031393A30363A33D4
:0424F0003900290086
:00000001FF
