:100000000C942A001895000018950000189500001F
:10001000189500001895000018950000189500002C
:10002000189500001895000018950000189500001C
:10003000189500001895000018950000189500000C
:1000400018950000189500001895000018950000FC
:10005000189500008FE58DBFC8E3E0E04E2E84E0E8
:100060008EBFD4E0F4E05F2EA89584B7082E877F7A
:1000700084BF88E1992781BD91BDEEEFF3E0A0E652
:10008000B0E088278D933197E9F788E089B980E05F
:1000900080BD88E18AB966240E94B70D5A924A92BF
:1000A0008FE0D2018C9381E00E94910E5A924A9285
:1000B00080E0D2018C9381E00E94910E0E94FF08A3
:1000C000249682E00E94FF0D5A924A9282E0D20169
:1000D0008C9381E00E94910E0E94AC03229681E0F5
:1000E0000E94FF0DECECFBE180E090E00E94B60E78
:1000F000A0E6B0E00E94950E5A924A9281E0D201A9
:100100008C9381E00E94910E5A924A9281E0D20132
:100110008C9381E00E94910E0E942E09249682E029
:100120000E94FF0D5A924A9280E0D2018C9381E0A6
:100130000E94910E5A924A9287E0D2018C9381E0FC
:100140000E94910E0E94FF08249682E00E94FF0DFB
:10015000A0E6B0E0BA93AA935A924A9281E0D20103
:100160008C9381E00E94910E0E942202249681E0ED
:100170000E94FF0D5A924A9280E0D2018C9381E056
:100180000E94910E0E942B04229681E00E94FF0D96
:10019000A0E6B0E088278C935A924A9281E0D2017F
:1001A0008C9381E00E94910E5A924A9282E0D20191
:1001B0008C9381E00E94910E5A924A9288E2D20179
:1001C0008C9381E00E94910E5A924A9287E1D2016B
:1001D0008C9381E00E94910E5A924A928FE0D20154
:1001E0008C9381E00E94910E5A924A9284E0D2014F
:1001F0008C9381E00E94910EA0E6B0E0BA93AA939E
:100200000E940D0B2E9686E00E94FF0D5A924A9294
:1002100089E2D2018C9381E00E94910E5A924A9217
:1002200082E0D2018C9381E00E94910E5A924A9210
:1002300088E2D2018C9381E00E94910E5A924A92F8
:1002400087E1D2018C9381E00E94910E5A924A92EA
:100250008FE0D2018C9381E00E94910E5A924A92D3
:1002600084E0D2018C9381E00E94910EA0E6B0E080
:10027000BA93AA930E940D0B2E9686E00E94FF0D62
:100280000E944B01A0E6B0E03DE20E94530E0C94A8
:100290004001F894FFCFEEEBFBE180E090E00E949C
:1002A000B60EA0E6B0E00E94950E5A924A928AE0FD
:1002B000D2018C9381E00E94910E5A924A9280E082
:1002C000D2018C9381E00E94910E0E94FF08249637
:1002D00082E00E94FF0D5A924A9281E0D2018C93F3
:1002E00081E00E94910E5A924A9289E1D2018C9348
:1002F00081E00E94910E0E942E09249682E00E94C5
:10030000FF0DA0E6B0E0BA93AA935A924A9281E018
:10031000D2018C9381E00E94910E0E9422022496C9
:1003200081E00E94FF0D5A924A928FE0D2018C9395
:1003300081E00E94910E0E94D006229681E00E94E8
:10034000FF0D0E944A065A924A9280E0D2018C9395
:1003500081E00E94910E0E942B04229681E00E946F
:10036000FF0D0E948D060E944005089540E050E078
:1003700060E070E0A881B9810D911D912D913C91B3
:10038000041715072607370718F011F00C94CA0157
:100390000C94D901000000000000000000000000E3
:1003A000000000000000A881B9810E94070E0C9493
:1003B000B601089540E050E060E070E0A881B981A6
:1003C0000D911D912D913C910417150726073707B4
:1003D00018F011F00C94EE010C94F80181E090E01B
:1003E0000E94820EA881B9810E94070E0C94DA0146
:1003F0000895A881B9810C91003011F00C9402028B
:100400000C941C02013011F00C941C02AA81BB81D7
:100410000C9107FB16F00C941C02AA81BB818C91F5
:100420008F778C93E8EEFAE1AA81BB818C919927B2
:10043000AA81BB810E94B30E31E0AA81BB810E94D8
:10044000700E0895AA81BB810E94E20E082F003031
:1004500011F00C942D020C946D0281E080939000B9
:10046000AA81BB810E94E20E482F009190000417E0
:1004700018F011F00C946D0280919000EA81FB81DC
:1004800001E00A93A5E9B0E00E94C30EA5E9B0E03F
:100490008C91AFE8B0E08C935A924A9280918F0091
:1004A000D2018C9381E00E94910E5A924A92AC81C3
:1004B000BD818C91D2018C9381E00E94910E0E94AB
:1004C000F901249682E00E94FF0DA0E9B0E08C9132
:1004D0008F5F8C9310F40C94300208955A924A92D4
:1004E0008BE1D2018C9381E00E94910E5A924A9244
:1004F00080E0D2018C9381E00E94910E0E94F9016C
:10050000249682E00E94FF0D5A924A928BE5D20116
:100510008C9381E00E94910E5A924A9280E0D2011F
:100520008C9381E00E94910E0E94F901249682E052
:100530000E94FF0DAA81BB810C9144E60E94D20E5D
:10054000AEE8B0E00C93AEE8B0E08C91805D8C93A7
:100550005A924A9280918E00D2018C9381E00E943F
:10056000910E5A924A9280E0D2018C9381E00E94CF
:10057000910E0E94F901249682E00E94FF0DAA814B
:10058000BB810D911C9144E650E00E94370EAA8178
:10059000BB810D931C93AA81BB810C914AE00E9400
:1005A000D20EAEE8B0E00C93AEE8B0E08C91805D86
:1005B0008C935A924A9280918E00D2018C9381E062
:1005C0000E94910E5A924A9280E0D2018C9381E06F
:1005D0000E94910E0E94F901249682E00E94FF0D74
:1005E000AA81BB810C914AE00E94D20EAEE8B0E035
:1005F0008C93AEE8B0E08C91805D8C935A924A92D5
:1006000080918E00D2018C9381E00E94910E5A92CB
:100610004A9280E0D2018C9381E00E94910E0E9468
:10062000F901249682E00E94FF0D8BE3AEE8B0E072
:100630008C935A924A9280918E00D2018C9381E0E1
:100640000E94910E5A924A9280E0D2018C9381E0EE
:100650000E94910E0E94F901249682E00E94FF0DF3
:10066000A881B9810C914AE00E94D20EAEE8B0E0B8
:100670000C93AEE8B0E08C91805D8C935A924A92D4
:1006800080918E00D2018C9381E00E94910E5A924B
:100690004A9280E0D2018C9381E00E94910E0E94E8
:1006A000F901249682E00E94FF0DA881B9810C9186
:1006B0004AE00E94D20EAEE8B0E08C93AEE8B0E023
:1006C0008C91805D8C935A924A9280918E00D201D7
:1006D0008C9381E00E94910E5A924A9280E0D2015E
:1006E0008C9381E00E94910E0E94F901249682E091
:1006F0000E94FF0D82E4AEE8B0E08C935A924A92D9
:1007000080918E00D2018C9381E00E94910E5A92CA
:100710004A9280E0D2018C9381E00E94910E0E9467
:10072000F901249682E00E94FF0D5A924A9287E0D6
:10073000D2018C9381E00E94910E5A924A9280E0FD
:10074000D2018C9381E00E94910E0E94F9012496BF
:1007500082E00E94FF0D08955A924A928BE1D201E5
:100760008C9381E00E94910E5A924A9280E0D201CD
:100770008C9381E00E94910E0E94F901249682E000
:100780000E94FF0D5A924A928BE5D2018C9381E030
:100790000E94910E5A924A9280E0D2018C9381E09D
:1007A0000E94910E0E94F901249682E00E94FF0DA2
:1007B000A881B9810C91003011F00C94E50380E31D
:1007C000AEE8B0E08C930C94FD03013011F00C9472
:1007D000EF0381E3AEE8B0E08C930C94FD030230AC
:1007E00011F00C94F90382E3AEE8B0E08C930C9422
:1007F000FD0382E3AEE8B0E08C935A924A92809176
:100800008E00D2018C9381E00E94910E5A924A92FE
:1008100080E0D2018C9381E00E94910E0E94F90148
:10082000249682E00E94FF0D5A924A928AE4D201F5
:100830008C9381E00E94910E5A924A9280E0D201FC
:100840008C9381E00E94910E0E94F901249682E02F
:100850000E94FF0D08955A924A928BE1D2018C9327
:1008600081E00E94910E5A924A9280E0D2018C93CC
:1008700081E00E94910E0E94F901249682E00E947C
:10088000FF0D5A924A928BE5D2018C9381E00E942F
:10089000910E5A924A9280E0D2018C9381E00E949C
:1008A000910E0E94F901249682E00E94FF0DA8811A
:1008B000B9810C91003011F00C94640480E3AEE82F
:1008C000B0E08C930C947C04013011F00C946E0415
:1008D00081E3AEE8B0E08C930C947C04023011F01C
:1008E0000C94780482E3AEE8B0E08C930C947C0422
:1008F00080E3AEE8B0E08C935A924A9280918E00E9
:10090000D2018C9381E00E94910E5A924A9280E02B
:10091000D2018C9381E00E94910E0E94F9012496ED
:1009200082E00E94FF0D5A924A928BE4D2018C938E
:1009300081E00E94910E5A924A9280E0D2018C93FB
:1009400081E00E94910E0E94F901249682E00E94AB
:10095000FF0D0895A881B9810C91003011F00C941D
:10096000B3040C943F055A924A928BE1D2018C93C6
:1009700081E00E94910E5A924A9280E0D2018C93BB
:1009800081E00E94910E0E94F901249682E00E946B
:10099000FF0D5A924A928BE5D2018C9381E00E941E
:1009A000910E5A924A9280E0D2018C9381E00E948B
:1009B000910E0E94F901249682E00E94FF0DA88109
:1009C000B9810C914AE00E94D20EAEE8B0E00C93DF
:1009D000AEE8B0E08C91805D8C935A924A928091FF
:1009E0008E00D2018C9381E00E94910E5A924A921D
:1009F00080E0D2018C9381E00E94910E0E94F90167
:100A0000249682E00E94FF0DA881B9810C914AE0F2
:100A10000E94D20EAEE8B0E08C93AEE8B0E08C91CC
:100A2000805D8C935A924A9280918E00D2018C9371
:100A300081E00E94910E5A924A9280E0D2018C93FA
:100A400081E00E94910E0E94F901249682E00E94AA
:100A5000FF0D5A924A9288E5D2018C9381E00E9460
:100A6000910E5A924A9280E0D2018C9381E00E94CA
:100A7000910E0E94F901249682E00E94FF0D0895D4
:100A80005A924A928BE1D2018C9381E00E94910E9E
:100A90005A924A9280E0D2018C9381E00E94910E9A
:100AA0000E94F901249682E00E94FF0D5A924A9218
:100AB0008BE5D2018C9381E00E94910E5A924A926A
:100AC00080E0D2018C9381E00E94910E0E94F90196
:100AD000249682E00E94FF0D5A924A928FE3D2013F
:100AE0008C9381E00E94910E5A924A9280E0D2014A
:100AF0008C9381E00E94910E0E94F901249682E07D
:100B00000E94FF0D5A924A9282E3D2018C9381E0B7
:100B10000E94910E5A924A9280E0D2018C9381E019
:100B20000E94910E0E94F901249682E00E94FF0D1E
:100B30005A924A9285E3D2018C9381E00E94910EF1
:100B40005A924A9280E0D2018C9381E00E94910EE9
:100B50000E94F901249682E00E94FF0D5A924A9267
:100B600088E6D2018C9381E00E94910E5A924A92BB
:100B700080E0D2018C9381E00E94910E0E94F901E5
:100B8000249682E00E94FF0D08955A924A928BE1CA
:100B9000D2018C9381E00E94910E5A924A9280E099
:100BA000D2018C9381E00E94910E0E94F90124965B
:100BB00082E00E94FF0D5A924A928BE5D2018C93FB
:100BC00081E00E94910E5A924A9280E0D2018C9369
:100BD00081E00E94910E0E94F901249682E00E9419
:100BE000FF0D5A924A928FE3D2018C9381E00E94CA
:100BF000910E5A924A9280E0D2018C9381E00E9439
:100C0000910E0E94F901249682E00E94FF0D5A92F3
:100C10004A9282E3D2018C9381E00E94910E5A9213
:100C20004A9280E0D2018C9381E00E94910E0E9452
:100C3000F901249682E00E94FF0D5A924A9285E3C0
:100C4000D2018C9381E00E94910E5A924A9280E0E8
:100C5000D2018C9381E00E94910E0E94F9012496AA
:100C600082E00E94FF0D5A924A928CE6D2018C9348
:100C700081E00E94910E5A924A9280E0D2018C93B8
:100C800081E00E94910E0E94F901249682E00E9468
:100C9000FF0D08955A924A928BE1D2018C9381E024
:100CA0000E94910E5A924A9280E0D2018C9381E088
:100CB0000E94910E0E94F901249682E00E94FF0D8D
:100CC0005A924A928BE5D2018C9381E00E94910E58
:100CD0005A924A9280E0D2018C9381E00E94910E58
:100CE0000E94F901249682E00E94FF0D5A924A92D6
:100CF00083E7D2018C9381E00E94910E5A924A922E
:100D000080E0D2018C9381E00E94910E0E94F90153
:100D1000249682E00E94FF0D08955A924A928BE138
:100D2000D2018C9381E00E94910E5A924A9280E007
:100D3000D2018C9381E00E94910E0E94F9012496C9
:100D400082E00E94FF0D5A924A928BE5D2018C9369
:100D500081E00E94910E5A924A9280E0D2018C93D7
:100D600081E00E94910E0E94F901249682E00E9487
:100D7000FF0D5A924A9285E7D2018C9381E00E943E
:100D8000910E5A924A9280E0D2018C9381E00E94A7
:100D9000910E0E94F901249682E00E94FF0D0895B1
:100DA0005A924A928BE1D2018C9381E00E94910E7B
:100DB0005A924A9280E0D2018C9381E00E94910E77
:100DC0000E94F901249682E00E94FF0D5A924A92F5
:100DD0008BE5D2018C9381E00E94910E5A924A9247
:100DE00080E0D2018C9381E00E94910E0E94F90173
:100DF000249682E00E94FF0DA881B9810C9103FB2B
:100E000016F00C94090781E3AEE8B0E08C930C94E3
:100E10000D0782E3AEE8B0E08C935A924A9280913B
:100E20008E00D2018C9381E00E94910E5A924A92D8
:100E300080E0D2018C9381E00E94910E0E94F90122
:100E4000249682E00E94FF0D5A924A928DE6D201CA
:100E50008C9381E00E94910E5A924A9280E0D201D6
:100E60008C9381E00E94910E0E94F901249682E009
:100E70000E94FF0D5A924A928BE1D2018C9381E03D
:100E80000E94910E5A924A9280E0D2018C9381E0A6
:100E90000E94910E0E94F901249682E00E94FF0DAB
:100EA0005A924A928BE5D2018C9381E00E94910E76
:100EB0005A924A9280E0D2018C9381E00E94910E76
:100EC0000E94F901249682E00E94FF0D5A924A92F4
:100ED00083E3D2018C9381E00E94910E5A924A9250
:100EE00080E0D2018C9381E00E94910E0E94F90172
:100EF000249682E00E94FF0DA881B9818C918770B1
:100F00008C93A881B9818C91805D8C935A924A927E
:100F1000AA81BB818C91D2018C9381E00E94910EB9
:100F20005A924A9280E0D2018C9381E00E94910E05
:100F30000E94F901249682E00E94FF0D5A924A9283
:100F40008DE6D2018C9381E00E94910E5A924A92D2
:100F500080E0D2018C9381E00E94910E0E94F90101
:100F6000249682E00E94FF0D08955A924A928BE1E6
:100F7000D2018C9381E00E94910E5A924A9280E0B5
:100F8000D2018C9381E00E94910E0E94F901249677
:100F900082E00E94FF0D5A924A928BE5D2018C9317
:100FA00081E00E94910E5A924A9280E0D2018C9385
:100FB00081E00E94910E0E94F901249682E00E9435
:100FC000FF0DA881B9810C9103FB16F00C94EE077C
:100FD00085E3AEE8B0E08C930C94F20786E3AEE8CC
:100FE000B0E08C935A924A9280918E00D2018C93F9
:100FF00081E00E94910E5A924A9280E0D2018C9335
:1010000081E00E94910E0E94F901249682E00E94E4
:10101000FF0D5A924A928DE6D2018C9381E00E9494
:10102000910E5A924A9280E0D2018C9381E00E9404
:10103000910E0E94F901249682E00E94FF0D5A92BF
:101040004A928BE1D2018C9381E00E94910E5A92D8
:101050004A9280E0D2018C9381E00E94910E0E941E
:10106000F901249682E00E94FF0D5A924A928BE584
:10107000D2018C9381E00E94910E5A924A9280E0B4
:10108000D2018C9381E00E94910E0E94F901249676
:1010900082E00E94FF0D5A924A9284E3D2018C931F
:1010A00081E00E94910E5A924A9280E0D2018C9384
:1010B00081E00E94910E0E94F901249682E00E9434
:1010C000FF0DA881B9818C9187708C93A881B9811B
:1010D0008C91805D8C935A924A92AA81BB818C91AB
:1010E000D2018C9381E00E94910E5A924A9280E044
:1010F000D2018C9381E00E94910E0E94F901249606
:1011000082E00E94FF0D5A924A928DE6D2018C93A2
:1011100081E00E94910E5A924A9280E0D2018C9313
:1011200081E00E94910E0E94F901249682E00E94C3
:10113000FF0D08955A924A928BE1D2018C9381E07F
:101140000E94910E5A924A9280E0D2018C9381E0E3
:101150000E94910E0E94F901249682E00E94FF0DE8
:101160005A924A928BE5D2018C9381E00E94910EB3
:101170005A924A9280E0D2018C9381E00E94910EB3
:101180000E94F901249682E00E94FF0DA881B98196
:101190008C918F708C93A881B9818C91805D8C9398
:1011A0005A924A92AA81BB818C91D2018C9381E0A0
:1011B0000E94910E5A924A9280E0D2018C9381E073
:1011C0000E94910E0E94F901249682E00E94FF0D78
:1011D0005A924A928DE6D2018C9381E00E94910E40
:1011E0005A924A9280E0D2018C9381E00E94910E43
:1011F0000E94F901249682E00E94FF0D08955A9200
:101200004A9280E0D2018C9381E00E94910E0E946C
:101210009A08229681E00E94FF0D5A924A92AC8170
:10122000BD818C91D2018C9381E00E94910E0E942D
:10123000D006229681E00E94FF0D5A924A92AA811E
:10124000BB818C91D2018C9381E00E94910E0E940F
:10125000B507229681E00E94FF0D0895AA81BB8107
:101260000C91003081E009F080E08F93A881B98172
:101270000C91003081E009F080E09F91892B882358
:1012800011F40C9445090C944F0AAA81BB810C916E
:10129000003580E010F009F081E08F93A881B981DA
:1012A0000C91093180E010F009F081E09F91892BC9
:1012B000882311F40C945E090C944F0A5A924A92B6
:1012C0008BE1D2018C9381E00E94910E5A924A9256
:1012D00080E0D2018C9381E00E94910E0E94F9017E
:1012E000249682E00E94FF0D5A924A928BE5D20129
:1012F0008C9381E00E94910E5A924A9280E0D20132
:101300008C9381E00E94910E0E94F901249682E064
:101310000E94FF0DA881B9810C914AE00E94D20E73
:10132000AEE8B0E00C93AEE8B0E08C91805D8C93B9
:101330005A924A9280918E00D2018C9381E00E9451
:10134000910E5A924A9280E0D2018C9381E00E94E1
:10135000910E0E94F901249682E00E94FF0DA8815F
:10136000B9810C914AE00E94D20EAEE8B0E08C93B5
:10137000AEE8B0E08C91805D8C935A924A92809155
:101380008E00D2018C9381E00E94910E5A924A9273
:1013900080E0D2018C9381E00E94910E0E94F901BD
:1013A000249682E00E94FF0D8BE3AEE8B0E08C93C0
:1013B0005A924A9280918E00D2018C9381E00E94D1
:1013C000910E5A924A9280E0D2018C9381E00E9461
:1013D000910E0E94F901249682E00E94FF0DAA81DD
:1013E000BB810C914AE00E94D20EAEE8B0E00C93B3
:1013F000AEE8B0E08C91805D8C935A924A928091D5
:101400008E00D2018C9381E00E94910E5A924A92F2
:1014100080E0D2018C9381E00E94910E0E94F9013C
:10142000249682E00E94FF0DAA81BB810C914AE0C4
:101430000E94D20EAEE8B0E08C93AEE8B0E08C91A2
:10144000805D8C935A924A9280918E00D2018C9347
:1014500081E00E94910E5A924A9280E0D2018C93D0
:1014600081E00E94910E0E94F901249682E00E9480
:10147000FF0D5A924A9286E6D2018C9381E00E9437
:10148000910E5A924A9280E0D2018C9381E00E94A0
:10149000910E0E94F901249682E00E94FF0D0895AA
:1014A0005A924A928BE1D2018C9381E00E94910E74
:1014B0005A924A9280E0D2018C9381E00E94910E70
:1014C0000E94F901249682E00E94FF0D5A924A92EE
:1014D0008BE5D2018C9381E00E94910E5A924A9240
:1014E00080E0D2018C9381E00E94910E0E94F9016C
:1014F000249682E00E94FF0DA881B9810C914AE0F8
:101500000E94D20EAEE8B0E00C93AEE8B0E08C9151
:10151000805D8C935A924A9280918E00D2018C9376
:1015200081E00E94910E5A924A9280E0D2018C93FF
:1015300081E00E94910E0E94F901249682E00E94AF
:10154000FF0DA881B9810C914AE00E94D20EAEE84D
:10155000B0E08C93AEE8B0E08C91805D8C935A92B1
:101560004A9280918E00D2018C9381E00E94910E6C
:101570005A924A9280E0D2018C9381E00E94910EAF
:101580000E94F901249682E00E94FF0DAA81BB818E
:101590000C91003011F00C94D30A81E4AEE8B0E075
:1015A0008C930C94F50A013011F00C94DD0A82E45E
:1015B000AEE8B0E08C930C94F50A023011F00C9474
:1015C000E70A83E4AEE8B0E08C930C94F50A0330AC
:1015D00011F00C94F10A84E4AEE8B0E08C930C9422
:1015E000F50A83E4AEE8B0E08C935A924A92809177
:1015F0008E00D2018C9381E00E94910E5A924A9201
:1016000080E0D2018C9381E00E94910E0E94F9014A
:10161000249682E00E94FF0D08955A924A92AE816C
:10162000BF818C91D2018C9381E00E94910E5A92DD
:101630004A92AE81BF818C91D2018C9381E00E944D
:10164000910E0E94FF08249682E00E94FF0D5A929C
:101650004A92AE85BF858C91D2018C9381E00E9425
:10166000910E5A924A92AE85BF858C91D2018C938D
:1016700081E00E94910E0E942E09249682E00E9431
:10168000FF0DA881B9810E94E20EA2E9B0E08C931F
:10169000A885B9858C9182508C935A924A9289EC94
:1016A000D2018C9381E00E94910E5A924A9280E07E
:1016B000D2018C9381E00E94910E0E94F901249640
:1016C00082E00E94FF0D00919200003011F40C9412
:1016D000260CA885B9850C9140919200041BA3E9C2
:1016E000B0E00C9391E0A3E9B0E00E949B0E8091E2
:1016F000930081508093930081E08093900040910B
:10170000930000919000041718F011F00C94A60BB0
:101710005A924A928DECD2018C9381E00E94910EF4
:101720005A924A9280E0D2018C9381E00E94910EFD
:101730000E94F901249682E00E94FF0DA0E9B0E02A
:101740008C918F5F8C9310F40C947F0B5A924A9279
:1017500080E2D2018C9381E00E94910E5A924A92CB
:1017600080E0D2018C9381E00E94910E0E94F901E9
:10177000249682E00E94FF0DA881B981BA93AA93B2
:101780005A924A9281E0D2018C9381E00E94910E9C
:101790000E942202249681E00E94FF0D5A924A92F2
:1017A00080E2D2018C9381E00E94910E5A924A927B
:1017B00080E0D2018C9381E00E94910E0E94F90199
:1017C000249682E00E94FF0DA885B9850C91409176
:1017D0009300041BA4E9B0E00C93009194004091A5
:1017E0009200041BA4E9B0E00C93A4E9B0E08C9152
:1017F00082508C9381E080939000409194000091FE
:101800009000041718F011F00C94240C5A924A928C
:101810008DECD2018C9381E00E94910E5A924A92F3
:1018200080E0D2018C9381E00E94910E0E94F90128
:10183000249682E00E94FF0DA0E9B0E08C918F5FBA
:101840008C9310F40C94FD0B0C94510C81E080935C
:101850009000A885B9854C9100919000041718F06C
:1018600011F00C94510C5A924A928DECD2018C9347
:1018700081E00E94910E5A924A9280E0D2018C93AC
:1018800081E00E94910E0E94F901249682E00E945C
:10189000FF0DA0E9B0E08C918F5F8C9310F40C9455
:1018A000290C5A924A928BEBD2018C9381E00E94D0
:1018B000910E5A924A9280E0D2018C9381E00E946C
:1018C000910E0E94F901249682E00E94FF0DAE81E4
:1018D000BF810E94030E81E080939000AE81BF81A2
:1018E0004C9100919000041718F011F00C94F90C31
:1018F000AA85BB850C9140919000040FAEE8B0E042
:101900000C935A924A92AE85BF858C91D2018C93EA
:1019100081E00E94910E5A924A9280918E00D201EB
:101920008C9381E00E94910E0E942E09249682E001
:101930000E94FF0D5A924A928AEBD2018C9381E069
:101940000E94910E5A924A9280E0D2018C9381E0DB
:101950000E94910E0E94F901249682E00E94FF0DE0
:1019600081E080939100A885B9854C910091910008
:10197000041718F011F00C94DB0C5A924A9280E292
:10198000D2018C9381E00E94910E5A924A9280E09B
:10199000D2018C9381E00E94910E0E94F90124965D
:1019A00082E00E94FF0DA1E9B0E08C918F5F8C93E3
:1019B00010F40C94B30C5A924A928AEBD2018C9395
:1019C00081E00E94910E5A924A9280E0D2018C935B
:1019D00081E00E94910E0E94F901249682E00E940B
:1019E000FF0DA0E9B0E08C918F5F8C9310F40C9404
:1019F0006E0CAA85BB850C91AE81BF814C91040F02
:101A0000AEE8B0E00C935A924A92AE85BF858C91B5
:101A1000D2018C9381E00E94910E5A924A92809159
:101A20008E00D2018C9381E00E94910E0E942E09BB
:101A3000249682E00E94FF0D5A924A9288ECD201CD
:101A40008C9381E00E94910E5A924A9280E0D201DA
:101A50008C9381E00E94910E0E94F901249682E00D
:101A60000E94FF0D81E080939000A885B9854C917C
:101A700000919000041718F011F00C945D0D5A922B
:101A80004A928DECD2018C9381E00E94910E5A9281
:101A90004A9280E0D2018C9381E00E94910E0E94D4
:101AA000F901249682E00E94FF0DA0E9B0E08C913C
:101AB0008F5F8C9310F40C94350D5A924A928CEBF4
:101AC000D2018C9381E00E94910E5A924A9280E05A
:101AD000D2018C9381E00E94910E0E94F90124961C
:101AE00082E00E94FF0D089520202C20202020203D
:101AF0002020203C202020202027272222F92D2DC5
:101B00002020203E20202020FF20206A20207C2032
:101B1000F020202220202020F8204969202020FACF
:101B2000F12320226A5373208081828384858687F3
:101B300088898A8B8C8D8E8F9091929394959697AD
:101B400098999A9B9C9D9E9FA0A1A2A3A4A5A6A79D
:101B5000A8A9AAABACADAEAFE0E1E2E3E4E5E6E70D
:101B6000E8E9EAEBECEDEEEF0C94B40D08950E9479
:101B7000C10D0E94BC0D089570E07BBF70E079BF7D
:101B8000089570B77B7F70BF70E07ABB70E07BBB5D
:101B900073EF77BB70E078BB70E474BB70E075BB2B
:101BA00070E271BB74E172BB0895089508950895C1
:101BB00008950895089508950895089508955B413E
:101BC000546D65676131365D24200000CAEEECE09B
:101BD000EDE4EDE0FF20EEE1EEEBEEF7EAE02C20A5
:101BE000E2E5F0F1E8FF20302E31202842617363F6
:101BF0006F6D204156522900481A590A0895481A13
:101C00008827580A08958C9181508C9308950D91DE
:101C10001D912D913C9101501040204030403C934B
:101C20002E931E930E93089500FC10D0089503D0B8
:101C30001ED001F8F9CF0024E89457FF02C009D064
:101C4000689400F80BD010F80124089502D009D050
:101C50000895509540954F5F5F4F0895E89417FFA2
:101C60000895009510950F5F1F4F68940895352FC4
:101C7000242FE894452B11F468940895512F402F98
:101C80000027112780E1440F551F001F111F021B61
:101C9000130B416018F4020F131F4E7F8A9599F7BA
:101CA0000895A8EEB3E018D0883091F08D3039F067
:101CB0003323C9F38D933A9563FE17D0F4CF63FCB9
:101CC00004C08DE012D08AE010D088278C9308954C
:101CD0000CD011973395E7CF5F9BFECF8CB1089561
:101CE0008D9103D03A95E1F708955D9BFECF8CB9B5
:101CF00008953197F1F70895689462F80895E8948B
:101D000062F80895EF93FF93EE27E82BE92B31F06B
:101D1000E0EDF7E03197F1F70197D1F7FF91EF91FF
:101D20000895480E8827581E08950E94A30E0D920C
:101D30000020D9F70895903029F08C9186959A95D6
:101D4000E9F78C930895C89531960020089591E0A5
:101D500005C092E003C094E001C098E0F4DF0D926A
:101D60009A95E1F70895E80FF91FF1CF882311F450
:101D7000992329F00E94A30EE9F70197D9F7089556
:101D800088278D93089509919191992351F08A950F
:101D9000D9F7319781918D930A9519F08823D1F75E
:101DA0000895EECFFF93881BF9E0001FFA9511F418
:101DB000FF910895881F841B18F4840F8894F5CF31
:101DC0000894F3CF8FEF83959D919923E1F70895C0
:00000001FF
