:100000000C942A001895000018950000189500001F
:10001000189500001895000018950000189500002C
:10002000189500001895000018950000189500001C
:10003000189500001895000018950000189500000C
:1000400018950000189500001895000018950000FC
:10005000189500008FE58DBFC8E3E0E04E2E84E0E8
:100060008EBFD4E0F4E05F2EA89584B7082E877F7A
:1000700084BF88E1992781BD91BDEEEFF3E0A0E652
:10008000B0E088278D933197E9F78CE089B980E05B
:1000900080BD88E18AB966240E94130D5A924A9263
:1000A0008FE0D2018C9381E00E94ED0D5A924A922A
:1000B00080E0D2018C9381E00E94ED0D0E947508D2
:1000C000249682E00E945B0D5A924A9282E0D2010D
:1000D0008C9381E00E94ED0D0E942203229681E024
:1000E0000E945B0DE4E8FAE180E090E00E94120ECD
:1000F000A0E6B0E00E94F10D5A924A9281E0D2014E
:100100008C9381E00E94ED0D5A924A9281E0D201D7
:100110008C9381E00E94ED0D5A924A9280E5D201C3
:100120008C9381E00E94ED0D5A924A9288E1D201AF
:100130008C9381E00E94ED0D5A924A928FE0D20199
:100140008C9381E00E94ED0D5A924A9284E0D20194
:100150008C9381E00E94ED0DA0E6B0E0BA93AA93E3
:100160000E94830A2E9686E00E945B0D0E94C100C9
:10017000A0E6B0E03DE20E94AF0D0C94B600F8940A
:10018000FFCFE6E7FAE180E090E00E94120EA0E6E1
:10019000B0E00E94F10D5A924A928AE0D2018C930B
:1001A00081E00E94ED0D5A924A9280E0D2018C9338
:1001B00081E00E94ED0D0E947508249682E00E9465
:1001C0005B0D5A924A9281E0D2018C9381E00E94A9
:1001D000ED0D5A924A9289E1D2018C9381E00E94FE
:1001E000ED0D0E94A408249682E00E945B0DA0E61B
:1001F000B0E0BA93AA935A924A9281E0D2018C93CA
:1002000081E00E94ED0D0E949801249681E00E94F9
:100210005B0D5A924A928FE0D2018C9381E00E944A
:10022000ED0D0E944606229681E00E945B0D0E9421
:10023000C0055A924A9280E0D2018C9381E00E94DC
:10024000ED0D0E94A103229681E00E945B0D0E94A9
:1002500003060E94B604089540E050E060E070E0BC
:10026000A881B9810D911D912D913C91041715071D
:100270002607370718F011F00C9440010C944F0139
:10028000000000000000000000000000000000006E
:100290000000A881B9810E94630D0C942C0108957F
:1002A00040E050E060E070E0A881B9810D911D91BF
:1002B0002D913C91041715072607370718F011F008
:1002C0000C9464010C946E0181E090E00E94DE0DBC
:1002D000A881B9810E94630D0C9450010895A881F2
:1002E000B9810C91003011F00C9478010C949201BA
:1002F000013011F00C949201AA81BB810C9107FB93
:1003000016F00C949201AA81BB818C918F778C930B
:10031000E0EAF9E1AA81BB818C919927AA81BB818E
:100320000E940F0E31E0AA81BB810E94CC0D08957E
:10033000AA81BB810E943E0E082F003011F00C9460
:10034000A3010C94E30181E080939000AA81BB811A
:100350000E943E0E482F00919000041718F011F0F3
:100360000C94E30180919000EA81FB8101E00A9303
:10037000A1E9B0E00E941F0EA1E9B0E08C91AFE8C6
:10038000B0E08C935A924A9280918F00D2018C9364
:1003900081E00E94ED0D5A924A92AC81BD818C9110
:1003A000D2018C9381E00E94ED0D0E946F01249692
:1003B00082E00E945B0DA0E9B0E08C918F5F8C938E
:1003C00010F40C94A60108955A924A928BE1D2013E
:1003D0008C9381E00E94ED0D5A924A9280E0D20106
:1003E0008C9381E00E94ED0D0E946F01249682E0C3
:1003F0000E945B0D5A924A928BE5D2018C9381E068
:100400000E94ED0D5A924A9280E0D2018C9381E0D5
:100410000E94ED0D0E946F01249682E00E945B0D08
:10042000AA81BB810C9144E60E942E0EAEE8B0E09A
:100430000C93AEE8B0E08C91805D8C935A924A9216
:1004400080918E00D2018C9381E00E94ED0D5A9232
:100450004A9280E0D2018C9381E00E94ED0D0E94CF
:100460006F01249682E00E945B0DAA81BB810D91F1
:100470001C9144E650E00E94930DAA81BB810D932C
:100480001C93AA81BB810C914AE00E942E0EAEE81B
:10049000B0E00C93AEE8B0E08C91805D8C935A9202
:1004A0004A9280918E00D2018C9381E00E94ED0DE2
:1004B0005A924A9280E0D2018C9381E00E94ED0D25
:1004C0000E946F01249682E00E945B0DAA81BB818D
:1004D0000C914AE00E942E0EAEE8B0E08C93AEE89C
:1004E000B0E08C91805D8C935A924A9280918E00FC
:1004F000D2018C9381E00E94ED0D5A924A9280E0E5
:10050000D2018C9381E00E94ED0D0E946F01249630
:1005100082E00E945B0D8BE3AEE8B0E08C935A92D0
:100520004A9280918E00D2018C9381E00E94ED0D61
:100530005A924A9280E0D2018C9381E00E94ED0DA4
:100540000E946F01249682E00E945B0DA881B98110
:100550000C914AE00E942E0EAEE8B0E00C93AEE89B
:10056000B0E08C91805D8C935A924A9280918E007B
:10057000D2018C9381E00E94ED0D5A924A9280E064
:10058000D2018C9381E00E94ED0D0E946F012496B0
:1005900082E00E945B0DA881B9810C914AE00E9423
:1005A0002E0EAEE8B0E08C93AEE8B0E08C91805DAA
:1005B0008C935A924A9280918E00D2018C9381E062
:1005C0000E94ED0D5A924A9280E0D2018C9381E014
:1005D0000E94ED0D0E946F01249682E00E945B0D47
:1005E00082E4AEE8B0E08C935A924A9280918E00F9
:1005F000D2018C9381E00E94ED0D5A924A9280E0E4
:10060000D2018C9381E00E94ED0D0E946F0124962F
:1006100082E00E945B0D5A924A9287E0D2018C934D
:1006200081E00E94ED0D5A924A9280E0D2018C93B3
:1006300081E00E94ED0D0E946F01249682E00E94ED
:100640005B0D08955A924A928BE1D2018C9381E01E
:100650000E94ED0D5A924A9280E0D2018C9381E083
:100660000E94ED0D0E946F01249682E00E945B0DB6
:100670005A924A928BE5D2018C9381E00E94ED0D53
:100680005A924A9280E0D2018C9381E00E94ED0D53
:100690000E946F01249682E00E945B0DA881B981BF
:1006A0000C91003011F00C945B0380E3AEE8B0E0F5
:1006B0008C930C947303013011F00C94650381E367
:1006C000AEE8B0E08C930C947303023011F00C94FC
:1006D0006F0382E3AEE8B0E08C930C94730382E383
:1006E000AEE8B0E08C935A924A9280918E00D2018B
:1006F0008C9381E00E94ED0D5A924A9280E0D201E3
:100700008C9381E00E94ED0D0E946F01249682E09F
:100710000E945B0D5A924A928AE4D2018C9381E046
:100720000E94ED0D5A924A9280E0D2018C9381E0B2
:100730000E94ED0D0E946F01249682E00E945B0DE5
:1007400008955A924A928BE1D2018C9381E00E94E3
:10075000ED0D5A924A9280E0D2018C9381E00E9482
:10076000ED0D0E946F01249682E00E945B0D5A926B
:100770004A928BE5D2018C9381E00E94ED0D5A9252
:100780004A9280E0D2018C9381E00E94ED0D0E949C
:100790006F01249682E00E945B0DA881B9810C91C3
:1007A000003011F00C94DA0380E3AEE8B0E08C93F3
:1007B0000C94F203013011F00C94E40381E3AEE8F1
:1007C000B0E08C930C94F203023011F00C94EE0321
:1007D00082E3AEE8B0E08C930C94F20380E3AEE8E1
:1007E000B0E08C935A924A9280918E00D2018C9301
:1007F00081E00E94ED0D5A924A9280E0D2018C93E2
:1008000081E00E94ED0D0E946F01249682E00E941B
:100810005B0D5A924A928BE4D2018C9381E00E9444
:10082000ED0D5A924A9280E0D2018C9381E00E94B1
:10083000ED0D0E946F01249682E00E945B0D0895E9
:10084000A881B9810C91003011F00C9429040C940A
:10085000B5045A924A928BE1D2018C9381E00E94B6
:10086000ED0D5A924A9280E0D2018C9381E00E9471
:10087000ED0D0E946F01249682E00E945B0D5A925A
:100880004A928BE5D2018C9381E00E94ED0D5A9241
:100890004A9280E0D2018C9381E00E94ED0D0E948B
:1008A0006F01249682E00E945B0DA881B9810C91B2
:1008B0004AE00E942E0EAEE8B0E00C93AEE8B0E045
:1008C0008C91805D8C935A924A9280918E00D201D5
:1008D0008C9381E00E94ED0D5A924A9280E0D20101
:1008E0008C9381E00E94ED0D0E946F01249682E0BE
:1008F0000E945B0DA881B9810C914AE00E942E0EE6
:10090000AEE8B0E08C93AEE8B0E08C91805D8C9363
:100910005A924A9280918E00D2018C9381E00E947B
:10092000ED0D5A924A9280E0D2018C9381E00E94B0
:10093000ED0D0E946F01249682E00E945B0D5A9299
:100940004A9288E5D2018C9381E00E94ED0D5A9283
:100950004A9280E0D2018C9381E00E94ED0D0E94CA
:100960006F01249682E00E945B0D08955A924A928C
:100970008BE1D2018C9381E00E94ED0D5A924A9254
:1009800080E0D2018C9381E00E94ED0D0E946F0106
:10099000249682E00E945B0D5A924A928BE5D20126
:1009A0008C9381E00E94ED0D5A924A9280E0D20130
:1009B0008C9381E00E94ED0D0E946F01249682E0ED
:1009C0000E945B0D5A924A928FE3D2018C9381E090
:1009D0000E94ED0D5A924A9280E0D2018C9381E000
:1009E0000E94ED0D0E946F01249682E00E945B0D33
:1009F0005A924A9282E3D2018C9381E00E94ED0DDB
:100A00005A924A9280E0D2018C9381E00E94ED0DCF
:100A10000E946F01249682E00E945B0D5A924A92D6
:100A200085E3D2018C9381E00E94ED0D5A924A92A7
:100A300080E0D2018C9381E00E94ED0D0E946F0155
:100A4000249682E00E945B0D5A924A9288E6D20177
:100A50008C9381E00E94ED0D5A924A9280E0D2017F
:100A60008C9381E00E94ED0D0E946F01249682E03C
:100A70000E945B0D08955A924A928BE1D2018C93A9
:100A800081E00E94ED0D5A924A9280E0D2018C934F
:100A900081E00E94ED0D0E946F01249682E00E9489
:100AA0005B0D5A924A928BE5D2018C9381E00E94B1
:100AB000ED0D5A924A9280E0D2018C9381E00E941F
:100AC000ED0D0E946F01249682E00E945B0D5A9208
:100AD0004A928FE3D2018C9381E00E94ED0D5A92ED
:100AE0004A9280E0D2018C9381E00E94ED0D0E9439
:100AF0006F01249682E00E945B0D5A924A9282E333
:100B0000D2018C9381E00E94ED0D5A924A9280E0CE
:100B1000D2018C9381E00E94ED0D0E946F0124961A
:100B200082E00E945B0D5A924A9285E3D2018C9337
:100B300081E00E94ED0D5A924A9280E0D2018C939E
:100B400081E00E94ED0D0E946F01249682E00E94D8
:100B50005B0D5A924A928CE6D2018C9381E00E94FE
:100B6000ED0D5A924A9280E0D2018C9381E00E946E
:100B7000ED0D0E946F01249682E00E945B0D0895A6
:100B80005A924A928BE1D2018C9381E00E94ED0D42
:100B90005A924A9280E0D2018C9381E00E94ED0D3E
:100BA0000E946F01249682E00E945B0D5A924A9245
:100BB0008BE5D2018C9381E00E94ED0D5A924A920E
:100BC00080E0D2018C9381E00E94ED0D0E946F01C4
:100BD000249682E00E945B0D5A924A9283E7D201EA
:100BE0008C9381E00E94ED0D5A924A9280E0D201EE
:100BF0008C9381E00E94ED0D0E946F01249682E0AB
:100C00000E945B0D08955A924A928BE1D2018C9317
:100C100081E00E94ED0D5A924A9280E0D2018C93BD
:100C200081E00E94ED0D0E946F01249682E00E94F7
:100C30005B0D5A924A928BE5D2018C9381E00E941F
:100C4000ED0D5A924A9280E0D2018C9381E00E948D
:100C5000ED0D0E946F01249682E00E945B0D5A9276
:100C60004A9285E7D2018C9381E00E94ED0D5A9261
:100C70004A9280E0D2018C9381E00E94ED0D0E94A7
:100C80006F01249682E00E945B0D08955A924A9269
:100C90008BE1D2018C9381E00E94ED0D5A924A9231
:100CA00080E0D2018C9381E00E94ED0D0E946F01E3
:100CB000249682E00E945B0D5A924A928BE5D20103
:100CC0008C9381E00E94ED0D5A924A9280E0D2010D
:100CD0008C9381E00E94ED0D0E946F01249682E0CA
:100CE0000E945B0DA881B9810C9103FB16F00C9456
:100CF0007F0681E3AEE8B0E08C930C94830682E338
:100D0000AEE8B0E08C935A924A9280918E00D20164
:100D10008C9381E00E94ED0D5A924A9280E0D201BC
:100D20008C9381E00E94ED0D0E946F01249682E079
:100D30000E945B0D5A924A928DE6D2018C9381E01B
:100D40000E94ED0D5A924A9280E0D2018C9381E08C
:100D50000E94ED0D0E946F01249682E00E945B0DBF
:100D60005A924A928BE1D2018C9381E00E94ED0D60
:100D70005A924A9280E0D2018C9381E00E94ED0D5C
:100D80000E946F01249682E00E945B0D5A924A9263
:100D90008BE5D2018C9381E00E94ED0D5A924A922C
:100DA00080E0D2018C9381E00E94ED0D0E946F01E2
:100DB000249682E00E945B0D5A924A9283E3D2010C
:100DC0008C9381E00E94ED0D5A924A9280E0D2010C
:100DD0008C9381E00E94ED0D0E946F01249682E0C9
:100DE0000E945B0DA881B9818C9187708C93A8813A
:100DF000B9818C91805D8C935A924A92AA81BB8171
:100E00008C91D2018C9381E00E94ED0D5A924A920E
:100E100080E0D2018C9381E00E94ED0D0E946F0171
:100E2000249682E00E945B0D5A924A928DE6D2018E
:100E30008C9381E00E94ED0D5A924A9280E0D2019B
:100E40008C9381E00E94ED0D0E946F01249682E058
:100E50000E945B0D08955A924A928BE1D2018C93C5
:100E600081E00E94ED0D5A924A9280E0D2018C936B
:100E700081E00E94ED0D0E946F01249682E00E94A5
:100E80005B0D5A924A928BE5D2018C9381E00E94CD
:100E9000ED0D5A924A9280E0D2018C9381E00E943B
:100EA000ED0D0E946F01249682E00E945B0DA881E7
:100EB000B9810C9103FB16F00C94640785E3AEE84E
:100EC000B0E08C930C94680786E3AEE8B0E08C93B6
:100ED0005A924A9280918E00D2018C9381E00E94B6
:100EE000ED0D5A924A9280E0D2018C9381E00E94EB
:100EF000ED0D0E946F01249682E00E945B0D5A92D4
:100F00004A928DE6D2018C9381E00E94ED0D5A92B7
:100F10004A9280E0D2018C9381E00E94ED0D0E9404
:100F20006F01249682E00E945B0D5A924A928BE1F7
:100F3000D2018C9381E00E94ED0D5A924A9280E09A
:100F4000D2018C9381E00E94ED0D0E946F012496E6
:100F500082E00E945B0D5A924A928BE5D2018C93FB
:100F600081E00E94ED0D5A924A9280E0D2018C936A
:100F700081E00E94ED0D0E946F01249682E00E94A4
:100F80005B0D5A924A9284E3D2018C9381E00E94D5
:100F9000ED0D5A924A9280E0D2018C9381E00E943A
:100FA000ED0D0E946F01249682E00E945B0DA881E6
:100FB000B9818C9187708C93A881B9818C91805D67
:100FC0008C935A924A92AA81BB818C91D2018C93C4
:100FD00081E00E94ED0D5A924A9280E0D2018C93FA
:100FE00081E00E94ED0D0E946F01249682E00E9434
:100FF0005B0D5A924A928DE6D2018C9381E00E9459
:10100000ED0D5A924A9280E0D2018C9381E00E94C9
:10101000ED0D0E946F01249682E00E945B0D089501
:101020005A924A928BE1D2018C9381E00E94ED0D9D
:101030005A924A9280E0D2018C9381E00E94ED0D99
:101040000E946F01249682E00E945B0D5A924A92A0
:101050008BE5D2018C9381E00E94ED0D5A924A9269
:1010600080E0D2018C9381E00E94ED0D0E946F011F
:10107000249682E00E945B0DA881B9818C918F70CB
:101080008C93A881B9818C91805D8C935A924A92FD
:10109000AA81BB818C91D2018C9381E00E94ED0DDD
:1010A0005A924A9280E0D2018C9381E00E94ED0D29
:1010B0000E946F01249682E00E945B0D5A924A9230
:1010C0008DE6D2018C9381E00E94ED0D5A924A92F6
:1010D00080E0D2018C9381E00E94ED0D0E946F01AF
:1010E000249682E00E945B0D08955A924A9280E015
:1010F000D2018C9381E00E94ED0D0E94100822968F
:1011000081E00E945B0D5A924A92AC81BD818C9124
:10111000D2018C9381E00E94ED0D0E94460622963A
:1011200081E00E945B0D5A924A92AA81BB818C9108
:10113000D2018C9381E00E94ED0D0E942B07229634
:1011400081E00E945B0D0895AA81BB810C91003063
:1011500081E009F080E08F93A881B9810C91003083
:1011600081E009F080E09F91892B882311F40C9491
:10117000BB080C94C509AA81BB810C91003580E0A5
:1011800010F009F081E08F93A881B9810C910931A9
:1011900080E010F009F081E09F91892B882311F401
:1011A0000C94D4080C94C5095A924A928BE1D2014E
:1011B0008C9381E00E94ED0D5A924A9280E0D20118
:1011C0008C9381E00E94ED0D0E946F01249682E0D5
:1011D0000E945B0D5A924A928BE5D2018C9381E07A
:1011E0000E94ED0D5A924A9280E0D2018C9381E0E8
:1011F0000E94ED0D0E946F01249682E00E945B0D1B
:10120000A881B9810C914AE00E942E0EAEE8B0E0B0
:101210000C93AEE8B0E08C91805D8C935A924A9228
:1012200080918E00D2018C9381E00E94ED0D5A9244
:101230004A9280E0D2018C9381E00E94ED0D0E94E1
:101240006F01249682E00E945B0DA881B9810C9108
:101250004AE00E942E0EAEE8B0E08C93AEE8B0E01B
:101260008C91805D8C935A924A9280918E00D2012B
:101270008C9381E00E94ED0D5A924A9280E0D20157
:101280008C9381E00E94ED0D0E946F01249682E014
:101290000E945B0D8BE3AEE8B0E08C935A924A92C9
:1012A00080918E00D2018C9381E00E94ED0D5A92C4
:1012B0004A9280E0D2018C9381E00E94ED0D0E9461
:1012C0006F01249682E00E945B0DAA81BB810C9184
:1012D0004AE00E942E0EAEE8B0E00C93AEE8B0E01B
:1012E0008C91805D8C935A924A9280918E00D201AB
:1012F0008C9381E00E94ED0D5A924A9280E0D201D7
:101300008C9381E00E94ED0D0E946F01249682E093
:101310000E945B0DAA81BB810C914AE00E942E0EB7
:10132000AEE8B0E08C93AEE8B0E08C91805D8C9339
:101330005A924A9280918E00D2018C9381E00E9451
:10134000ED0D5A924A9280E0D2018C9381E00E9486
:10135000ED0D0E946F01249682E00E945B0D5A926F
:101360004A9286E6D2018C9381E00E94ED0D5A925A
:101370004A9280E0D2018C9381E00E94ED0D0E94A0
:101380006F01249682E00E945B0D08955A924A9262
:101390008BE1D2018C9381E00E94ED0D5A924A922A
:1013A00080E0D2018C9381E00E94ED0D0E946F01DC
:1013B000249682E00E945B0D5A924A928BE5D201FC
:1013C0008C9381E00E94ED0D5A924A9280E0D20106
:1013D0008C9381E00E94ED0D0E946F01249682E0C3
:1013E0000E945B0DA881B9810C914AE00E942E0EEB
:1013F000AEE8B0E00C93AEE8B0E08C91805D8C93E9
:101400005A924A9280918E00D2018C9381E00E9480
:10141000ED0D5A924A9280E0D2018C9381E00E94B5
:10142000ED0D0E946F01249682E00E945B0DA88161
:10143000B9810C914AE00E942E0EAEE8B0E08C9388
:10144000AEE8B0E08C91805D8C935A924A92809184
:101450008E00D2018C9381E00E94ED0D5A924A9247
:1014600080E0D2018C9381E00E94ED0D0E946F011B
:10147000249682E00E945B0DAA81BB810C91003012
:1014800011F00C94490A81E4AEE8B0E08C930C941E
:101490006B0A013011F00C94530A82E4AEE8B0E01C
:1014A0008C930C946B0A023011F00C945D0A83E467
:1014B000AEE8B0E08C930C946B0A033011F00C94FE
:1014C000670A84E4AEE8B0E08C930C946B0A83E482
:1014D000AEE8B0E08C935A924A9280918E00D2018D
:1014E0008C9381E00E94ED0D5A924A9280E0D201E5
:1014F0008C9381E00E94ED0D0E946F01249682E0A2
:101500000E945B0D08955A924A92AE81BF818C91E0
:10151000D2018C9381E00E94ED0D5A924A92AE81E5
:10152000BF818C91D2018C9381E00E94ED0D0E94CD
:101530007508249682E00E945B0D5A924A92AE850D
:10154000BF858C91D2018C9381E00E94ED0D5A925F
:101550004A92AE85BF858C91D2018C9381E00E9426
:10156000ED0D0E94A408249682E00E945B0D5A9221
:101570004A9289ECD2018C9381E00E94ED0D5A923F
:101580004A9280E0D2018C9381E00E94ED0D0E948E
:101590006F01249682E00E945B0DA881B9810E94B0
:1015A0003E0EA3E9B0E08C93A885B9858C9182505A
:1015B0008C9300919300003011F40C94970BA88544
:1015C000B9850C9140919300041BA4E9B0E00C9301
:1015D00091E0A4E9B0E00E94F70D81E080939000D3
:1015E0004091940000919000041718F011F00C94B1
:1015F000170B5A924A928DECD2018C9381E00E9493
:10160000ED0D5A924A9280E0D2018C9381E00E94C3
:10161000ED0D0E946F01249682E00E945B0DA0E90F
:10162000B0E08C918F5F8C9310F40C94F00A5A9276
:101630004A9280E2D2018C9381E00E94ED0D5A9291
:101640004A9280E0D2018C9381E00E94ED0D0E94CD
:101650006F01249682E00E945B0DA881B981BA9344
:10166000AA935A924A9281E0D2018C9381E00E941F
:10167000ED0D0E949801249681E00E945B0D5A9224
:101680004A9280E2D2018C9381E00E94ED0D5A9241
:101690004A9280E0D2018C9381E00E94ED0D0E947D
:1016A0006F01249682E00E945B0DA885B9850C919C
:1016B00040919400041BA5E9B0E00C9300919500C3
:1016C00040919300041BA5E9B0E00C93A5E9B0E0BC
:1016D0008C9182508C9381E0809390004091950092
:1016E00000919000041718F011F00C94950B5A9289
:1016F0004A928DECD2018C9381E00E94ED0D5A92BA
:101700004A9280E0D2018C9381E00E94ED0D0E940C
:101710006F01249682E00E945B0DA0E9B0E08C91FD
:101720008F5F8C9310F40C946E0B0C94AD0B5A924B
:101730004A928BEBD2018C9381E00E94ED0D5A927C
:101740004A9280E0D2018C9381E00E94ED0D0E94CC
:101750006F01249682E00E945B0D5A924A928BEBB5
:10176000D2018C9381E00E94ED0D5A924A9280E062
:10177000D2018C9381E00E94ED0D0E946F012496AE
:1017800082E00E945B0DAE81BF810E945F0D81E00F
:1017900080939000AE81BF814C910091900004171E
:1017A00018F011F00C94550CAA85BB850C91409152
:1017B0009000040FAEE8B0E00C935A924A92AE85C6
:1017C000BF858C91D2018C9381E00E94ED0D5A92DD
:1017D0004A9280918E00D2018C9381E00E94ED0D9F
:1017E0000E94A408249682E00E945B0D5A924A92BD
:1017F0008AEBD2018C9381E00E94ED0D5A924A92BD
:1018000080E0D2018C9381E00E94ED0D0E946F0177
:10181000249682E00E945B0D81E080939600A8856B
:10182000B9854C9100919600041718F011F00C94B2
:10183000370C5A924A9280E2D2018C9381E00E9446
:10184000ED0D5A924A9280E0D2018C9381E00E9481
:10185000ED0D0E946F01249682E00E945B0DA6E9C7
:10186000B0E08C918F5F8C9310F40C940F0C5A9213
:101870004A928AEBD2018C9381E00E94ED0D5A923C
:101880004A9280E0D2018C9381E00E94ED0D0E948B
:101890006F01249682E00E945B0DA0E9B0E08C917C
:1018A0008F5F8C9310F40C94CA0BAA85BB850C91A6
:1018B000AE81BF814C91040FAEE8B0E00C935A9218
:1018C0004A92AE85BF858C91D2018C9381E00E94B3
:1018D000ED0D5A924A9280918E00D2018C9381E054
:1018E0000E94ED0D0E94A408249682E00E945B0DE8
:1018F0005A924A9288ECD2018C9381E00E94ED0DBD
:101900005A924A9280E0D2018C9381E00E94ED0DC0
:101910000E946F01249682E00E945B0D81E080931B
:101920009000A885B9854C9100919000041718F09B
:1019300011F00C94B90C5A924A928DECD2018C930E
:1019400081E00E94ED0D5A924A9280E0D2018C9380
:1019500081E00E94ED0D0E946F01249682E00E94BA
:101960005B0DA0E9B0E08C918F5F8C9310F40C9428
:10197000910C5A924A928CEBD2018C9381E00E9496
:10198000ED0D5A924A9280E0D2018C9381E00E9440
:10199000ED0D0E946F01249682E00E945B0D089578
:1019A00020202C20202020202020203C202020200F
:1019B0002027272222F92D2D2020203E2020202004
:1019C000FF20206A20207C20F020202220202020C0
:1019D000F8204969202020FAF12320226A5373203D
:1019E000808182838485868788898A8B8C8D8E8F7F
:1019F000909192939495969798999A9B9C9D9E9F6F
:101A0000A0A1A2A3A4A5A6A7A8A9AAABACADAEAF5E
:101A1000E0E1E2E3E4E5E6E7E8E9EAEBECEDEEEF4E
:101A20000C94100D08950E941D0D0E94180D08952C
:101A300070E07BBF70E079BF089570B77B7F70BFA7
:101A400070E07ABB70E07BBB73EF77BB70E078BB74
:101A500070E474BB70E075BB70E271BB74E172BB83
:101A6000089508950895089508950895089508958E
:101A70000895089508955B41546D65676131365D41
:101A800024200000CAEEECE0EDE4EDE0FF20EEE102
:101A9000EEEBEEF7EAE02C20E2E5F0F1E8FF203093
:101AA0002E312028426173636F6D20415652290008
:101AB000481A590A0895481A8827580A08958C9197
:101AC00081508C9308950D911D912D913C91015061
:101AD0001040204030403C932E931E930E93089567
:101AE00000FC10D0089503D01ED001F8F9CF0024D7
:101AF000E89457FF02C009D0689400F80BD010F8A2
:101B00000124089502D009D00895509540954F5F63
:101B10005F4F0895E89417FF0895009510950F5FA3
:101B20001F4F68940895352F242FE894452B11F406
:101B300068940895512F402F0027112780E1440F0A
:101B4000551F001F111F021B130B416018F4020FD9
:101B5000131F4E7F8A9599F70895A8EEB3E018D029
:101B6000883091F08D3039F03323C9F38D933A9555
:101B700063FE17D0F4CF63FC04C08DE012D08AE07E
:101B800010D088278C9308950CD011973395E7CF08
:101B90005F9BFECF8CB108958D9103D03A95E1F70C
:101BA00008955D9BFECF8CB908953197F1F70895A4
:101BB000689462F80895E89462F80895EF93FF93AB
:101BC000EE27E82BE92B31F0E0EDF7E03197F1F764
:101BD0000197D1F7FF91EF910895480E8827581E7D
:101BE00008950E94FF0D0D920020D9F708959030BE
:101BF00029F08C9186959A95E9F78C930895C8956C
:101C000031960020089591E005C092E003C094E071
:101C100001C098E0F4DF0D929A95E1F70895E80F7E
:101C2000F91FF1CF882311F4992329F00E94FF0DA9
:101C3000E9F70197D9F7089588278D9308950991B9
:101C40009191992351F08A95D9F7319781918D938C
:101C50000A9519F08823D1F70895EECFFF93881BDA
:101C6000F9E0001FFA9511F4FF910895881F841B75
:101C700018F4840F8894F5CF0894F3CF8FEF8395F1
:081C80009D919923E1F70895FD
:00000001FF
