:100000000C940E020C9436020C9436020C943602B8
:100010000C9436020C9436020C9436020C94360280
:100020000C9436020C9436020C9436020C94441153
:100030000C9436020C9436020C9436020C94360260
:100040000C9436020C9436020C9436020C94360250
:100050000C9436020D0A00202868656C702920E493
:10006000EBFF20EFEEECEEF9E82E0D0A000D0ACAC8
:10007000EEECE0EDE4E020EDE520EFEEE4E4E5F089
:10008000E6E8E2E0E5F2F1FF2E20C2E2E5E4E8F284
:10009000E520002F00202D20286469722920EFF030
:1000A000EEF1ECEEF2F020EFE0EFEAE82E0D0A00C0
:1000B000202D2028746573742920F2E5F1F220E4E4
:1000C000F0E0E9E2E5F0E020506574697420464113
:1000D000542046696C652053797374656D2E0D0A42
:1000E00000202D202868656C702920E2FBE2EEE4F8
:1000F00020EFEEE4F1EAE0E7EAE82E0D0A000D0A4F
:10010000C4EEF1F2F3EFEDFBE520EAEEECE0EDE416
:10011000FB3A0D0A005B41546D65676131365D2421
:1001200020000D0AC0E2F2EEF03A20CCE5E7E5ED62
:10013000F6E5E220C2FFF7E5F1EBE0E22028756E7C
:1001400069686F6D656C61624079612E7275290D09
:100150000A0D0A00C4E0F2E020F1E1EEF0EAE82046
:10016000EFF0EEE5EAF2E03A2000CAEEECE0EDE472
:10017000EDE0FF20EEE1EEEBEEF7EAE02C20E2E529
:10018000F0F1E8FF2000323920EDEEFFE1F0FF2032
:100190003230313220E32E00CEF2ECEEEDF2E8F018
:1001A000EEE2E0EDE8E52046415433322000D1EEA6
:1001B000E4E5F0E6E8ECEEE520F4E0E9EBE02077BA
:1001C000726974652E7478743A0D0A00D7E8F2E00B
:1001D000E5EC20EFE5F0E2FBE52031323820E1E00C
:1001E000E9F220E8E720F4E0E9EBE02077726974B7
:1001F000652E7478742000D3F1F2E0EDE0E2EBE8D4
:10020000E2E0E5EC20F3EAE0E7E0F2E5EBFC20EDEC
:10021000E020EDE0F7E0EBEE20F4E0E9EBE0207722
:10022000726974652E7478742000CEEAEEEDF7E002
:10023000EDE8E520E7E0EFE8F1E820E220777269F9
:1002400074652E7478742000C7E0EFE8F1FBE2E0FB
:10025000EC20227772697465206F6B2220E220F413
:10026000E0E9EB2077726974652E7478742000CE13
:10027000F2EAF0FBE2E0FE2077726974652E747892
:100280007420002F77726974652E74787400D1EE33
:10029000E4E5F0E6E8ECEEE520F4E0E9EBE0204D03
:1002A00061696E556E69742E6370703A0D0A00D7DD
:1002B000E8F2E0E5EC20EFE5F0E2FBE52031323852
:1002C00020E1E0E9F220E8E720F4E0E9EBE0204D6E
:1002D00061696E556E69742E6370702000D3F1F2FF
:1002E000E0EDE0E2EBE8E2E0E5EC20F3EAE0E7E075
:1002F000F2E5EBFC20EDE020EDE0F7E0EBEE20F4A2
:10030000E0E9EBE0204D61696E556E69742E637013
:10031000702000CEF2EAF0FBE2E0FE204D61696E53
:10032000556E69742E63707020002F4D61696E5593
:100330006E69742E63707000CCEEEDF2E8F0EEE2C0
:10034000E0EDE8E520464154333220002020202013
:1003500020202000203C4449523E200020D1EEE4E1
:10036000E5F0E6E8ECEEE520EFE0EFEAE83A200021
:10037000290D0A004641494C28004F4B0D0A002028
:10038000202C20202020202020203C202020202045
:1003900027272222F92D2D2020203E20202020FF5B
:1003A00020206A20207C20F020202220202020F8FD
:1003B000204969202020FAF12320226A53732080EB
:1003C0008182838485868788898A8B8C8D8E8F90A5
:1003D0009192939495969798999A9B9C9D9E9FA095
:1003E000A1A2A3A4A5A6A7A8A9AAABACADAEAFE055
:1003F000E1E2E3E4E5E6E7E8E9EAEBECEDEEEF1B4A
:100400005B001B5B324A001B5B4B001B5B32356899
:10041000001B5B32356C00006B12A61711241FBE47
:10042000CFE5D4E0DEBFCDBF10E0A0E6B0E0E2EB68
:10043000F0E302C005900D92A23EB107D9F712E099
:10044000A2EEB0E001C01D92A130B107E1F714E0C7
:10045000CCE1D4E004C02297FE010E944818C831C4
:10046000D107C9F70E94CB170C9457180C940000C1
:1004700090E087FD02C0C59801C0C59AC79A0000E8
:10048000C7989F5F983011F0880FF3CF0895C59AF1
:1004900090E080E0C79A880FB6998160C798000005
:1004A0009F5F9830B9F70895DF92EF92FF920F9314
:1004B0001F93D82E7A018B0187FF0BC087E740E09E
:1004C00050E060E070E00E945402823098F58FE7BF
:1004D000D822C49A0E944702C4980E9447028D2DD8
:1004E0000E943802812F9927AA27BB270E94380231
:1004F000C801AA27BB270E943802BB27A12F902F33
:100500008F2D0E9438028E2D0E94380280E4D8166A
:1005100011F485E906C088E4D81611F487E801C013
:1005200081E00E9438021AE00E94470287FF02C061
:100530001150D1F71F910F91FF90EF90DF90089528
:10054000CF92DF92EF92FF920F931F93CF93DF939F
:100550006C017901B09B02C011E03FC08091E200C4
:1005600083FD07C039E0440F551F661F771F3A957A
:10057000D1F781E50E945402882361F5C0E3D5E7F5
:100580000E9447028F3F19F4219721F1F9CF8E3F46
:1005900009F5E114F10429F0E7010E9447022197CF
:1005A000E1F7C114D10441F0E8010E944702F601CD
:1005B00081936F012197C9F7CC27DD27CE19DF0979
:1005C000CE5FDD4FC01BD10B0E9447022197E1F7A0
:1005D00010E001C011E00E944702812FDF91CF910E
:1005E0001F910F91FF90EF90DF90CF900895EF92C1
:1005F000FF920F931F93CF93DF937C01B09967C055
:10060000B19965C00097E9F08A01C091E500D091E9
:10061000E60008C0F70181917F010E943802015075
:10062000104021970115110529F4D093E600C093DD
:10063000E50028C0209771F71092E6001092E500BF
:1006400021C04115510561057105F1F08091E2006D
:1006500083FD07C0E9E0440F551F661F771FEA9529
:10066000D1F788E50E945402882389F58FEF0E9414
:1006700038028EEF0E94380280E092E09093E6000C
:100680008093E50010E024C0C091E500D091E60021
:10069000229604C080E00E94380221972097D1F76B
:1006A0000E9447028F71853071F4C8EEDDEF0E9421
:1006B00047028F3F21F0209731F02197F8CFCD2BC3
:1006C00011F010E001C011E00E94470201C011E0EA
:1006D000812FDF91CF911F910F91FF90EF9008959F
:1006E000CF92DF92EF92FF920F931F93DF93CF93FE
:1006F00000D000D0CDB7DEB783E788BB80EB87BBE7
:10070000B09997C0C49908C080E090E040E050E004
:1007100060E070E00E94F70214E60E944702115068
:10072000E1F780E440E050E060E070E00E945402B5
:10073000813009F076C088E44AEA51E060E070E078
:100740000E945402813009F043C06E010894C11C1C
:10075000D11C76018E010B5F1F4F0E944702F701EB
:1007600081937F01E017F107C1F78B81813009F098
:1007700058C08C818A3A09F054C000EE1EE289EE1E
:1007800040E050E060E070E40E945402882309F4E5
:100790005EC00150104009F444C0F1CF8AE740E048
:1007A00050E060E070E00E9454028823D1F50E947E
:1007B0004702F60181936F01EE15FF05C1F78981AC
:1007C00086FD03C004E0F02E2DC01CE0F12E2AC0EF
:1007D00089EE40E050E060E070E00E945402823018
:1007E00028F0B1E4EB2EFF24F39404C0A9EEEA2E26
:1007F000F2E0FF2E08EA11E68E2D40E050E060E0C6
:1008000070E00E945402882329F10150104049F001
:10081000F3CF80E540E052E060E070E00E945402D7
:100820008111FF24F092E2000E94470280E0FF2045
:1008300009F481E00F900F900F900F90CF91DF910E
:100840001F910F91FF90EF90DF90CF900895012BB3
:1008500041F3A4CF012B29F3DCCFEF92FF920F934A
:100860001F93CF93DF93B0996AC0B19968C0009786
:1008700001F17A01C091E300D091E4008C010AC03B
:10088000F80184910E9438020894E108F1080F5F92
:100890001F4F2197E114F10429F4D093E400C09391
:1008A000E30028C0209761F71092E4001092E30063
:1008B00021C04115510561057105F1F08091E200FB
:1008C00083FD07C089E0440F551F661F771F8A9577
:1008D000D1F788E50E945402882389F58FEF0E94A2
:1008E00038028EEF0E94380280E092E09093E4009C
:1008F0008093E30010E024C0C091E300D091E400B5
:10090000229604C080E00E94380221972097D1F7F8
:100910000E9447028F71853071F4C8EEDDEF0E94AE
:1009200047028F3F21F0209731F02197F8CFCD2B50
:1009300011F010E001C011E00E94470201C011E077
:10094000812FDF91CF911F910F91FF90EF9008952C
:10095000CF92DF92EF92FF920F931F93CF93DF938B
:100960006C01C091E700D091E800FC011182108277
:10097000248135814681578121303105410551055A
:1009800009F45BC088859985AA85BB852817390736
:100990004A075B0708F051C0211531054105510593
:1009A00039F48881833021F4288939894A895B891F
:1009B000F60120873187428753872115310541058C
:1009C000510581F18EEFE82E8FEFF82E8FEF082F73
:1009D0008FEF182FE20EF31E041F151F88859985CF
:1009E000AA85BB850297A109B109E816F9060A078D
:1009F0001B0728F020E030E040E050E017C02981DC
:100A000030E040E050E0C801B7010E94D2179B01DE
:100A1000AC018C899D89AE89BF89280F391F4A1F77
:100A20005B1F04C0288939894A895B89F6012487BC
:100A300035874687578780E001C081E0DF91CF91FD
:100A40001F910F91FF90EF90DF90CF9008956F92DC
:100A50007F928F929F92AF92BF92CF92DF92EF924E
:100A6000FF920F931F93DF93CF9300D000D0CDB7A9
:100A7000DEB74B015C016090E7007090E80082E017
:100A800088169104A104B10408F4B1C0F301808573
:100A90009185A285B38588169906AA06BB0608F03B
:100AA000A6C08081823009F45CC0833009F478C02C
:100AB000813009F09CC0C40196958795880D991DD9
:100AC0009C013170892F992786956C01EE24FF24B3
:100AD000F3014485558566857785CE010196F1E061
:100AE0002F3F3F0749F0C40ED51EE61EF71EB70183
:100AF000A60102E010E01EC04C0D5D1D6E1D7F1DA5
:100B00002FEF31E001E010E00E94A002882309F0FD
:100B10006EC0F30144855585668577854F5F5F4FCD
:100B20006F4F7F4F4C0D5D1D6E1D7F1DCE010296D8
:100B300020E030E00E94A002882309F058C06981BB
:100B40007A8180FE07C0A4E076956795AA95E1F7C3
:100B50009B0123C09B0140E050E03F70407050700B
:100B60004AC077276B2D5A2D492DF3018485958531
:100B7000A685B785480F591F6A1F7B1F94013070E7
:100B8000220F331FCE01019602E010E00E94A00266
:100B9000882369F589819A819C0140E050E02BC04F
:100BA000B501A40127E076956795579547952A9555
:100BB000D1F7F30184859585A685B785480F591F20
:100BC0006A1F7B1F94012F773070220F331F220F73
:100BD000331FCE01019604E010E00E94A00288239A
:100BE00031F429813A814B815C815F7004C021E03E
:100BF00030E040E050E0B901CA010F900F900F9033
:100C00000F90CF91DF911F910F91FF90EF90DF90A8
:100C1000CF90BF90AF909F908F907F906F900895EE
:100C2000AF92BF92CF92DF92EF92FF920F931F93FA
:100C3000CF93DF935C01C091E700D091E800FC0105
:100C4000C080D1800894C11CD11CC114D10409F406
:100C50008FC0248535854685578521153105410589
:100C6000510509F485C0C6018F709070892B09F079
:100C70007AC02F5F3F4F4F4F5F4F2487358746879E
:100C800057874085518562857385411551056105FA
:100C9000710539F48C819D81C816D90608F463C0AA
:100CA00067C0898190E001979601E4E03695279529
:100CB000EA95E1F782239323892B09F054C0CB01F5
:100CC000BA010E9427059B01AC01623071058105C4
:100CD000910510F481E04DC088859985AA85BB8572
:100CE000281739074A075B0708F042C0F50120873B
:100CF000318742875387C091E700D091E8008EEF9B
:100D0000E82E8FEFF82E8FEF082F8FEF182FE20EBF
:100D1000F31E041F151F88859985AA85BB85029738
:100D2000A109B109E816F9060A071B0728F020E017
:100D300030E040E050E012C0298130E040E050E077
:100D4000C801B7010E94D2179B01AC018C899D8913
:100D5000AE89BF89280F391F4A1F5B1FF501248701
:100D6000358746875787F501D182C08280E001C070
:100D700083E0DF91CF911F910F91FF90EF90DF9073
:100D8000CF90BF90AF9008952F923F924F925F9275
:100D90006F927F928F929F92AF92BF92CF92DF928B
:100DA000EF92FF920F931F93CF93DF93E82FC091A1
:100DB000E700D091E800209711F486E00DC18A8108
:100DC00080FD02C085E008C1AC8CBD8CCE8CDF8C70
:100DD0004E2F592FCB01DA013C014D01A614B70467
:100DE000C804D90410F435014601288D398D4A8D87
:100DF0005B8D188E198E1A8E1B8E611471048104FE
:100E0000910409F4E8C08981A82EBB24CC24DD24F8
:100E100099E0AA0CBB1CCC1CDD1C9A95D1F72115BE
:100E2000310541055105B1F119012A010894210844
:100E3000310841085108C401B3016150704080403D
:100E40009040A60195010E94241879018A01C201EF
:100E5000B101A60195010E942418E216F3060407C9
:100E60001507C0F088279927DC018A199B09AC096E
:100E7000BD0982219321A421B521888F998FAA8F42
:100E8000BB8F681A790A8A0A9B0A2CA13DA14EA140
:100E90005FA133C028A139A14AA15BA12CA33DA326
:100EA0004EA35FA32AC0CA01B9010E9427059B0176
:100EB000AC01623071058105910508F489C088850F
:100EC0009985AA85BB85281739074A075B0708F06B
:100ED0007FC02CA33DA34EA35FA3888D998DAA8DBF
:100EE000BB8D8A0D9B1DAC1DBD1D888F998FAA8F50
:100EF000BB8F6A187B088C089D08A614B704C80429
:100F0000D90488F2888D998DAA8DBB8D860D971D89
:100F1000A81DB91D888F998FAA8FBB8F0091E700FC
:100F20001091E8008EEFA82E8FEFB82E8FEFC82E0D
:100F30008FEFD82EA20EB31EC41ED51EF8018085D9
:100F40009185A285B3850297A109B109A816B906B2
:100F5000CA06DB06E8F5218130E040E050E0C6013A
:100F6000B5010E94D2179B01AC01F80184899589D3
:100F7000A689B789280F391F4A1F5B1F2115310524
:100F80004105510529F1D401C30119E0B695A79592
:100F9000979587951A95D1F7982F8B83FFEFEF2EB2
:100FA000F1E0FF2E012D112D6E207F208022912255
:100FB000611471048104910471F0280F311D411DE9
:100FC000511D28A739A74AA75BA79F5F9B8303C032
:100FD0001A8281E001C080E0DF91CF911F910F91D3
:100FE000FF90EF90DF90CF90BF90AF909F908F9049
:100FF0007F906F905F904F903F902F9008950E9448
:10100000C4060895DF92EF92FF920F931F93CF9340
:10101000DF93EC010E94A804D82E882399F5E09173
:10102000E700F091E800E680F7804C855D856E85ED
:101030007F85288139812F703070E5E0220F331FC2
:10104000EA95E1F7C70100E210E00E94A0028823C0
:1010500011F181E018C0F701838583FD22C08A81E8
:101060009B819C01D9012BE030E0215030408FEF73
:101070002F3F380739F090818C91981791F4319671
:101080001196F3CF8D2DDF91CF911F910F91FF908E
:10109000EF90DF900895F70180818823E1F683E0E7
:1010A000F2CFCE010E941006882309F4BECFEBCF09
:1010B000CF92DF92EF92FF920F931F93DF93CF9324
:1010C00000D000D0CDB7DEB78C01FB0101C0319656
:1010D00084918032E1F3EB83FC838F3219F43196F3
:1010E000FC83EB83D80114961D921D921D921C92D5
:1010F0001797EB81FC81E491E13268F4C8010E940A
:10110000A804282FE091E700F091E8000680F7811D
:10111000E02D10828AC030E2C32E7E010894E11CCB
:10112000F11CDD24D3941A821982F801A281B381C3
:10113000FD018BE090E001C0C19201972FEF8F3F3E
:101140009207D1F78B819C819A83898320E040E0CC
:1011500038E002C028E03BE0842F90E04F5FE98157
:10116000FA81E80FF91F9491592F9132B0F09F3214
:10117000A1F09E3211F0231728F0383071F45E325E
:1011800049F30BC0892F81568A3108F49052FD0132
:10119000E20FF11D90832F5FDFCFC701840F911DF8
:1011A0009C838B831B961C921B97513210F41B96C9
:1011B000DC92C8010E940208982F882361F0282F32
:1011C000833091F5D8011296ED91FC9113978385A8
:1011D000882341F12AC0D8011296ED91FC91139712
:1011E0008385882309F5E091E700F091E800068007
:1011F000F781E02D838584FF15C084899589A0E05F
:10120000B0E0DC0199278827228D338D40E050E043
:10121000822B932BA42BB52BF80184839583A68373
:10122000B78381CF24E001C0292F822F0F900F9028
:101230000F900F90CF91DF911F910F91FF90EF9042
:10124000DF90CF900895EF92FF920F931F93DF935B
:10125000CF93CDB7DEB7AC970FB6F894DEBF0FBE15
:10126000CDBF8C01E091E700F091E800309711F4D8
:1012700086E032C05DE0E52EF12CEC0EFD1EF7821B
:10128000E682CE010196F80193838283C8010E9411
:1012900058088823F1F48D858823C1F0888D84FF58
:1012A0001AC0F70184899589A0E0B0E0DC01992794
:1012B0008827228D338D40E050E0822B932BA42B86
:1012C000B52BF80184839583A683B783C8010E9458
:1012D000A804833009F484E0AC960FB6F894DEBF1E
:1012E0000FBECDBFCF91DF911F910F91FF90EF9077
:1012F0000895EF92FF920F931F93DF93CF93CDB793
:10130000DEB7EC970FB6F894DEBF0FBECDBFBC01C1
:101310000091E7001091E8000115110511F466E055
:1013200041C0F8011282ADE1EA2EF12CEC0EFD1E57
:10133000F782E682CE010196988B8F87CE010D96BB
:101340000E945808682F882369F58D8D882349F1FC
:1013500088A584FD26C0F70184899589A0E0B0E0C6
:10136000DC0199278827228D338D40E050E0822BC5
:10137000932BA42BB52BF80180A391A3A2A3B3A315
:10138000F701848D958DA68DB78DF801848F958F8B
:10139000A68FB78F108E118E128E138E81E08283EE
:1013A00001C063E0862FEC960FB6F894DEBF0FBE47
:1013B000CDBFCF91DF911F910F91FF90EF900895D6
:1013C000DF92EF92FF920F931F93CF93DF938C01E5
:1013D000EB0101C0219688818032E1F38F3209F45C
:1013E0002196D80114961D921D921D921C9217975A
:1013F0008881813268F4C8010E94A804282FE091F6
:10140000E700F091E8000680F781E02D108279C0B6
:1014100030E2D32EEE24E394F801A281B381FD01E2
:101420008BE090E001C0D19201972FEF8F3F9207A0
:10143000D1F720E0FF2438E002C028E03BE0FE01C5
:10144000EF0DF11D9081F3949132B0F09F32A1F035
:101450009E3211F0231728F0383071F49E3269F370
:101460000BC0892F81568A3108F49052FD01E20F9A
:10147000F11D90832F5FE3CF1B961C921B97913237
:1014800010F41B96EC92C8010E940208982F882342
:1014900061F0282F8330A1F5D8011296ED91FC91CF
:1014A00013978385882351F12CC0D8011296ED91B2
:1014B000FC9113978385882319F5E091E700F0915B
:1014C000E8000680F781E02D838584FF17C0CF0DEB
:1014D000D11D84899589A0E0B0E0DC019927882797
:1014E000228D338D40E050E0822B932BA42BB52B23
:1014F000F80184839583A683B7838ECF24E001C04F
:10150000292F822FDF91CF911F910F91FF90EF90A4
:10151000DF900895EF92FF920F931F93DF93CF9385
:10152000CDB7DEB7AC970FB6F894DEBF0FBECDBF18
:101530008C01E091E700F091E800309711F486E02B
:1015400032C05DE0E52EF12CEC0EFD1EF782E68246
:10155000CE010196F80193838283C8010E94E009BD
:101560008823F1F48D858823C1F0888D84FF1AC00B
:10157000F70184899589A0E0B0E0DC0199278827EC
:10158000228D338D40E050E0822B932BA42BB52B82
:10159000F80184839583A683B783C8010E94A804B9
:1015A000833009F484E0AC960FB6F894DEBF0FBE2A
:1015B000CDBFCF91DF911F910F91FF90EF900895D4
:1015C0000E948A0A0895EF92FF920F931F93DF9370
:1015D000CF93CDB7DEB7EC970FB6F894DEBF0FBE52
:1015E000CDBFBC010091E7001091E8000115110585
:1015F00011F466E041C0F8011282ADE1EA2EF12C4F
:10160000EC0EFD1EF782E682CE010196988B8F8745
:10161000CE010D960E94E009682F882369F58D8D13
:10162000882349F188A584FD26C0F701848995891E
:10163000A0E0B0E0DC0199278827228D338D40E0BF
:1016400050E0822B932BA42BB52BF80180A391A300
:10165000A2A3B3A3F701848D958DA68DB78DF80154
:10166000848F958FA68FB78F108E118E128E138E4A
:1016700081E0828301C063E0862FEC960FB6F89478
:10168000DEBF0FBECDBFCF91DF911F910F91FF90B5
:10169000EF9008950E94E30A0895AF92BF92CF920F
:1016A000DF92EF92FF920F931F93DF93CF93CDB70B
:1016B000DEB7AC970FB6F894DEBF0FBECDBF7C018E
:1016C0005B01E091E700F091E800309711F486E0CB
:1016D000C3C0CE010D9697838683CE010196D701B4
:1016E00013969C938E9312976115710521F4C7018F
:1016F0000E94A804B1C0C680D78083E023C0F70150
:10170000208131812F703070B5E0220F331FBA95E0
:10171000E1F7C60100E210E00E94A002882309F46C
:10172000ACC081E01BC0D6011B968C91953E29F080
:101730009E3219F08F7383FF1DC0C7010E941006EF
:10174000882361F4F70144855585668577854115C1
:1017500051056105710599F6882361F0D7011C9642
:101760001D921D921D921C921F97833019F08823A1
:1017700009F072C09501275F3F4FF7018485958579
:10178000A685B7850097A105B10509F456C0E0917B
:10179000E700F091E8004681578180E090E0FA018F
:1017A000E80FF91FE081E03251F0E53009F4E5EE91
:1017B000D901ED939D0101968830910581F7FA01D9
:1017C0008085803211F4F90110C0F9018EE2819315
:1017D000DA012C5F3F4F18968C911897803229F0D0
:1017E00081931196E217F307B1F7DA011B968C91FA
:1017F000D50118968C93DA015C960D911D912D916F
:101800003C915F97D5010D931D932D933C931397B6
:10181000DA0158968D919C915997D50115969C9314
:101820008E931497DA0156968D919C915797D50116
:1018300017969C938E9316979F01F9011082C7010A
:101840000E941006833041F4D7011C961D921D9210
:101850001D921C921F9780E0AC960FB6F894DEBFE5
:101860000FBECDBFCF91DF911F910F91FF90EF90F1
:10187000DF90CF90BF90AF900895F60190819923AB
:1018800009F051CF83E06ACF0E944D0B08954F922B
:101890005F926F927F928F929F92AF92BF92CF9200
:1018A000DF92EF92FF920F931F93CF93DF933C0150
:1018B0006B014A01C091E700D091E800FA01118262
:1018C0001082209711F486E0DAC08A8180FD02C080
:1018D00085E0D5C02C8D3D8D4E8D5F8D888D998D89
:1018E000AA8DBB8D281B390B4A0B5B0BCB01A0E0EB
:1018F000B0E0281739074A075B0708F4690153016C
:10190000412C32E0532EB3C0E88CF98C0A8D1B8D2C
:10191000D801C7019170A070B0700097A105B10502
:1019200009F06BC0C801B70129E0969587957795B6
:1019300067952A95D1F7298130E040E050E00E9478
:1019400024186115710581059105D9F4E114F1049C
:101950000105110529F468A179A18AA19BA106C0FE
:101960006CA17DA18EA19FA10E9427056230710507
:101970008105910508F481C06CA37DA38EA39FA36C
:101980001B820091E7001091E8002CA13DA14EA11F
:101990005FA12250304040405040F8018085918541
:1019A000A285B3850297A109B109281739074A070B
:1019B0005B0708F062C0618170E080E090E00E9407
:1019C000D2179B01AC01F80184899589A689B78952
:1019D000280F391F4A1F5B1F21153105410551058D
:1019E00009F44BC08B81280F311D411D511D28A7C3
:1019F00039A74AA75BA78F5F8B83088D198D2A8D26
:101A00003B8DC8019170A201481B590B76014C1502
:101A10005D0508F47A016114710419F480E090E026
:101A200001C0C50148A559A56AA57BA598013170DB
:101A300087010E94A002882301F5C701A0E0B0E061
:101A4000288D398D4A8D5B8D280F391F4A1F5B1FEA
:101A5000288F398F4A8F5B8FAE0CBF1CCE18DF08E2
:101A6000F401808191818E0D9F1D91838083C1142B
:101A7000D10409F049CF80E002C01A8281E0DF91F1
:101A8000CF911F910F91FF90EF90DF90CF90BF907B
:101A9000AF909F908F907F906F905F904F90089540
:101AA0000E94470C0895AF92BF92CF92DF92EF92BF
:101AB000FF920F931F93CF93DF93B82EA92E6A0145
:101AC0007B012EEF31E002E010E00E94A0028823AB
:101AD00011F023E023C0CB2DDA2D88819981855523
:101AE0009A4A11F022E01AC08B2D9A2DB701A60157
:101AF00026E330E002E010E00E94A0028823D1F447
:101B00008881998186549144A9F420E007C020E09F
:101B1000888199818654914409F021E0822FDF91D8
:101B2000CF911F910F91FF90EF90DF90CF90BF90DA
:101B3000AF9008958B2D9A2DB701A60122E530E0D4
:101B400002E010E00E94A002882309F3E6CF4F9242
:101B50005F926F927F928F929F92AF92BF92CF923D
:101B6000DF92EF92FF920F931F93CF93DF93FC01CD
:101B70005B013A01C091E700D091E800DA011D92C3
:101B80001C92209711F486E005C18A8190E080FDC7
:101B900002C085E0FFC0807490706115710579F412
:101BA000892B09F408C180E090E040E050E060E05B
:101BB00070E00E94F702882309F4FDC0E9C0892B78
:101BC00051F4888D998DAA8DBB8D80709E7F888FF2
:101BD000998FAA8FBB8F2C8D3D8D4E8D5F8D888DFB
:101BE000998DAA8DBB8D281B390B4A0B5B0BC50148
:101BF000A0E0B0E0281739074A075B0708F459014D
:101C00004F01412C52E0552EBEC0E88CF98C0A8D54
:101C10001B8DC7019170892B09F077C0C801B701EE
:101C200049E096958795779567954A95D1F72981EB
:101C300030E040E050E00E942418611571058105F4
:101C40009105D9F4E114F1040105110529F468A105
:101C500079A18AA19BA106C06CA17DA18EA19FA1A3
:101C60000E942705623071058105910508F490C036
:101C70006CA37DA38EA39FA31B820091E70010910C
:101C8000E8002CA13DA14EA15FA122503040404070
:101C90005040F80180859185A285B3850297A109FE
:101CA000B109281739074A075B0708F071C061813D
:101CB00070E080E090E00E94D2179B01AC01F80137
:101CC00084899589A689B789280F391F4A1F5B1F08
:101CD000211531054105510509F45AC08B81BA011E
:101CE000A901480F511D611D711D48A759A76AA779
:101CF0007BA78F5F8B8380E090E00E94F7028823B0
:101D000009F046C08A8180648A83888D998D91709C
:101D10009201281B390B65012A153B0508F469015E
:101D2000760100E010E0C401B801A7010E94F702AB
:101D3000882371F5888D998DAA8DBB8D8E0D9F1D81
:101D4000A01FB11F9C01888F998FAA8FBB8FD301D1
:101D50008D919C9111978C0D9D1D8D939C9331704D
:101D6000232B69F480E090E040E050E060E070E018
:101D70000E94F702882361F48A818F7B8A838C0C0E
:101D80009D1CAC18BD08A114B10409F03ECF16C0CB
:101D90001A8281E0DF91CF911F910F91FF90EF9018
:101DA000DF90CF90BF90AF909F908F907F906F907B
:101DB0005F904F9008958A818F7B8A8380E0EACF7D
:101DC0000E94A70D08954F925F926F927F928F921B
:101DD0009F92AF92BF92CF92DF92EF92FF920F93BA
:101DE0001F93CF93DF93FC015B013A01C091E700A1
:101DF000D091E800DA011D921C92209711F486E040
:101E000005C18A8190E080FD02C085E0FFC080743A
:101E100090706115710579F4892B09F408C180E08F
:101E200090E040E050E060E070E00E94F70288231C
:101E300009F4FDC0E9C0892B51F4888D998DAA8DD4
:101E4000BB8D80709E7F888F998FAA8FBB8F2C8DC2
:101E50003D8D4E8D5F8D888D998DAA8DBB8D281BF4
:101E6000390B4A0B5B0BC501A0E0B0E0281739071E
:101E70004A075B0708F459014F01412CF2E05F2E3D
:101E8000BEC0E88CF98C0A8D1B8DC7019170892B1F
:101E900009F077C0C801B701E9E096958795779575
:101EA0006795EA95D1F7298130E040E050E00E9443
:101EB00024186115710581059105D9F4E114F10427
:101EC0000105110529F468A179A18AA19BA106C089
:101ED0006CA17DA18EA19FA10E9427056230710592
:101EE0008105910508F490C06CA37DA38EA39FA3E8
:101EF0001B820091E7001091E8002CA13DA14EA1AA
:101F00005FA12250304040405040F80180859185CB
:101F1000A285B3850297A109B109281739074A0795
:101F20005B0708F071C0618170E080E090E00E9482
:101F3000D2179B01AC01F80184899589A689B789DC
:101F4000280F391F4A1F5B1F211531054105510517
:101F500009F45AC08B81BA01A901480F511D611DB6
:101F6000711D48A759A76AA77BA78F5F8B8380E065
:101F700090E00E94F702882309F046C08A818064BD
:101F80008A83888D998D91709201281B390B650188
:101F90002A153B0508F46901760100E010E0C40150
:101FA000B801A7010E942D04882371F5888D998DB1
:101FB000AA8DBB8D8E0D9F1DA01FB11F9C01888F08
:101FC000998FAA8FBB8FD3018D919C9111978C0D06
:101FD0009D1D8D939C933170232B69F480E090E0DC
:101FE00040E050E060E070E00E94F702882361F476
:101FF0008A818F7B8A838C0C9D1CAC18BD08A11430
:10200000B10409F03ECF16C01A8281E0DF91CF9172
:102010001F910F91FF90EF90DF90CF90BF90AF9006
:102020009F908F907F906F905F904F9008958A81DE
:102030008F7B8A8380E0EACF6F927F928F929F920C
:10204000AF92BF92CF92DF92EF92FF920F931F93C6
:10205000DF93CF93CDB7DEB7A4970FB6F894DEBF6A
:102060000FBECDBF5C011092E8001092E700009710
:1020700009F4EDC00E94700380FF02C082E0ECC052
:102080004E010894811C911CC40140E050E060E0C6
:1020900070E00E94530D813021F0CC24DD247601C4
:1020A0001BC0C40140E050E060E070E02EEB31E086
:1020B00000E110E00E94A002882309F0CAC08D81CF
:1020C000882309F4C8C0C984DA84EB84FC84C40181
:1020D000B701A6010E94530D833009F4BAC08823CA
:1020E00009F0B9C0CE010196B701A6012DE030E09C
:1020F00004E210E00E94A002882309F0AAC08A85A9
:102100009B85BC0180E090E061157105810591051A
:1021100021F4688D798D8A8D9B8D2C8130E040E093
:1021200050E00E94D2173B014C018A819B81A0E0C4
:10213000B0E0C80ED91EEA1EFB1EF501C486D58686
:10214000E686F786898181832D813E8135832483CC
:102150008F8198857C0100E010E0E114F104010515
:10216000110521F4EC88FD880E891F898A819B81E5
:10217000A0E0B0E0E81AF90A0A0B1B0BE618F70812
:1021800008091909B4E036952795BA95E1F7C90110
:10219000A0E0B0E0E81AF90A0A0B1B0BF501218157
:1021A00030E040E050E0C801B7010E9424182E5FE3
:1021B0003F4F4F4F5F4FF50120873187428753874D
:1021C000273FFFE03F07F0E04F07F0E05F0710F424
:1021D00081E008C0275F3F4F4040504010F083E04F
:1021E00001C082E0F5018083833029F488A199A1A0
:1021F000AAA1BBA109C0F50184859585A685B785EF
:10220000860D971DA81DB91D808B918BA28BB38B5A
:10221000F50184819581A4E096958795AA95E1F7CB
:10222000A0E0B0E02485358546855785820F931F51
:10223000A41FB51F860D971DA81DB91D848B958BF6
:10224000A68BB78B1282B092E800A092E70080E0E4
:1022500003C081E001C087E0A4960FB6F894DEBF0A
:102260000FBECDBFCF91DF911F910F91FF90EF90E7
:10227000DF90CF90BF90AF909F908F907F906F90A6
:1022800008950E941C1008951F920F920FB60F928E
:1022900011242F933F934F935F936F937F938F936B
:1022A0009F93AF93BF93EF93FF938CB10E944E1215
:1022B000FF91EF91BF91AF919F918F917F916F911E
:1022C0005F914F913F912F910F900FBE0F901F90F4
:1022D000189526E831E0C9010895AF92BF92CF92D8
:1022E000DF92EF92FF920F931F93DF93CF9300D073
:1022F00000D00F92CDB7DEB77B018C011695079504
:10230000F794E794A8019701569547953795279537
:102310002E0D3F1D401F511F79018A0174E0169553
:102320000795F794E7947A95D1F7E20EF31E041F10
:10233000151FAF2CB02EC12EDD24AE0CBF1CC01E4D
:10234000D11E9601442755272A0D3B1D4C1D5D1DAE
:1023500079018A0183E016950795F794E7948A95A9
:10236000D1F7287F621B8E2D880F681B6A3030F0F2
:102370006A500894E11CF11C011D111DE982FA82CA
:102380000B831C832E2D3A814B815C8170E080E0B1
:1023900090E00F900F900F900F900F90CF91DF91E2
:1023A0001F910F91FF90EF90DF90CF90BF90AF9073
:1023B0000895CF92DF92EF92FF920F931F93DF93D6
:1023C000CF93CDB7DEB72A970FB6F894DEBF0FBE16
:1023D000CDBFFA018A01065F1F4F12866E01089475
:1023E000C11CD11CA6E0EA2EF12CEC0EFD1E0E94B1
:1023F0006D112E833F83488759876A87D601F7017D
:1024000085E001900D928150E1F78D81805DF801AA
:1024100082938F0169817A818B819C81611571051D
:102420008105910521F7CF012A960FB6F894DEBFFA
:102430000FBECDBFCF91DF911F910F91FF90EF9015
:10244000DF90CF90089580B78B7F80BF1ABA83EB5F
:1024500087BB14BA82E081BB1BBA80E488BB15BA83
:1024600081E082BB80E28BB91AB889E189B910BCDE
:1024700088E98AB986E880BD85B78F7085BF85B742
:1024800085BF0895089508950895089508950895BD
:10249000089508950895089508950895382F209176
:1024A0000002E22FF0E08091FF01AF01481B5109CB
:1024B0004031510541F0EF70F070E151FE4F308333
:1024C0002F5F2093000208950895089508950895B8
:1024D00008950895089584E590E09093EA0080932C
:1024E000E90008951F93182F882331F482E00E9499
:1024F0005A178AE793E00FC089E00E945A1784E7D1
:1025000093E060E00E94B216812F805D60E00E943F
:10251000521680E793E060E00E94B2168FE00E94BE
:102520005A171F9108950F931F93DF93CF9300D0F5
:10253000CDB7DEB786E191E00E9441118093EB00B8
:1025400088E393E061E00E94B2168091EB0088235B
:1025500009F0BEC00E9472128AE293E00E947909DB
:102560008093EB0083E193E061E00E94B2168091DA
:10257000EB000E94721260E070E080E090E00E9448
:10258000FF078093EB008DED92E061E00E94B216B0
:102590008091EB000E94721282E691E060E870E0A8
:1025A0008E010F5F1F4FA8010E94500D8093EB001A
:1025B0008FEA92E061E00E94B2168091EB000E94E7
:1025C00072128EE892E061E00E94B21682E691E01B
:1025D00061E00E94C6168091E9009091EA0060E0F7
:1025E0000E94B21683E892E00E9479098093EB0082
:1025F0008FE692E061E00E94B2168091EB000E94AB
:102600007212A2E6B0E0FD0101900020E9F73197D7
:10261000EA1BFB0BCD01BF01A8010E94E00E8093D5
:10262000EB0088E492E061E00E94B2168091EB003A
:102630000E94721280E090E060E070E0A8010E94C9
:10264000E00E8093EB008AE292E061E00E94B21615
:102650008091EB000E94721260E070E080E090E0F8
:102660000E94FF078093EB0087EF91E061E00E94FA
:10267000B2168091EB000E9472121092620182E603
:1026800091E060E870E0A8010E94500D8093EB009B
:102690008CEC91E061E00E94B2168091EB000E9408
:1026A00072128EEA91E061E00E94B21682E691E039
:1026B00060E00E94C61680E090E00E944111809385
:1026C000EB0088E991E061E00E94B2168091EB0096
:1026D0000E9472120F900F90CF91DF911F910F9176
:1026E0000895FF920F931F938C0186E191E00E9461
:1026F00041118093EB0086E091E0B8010E94E00A6E
:102700008093EB00882309F085C18CE593E061E0BC
:102710000E94B216C80161E00E94C6168091E900CD
:102720009091EA0060E00E94B2160BE0F02E86E085
:1027300091E060EF70E00E94440C8093EB008823EE
:1027400009F062C18091F900882309F45DC180918C
:10275000F4009091F5009093ED008093EC000091CF
:10276000ED00069510E00454184FC80168EE73E0C0
:102770000E94FD17862F805D60E00E945216C801FE
:1027800068EE73E00E94FD17182F092F64E670E0D1
:102790000E94FD17862F805D60E00E945216812FF7
:1027A000902F64E670E00E94FD17182F092F6AE051
:1027B00070E00E94FD17862F805D60E00E94521637
:1027C000812F902F6AE070E00E94FD17805D60E02D
:1027D0000E9452168EE260E00E9452169091EC0028
:1027E0009295969597708091ED008170880F880F73
:1027F000880F892B90E06AE070E00E941118862F04
:10280000805D60E00E9452169091EC009295969542
:1028100097708091ED008170880F880F880F892B49
:1028200090E06AE070E00E941118805D60E00E9414
:1028300052168EE260E00E9452168091EC008F7179
:1028400090E06AE070E00E941118862F805D60E0E1
:102850000E9452168091EC008F7190E06AE070E067
:102860000E941118805D60E00E94521680E260E0D4
:102870000E9452168091F6009091F7009093EF001D
:102880008093EE008091EF0086958695869590E086
:102890006AE070E00E941118862F805D60E00E945F
:1028A00052168091EF0086958695869590E06AE0B5
:1028B00070E00E941118805D60E00E9452168AE369
:1028C00060E00E9452169091EE0092959695977056
:1028D0008091EF008770880F880F880F892B90E018
:1028E0006AE070E00E941118862F805D60E00E940F
:1028F00052169091EE009295969597708091EF0008
:102900008770880F880F880F892B90E06AE070E04D
:102910000E941118805D60E00E9452168AE360E018
:102920000E9452168091EE008F7190E0880F991FDF
:102930006AE070E00E941118862F805D60E00E94BE
:1029400052168091EE008F7190E0880F991F6AE017
:1029500070E00E941118805D60E00E94521680E2D3
:1029600060E00E9452168091F80084FF0DC084E55B
:1029700093E061E00E94B2161CE080E260E00E94F9
:1029800052161150D0F733C08CE493E061E00E94FE
:10299000B2166091F0007091F1008091F200909178
:1029A000F30042E551E00E94D911FC0101900020A2
:1029B000E9F73197E81BF90B1F2D1E1B80E260E041
:1029C0000E9452161150D0F76091F0007091F10002
:1029D0008091F2009091F30042E551E00E94D911FC
:1029E00060E00E94C61680E260E00E94521689EF05
:1029F00090E061E00E94C6168091E9009091EA00A3
:102A000060E00E94B21693CE80E090E00E944111F7
:102A10008093EB008091EB001F910F91FF90089540
:102A200087E00E945A170E94D71681E069E10E9450
:102A300066178AE691E061E00E94B21682E491E0B6
:102A400060E00E94C6168091E9009091EA0060E083
:102A50000E94B21684E591E061E00E94B21686E819
:102A600091E061E00E94B21682E291E061E00E9492
:102A7000B21682E00E945A1785E191E060E00E9460
:102A8000B21687E00E945A1782E591E00E9467160D
:102A9000FC018081882331F48091E9009091EA0063
:102AA00060E0E5CF8836B9F58181882309F067C0F9
:102AB0008FE00E945A178EEF90E061E00E94B216FC
:102AC00089E00E945A1788E660E00E9452168FE063
:102AD0000E945A1781EE90E061E00E94B21689E0F0
:102AE0000E945A1784E760E00E9452168FE00E940D
:102AF0005A1780EB90E061E00E94B21689E00E94D4
:102B00005A1784E660E00E9452168FE00E945A171E
:102B100085E990E0ABCF843769F48181882379F52A
:102B20008091E9009091EA0060E00E94B2160E9454
:102B300093129FCF843619F58181882301F5809106
:102B4000E9009091EA0060E00E94B21680E0A82FB0
:102B5000B0E0FD01ED56FF4FE491AE59BE4FEC934E
:102B60008F5FE82FF0E0ED56FF4FE491EE2379F709
:102B700082E691E00E9471130E9472127ACF8FE078
:102B80000E945A178DE690E061E00E94B21689E03B
:102B90000E945A1788E660E00E9452168FE00E9459
:102BA0005A1787E590E062CFCF92DF92EF92FF92C3
:102BB0000F931F93DF93CF9300D0CDB7DEB78091F3
:102BC0006000909161009A83898382E5C82E81E03C
:102BD000D82E60E070E080E090E0A6010E94D9115C
:102BE000BC0102E411E0C8010E944C18C8017E013A
:102BF0000894E11CF11CB7010E944C1860E070E0E1
:102C000080E090E0A6010E94D911BC01C8010E9499
:102C10004C18C801B7010E944C1860E070E080E0D9
:102C200090E0A6010E94D911BC01C8010E944C1875
:102C3000C801B7010E944C1869E970E080E090E09B
:102C4000A6010E94D911BC01C8010E944C187894B9
:102C50000E94101580E090E00E94411160E070E059
:102C600080E090E00F900F90CF91DF911F910F9136
:102C7000FF90EF90DF90CF900895F8949091FF012E
:102C800080910002981711F480E00AC0E92FF0E06B
:102C9000EF70F070E151FE4F80819F5F9093FF01D4
:102CA000789408955D9BFECF662361F0613059F4FE
:102CB00087FF08C08F77E091E301F091E401E80F0E
:102CC000F11D84918CB95E9BFECF58980895EF92C8
:102CD000FF920F931F93CF93DF93EC0100E080E10D
:102CE000E82E87E2F82EC7010197F1F70E943D1602
:102CF000182F8823C1F38A3049F18D3039F188309B
:102D0000A1F4002381F3FE01E00FF11D10820150B8
:102D100088E060E00E94521680E260E00E94521655
:102D200088E060E00E945216DECF805B8033D8F2EC
:102D30001032C8F2143FB8F6812F60E00E9452169C
:102D4000FE01E00FF11D10830F5FCDCFFE01E00FFC
:102D5000F11D1082CE01DF91CF911F910F91FF9055
:102D6000EF900895FF920F931F93F62EFC0107C07A
:102D70008F010F5F1F4F6F2D0E945216F801849133
:102D80008823B1F71F910F91FF9008951F93CF9360
:102D9000DF93EC01162F04C02196612F0E9452167A
:102DA00088818823C9F7DF91CF911F910895809181
:102DB000E7019091E80160E00E94B21608958091C9
:102DC000E9019091EA0160E00E94B21608958091B5
:102DD000EB019091EC0160E00E94B21608958091A1
:102DE000ED019091EE0160E00E94B21608951F93EC
:102DF000CF93DF93182F8091E5019091E60160E079
:102E00000E94B216C12FD0E013FF02C081E301C0BF
:102E100082E360E00E9452168DE660E00E94521646
:102E20008091E5019091E60160E00E94B21683E393
:102E300060E00E945216CE01877090706AE070E0E8
:102E40000E941118805D60E00E9452168DE660E0DD
:102E50000E945216DF91CF911F9108951F93182F52
:102E60008091E5019091E60160E00E94B21613FFA7
:102E700002C085E301C086E360E00E9452168DE641
:102E800060E00E9452168091E5019091E60160E0B9
:102E90000E94B21684E360E00E9452161770812FE0
:102EA000805D60E00E9452168DE660E00E9452163E
:102EB0001F9108951F93182F8F700E94F716812F6E
:102EC00082958F700E942E171F9108950F931F9364
:102ED000082F162F8823B9F16623A9F1813598F5BB
:102EE0006A3188F58091E5019091E60160E00E94E9
:102EF000B216812F6AE00E94F117805D60E00E94A7
:102F00005216812F6AE00E94F117892F805D60E0E0
:102F10000E9452168BE360E00E945216802F6AE0F6
:102F20000E94F117805D60E00E945216802F6AE0D7
:102F30000E94F117892F805D60E00E94521686E69C
:102F400060E00E9452161F910F9108958FE793E061
:102F50009093E4018093E3018FEF93E09093E60177
:102F60008093E50182E094E09093E8018093E7018B
:102F700087E094E09093EA018093E9018BE094E08C
:102F80009093EC018093EB0181E194E09093EE014A
:102F90008093ED0108950E9423120E94D41580E0D1
:102FA00090E00895629FD001739FF001829FE00D31
:102FB000F11D649FE00DF11D929FF00D839FF00DB8
:102FC000749FF00D659FF00D9927729FB00DE11D64
:102FD000F91F639FB00DE11DF91FBD01CF01112441
:102FE0000895991B79E004C0991F961708F0961B65
:102FF000881F7A95C9F780950895AA1BBB1B51E1DC
:1030000007C0AA1FBB1FA617B70710F0A61BB70B58
:10301000881F991F5A95A9F780959095BC01CD01FD
:10302000089597FB092E07260AD077FD04D0E5DF27
:1030300006D000201AF4709561957F4F0895F6F739
:10304000909581959F4F0895A1E21A2EAA1BBB1B54
:10305000FD010DC0AA1FBB1FEE1FFF1FA217B30764
:10306000E407F50720F0A21BB30BE40BF50B661F7A
:10307000771F881F991F1A9469F76095709580953E
:1030800090959B01AC01BD01CF010895EE0FFF1F8C
:103090000590F491E02D0994FB01DC010D900020D6
:1030A000E9F7119701900D920020E1F70895F89447
:0230B000FFCF50
:1030B2002E007772697465206F6B0D0A00000000A4
:1030C20000000000000000000000000000000000FE
:1030D20000000000000000000000000000000000EE
:1030E20000000000000000000000000000000000DE
:1030F20000000000000000000000000000000000CE
:1031020000000000000000000000000000000000BD
:1031120000000000000000000000000000000000AD
:10312200000000000000000000000000000000009D
:0231320000009B
:00000001FF
