:100000000C94BA000C94E2000C94E2000C94E20010
:100010000C94BC150C94E2000C94E2000C94E200E9
:100020000C94E2000C94E2000C94E2000C949715FE
:100030000C94E2000C94E2000C94E2000C94E200B8
:100040000C94E2000C94E2000C94E2000C94E200A8
:100050000C94E2004350313235310045534300C225
:10006000FBF5EEE4005D24200020205BCFE0EFEA0A
:10007000E05D2000C4E0F2E0202020C2F0E5ECFFCB
:1000800000D0E0E7ECE5F000C8ECFF0020205BCFFB
:10009000E0EFEAE05D20002028676E752900D4E0DB
:1000A000E9EBEEE2FBE920ECE5EDE5E4E6E5F02C3A
:1000B0002041546D6567613136204020313620CCB7
:1000C000C3F62C20E2E5F0F1E8FF20F1E1EEF0EAE2
:1000D000E83A20002F0020202C2020202020202063
:1000E000203C202020202027272222F92D2D2020EF
:1000F000203E20202020FF20206A20207C20F0208D
:10010000202220202020F8204969202020FAF123F5
:1001100020226A5373208081828384858687888920
:100120008A8B8C8D8E8F90919293949596979899B7
:100130009A9B9C9D9E9FA0A1A2A3A4A5A6A7A8A9A7
:10014000AAABACADAEAFE0E1E2E3E4E5E6E7E8E9B7
:10015000EAEBECEDEEEF1B5B001B5B75001B5B73CA
:10016000001B5B3F32356C001B5B3F323568000083
:10017000E918C31911241FBECFE5D4E0DEBFCDBFFF
:1001800010E0A0E6B0E0EAE6FAE302C005900D92C6
:10019000A836B107D9F713E0A8E6B0E001C01D9278
:1001A000AB3BB107E1F711E0C4E7D1E004C022970F
:1001B000FE010E94241DC037D107C9F70E94A71C69
:1001C0000C94331D0C94000090E087FD02C0C5988C
:1001D00001C0C59AC79A0000C7989F5F983011F078
:1001E000880FF3CF0895C59A90E080E0C79A880FF2
:1001F000B6998160C79800009F5F9830B9F708955D
:10020000DF92EF92FF920F931F93D82E7A018B010A
:1002100087FF0BC087E740E050E060E070E00E949D
:100220000001823098F58FE7D822C49A0E94F3002B
:10023000C4980E94F3008D2D0E94E400812F99271D
:10024000AA27BB270E94E400C801AA27BB270E9457
:10025000E400BB27A12F902F8F2D0E94E4008E2D4C
:100260000E94E40080E4D81611F485E906C088E411
:10027000D81611F487E801C081E00E94E4001AE07A
:100280000E94F30087FF02C01150D1F71F910F9118
:10029000FF90EF90DF900895CF92DF92EF92FF9260
:1002A0000F931F93CF93DF936C017901B09B02C032
:1002B00011E03FC08091680083FD07C039E0440F22
:1002C000551F661F771F3A95D1F781E50E940001FF
:1002D000882361F5C0E3D5E70E94F3008F3F19F44E
:1002E000219721F1F9CF8E3F09F5E114F10429F0AE
:1002F000E7010E94F3002197E1F7C114D10441F016
:10030000E8010E94F300F60181936F012197C9F77C
:10031000CC27DD27CE19DF09CE5FDD4FC01BD10B07
:100320000E94F3002197E1F710E001C011E00E9464
:10033000F300812FDF91CF911F910F91FF90EF90EC
:10034000DF90CF900895EF92FF920F931F93CF937A
:10035000DF937C01B09967C0B19965C00097E9F05F
:100360008A01C0916B00D0916C0008C0F7018191A7
:100370007F010E94E40001501040219701151105F2
:1003800029F4D0936C00C0936B0028C0209771F7BC
:1003900010926C0010926B0021C04115510561054F
:1003A0007105F1F08091680083FD07C0E9E0440F1A
:1003B000551F661F771FEA95D1F788E50E94000157
:1003C000882389F58FEF0E94E4008EEF0E94E400FD
:1003D00080E092E090936C0080936B0010E024C06A
:1003E000C0916B00D0916C00229604C080E00E9406
:1003F000E40021972097D1F70E94F3008F71853098
:1004000071F4C8EEDDEF0E94F3008F3F21F02097DA
:1004100031F02197F8CFCD2B11F010E001C011E0A1
:100420000E94F30001C011E0812FDF91CF911F9155
:100430000F91FF90EF900895CF92DF92EF92FF928D
:100440000F931F93DF93CF9300D000D0CDB7DEB7CB
:1004500083E788BB80EB87BBB09997C0C49908C07D
:1004600080E090E040E050E060E070E00E94A30196
:1004700014E60E94F3001150E1F780E440E050E000
:1004800060E070E00E940001813009F076C088E4ED
:100490004AEA51E060E070E00E940001813009F01A
:1004A00043C06E010894C11CD11C76018E010B5F04
:1004B0001F4F0E94F300F70181937F01E017F107BE
:1004C000C1F78B81813009F058C08C818A3A09F0DC
:1004D00054C000EE1EE289EE40E050E060E070E4BF
:1004E0000E940001882309F45EC00150104009F405
:1004F00044C0F1CF8AE740E050E060E070E00E9445
:1005000000018823D1F50E94F300F60181936F0169
:10051000EE15FF05C1F7898186FD03C004E0F02ECA
:100520002DC01CE0F12E2AC089EE40E050E060E0D2
:1005300070E00E940001823028F0B1E4EB2EFF242D
:10054000F39404C0A9EEEA2EF2E0FF2E08EA11E6C9
:100550008E2D40E050E060E070E00E9400018823B2
:1005600029F10150104049F0F3CF80E540E052E01E
:1005700060E070E00E9400018111FF24F0926800A9
:100580000E94F30080E0FF2009F481E00F900F90BB
:100590000F900F90CF91DF911F910F91FF90EF90EF
:1005A000DF90CF900895012B41F3A4CF012B29F3C5
:1005B000DCCFEF92FF920F931F93CF93DF93B0990D
:1005C0006AC0B19968C0009701F17A01C0916900D1
:1005D000D0916A008C010AC0F80184910E94E40065
:1005E0000894E108F1080F5F1F4F2197E114F1040F
:1005F00029F4D0936A00C093690028C0209761F75E
:1006000010926A001092690021C0411551056105E0
:100610007105F1F08091680083FD07C089E0440F07
:10062000551F661F771F8A95D1F788E50E94000144
:10063000882389F58FEF0E94E4008EEF0E94E4008A
:1006400080E092E090936A008093690010E024C0FB
:10065000C0916900D0916A00229604C080E00E9497
:10066000E40021972097D1F70E94F3008F71853025
:1006700071F4C8EEDDEF0E94F3008F3F21F0209768
:1006800031F02197F8CFCD2B11F010E001C011E02F
:100690000E94F30001C011E0812FDF91CF911F91E3
:1006A0000F91FF90EF900895CF92DF92EF92FF921B
:1006B0000F931F93CF93DF936C01C0916D00D09186
:1006C0006E00FC01118210822481358146815781A0
:1006D000213031054105510509F45BC088859985B4
:1006E000AA85BB85281739074A075B0708F051C060
:1006F000211531054105510539F48881833021F4F4
:10070000288939894A895B89F601208731874287A0
:100710005387211531054105510581F18EEFE82EF2
:100720008FEFF82E8FEF082F8FEF182FE20EF31EAA
:10073000041F151F88859985AA85BB850297A10985
:10074000B109E816F9060A071B0728F020E030E097
:1007500040E050E017C0298130E040E050E0C8019F
:10076000B7010E94AE1C9B01AC018C899D89AE89AA
:10077000BF89280F391F4A1F5B1F04C02889398988
:100780004A895B89F601248735874687578780E049
:1007900001C081E0DF91CF911F910F91FF90EF9009
:1007A000DF90CF90089586E0089586E008956F92D7
:1007B0007F928F929F92AF92BF92CF92DF92EF92F1
:1007C000FF920F931F93DF93CF9300D000D0CDB74C
:1007D000DEB74B015C0160906D0070906E0082E0AE
:1007E00088169104A104B10408F4B1C0F301808516
:1007F0009185A285B38588169906AA06BB0608F0DE
:10080000A6C08081823009F45CC0833009F478C0CE
:10081000813009F09CC0C40196958795880D991D7B
:100820009C013170892F992786956C01EE24FF2455
:10083000F3014485558566857785CE010196F1E003
:100840002F3F3F0749F0C40ED51EE61EF71EB70125
:10085000A60102E010E01EC04C0D5D1D6E1D7F1D47
:100860002FEF31E001E010E00E944C01882309F0F5
:100870006EC0F30144855585668577854F5F5F4F70
:100880006F4F7F4F4C0D5D1D6E1D7F1DCE0102967B
:1008900020E030E00E944C01882309F058C06981B3
:1008A0007A8180FE07C0A4E076956795AA95E1F766
:1008B0009B0123C09B0140E050E03F7040705070AE
:1008C0004AC077276B2D5A2D492DF30184859585D4
:1008D000A685B785480F591F6A1F7B1F940130708A
:1008E000220F331FCE01019602E010E00E944C015E
:1008F000882369F589819A819C0140E050E02BC0F2
:10090000B501A40127E076956795579547952A95F7
:10091000D1F7F30184859585A685B785480F591FC2
:100920006A1F7B1F94012F773070220F331F220F15
:10093000331FCE01019604E010E00E944C01882391
:1009400031F429813A814B815C815F7004C021E0E0
:1009500030E040E050E0B901CA010F900F900F90D5
:100960000F90CF91DF911F910F91FF90EF90DF904B
:10097000CF90BF90AF909F908F907F906F90089591
:10098000AF92BF92CF92DF92EF92FF920F931F939D
:10099000CF93DF935C01C0916D00D0916E00FC019C
:1009A000C080D1800894C11CD11CC114D10409F4A9
:1009B0008FC024853585468557852115310541052C
:1009C000510509F485C0C6018F709070892B09F01C
:1009D0007AC02F5F3F4F4F4F5F4F24873587468741
:1009E000578740855185628573854115510561059D
:1009F000710539F48C819D81C816D90608F463C04D
:100A000067C0898190E001979601E4E036952795CB
:100A1000EA95E1F782239323892B09F054C0CB0197
:100A2000BA010E94D7039B01AC01623071058105B8
:100A3000910510F481E04DC088859985AA85BB8514
:100A4000281739074A075B0708F042C0F5012087DD
:100A5000318742875387C0916D00D0916E008EEF31
:100A6000E82E8FEFF82E8FEF082F8FEF182FE20E62
:100A7000F31E041F151F88859985AA85BB850297DB
:100A8000A109B109E816F9060A071B0728F020E0BA
:100A900030E040E050E012C0298130E040E050E01A
:100AA000C801B7010E94AE1C9B01AC018C899D89D5
:100AB000AE89BF89280F391F4A1F5B1FF5012487A4
:100AC000358746875787F501D182C08280E001C013
:100AD00083E0DF91CF911F910F91FF90EF90DF9016
:100AE000CF90BF90AF9008952F923F924F925F9218
:100AF0006F927F928F929F92AF92BF92CF92DF922E
:100B0000EF92FF920F931F93CF93DF93E82FC09143
:100B10006D00D0916E00209711F486E00DC18A819E
:100B200080FD02C085E008C1AC8CBD8CCE8CDF8C12
:100B30004E2F592FCB01DA013C014D01A614B70409
:100B4000C804D90410F435014601288D398D4A8D29
:100B50005B8D188E198E1A8E1B8E611471048104A0
:100B6000910409F4E8C08981A82EBB24CC24DD249B
:100B700099E0AA0CBB1CCC1CDD1C9A95D1F7211561
:100B8000310541055105B1F119012A0108942108E7
:100B9000310841085108C401B301615070408040E0
:100BA0009040A60195010E94001D79018A01C201B1
:100BB000B101A60195010E94001DE216F30604078B
:100BC0001507C0F088279927DC018A199B09AC0911
:100BD000BD0982219321A421B521888F998FAA8FE5
:100BE000BB8F681A790A8A0A9B0A2CA13DA14EA1E3
:100BF0005FA133C028A139A14AA15BA12CA33DA3C9
:100C00004EA35FA32AC0CA01B9010E94D7039B016A
:100C1000AC01623071058105910508F489C08885B1
:100C20009985AA85BB85281739074A075B0708F00D
:100C30007FC02CA33DA34EA35FA3888D998DAA8D61
:100C4000BB8D8A0D9B1DAC1DBD1D888F998FAA8FF2
:100C5000BB8F6A187B088C089D08A614B704C804CB
:100C6000D90488F2888D998DAA8DBB8D860D971D2C
:100C7000A81DB91D888F998FAA8FBB8F00916D0019
:100C800010916E008EEFA82E8FEFB82E8FEFC82E2A
:100C90008FEFD82EA20EB31EC41ED51EF80180857C
:100CA0009185A285B3850297A109B109A816B90655
:100CB000CA06DB06E8F5218130E040E050E0C601DD
:100CC000B5010E94AE1C9B01AC01F8018489958995
:100CD000A689B789280F391F4A1F5B1F21153105C7
:100CE0004105510529F1D401C30119E0B695A79535
:100CF000979587951A95D1F7982F8B83FFEFEF2E55
:100D0000F1E0FF2E012D112D6E207F2080229122F7
:100D1000611471048104910471F0280F311D411D8B
:100D2000511D28A739A74AA75BA79F5F9B8303C0D4
:100D30001A8281E001C080E0DF91CF911F910F9175
:100D4000FF90EF90DF90CF90BF90AF909F908F90EB
:100D50007F906F905F904F903F902F9008950E94EA
:100D600074050895DF92EF92FF920F931F93CF9334
:100D7000DF93EC010E945403D82E882399F5E0916B
:100D80006D00F0916E00E680F7804C855D856E8584
:100D90007F85288139812F703070E5E0220F331F65
:100DA000EA95E1F7C70100E210E00E944C018823B8
:100DB00011F181E018C0F701838583FD22C08A818B
:100DC0009B819C01D9012BE030E0215030408FEF16
:100DD0002F3F380739F090818C91981791F4319614
:100DE0001196F3CF8D2DDF91CF911F910F91FF9031
:100DF000EF90DF900895F70180818823E1F683E08A
:100E0000F2CFCE010E94C004882309F4BECFEBCFFD
:100E1000CF92DF92EF92FF920F931F93DF93CF93C6
:100E200000D000D0CDB7DEB78C01FB0101C03196F8
:100E300084918032E1F3EB83FC838F3219F4319695
:100E4000FC83EB83D80114961D921D921D921C9277
:100E50001797EB81FC81E491E13268F4C8010E94AC
:100E60005403282FE0916D00F0916E000680F78109
:100E7000E02D10828AC030E2C32E7E010894E11C6E
:100E8000F11CDD24D3941A821982F801A281B38166
:100E9000FD018BE090E001C0C19201972FEF8F3FE1
:100EA0009207D1F78B819C819A83898320E040E06F
:100EB00038E002C028E03BE0842F90E04F5FE981FA
:100EC000FA81E80FF91F9491592F9132B0F09F32B7
:100ED000A1F09E3211F0231728F0383071F45E3201
:100EE00049F30BC0892F81568A3108F49052FD01D5
:100EF000E20FF11D90832F5FDFCFC701840F911D9B
:100F00009C838B831B961C921B97513210F41B966B
:100F1000DC92C8010E94B206982F882361F0282F26
:100F2000833091F5D8011296ED91FC91139783854A
:100F3000882341F12AC0D8011296ED91FC911397B4
:100F40008385882309F5E0916D00F0916E0006809D
:100F5000F781E02D838584FF15C084899589A0E001
:100F6000B0E0DC0199278827228D338D40E050E0E6
:100F7000822B932BA42BB52BF80184839583A68316
:100F8000B78381CF24E001C0292F822F0F900F90CB
:100F90000F900F90CF91DF911F910F91FF90EF90E5
:100FA000DF90CF900895EF92FF920F931F93DF93FE
:100FB000CF93CDB7DEB7AC970FB6F894DEBF0FBEB8
:100FC000CDBF8C01E0916D00F0916E00309711F46F
:100FD00086E032C05DE0E52EF12CEC0EFD1EF782BE
:100FE000E682CE010196F80193838283C8010E94B4
:100FF00008078823F1F48D858823C1F0888D84FF4C
:101000001AC0F70184899589A0E0B0E0DC01992736
:101010008827228D338D40E050E0822B932BA42B28
:10102000B52BF80184839583A683B783C8010E94FA
:101030005403833009F484E0AC960FB6F894DEBF15
:101040000FBECDBFCF91DF911F910F91FF90EF9019
:101050000895EF92FF920F931F93DF93CF93CDB735
:10106000DEB7EC970FB6F894DEBF0FBECDBFBC0164
:1010700000916D0010916E000115110511F466E0EC
:1010800041C0F8011282ADE1EA2EF12CEC0EFD1EFA
:10109000F782E682CE010196988B8F87CE010D965E
:1010A0000E940807682F882369F58D8D882349F1F0
:1010B00088A584FD26C0F70184899589A0E0B0E069
:1010C000DC0199278827228D338D40E050E0822B68
:1010D000932BA42BB52BF80180A391A3A2A3B3A3B8
:1010E000F701848D958DA68DB78DF801848F958F2E
:1010F000A68FB78F108E118E128E138E81E0828391
:1011000001C063E0862FEC960FB6F894DEBF0FBEE9
:10111000CDBFCF91DF911F910F91FF90EF90089578
:10112000DF92EF92FF920F931F93CF93DF938C0187
:10113000EB0101C0219688818032E1F38F3209F4FE
:101140002196D80114961D921D921D921C921797FC
:101150008881813268F4C8010E945403282FE091ED
:101160006D00F0916E000680F781E02D108279C04D
:1011700030E2D32EEE24E394F801A281B381FD0185
:101180008BE090E001C0D19201972FEF8F3F920743
:10119000D1F720E0FF2438E002C028E03BE0FE0168
:1011A000EF0DF11D9081F3949132B0F09F32A1F0D8
:1011B0009E3211F0231728F0383071F49E3269F313
:1011C0000BC0892F81568A3108F49052FD01E20F3D
:1011D000F11D90832F5FE3CF1B961C921B979132DA
:1011E00010F41B96EC92C8010E94B206982F882337
:1011F00061F0282F8330A1F5D8011296ED91FC9172
:1012000013978385882351F12CC0D8011296ED9154
:10121000FC9113978385882319F5E0916D00F09177
:101220006E000680F781E02D838584FF17C0CF0D07
:10123000D11D84899589A0E0B0E0DC019927882739
:10124000228D338D40E050E0822B932BA42BB52BC5
:10125000F80184839583A683B7838ECF24E001C0F1
:10126000292F822FDF91CF911F910F91FF90EF9047
:10127000DF900895EF92FF920F931F93DF93CF9328
:10128000CDB7DEB7AC970FB6F894DEBF0FBECDBFBB
:101290008C01E0916D00F0916E00309711F486E0C2
:1012A00032C05DE0E52EF12CEC0EFD1EF782E682E9
:1012B000CE010196F80193838283C8010E949008B1
:1012C0008823F1F48D858823C1F0888D84FF1AC0AE
:1012D000F70184899589A0E0B0E0DC01992788278F
:1012E000228D338D40E050E0822B932BA42BB52B25
:1012F000F80184839583A683B783C8010E945403B1
:10130000833009F484E0AC960FB6F894DEBF0FBECC
:10131000CDBFCF91DF911F910F91FF90EF90089576
:101320000E943A090895EF92FF920F931F93DF9363
:10133000CF93CDB7DEB7EC970FB6F894DEBF0FBEF4
:10134000CDBFBC0100916D0010916E00011511051B
:1013500011F466E041C0F8011282ADE1EA2EF12CF1
:10136000EC0EFD1EF782E682CE010196988B8F87E8
:10137000CE010D960E949008682F882369F58D8D07
:10138000882349F188A584FD26C0F70184899589C1
:10139000A0E0B0E0DC0199278827228D338D40E062
:1013A00050E0822B932BA42BB52BF80180A391A3A3
:1013B000A2A3B3A3F701848D958DA68DB78DF801F7
:1013C000848F958FA68FB78F108E118E128E138EED
:1013D00081E0828301C063E0862FEC960FB6F8941B
:1013E000DEBF0FBECDBFCF91DF911F910F91FF9058
:1013F000EF9008950E9493090895AF92BF92CF9203
:10140000DF92EF92FF920F931F93DF93CF93CDB7AD
:10141000DEB7AC970FB6F894DEBF0FBECDBF7C0130
:101420005B01E0916D00F0916E00309711F486E061
:10143000C3C0CE010D9697838683CE010196D70156
:1014400013969C938E9312976115710521F4C70131
:101450000E945403B1C0C680D78083E023C0F70147
:10146000208131812F703070B5E0220F331FBA9583
:10147000E1F7C60100E210E00E944C01882309F464
:10148000ACC081E01BC0D6011B968C91953E29F023
:101490009E3219F08F7383FF1DC0C7010E94C004E4
:1014A000882361F4F7014485558566857785411564
:1014B00051056105710599F6882361F0D7011C96E5
:1014C0001D921D921D921C921F97833019F0882344
:1014D00009F072C09501275F3F4FF701848595851C
:1014E000A685B7850097A105B10509F456C0E0911E
:1014F0006D00F0916E004681578180E090E0FA0126
:10150000E80FF91FE081E03251F0E53009F4E5EE33
:10151000D901ED939D0101968830910581F7FA017B
:101520008085803211F4F90110C0F9018EE28193B7
:10153000DA012C5F3F4F18968C911897803229F072
:1015400081931196E217F307B1F7DA011B968C919C
:10155000D50118968C93DA015C960D911D912D9111
:101560003C915F97D5010D931D932D933C93139759
:10157000DA0158968D919C915997D50115969C93B7
:101580008E931497DA0156968D919C915797D501B9
:1015900017969C938E9316979F01F9011082C701AD
:1015A0000E94C004833041F4D7011C961D921D9205
:1015B0001D921C921F9780E0AC960FB6F894DEBF88
:1015C0000FBECDBFCF91DF911F910F91FF90EF9094
:1015D000DF90CF90BF90AF900895F601908199234E
:1015E00009F051CF83E06ACF0E94FD0908954F9220
:1015F0005F926F927F928F929F92AF92BF92CF92A3
:10160000DF92EF92FF920F931F93CF93DF933C01F2
:101610006B014A01C0916D00D0916E00FA011182F8
:101620001082209711F486E0DAC08A8180FD02C022
:1016300085E0D5C02C8D3D8D4E8D5F8D888D998D2B
:10164000AA8DBB8D281B390B4A0B5B0BCB01A0E08D
:10165000B0E0281739074A075B0708F4690153010E
:10166000412C32E0532EB3C0E88CF98C0A8D1B8DCF
:10167000D801C7019170A070B0700097A105B105A5
:1016800009F06BC0C801B70129E096958795779559
:1016900067952A95D1F7298130E040E050E00E941B
:1016A000001D6115710581059105D9F4E114F1045E
:1016B0000105110529F468A179A18AA19BA106C0A1
:1016C0006CA17DA18EA19FA10E94D70362307105FC
:1016D0008105910508F481C06CA37DA38EA39FA30F
:1016E0001B8200916D0010916E002CA13DA14EA1B6
:1016F0005FA12250304040405040F80180859185E4
:10170000A285B3850297A109B109281739074A07AD
:101710005B0708F062C0618170E080E090E00E94A9
:10172000AE1C9B01AC01F80184899589A689B78913
:10173000280F391F4A1F5B1F21153105410551052F
:1017400009F44BC08B81280F311D411D511D28A765
:1017500039A74AA75BA78F5F8B83088D198D2A8DC8
:101760003B8DC8019170A201481B590B76014C15A5
:101770005D0508F47A016114710419F480E090E0C9
:1017800001C0C50148A559A56AA57BA5980131707E
:1017900087010E944C01882301F5C701A0E0B0E059
:1017A000288D398D4A8D5B8D280F391F4A1F5B1F8D
:1017B000288F398F4A8F5B8FAE0CBF1CCE18DF0885
:1017C000F401808191818E0D9F1D91838083C114CE
:1017D000D10409F049CF80E002C01A8281E0DF9194
:1017E000CF911F910F91FF90EF90DF90CF90BF901E
:1017F000AF909F908F907F906F905F904F900895E3
:101800000E94F70A0895AF92BF92CF92DF92EF92B3
:10181000FF920F931F93CF93DF93B82EA92E6A01E7
:101820007B012EEF31E002E010E00E944C018823A2
:1018300011F023E023C0CB2DDA2D888199818555C5
:101840009A4A11F022E01AC08B2D9A2DB701A601F9
:1018500026E330E002E010E00E944C018823D1F43E
:101860008881998186549144A9F420E007C020E042
:10187000888199818654914409F021E0822FDF917B
:10188000CF911F910F91FF90EF90DF90CF90BF907D
:10189000AF9008958B2D9A2DB701A60122E530E077
:1018A00002E010E00E944C01882309F3E6CF6F921A
:1018B0007F928F929F92AF92BF92CF92DF92EF92E0
:1018C000FF920F931F93DF93CF93CDB7DEB7A4970B
:1018D0000FB6F894DEBF0FBECDBF5C0110926E0054
:1018E00010926D00009709F4EDC00E941C0280FF69
:1018F00002C082E0ECC04E010894811C911CC4011E
:1019000040E050E060E070E00E94030C813021F084
:10191000CC24DD2476011BC0C40140E050E060E02F
:1019200070E02EEB31E000E110E00E944C018823D2
:1019300009F0CAC08D81882309F4C8C0C984DA843B
:10194000EB84FC84C401B701A6010E94030C833020
:1019500009F4BAC0882309F0B9C0CE010196B701D5
:10196000A6012DE030E004E210E00E944C01882343
:1019700009F0AAC08A859B85BC0180E090E06115D2
:1019800071058105910521F4688D798D8A8D9B8D76
:101990002C8130E040E050E00E94AE1C3B014C0145
:1019A0008A819B81A0E0B0E0C80ED91EEA1EFB1E12
:1019B000F501C486D586E686F786898181832D81E7
:1019C0003E81358324838F8198857C0100E010E07F
:1019D000E114F1040105110521F4EC88FD880E895C
:1019E0001F898A819B81A0E0B0E0E81AF90A0A0BFE
:1019F0001B0BE618F7080809190954E036952795D6
:101A00005A95E1F7C901A0E0B0E0E81AF90A0A0B1B
:101A10001B0BF501218130E040E050E0C801B70127
:101A20000E94001D2E5F3F4F4F4F5F4FF5012087F3
:101A3000318742875387273FFFE03F07F0E04F079A
:101A4000F0E05F0710F481E008C0275F3F4F40409F
:101A5000504010F083E001C082E0F50180838330C4
:101A600029F488A199A1AAA1BBA109C0F501848587
:101A70009585A685B785860D971DA81DB91D808BF8
:101A8000918BA28BB38BF5018481958144E096956F
:101A900087954A95E1F7A0E0B0E024853585468535
:101AA0005785820F931FA41FB51F860D971DA81D74
:101AB000B91D848B958BA68BB78B1282B0926E006A
:101AC000A0926D0080E003C081E001C087E0A49691
:101AD0000FB6F894DEBF0FBECDBFCF91DF911F913F
:101AE0000F91FF90EF90DF90CF90BF90AF909F90BD
:101AF0008F907F906F9008950E94570C0895FC017D
:101B0000118210821382128288E090E09583848390
:101B10000895FC01118210821382128288E090E005
:101B2000958384830895CF93DF93DC0112962D91E2
:101B30003C9113978D919C9111978217930749F4CB
:101B4000DB01EFE6F0E082E101900D928150E1F7D8
:101B50002AC0C901880F991FFC0123E0EE0FFF1F67
:101B60002A95E1F7E80FF91FEA0FFB1FEB01369604
:101B700082E1019009928150E1F712962D913C91FA
:101B800013972F5F3F4F13963C932E931297149603
:101B90008D919C91159701978217930720F41396C6
:101BA0001C921E921297DF91CF910895FC0140E0A4
:101BB00020813181828193812817390709F441E01E
:101BC000842F0895FC014081518182819381841783
:101BD000950710F49A010AC04817590718F020E039
:101BE00030E006C024813581240F351F281B390BB6
:101BF000C90108950F931F938C010E94E20D40E0EC
:101C0000F801248135812817390709F441E0842F30
:101C10001F910F9108950F931F93CF93DF93EC01C2
:101C2000162F072F0E94E20D2C813D8128173907BE
:101C300031F188819981880F991FFC0143E0EE0FF3
:101C4000FF1F4A95E1F7E80FF91FEC0FFD1F3696CD
:101C5000212F302FC901DC0182E10D9001928150CA
:101C6000E1F7288139812F5F3F4F398328838C81A9
:101C70009D8101978217930710F419821882DF91D2
:101C8000CF911F910F9108950F931F938C0180E0C6
:101C90000E945F1881E061E00E94751880E00E9458
:101CA000FB1787E00E942D18C80160E040E00E9409
:101CB000601780E00E949F178CE361E00E94751816
:101CC00084E590E060E040E00E943B1786E461E03C
:101CD0000E947518E0916000F0916100E957FF4F94
:101CE000608171818281938147EC52E00E94621988
:101CF00060E040E00E9460171F910F910895EF92FD
:101D0000FF920F931F93DF93CF9300D0CDB7DEB731
:101D10004630510529F04050514009F0BBC0AFC0DA
:101D2000013011052105310509F0B4C01A8219826C
:101D30000E94E6178CEA90E00E947C0D809381005F
:101D4000882309F093C003E112E01092130260911E
:101D5000600070916100695F7F4FC8010E94281D7B
:101D6000F80101900020E9F7CF010197801B910B4A
:101D70009A8389836091600070916100DB011796FE
:101D8000FD0101900020E9F73197EA1BFB0B329728
:101D900030F0FC01E00FF11F8FE280831182605769
:101DA0007F4F83E192E00E94281D83E192E00E9430
:101DB000440E80E00E945F188FE00E94FB1784E0D1
:101DC0000E942D1812E081E0612F0E94751880E0BA
:101DD0000E949F171F5F1931B1F781E062E00E94F6
:101DE000751883E192E00E94FA098093810083E1F3
:101DF00092E060E870E08E010F5F1F4FA8010E9423
:101E0000000C80938100FF24E02E012F25C0ED5EA1
:101E1000FD4F80818D3021F08A3031F061E005C0C6
:101E2000F394F6E1FF1510F160E00E9426171F5FA2
:101E3000E12FF0E089819A81E817F90740F386E104
:101E40008F15A0F083E192E060E870E04E2D502FF6
:101E50000E94000C8093810080918100882331F4DE
:101E600089819A81892B11F010E0E2CF80E090E027
:101E70000E947C0D80938100109213020BC00B31E5
:101E8000110541F41092130264E670E080E090E0E6
:101E90000E94E01A60E070E080E090E00F900F9008
:101EA000CF91DF911F910F91FF90EF9008956623DE
:101EB00019F020E030E002C02FE530E0C9010895BC
:101EC000CF93DF9381E08093D90032E03093DA0042
:101ED00026E22093DB0094E19093DC001092DD0079
:101EE0001092DF001092DE0089E280937601309339
:101EF0007701209378019093790110927A011092E2
:101F00007C0110927B0120EE30E0CDE7D1E0A0E033
:101F1000B0E0FD01EC52FF4F8491882369F4FD018C
:101F2000E752FF4F1782AA58BE4F17961C92109285
:101F30001302DF91CF910895F90181939F01899355
:101F40001196AF37B10529F7F2CFBF92CF92DF924A
:101F5000EF92FF920F931F93D82E162FC42EB22EFE
:101F600080E00E945F18802F0E94FB178E2D0E9438
:101F70002D188D2D612F0E94751889EC60E00E944C
:101F8000261700E005C08DEC60E00E9426170F5F69
:101F90000C15C8F38BEB60E00E942617E12EE3944A
:101FA000FE2C10E017C08D2D6F2D0E9475188AEB46
:101FB00060E00E94261700E005C080E260E00E9419
:101FC00026170F5F0C15C8F38AEB60E00E942617F6
:101FD0001F5FF3941B1538F3EB0C8D2D6E2D0E94B3
:101FE000751888EC60E00E94261700E005C08DECB3
:101FF00060E00E9426170F5F0C15C8F38CEB60E0C1
:102000000E9426171F910F91FF90EF90DF90CF90C5
:10201000BF9008951F93CF93DF9380E00E945F18D5
:1020200081E069E10E94751810E0CFE5D0E011234E
:1020300001F52097F1F081E00E94FB1787E00E94F4
:102040002D1880E260E00E9426178BE590E060E0AA
:1020500040E00E943B1780E260E00E94261780E08B
:102060000E94FB172FE530E0C90161E040E00E94CB
:102070003B171F5F1A30D9F680E00E949F17DF914F
:10208000CF911F9108950F931F938C0180E00E94C0
:102090005F188AE00E94FB1780E00E942D1881E003
:1020A00068E10E9475188BE560E00E942617C80160
:1020B000079660E040E00E94601785E690E060E0EF
:1020C00040E00E943B178FE00E94FB170E94ED1733
:1020D00080E00E949F170E94F4170E94DF171F9153
:1020E0000F91089580E00E945F1881E061E00E94F6
:1020F000751880E00E94FB1787E00E942D188EE97A
:1021000090E061E040E00E943B1787EB92E060E0E6
:1021100040E00E94601787E990E060E040E00E94A4
:102120003B1780E00E949F170895EF92FF920F9354
:102130001F937B01FB0184819581809382009093A2
:1021400083008F7190E06AE070E00E94ED1C862FA2
:10215000805D60E00E942617809182008F7190E080
:102160006AE070E00E94ED1C805D60E00E9426172E
:102170008EE260E00E9426179091820092959695DB
:102180009770809183008170880F880F880F892B4A
:1021900090E06AE070E00E94ED1C862F805D60E0B8
:1021A0000E94261790918200929596959770809143
:1021B00083008170880F880F880F892B90E06AE078
:1021C00070E00E94ED1C805D60E00E9426178EE2A8
:1021D00060E00E94261780918300869590E08454E9
:1021E000984F68EE73E00E94D91C64E670E00E948C
:1021F000D91C182F092F6AE070E00E94D91C862F85
:10220000805D60E00E942617812F902F6AE070E0C9
:102210000E94D91C805D60E00E94261782E061E088
:102220000E94B618F701868197819093850080936C
:1022300084008091850086958695869590E06AE079
:1022400070E00E94ED1C862F805D60E00E942617E2
:102250008091850086958695869590E06AE070E08D
:102260000E94ED1C805D60E00E9426178AE360E01A
:102270000E94261705E810E0F80192918F019295CF
:1022800096959770809185008770880F880F880FCA
:10229000892B90E06AE070E00E94ED1C862F805D43
:1022A00060E00E942617F8019081929596959770AC
:1022B000809185008770880F880F880F892B90E0A8
:1022C0006AE070E00E94ED1C805D60E00E942617CD
:1022D0001F910F91FF90EF9008950F931F93CF934D
:1022E000DF93EC0180E00E945F188FE00E94FB17F3
:1022F00084E00E942D188E01095F1F4FF8010190A4
:102300000020E9F73197E01BF10B8A818E1B86953F
:102310009881890F62E00E94751880E260E00E9457
:1023200026178091600090916100C817D907A9F421
:1023300080E00E945F1880E00E94FB1787E00E9407
:102340002D18C80160E040E00E9460178FE00E94F5
:10235000FB1784E00E942D1805C0C80160E040E032
:102360000E94601780E260E00E9426178D819E81A6
:10237000892B09F4DFC08091600090916100C8173B
:10238000D90749F480E00E945F1880E00E94FB17A3
:1023900087E00E942D1888816C819981690F6E5F9A
:1023A000835F0E94751883EB60E00E94261782E02D
:1023B0006AE00E94B61883EB60E00E94261782E074
:1023C00068E00E94B61883EB60E00E9426178FE059
:1023D0000E94FB1784E00E942D1888816C819981EE
:1023E000690F6E5F8F5F0E947518C157DF4F88813C
:1023F000CF58D040209160003091610084FF35C0FB
:10240000C217D30751F480E00E945F1880E00E9459
:10241000FB1787E00E942D1803C08AE00E94FB177B
:102420008E0100571F4FC80160E040E00E94601716
:10243000D8010D900020E9F70A1B035F05C080E278
:1024400060E00E94261701500023C9F788816C8143
:102450009981690F6E5F825F0E9475188CE890E029
:1024600061E040E00E943B1757C0C217D30751F408
:1024700080E00E945F1880E00E94FB1787E00E94C6
:102480002D1803C08FE00E94FB178E0100571F4FCD
:10249000C80160E040E00E946017D8010D90002064
:1024A000E9F70A1B035F05C080E260E00E9426177F
:1024B00001500023C9F788816C819981690F6E5F93
:1024C000825F0E947518C957DF4F688179818A81C0
:1024D0009B81C758D04047EC52E00E946219DC0152
:1024E0000D900020E9F7082F0A1B065F80E260E0EC
:1024F0000E9426170150D0F7C957DF4F68817981B4
:102500008A819B81C758D04047EC52E00E946219F3
:1025100060E040E00E94601788816C819981690FBA
:102520006E5F875E0E947518CE01C957DF4FBE01EE
:102530000E949510DF91CF911F910F9108956F9296
:102540007F928F929F92AF92BF92CF92DF92EF9243
:10255000FF920F931F93CF93DF93EC0188816981E2
:102560004A812B810FE054E0E52E0E94A50F8BE0FD
:102570000E94FB1788818B5F63E00E94751888E8D2
:1025800090E061E040E00E943B1782E068E00E943A
:10259000B61881E890E061E040E00E943B1782E0DD
:1025A00065E00E94B61884E790E061E040E00E9498
:1025B0003B178FE00E94FB17098119C0842F835FAE
:1025C000602F0E94751883EB60E00E94261782E05E
:1025D0006AE00E94B61883EB60E00E94261782E052
:1025E00068E00E94B61883EB60E00E9426170F5F38
:1025F0008B81298130E0280F311D802F90E04881A8
:1026000028173907DCF6842F835F62E00E94751873
:1026100081ED60E00E94261782E06AE00E94B61811
:1026200081ED60E00E94261782E068E00E94B61803
:1026300081ED60E00E94261781E065E10E94B618F6
:1026400083E061E00E94B6188FEC60E00E942617DC
:1026500083E06AE00E94B6188FEC60E00E942617C3
:1026600083E06CE00E94B6188FEC60E00E942617B1
:102670008CEA90E00E947C0D809381001E821D8276
:10268000BE01695F7F4F8CE990E00E9490098093C2
:102690008100882309F0CAC019811E5F4EEF842E85
:1026A0004FEF942E37E8C32ED12CCC0EDD1E2FE831
:1026B000A22E20E0B22E9CE0792E89E0682EABC0DD
:1026C00088818F5F612F0E9475188CE990E066E821
:1026D00070E00E94F40A80938100882309F0A6C06C
:1026E00080918F00882309F4A1C08D819E8101967D
:1026F0009E838D832C8130E08981A401481B510980
:10270000CA018E0D9F1D2817390741F4D601E6E84E
:10271000F0E086E101900D928150E1F780918E000A
:1027200084FF25C08AE00E94FB178FE890E060E0FC
:1027300040E00E946017F50101900020E9F7E059A0
:10274000F040072D0E1B05C080E260E00E942617B6
:1027500001500023C9F78881825F612F0E9475189C
:1027600089E690E061E040E00E943B1749C08FE0BD
:102770000E94FB178FE890E060E040E00E94601745
:10278000F50101900020E9F7E059F040072D0E1BFC
:1027900005C080E260E00E94261701500023C9F7BF
:1027A0008881825F612F0E94751860918600709108
:1027B0008700809188009091890047EC52E00E9448
:1027C0006219FC0101900020E9F73197E81BF90B31
:1027D000062D0E1B80E260E00E9426170150D0F704
:1027E00060918600709187008091880090918900A7
:1027F00047EC52E00E94621960E040E00E946017DE
:102800008881875E612F0E947518CE0166E870E0AE
:102810000E9495101F5FE12EFF242B81898190E09B
:10282000820F911D8E159F050CF04ACF4D815E8160
:102830008C8190E09A01215030402817390718F414
:10284000842F81508C83CE010E946D1180E090E036
:102850000E947C0D80938100DF91CF911F910F9199
:10286000FF90EF90DF90CF90BF90AF909F908F90B0
:102870007F906F9008950F931F93CF93DF9346300F
:10288000510529F04050514009F048C130C0013095
:1028900011052105310509F041C10E94E61780E0CC
:1028A0000E945F1880E00E942D188FE00E94FB17A5
:1028B00082E00E94831781E061E00E9475180E9407
:1028C000721089ED90E00E949F1286E791E00E94CD
:1028D0009F1288ED90E00E940A1080916000909114
:1028E00061000E9443108FE00E94FB1717C10B315B
:1028F000110509F413C10C31110560F409301105FB
:1029000009F4CFC00D301105D1F00830110509F0E0
:10291000EFC053C00432110509F4A7C005321105F8
:1029200028F40332110509F0E3C0A5C006321105F1
:1029300009F481C00832110509F0DAC085C0E3E16D
:10294000F2E001900020E9F73197E351F240C091A5
:102950006000D0916100EE2321F010921302CE01AD
:10296000C4C0C157DF4F8881CF58D04084FF1EC0FC
:102970009E01295F3F4FF90101900020E9F731974F
:10298000E21BE23038F0CE018E0F911DFC018FE288
:1029900087831086C057DF4FC901BE010E94281DE2
:1029A000E0916000F091610014823CC065E670E047
:1029B00080E090E00E94E01AB1C0E3E1F2E0019013
:1029C0000020E9F73197E351F2401E2FEE2379F012
:1029D00088E060E00E94261780E260E00E942617EF
:1029E00088E060E00E9426171150E12F93C0C0914B
:1029F0006000D0916100DE011796FD01019000207A
:102A0000E9F731979E2F9A1BFE01E90FF11D87818F
:102A100091508F3211F09923B9F7FE01E90FF11DA2
:102A200010861C820E94E6178091600090916100E0
:102A30000E949F1256C0E0916000F0916100848175
:102A4000882309F46BC01CC0E0916000F091610024
:102A50004481242F30E0838190E0019728173907C3
:102A60000CF05CC04F5F44830DC0E0916000F091BA
:102A70006100148207C0E0916000F09161008581DF
:102A8000815084830E94E6170E94ED1780916000B8
:102A9000909161000E949F120E94F4170E94DF171C
:102AA0003DC00E94E617809160009091610026E78A
:102AB00031E040E0893D940729F430936100209390
:102AC000600007C089ED90E0909361008093600002
:102AD000C9010E946D1180916000909161000E9477
:102AE0006D1180916000909161000E94431016C0AA
:102AF000802F60E00E942617E3E1F2E001900020C1
:102B0000E9F73197E351F240AE2FB0E0AD5EBD4F33
:102B10000C93EF5FF0E0ED5EFD4F108260E070E03F
:102B200080E090E0DF91CF911F910F9108951F9267
:102B30000F920FB60F9211242F933F934F935F93F1
:102B40006F937F938F939F93AF93BF93EF93FF9375
:102B50008CB10E941616FF91EF91BF91AF919F919A
:102B60008F917F916F915F914F913F912F910F9036
:102B70000FBE0F901F9018951F920F920FB60F92D5
:102B800011242F933F934F935F936F937F938F9372
:102B90009F93AF93BF93EF93FF930E943316FF91E0
:102BA000EF91BF91AF919F918F917F916F915F91C5
:102BB0004F913F912F910F900FBE0F901F9018953E
:102BC000789460E070E080E090E0089580B78B7FBB
:102BD00080BF1ABA83EB87BB14BA82E081BB1BBAF1
:102BE00090E498BB15BA81E082BB84E085BD85E0A6
:102BF00084BD13BC80E28BB91AB880E189B910BCDE
:102C000088E98AB986E880BD85B78F7085BF85B7AA
:102C100085BF99BF0895089508950895089508956A
:102C2000089508950895089508950895382F2091DE
:102C3000B602E22FF0E08091B502AF01481B5109C6
:102C40004031510541F0EF70F070EB55FD4F30838E
:102C50002F5F2093B602089508950895089508956A
:102C60000895089508958091930290919402A091FF
:102C70009502B09196020196A11DB11D8093930219
:102C800090939402A0939502B0939602209197029C
:102C9000309198022F5F3F4F309398022093970214
:102CA0008091990290919A02019690939A02809352
:102CB000990280919B0290919C02019690939C02B4
:102CC00080939B0280919D0290919E020196909329
:102CD0009E0280939D0280919F029091A002019696
:102CE0009093A00280939F0285E084BD2A30310535
:102CF00009F089C08091B5029091B602891709F454
:102D00007CC0E82FF0E0EF70F070EB55FD4F608174
:102D10006B31F1F58F5F8093B502E82FF0E0EF7033
:102D2000F070EB55FD4FE081891711F0EB3119F48C
:102D30008BE16BE13FC0EB3509F05FC08F5F8093A3
:102D4000B502E82FF0E0EF70F070EB55FD4FE08139
:102D5000E13431F48F5F8093B50286E261E42AC0EA
:102D6000E23431F48F5F8093B50288E262E422C0DE
:102D7000E83431F48F5F8093B50284E268E41AC0CE
:102D8000EB34D9F58F5F8093B50283E26BE412C018
:102D9000683099F4E82FEF5FE093B502E91741F04E
:102DA000F0E0EF70F070EB55FD4F8081883029F531
:102DB00088E068E00E94221A20C0693029F48F5F01
:102DC0008093B50289E0F6CF6D3029F48F5F809350
:102DD000B5028DE0EFCF862F8A51853630F08656CA
:102DE000803318F08054823340F4862F0E94221AD8
:102DF0008091B5028F5F8093B5020E94871A10926E
:102E00009802109297028091990290919A028436CA
:102E1000910531F40E945A1A10929A021092990266
:102E20000895F8949091B5028091B602981711F424
:102E300080E00AC0E92FF0E0EF70F070EB55FD4F35
:102E400080819F5F9093B502789408955D9BFECF3B
:102E5000662361F0613059F487FF08C08F77E091F5
:102E6000A102F091A202E80FF11D84918CB95E9B42
:102E7000FECF58980895EF92FF920F931F93CF9330
:102E8000DF93E62EEC01FF24042F10E001501040E8
:102E90002F2D30E0FE01E20FF31F8491882319F4F7
:102EA0002017310731F484916E2D0E942617F39478
:102EB000EFCFDF91CF911F910F91FF90EF90089589
:102EC000EF92FF920F931F93CF93DF937C01062F16
:102ED00010E0C42FD0E0219704C0602F0E94261775
:102EE0001F5F212F30E0F701E20FF31F808188235D
:102EF000A1F72C173D0789F3DF91CF911F910F9117
:102F0000FF90EF9008951F93182F8091A302909146
:102F1000A40260E040E00E943B17113021F0113024
:102F200020F480E303C081E301C082E360E00E94FB
:102F300026178AE460E00E9426171F9108951F93C8
:102F4000182F8091A3029091A40260E040E00E94BB
:102F50003B17113029F0113038F0123029F402C03B
:102F600081E303C082E301C080E360E00E94261792
:102F70008BE460E00E9426171F9108951F93182F7D
:102F80008091A3029091A40260E040E00E943B1770
:102F9000812F6AE00E94CD1C805D60E00E942617B0
:102FA000812F6AE00E94CD1C892F805D60E00E9425
:102FB000261788E560E00E9426171F91089588E68D
:102FC00091E060E040E00E943B17089581E691E0C7
:102FD00060E040E00E943B1708958DE591E060E0DD
:102FE00040E00E943B17089589E591E060E040E0F1
:102FF0000E943B1708951F93182F8091A302909170
:10300000A40213FF06C060E040E00E943B1781E38A
:1030100005C060E040E00E943B1782E360E00E9450
:1030200026178DE660E00E9426178091A3029091FA
:10303000A40260E040E00E943B1783E360E00E944E
:1030400026171770812F805D60E00E9426178DE69D
:1030500060E00E9426171F9108951F93182F8091FA
:10306000A3029091A40213FF06C060E040E00E941A
:103070003B1785E305C060E040E00E943B1786E314
:1030800060E00E9426178DE660E00E94261780917E
:10309000A3029091A40260E040E00E943B1784E309
:1030A00060E00E9426171770812F805D60E00E940B
:1030B00026178DE660E00E9426171F9108951F9342
:1030C000182F8091A3029091A40260E040E00E943A
:1030D0003B171F70812F805D60E00E9426178DE6F0
:1030E00060E00E9426171F9108950F931F93082FE9
:1030F000162F8823C1F16623B1F18135A0F56A311D
:1031000090F58091A3029091A40260E040E00E94BB
:103110003B17812F6AE00E94CD1C805D60E00E9419
:103120002617812F6AE00E94CD1C892F805D60E008
:103130000E9426178BE360E00E942617802F6AE02A
:103140000E94CD1C805D60E00E942617802F6AE0FF
:103150000E94CD1C892F805D60E00E94261786E6C4
:1031600060E00E9426171F910F9108950F931F93FF
:10317000082F162F8091A3029091A40260E040E0F6
:103180000E943B17812F6AE00E94CD1C805D60E0A9
:103190000E942617812F6AE00E94CD1C892F805D36
:1031A00060E00E942617013049F0013028F002301B
:1031B00049F0033039F404C081E405C082E403C05F
:1031C00084E401C083E460E00E9426171F910F9100
:1031D000089586ED90E09093A2028093A10286E587
:1031E00091E09093A4028093A3020895AF92BF92BE
:1031F000CF92DF92EF92FF920F931F93DF93CF93C3
:1032000000D000D00F92CDB7DEB77B018C011695B0
:103210000795F794E794A801970156954795379538
:1032200027952E0D3F1D401F511F79018A0174E023
:1032300016950795F794E7947A95D1F7E20EF31E69
:10324000041F151FAF2CB02EC12EDD24AE0CBF1CE9
:10325000C01ED11E9601442755272A0D3B1D4C1D2B
:103260005D1D79018A0183E016950795F794E7942F
:103270008A95D1F7287F621B8E2D880F681B6A30D4
:1032800030F06A500894E11CF11C011D111DE98207
:10329000FA820B831C832E2D3A814B815C8170E076
:1032A00080E090E00F900F900F900F900F90CF91D3
:1032B000DF911F910F91FF90EF90DF90CF90BF9023
:1032C000AF900895CF92DF92EF92FF920F931F93EA
:1032D000DF93CF93CDB7DEB72A970FB6F894DEBF52
:1032E0000FBECDBFFA018A01065F1F4F12866E0125
:1032F0000894C11CD11CA6E0EA2EF12CEC0EFD1E98
:103300000E94F6182E833F83488759876A87D60123
:10331000F70185E001900D928150E1F78D81805D8C
:10332000F80182938F0169817A818B819C8161157B
:1033300071058105910521F7CF012A960FB6F89402
:10334000DEBF0FBECDBFCF91DF911F910F91FF90D8
:10335000EF90DF90CF90089520EA3FE007C0F90199
:103360003197F1F7615070408040904061157105D0
:1033700081059105A1F7089580E0089560E070E06F
:1033800080E090E0089583E293E00E94890D089523
:103390008091DB029091DC02A091DD02B091DE020F
:1033A0000097A105B10591F08091B9039091BA03FE
:1033B0006BED72E00E940B0EABEDB2E0EFE6F0E0D9
:1033C00082E101900D928150E1F708958091ED0224
:1033D0009091EE02A091EF02B091F0020097A1054A
:1033E000B10591F08091B9039091BA036DEE72E04E
:1033F0000E940B0EADEEB2E0EFE6F0E082E101904C
:103400000D928150E1F708958091FF0290910003A1
:10341000A0910103B09102030097A105B10589F0C5
:103420008091B9039091BA036FEF72E00E940B0E86
:10343000AFEFB2E0EFE6F0E082E101900D92815053
:10344000E1F70895EF92FF920F931F932091D70217
:103450003091D8024091D9025091DA022093FF02B4
:1034600030930003409301035093020320E031E0C6
:10347000309304032093030390E0A0E0B0E0809336
:10348000050390930603A0930703B0930803E62E69
:10349000FF2400E010E0E0920903F0920A03009399
:1034A0000B0310930C030E94C8191F910F91FF90FA
:1034B000EF9008958091D7029091D802A091D902FF
:1034C000B091DA028093ED029093EE02A093EF02A6
:1034D000B093F00283E191E09093F2028093F102C5
:1034E00082E090E0A0E0B0E08093F3029093F402D9
:1034F000A093F502B093F6021092F7021092F80230
:103500001092F9021092FA020E94C819089580914F
:10351000D7029091D802A091D902B091DA0280939B
:10352000ED029093EE02A093EF02B093F00283E1DC
:1035300091E09093F2028093F10281E090E0A0E0AC
:10354000B0E08093F3029093F402A093F502B0935D
:10355000F6021092F7021092F8021092F9021092FD
:10356000FA020E94C8190895CF92DF92EF92FF925B
:103570000F931F936093DB027093DC028093DD0254
:103580009093DE025093E0024093DF020093E10249
:103590001093E2022093E3023093E402C092E5022A
:1035A000D092E602E092E702F092E8020E94C81987
:1035B00081E01F910F91FF90EF90DF90CF900895E1
:1035C0006F927F928F929F92AF92BF92CF92DF9233
:1035D000EF92FF920F931F936B017C019090D702A3
:1035E0008090D8027090D9026090DA029092DB024B
:1035F0008092DC027092DD026092DE02B6E0AB2EB9
:10360000B12CB092E002A092DF021092E10210927F
:10361000E2021092E3021092E40205EE12E06093DF
:10362000E5027093E6028093E7029093E8020E941D
:10363000C819C092DB02D092DC02E092DD02F09267
:10364000DE02B092E002A092DF0281E090E0A0E012
:10365000B0E08093E1029093E202A093E302B09382
:10366000E4029092E502F8018182728263820E94F4
:10367000C819C092D702D092D802E092D902F09233
:10368000DA02692D782D872D962D1F910F91FF90CD
:10369000EF90DF90CF90BF90AF909F908F907F90F2
:1036A0006F9008956093DB027093DC028093DD02DB
:1036B0009093DE028FE090E09093E0028093DF022F
:1036C0001092E1021092E2021092E3021092E402E0
:1036D0001092E5021092E6021092E7021092E802C0
:1036E0000E94C81981E00895EF92FF920F931F93F3
:1036F0007B018C016093DB027093DC028093DD021E
:103700009093DE024093DF021092E0021092E102F9
:103710001092E2021092E3021092E4021092E5028B
:103720001092E6021092E7021092E8020E94C81975
:10373000C801B7010E94E01A81E01F910F91FF902C
:10374000EF900895CF92DF92EF92FF920F931F9325
:10375000FC0180819181A281B38184369105A1050C
:10376000B10589F444815581068117812085318511
:10377000C284D384E484F58464E670E080E090E061
:103780000E943B141AC085369105A105B10529F0A8
:1037900020E030E040E050E012C0448155810681D5
:1037A000178120853185C284D384E484F58465E65D
:1037B00070E080E090E00E947F0E9B01AC01B901B7
:1037C000CA011F910F91FF90EF90DF90CF90089565
:1037D000AF92BF92CF92DF92EF92FF920F931F931F
:1037E000FC015A016B01D90178018091B9039091D4
:1037F000BA03BF01A60195018D010E94930D81E0DE
:103800001F910F91FF90EF90DF90CF90BF90AF90FE
:1038100008950F931F9360916400709165008091EB
:1038200066009091670045E00E94741B60916400FF
:103830007091650080916600909167000E94521B14
:1038400004C081E193E00E94A21B81E193E040E08B
:1038500050E060E070E020E030E000E010E00E9426
:10386000E81B882371F780911703909118031F912B
:103870000F91089578940E94091C0895CF92DF92C9
:10388000EF92FF920F931F93DF93CF9300D0CDB7AA
:10389000DEB7F89480916200909163009A838983E7
:1038A00017ECC12E12E0D12E60E070E080E090E0D5
:1038B000A6010E946219BC0107EB12E0C8010E9438
:1038C000281DC8017E010894E11CF11CB7010E946B
:1038D000281D60E070E080E090E0A6010E9462197F
:1038E000BC01C8010E94281DC801B7010E94281D03
:1038F00060E070E080E090E0A6010E946219BC01E7
:10390000C8010E94281DC801B7010E94281D61E05E
:1039100072E080E090E0A6010E946219BC01C8013B
:103920000E94281D83E293E09093BA038093B90329
:103930000E94E6150E94600F0F900F90CF91DF91CB
:103940001F910F91FF90EF90DF90CF9008950E940C
:103950003E1C0E943A1C80E090E00895629FD001D6
:10396000739FF001829FE00DF11D649FE00DF11D3A
:10397000929FF00D839FF00D749FF00D659FF00DE9
:103980009927729FB00DE11DF91F639FB00DE11DD6
:10399000F91FBD01CF0111240895991B79E004C0DE
:1039A000991F961708F0961B881F7A95C9F780957E
:1039B0000895AA1BBB1B51E107C0AA1FBB1FA61776
:1039C000B70710F0A61BB70B881F991F5A95A9F7C8
:1039D00080959095BC01CD01089597FB092E07268F
:1039E0000AD077FD04D0E5DF06D000201AF47095E8
:1039F00061957F4F0895F6F7909581959F4F0895B3
:103A0000A1E21A2EAA1BBB1BFD010DC0AA1FBB1FE2
:103A1000EE1FFF1FA217B307E407F50720F0A21B54
:103A2000B30BE40BF50B661F771F881F991F1A94C1
:103A300069F760957095809590959B01AC01BD01EB
:103A4000CF010895EE0FFF1F0590F491E02D09942A
:103A5000FB01DC010D900020E9F7119701900D9218
:0A3A60000020E1F70895F894FFCF6D
:083A6A00D9002E0064000000E9
:00000001FF
