:020000020000FC
:100000000C94F11A18951895189518951895189537
:100010000C946911189518951895189518951895B8
:100020001895189518951895189518950C948C1185
:100030001895189518951895189518951895189558
:100040001895189518951895189518951895189548
:1000500018951895302E302E302E37353400323822
:1000600020EEEAF2FFE1F0FF203230313320E32EC0
:1000700000CAEEECE0EDE4EDE0FF20EEE1EEEBEEA9
:10008000F7EAE02C20E2E5F0F1E8FF200020286903
:100090006172290D0A00C4E0F2E020F1E1EEF0EA1D
:1000A000E820EFF0EEE5EAF2E03A20000D0AC0E2C7
:1000B000F2EEF03A20CCE5E7E5EDF6E5E220C2FF0E
:1000C000F7E5F1EBE0E22028766961636865736C1F
:1000D00061766D657A656E7473657640676D61698A
:1000E0006C2E636F6D290D0A000D0A5B41546D651E
:1000F000676131365D2420000D0AC4EEF1F2F3EFA2
:10010000EDFBE520EAEEECE0EDE4FB3A0D0A002021
:100110002D20E2FBE2EEE420EFEEE4F1EAE0E7EA94
:10012000E82E0D0A00202D20EEF7E8F1F2EAE0209B
:10013000FDEAF0E0EDE02E0D0A00202D20E7E0EFD3
:10014000F3F1EA20F4E0E9EB20ECE5EDE5E4E6E5A7
:10015000F0E02E0D0A00202D20E7E2F3EAEEE2EEB9
:10016000E920F1E8E3EDE0EB2E0D0A000D0A220094
:100170002220EDE520FFE2EBFFE5F2F1FF20E2EDCA
:10018000F3F2F0E5EDEDE5E920EAEEECE0EDE4EE8A
:10019000E920E8EBE820E8F1EFEEEBEDFFE5ECEE2F
:1001A000E920EFF0EEE3F0E0ECECEEE92E0D0A00D2
:1001B00068656C7000636C7300666D0062656570E5
:1001C000001B5B3F323568001B5B3F32356C001B08
:1001D0005B73001B5B750020202C2020202020203A
:1001E00020203C202020202027272222F92D2D20EE
:1001F00020203E20202020FF20206A20207C20F08C
:1002000020202220202020F8204969202020FAF1F7
:100210002320226A53732080818283848586878885
:10022000898A8B8C8D8E8F909192939495969798C6
:10023000999A9B9C9D9E9FA0A1A2A3A4A5A6A7A8B6
:10024000A9AAABACADAEAFE0E1E2E3E4E5E6E7E8F6
:10025000E9EAEBECEDEEEF1B5B004573637C20C23B
:10026000FBF5EEE400D4E0E9EBEEE2FBE920ECE59F
:10027000EDE5E4E6E5F02C2041546D65676131362B
:10028000204020313620CCC3F62C20E2E5F0F1E806
:10029000FF20F1E1EEF0EAE83A20002028696172DF
:1002A0002900C8ECFF00D0E0E7ECE5F000C4E0F284
:1002B000E0202020C2F0E5ECFF0020205BCFE0EF43
:1002C000EAE05D20005D2420002E545854002E5793
:1002D0004156004D6564696120496E666F3A2000A1
:1002E000CFEEEBEDEEE520E8ECFF00D4EEF0ECE035
:1002F000F200D0E0E7ECE5F020F4E0E9EBE000CF3D
:10030000F0EEE4EEEBE6E8F2E5EBFCEDEEF1F2FC0C
:1003100000CEE1F9E8E920EFEEF2EEEA00C8E4E50C
:10032000EDF2E8F4E8EAE0F2EEF000CFE0F0E0EC25
:10033000E5F2F020456E6469616E6E65737320F4BA
:10034000EEF0ECE0F2E000C8E4E5EDF2E8F4E8EA13
:10035000E0F2EEF020EAEEE4E5EAE000C8E4E5EDE4
:10036000F2E8F4E8EAE0F2EEF020EAEEE4E5EAE0B2
:100370002FCFEEE4F1EAE0E7EAE000C1E8F2F0E5D1
:10038000E9F200CAE0EDE0EB28FB2900D7E0F1F24A
:10039000EEF2E000C1E8F2EEE2E0FF20E3EBF3E191
:1003A000E8EDE000D0E0E7ECE5F020EFEEF2EEEA79
:0903B000E0004350313235310008
:1003BA000000000100B5020500A702AA02AD02B0C2
:1003CA0002B302000000000100191005000B100E14
:1003DA0010111014101710000008014D11BC100163
:1003EA002A110453100E4C10082411011E11016128
:1003FA001101F610016111010F11FB00421504E50C
:10040A0010E008950EE510E008950E94FB1BD80144
:10041A0080E090E001C08395EA2FF12FE80FF91FE1
:10042A0000810032C1F30930B1F38823D1F04424AA
:10043A000DC0042D10E0080F191FFD01E00FF11F78
:10044A000081FD01E40DF91F0083439455248D01B9
:10045A000E94861C4016510660F3FD01E40DF91F47
:10046A0090838D010E94861C802F8A95FD01E80FDA
:10047A00F91F00810032C9F30930B9F38D010E94D6
:10048A00861C015010408017910720F4A80FB91F4D
:10049A00FD019183E6E00C94081C0E94FD1BC90132
:1004AA008901B3DF8C010E94861C012B11F400E044
:1004BA0025C0E0EBF1E0DC010E94651C012B11F480
:1004CA0002E01CC0E5EBF1E0DC010E94651C012B97
:1004DA0011F403E013C0E9EBF1E0DC010E94651CB2
:1004EA00012B11F404E00AC0ECEBF1E0DC010E94FC
:1004FA00651C012B11F405E001C001E0E4E00C9455
:10050A000A1C00E0009304010895088119812A81D8
:10051A003B814650504039F04A5F504061F04351A8
:10052A00504061F01DC00130104020403040C1F4FD
:10053A000E94FB0215C00E94010312C0EAEBF3E01D
:10054A000C94AF1B0E94E1030BC00E94E20308C097
:10055A000E94E30305C00E94E40302C00E94E5036F
:10056A0000E010E020E030E02896089510E00FE067
:10057A000E94040502E00E94730419E101E00E944E
:10058A00250530E021E001E710E00E94FE030E9409
:10059A00040230E020E00E94FE0330E020E00DE893
:1005AA0010E00E94FE0330E021E006E910E00E941C
:1005BA00FE030E94070230E021E00E94FE0330E0C1
:1005CA0021E00CEA10E00C94FE030AE00E94D20437
:1005DA0030E020E009EE10E00E94FE030FE00E94E6
:1005EA00D20400E00E948B040C94BE040E9486028E
:1005FA000E94BB020C94EA020E94FE1BA02FF80183
:10060A00389709F4ABC0319709F4D3C0349759F03D
:10061A003E9709F4CEC0E850F04020F0E650F04092
:10062A0008F4C7C0B1C024E031E004E811E00E9438
:10063A005202002371F00A9509F475C00A95B1F0C7
:10064A000A9541F00A9509F461C00A9509F465C052
:10065A0081C07EC010E00FE00E94040502E00E9403
:10066A00730419E101E00E94250572C007E00E94A7
:10067A00D20430E021E008EF10E00E94FE0309E016
:10068A000E94D20430E020E000EB11E00E94FE0359
:10069A0007E00E94D20430E021E00FE011E00E945E
:1006AA00FE0309E00E94D20430E020E005EB11E0ED
:1006BA000E94FE0307E00E94D20430E021E005E236
:1006CA0011E00E94FE0309E00E94D20430E020E01B
:1006DA0009EB11E00E94FE0307E00E94D20430E019
:1006EA0021E00AE311E00E94FE0309E00E94D2041D
:1006FA0030E020E00CEB11E00E94FE0307E00E94CC
:10070A00D20430E021E006E511E020C005E610E061
:10071A0020E030E00E9422161DC021E000E213E032
:10072A000E94300415C007E00E94D20430E020E0A5
:10073A000CE611E00E94FE0330E021E004E011E043
:10074A000E94180430E021E000E711E00E94FE0355
:10075A000E94EA0200E0009304012BC004E011E0C9
:10076A000E94861C802F002321F110E008E00E94DD
:10077A00E60301E00E94A10400E08A95F0E0E82F78
:10078A00EC5FFE4F008315C004E011E00E94861C56
:10079A00802F0F3770F410E00A2F0E94E60390E0D2
:1007AA00FC01EC5FFE4FA0838395FC01EC5FFE4FDA
:1007BA009083E3E00C940B1C08950895089508951E
:1007CA0008955D9BFECF112319F01A9519F00DC0FB
:1007DA000CB90BC007FB3EF4F0E00F77E02FE952AB
:1007EA00FE4F149101C0102F1CB95E9BFECF589882
:1007FA0008950E94FB1BC801B22FA32F442403C0F3
:10080A001B2FDFDF43945524FC01E40DF51D0491F1
:10081A000023B1F7EA2FF0E031974E165F0681F315
:10082A00E6E00C94081C0E94FB1BC801B22FA32F00
:10083A00442403C01B2FC5DF43945524FC01E40D57
:10084A00F51D00810023B1F7EA2FF0E031974E162B
:10085A005F0681F3E5CF0E94FD1BD801922F30E09D
:10086A0020E007E512E0C5DF44E650E08D010E9472
:10087A003D1B005D10E0A5DF44E650E08D010E94BB
:10088A003D1BDA014AE050E08D010E943D1B005DEC
:10089A0010E097DF4AE050E08D010E943D1B042FD3
:1008AA00005D10E08EDF10E00BE38BDF10E04AE022
:1008BA00092F0E940B1B005D84DF10E04AE0092F1C
:1008CA000E940B1B042F005D7CDF10E002E479DF3D
:1008DA0010E007E076DFE4E00C940A1C8A93802F8C
:1008EA0030E020E007E512E084DF882319F08A95DA
:1008FA0021F006C010E000E305C010E001E302C0E9
:10090A0010E002E35EDF10E00AE497C08A93802FCA
:10091A0030E020E007E512E06CDF8A9529F08A953D
:10092A0010E029F000E304C010E001E301C002E393
:10093A0048DF10E00BE481C09A93902F0023B9F0AE
:10094A0030E020E007E512E054DF10E04AE0092F2A
:10095A000E940B1B005D35DF10E04AE0092F0E9460
:10096A000B1B042F005D2DDF10E008E52ADF9991AB
:10097A00089530E020E001EC11E009C030E020E009
:10098A0008EC11E004C030E020E00FEC11E031CFB8
:10099A0030E020E003ED11E0FACF8A93802F30E0B7
:1009AA0020E007E512E025DF83FB10E016F401E3FF
:1009BA0001C002E306DF10E00DE603DF30E020E0CD
:1009CA0007E512E016DF10E003E32FC08A93802FB9
:1009DA0030E020E007E512E00CDF83FB10E016F4BC
:1009EA0005E301C006E3EDDE10E00DE6EADE30E0E5
:1009FA0020E007E512E0FDDE10E004E316C09A935A
:100A0A008A93902F812F00E006D0092FC6DF082F86
:100A1A00DDDF8991ACCF8A93802F30E020E007E5B3
:100A2A0012E0E7DE10E08F7003C0CBDE10E08770C3
:100A3A00805D082FC6DE10E00DE6C3DE89910895B9
:100A4A00AA939A93902FA12F002379F1112369F188
:100A5A00013558F51A3148F530E020E007E512E093
:100A6A00C8DE10E04AE00A2F0E940B1B005DA9DED7
:100A7A0010E04AE00A2F0E940B1B042F005DA1DE42
:100A8A0010E00BE39EDE10E04AE0092F0E940B1BE8
:100A9A00005D97DE10E04AE0092F0E940B1B042F2D
:100AAA00005D8FDE10E006E68CDE9991A99108952B
:100ABA00AA939A93902FA12F30E020E007E512E045
:100ACA0098DE10E04AE00A2F0E940B1B005D79DED7
:100ADA0010E04AE00A2F0E940B1B042F005D71DE12
:100AEA00992329F09A9531F0925051F006C010E0FE
:100AFA0001E408C010E002E405C010E003E402C00B
:100B0A0010E004E45EDED1CF0E94F81B2801D9016F
:100B1A008A01CB0174DF820193DF10E009EC51DE18
:100B2A008C010E94861C602EA250082F092B09F105
:100B3A008A2E861886948A94772403C00DEC41DEA7
:100B4A007394781410E0D0F300E23BDE30E020E04A
:100B5A008C0169DE10E000E234DE8A2F88198619DA
:100B6A00825090E0981768F410E00DEC2ADE939515
:100B7A00F9CF80E004C010E00DEC23DE83958A17DC
:100B8A00D0F310E00BEB1DDEBA9590E009C000E24D
:100B9A0018DE83958A1710E0D0F30AEB12DE9395DC
:100BAA009B1750F4152D190F1395042D49DF10E0EA
:100BBA000AEB07DE80E0EECF5B0E820141DF10E038
:100BCA0008ECFFDD80E003C00DECFBDD83958A179E
:100BDA0010E0D0F30CEBF5DDE9E00C94051CF8010C
:100BEA0001C021938A0141505040012BD1F7089549
:100BFA00BD01F801D90120E030E08A01415050409E
:100C0A00012B41F0019110E02D91021B1040980137
:100C1A00012B99F38901DB0108950E94F91B24979E
:100C2A00C801D9016090970170909801023000E0E4
:100C3A009007A007B00750F0F301008511852285BF
:100C4A00338580179107A207B30728F001E010E067
:100C5A0020E030E0A7C000810A9539F00A9509F42E
:100C6A005EC00A9509F476C0F1CF2C018C01169565
:100C7A000795400E511E92013170452C5524469419
:100C8A002F3F01E0300799F002E05A920A93448517
:100C9A00558566857785440D551D651D751D8E0123
:100CAA000E5F1F4F0E94D113002381F62EC05A9265
:100CBA000A932FEF31E04485558566857785440D83
:100CCA00551D651D751D8E010E5F1F4F0E94D113A4
:100CDA00002309F0BBCF01E05A920A9320E030E0EA
:100CEA00F3014485558566857785440D521F621F39
:100CFA00721F4F5F5F4F6F4F7F4F8E010D5F1F4F08
:100D0A000E94D113002309F0A1CF0881198180FB29
:100D1A0026F444E00E94371B9BCF1F7099CF02E054
:100D2A0010E01A930A93282F30E0220F331F4485CC
:100D3A00558566857785490F5A1F6B1F711F8E016E
:100D4A000E5F1F4F0E94D113002309F07FCF088145
:100D5A0019817ECF04E010E01A930A93282F2F7787
:100D6A0030E0220F220F331F44855585668577852B
:100D7A00880F892F881F9A2F991FAB2FAA1FB0E0BF
:100D8A00BB1F480F591F6A1F7B1F8E010E5F1F4F23
:100D9A000E94D113002309F059CF088119812A81B1
:100DAA003B813F702496E8E00C94061CE091970181
:100DBA00F091980102501040204030404085518502
:100DCA006285738542505040604070400417150791
:100DDA002607370728F000E010E020E030E0089509
:100DEA00418150E060E070E00E94511B44895589BE
:100DFA0066897789040F151F261F371F0895BA932E
:100E0A00AA93D801409197015091980100E00D935F
:100E1A000C931197FD0104811581268137810130D8
:100E2A0060E016072607360751F0FA01008411849C
:100E3A0022843384001511052205330510F001E0E0
:100E4A0023C0602F612B622B632B39F460816330DE
:100E5A0021F40089118922893389FD0100871187CC
:100E6A0022873387602F612B622B632B11F09EDF61
:100E7A0005C0FA010089118922893389FD01048795
:100E8A0015872687378700E0E9C10E94FB1BC80146
:100E9A00A0919701B0919801F8014080518001E03A
:100EAA00400E00E0501E042D052941F004851585E9
:100EBA0026853785012B022B032B11F403E050C042
:100ECA00042D0F7009F048C004850F5F1F4F2F4F84
:100EDA003F4F048715872687378700851185228526
:100EEA003385012B022B032B39F4FD010481158173
:100EFA004016510688F1E2CF44E082010E94371B76
:100F0A00FD01E181F0E031970E231F23012B21F52A
:100F1A00FC0100851185228533857FDE023040E0A1
:100F2A0014072407340710F401E01AC0FD014085B4
:100F3A00518562857385041715072607370708F058
:100F4A00BDCFFC0100871187228733872FDFFC0181
:100F5A000487158726873787FC014082518200E083
:100F6A00C1C10E94FB1B28014ADF802F002311F018
:100F7A00082FB8C1E0919701F0919801A681B78135
:100F8A0000E210E01A930A93F20100810F7045E023
:100F9A000E94311B980144855585668577858D01A8
:100FAA000E94D113002311F081E0E2CF80E00C917E
:100FBA00002311F483E0DCCFFD01038503FD09C0A2
:100FCA004BE050E0F201228133818D0111DE012BC9
:100FDA0079F282015ADF802F002351F6D1CF0E9485
:100FEA00FD1BD80103E0E0919701F09198018681F9
:100FFA009781FD014485558566857785452B462B66
:10100A00472B51F100E210E01A930A930D911197C0
:10101A000F7045E00E94311B9801FB2F44855585CE
:10102A00668577858C010E94D113002311F001E0B7
:10103A0015C000E0FC011081112311F403E00EC079
:10104A0023852F73153E21F01E3211F023FB66F41F
:10105A008D011BDF002369F2002331F040E0FD011E
:10106A004487458746874787E4E00C940A1C0E9418
:10107A00FD1BD901F801828193814BE050E020E207
:10108A0030E08C01ACDD20E040E018E06D917C910D
:10109A00119706C01830E9F40E32D9F428E01BE0A3
:1010AA0050E0FB01E40FF51F00814395013288F0FF
:1010BA000F3279F00E3271F3211760F7302F315663
:1010CA003A3108F40052FC01E20FF51F0083239520
:1010DA00E7CF640F751FFD0160837183013210F43D
:1010EA0001E001C000E0FC01038700E0BDCF0D0173
:1010FA00F8018901075F1F4F448555856685778505
:10110A00452B462B472B09F445C0A0919701B09176
:10111A0098011696ED91FC9140E050E0DF01A40F92
:10112A00B51F5C91503249F0553009F455EED8019B
:10113A005D938D014395483080F34085403291F0AC
:10114A004EE2D8014D938D0148E050E0DF01A40F33
:10115A00B51F5C91503231F0D8015D938D014395F2
:10116A004B3098F34385D90118964C93448D558D8D
:10117A00668D778DD9014D935D936D937C93408DE8
:10118A00518DD90114964D935C9346895789F9017B
:10119A004683578320E0F8012083D0010895BA934B
:1011AA00AA93229728833983D80105C08F010F5F3C
:1011BA001F4F08831983E881F98100810032B1F356
:1011CA000F3229F48F010F5F1F4F0883198300E044
:1011DA00FD010483058306830783E881F981008181
:1011EA000132F0F48D010BDE10E0E0919701F091ED
:1011FA009801A681B7811C932EC0E0919701F091C6
:10120A0098010681F781E02F238524FF1BC064899A
:10121A007589028D138DFD01048315836683778397
:10122A009E018D0124DF0023B1F48D019ADE002393
:10123A0059F0033081F4FD01A281B3811B961C9100
:10124A00112349F404E007C01296ED91FC9113971B
:10125A001385112391F2229601C0EC96A991B991B6
:10126A0008950E94FB1B2801CA01DB0102E010E07D
:10127A001A930A932EEF31E082010E94D1130023C0
:10128A0011F003E02FC0F2010081118105351A4ADD
:10129A0002E041F510E01A930A9326E330E0AC012C
:1012AA00BD0182010E94D113002341F4F2010081A1
:1012BA0011810634114411F400E014C002E010E078
:1012CA001A930A9322E530E0AC01BD0182010E9423
:1012DA00D113002331F4F201008111810634114443
:1012EA0059F301E0E6E00C94081C0E94F71BA4974E
:1012FA00480100E00093970100939801082D012B03
:10130A0011F400E0DAC00E94401300FB16F402E078
:10131A00D4C0442455246624772440E050E060E099
:10132A0070E08E019EDF402F0130E1F400E14A9225
:10133A000A932EEB31E040E050E060E070E08E016D
:10134A000E5F1F4F0E94D113002371F40C810023FA
:10135A0079F0488459846A847B84A201B3018E019E
:10136A0080DF402F433011F401E0A7C0442311F07D
:10137A0007E0A3C004E210E01A930A932DE030E0DC
:10138A00A201B3018E010E5F1F4F0E94D1130023E9
:10139A0059F789859A85A0E0B0E0082F092B21F436
:1013AA008F89988DA98DBA8D0B8110E020E030E0ED
:1013BA00AC01BD010E94511BC801D90109811A81E2
:1013CA0020E0400E511E621E721EF40144865586AC
:1013DA0066867786088101830C811D8104831583C3
:1013EA000E801F8022243324002D012921F40B882A
:1013FA001C882D883E8809811A81001A110A220A3E
:10140A00320A081A190A2A0A330A0481158144E0A1
:10141A000E94371B001A110A220A320A800191011E
:10142A00418150E060E070E00E94791B0E5F1F4F1F
:10143A002F4F3F4FE82D008711872287338741E0DE
:10144A00073F5FE0150750E02507350708F042E03F
:10145A00073F1F4F2040304008F043E040834330AD
:10146A0029F40F8D18A129A13AA108C00485158570
:10147A0026853785080F191F2A1F3B1F008B118BE2
:10148A00228B338B0484158426843784080E191E14
:10149A002A1E3B1E0481158144E00E94371B000E60
:1014AA00111E251E351E048A158A268A378A00E0EF
:1014BA0052838092970190929801A496EAE00C9444
:1014CA00041CBA93AA93EC97A0919701B091980142
:1014DA002A2F2B2B11F406E037C020E012962C930A
:1014EA0014969E01CD93DC931797205E3F4F2EA74B
:1014FA003FA798018E01045D1F4F51DE002321F59D
:10150A000881002319F00B8504FF02C003E01CC008
:10151A006C897D890A8D1B8D90960D931D936D9311
:10152A007C9317970C8D1D8D2E8D3F8D0D931D93DA
:10153A002D933C93179700E00D930D930D930C9305
:10154A00599701E00C9300E088CE0E94F51B5801E0
:10155A0029013A014801A0919701B091980100E050
:10156A00FA01008301830A2F0B2B11F406E0AEC0A7
:10157A00FD01028100FD02C005E0A8C0048D158DA1
:10158A00268D378D408D518D628D738D041B150B01
:10159A00260B370B041515052040304058F5280155
:1015AA0029C004019A938A93208D318D317040A508
:1015BA0051A562A573A580010E94D113002309F0E9
:1015CA0081C020E0FD01408D518D628D738D480FE1
:1015DA00591F621F721F408F518F628F738F880E3F
:1015EA00991E481A590AF30100811181080F191F1F
:1015FA0000831183042D052909F462C0FD01008DC1
:10160A00118D1170012B09F049C0018D128D238DA6
:10161A0030E0269517950795418150E060E070E02B
:10162A000E94791B412942294329F9F4EA2F008DA6
:10163A00118D228D338D012B022B032B29F400A14E
:10164A0011A122A133A105C004A115A126A137A188
:10165A00E4DA023040E014072407340798F1FD0168
:10166A0004A315A326A337A34383EA2F04A115A134
:10167A0026A137A19BDB402F412B422B432B11F193
:10168A00FD014381542F5395538350E0040F151FD6
:10169A00251F351F00A711A722A733A780E092E0D4
:1016AA00008D118D1170801B910B4816590608F494
:1016BA00C2010A2D0B2909F074CF0024112472CF1C
:1016CA0000E004C000E0FD01028301E0ECE00C94BC
:1016DA00021CBA93AA93AC97D801E0919701F091B2
:1016EA0098010E2F0F2B11F406E020C08E01C6833D
:1016FA00D783005E1F4FFD01028313838D014FDDE7
:10170A00002389F40881002361F00B8504FF0DC0D2
:10171A006C897D890A8D1B8DFD010483158366837F
:10172A0077838D016CDB033009F404E0AC9696CD27
:10173A000E94FD1BAC97D801C901E0919701F09175
:10174A0098010E2F0F2B11F406E027C08E01045FBB
:10175A001F4F06831783FD01C283D383022F032BF6
:10176A008D0111F44CDB19C03ADC033039F400E086
:10177A00FD01048705870687078702C0002369F4ED
:10178A009C018D01B4DC8D0180DB033031F400E073
:10179A00FD010487058706870787AC9665CCA5CD2A
:1017AA0090CED3CE96CFC4CF01E00895222319F468
:1017BA000AE512E0089500E010E00895BC01C801AE
:1017CA00F9010491002311F41BC00196FC01008168
:1017DA00002300E010E0A9F002C00F5F1F4FFC01D8
:1017EA00E00FF11F4081F901E00FF11F54914517F5
:1017FA0061F7F901E00FF11F31964491442369F72B
:10180A008C01CB01089501E00093F10102E00093FD
:10181A00F20108E20093F30106E10093F40109E200
:10182A0000938E0202E000938F0208E20093900276
:10183A0006E10093910200E00093F5010093F6019E
:10184A000093F7010093920200939302009394028B
:10185A002EEF30E008EF11E00E94741C2EEF30E00A
:10186A0005E912E00E94741C00E000930401089547
:10187A0011E001E00E94250517E000E00E9404053E
:10188A0030E021E005E612E00E94FE030E94040215
:10189A0030E020E00E94FE0330E020E00BE912E095
:1018AA000E94FE0300E00C948B040E94FD1BD901E8
:1018BA0014960D911D9100939A0110939B010F713B
:1018CA004AE00E940B1B005D00934E0300919A01AF
:1018DA000F714AE00E94191B405D40934F030EE2CC
:1018EA000093500345E000919A010E94371B0F7044
:1018FA004AE00E940B1B005D0093510345E00091F2
:10190A009A0110919B010E94371B0F704AE00E94B6
:10191A00191B405D409352030EE20093530300915A
:10192A009B0110E006950454184F48EE53E00E94BC
:10193A003D1B8A0144E650E00E943D1BCA014AE071
:10194A0050E08C010E943D1B005D009354034AE065
:10195A0050E08C010E943D1B405D4093550300E01E
:10196A000093560330E020E00EE413E00E941804CE
:10197A000D911C9100939C0110939D01012F0695D6
:10198A00069506954AE00E940B1B005D00934E03E4
:10199A00012F0695069506954AE00E94191B405D9F
:1019AA0040934F030AE30093500345E000919C01E2
:1019BA000E94371B0F734AE00E940B1B005D0093C5
:1019CA00510345E000919C0110919D010E94371B33
:1019DA000F734AE00E94191B405D4093520300E0D6
:1019EA000093530311E002E00E945D0530E020E01D
:1019FA000EE413E00E941804E4E00C940A1C0E940E
:101A0A00FD1BD80114E00FE00E9404058D01095F57
:101A1A001F4F0E94861C9801FD0111810C91828141
:101A2A0090E00297821B930B96958795080F0E9468
:101A3A00250510E000E20E94E6030091FC001091E7
:101A4A00FD00A017B10781F417E000E00E94040529
:101A5A0030E020E08D01095F1F4F0E94180414E056
:101A6A000FE00E94040507C030E020E08D01095F05
:101A7A001F4F0E94180410E000E20E94E603FD01D5
:101A8A0005811681012B09F4CFC00091FC00109149
:101A9A00FD00A017B10721F417E000E00E94040539
:101AAA00FD0114810181100F1E5F0C91035F0E94DA
:101ABA00250510E003EB0E94E6031AE002E00E940B
:101ACA005D0510E003EB0E94E60318E002E00E94C5
:101ADA005D0510E003EB0E94E60314E00FE00E94AC
:101AEA000405FD0114810181100F1E5F0C910395FD
:101AFA000E942505FD01E157FF4F008104FF34C014
:101B0A000091FC001091FD00A017B10729F417E01D
:101B1A0000E00E94040503C00AE00E94D20430E0FB
:101B2A0020E08D0100571F4F0E9418048CE08D01A0
:101B3A0000571F4F0E94861C801B082F0E94A10479
:101B4A00182F02E00E945D05FD0114810181100F2A
:101B5A001E5F0C91025F0E94250530E021E00AEB2E
:101B6A0012E00E94FE0352C00091FC001091FD0099
:101B7A00A017B10729F417E000E00E94040503C08A
:101B8A000FE00E94D20430E020E08D0100571F4F81
:101B9A000E9418048CE08D0100571F4F0E94861C7A
:101BAA00801B082F0E94A104182F02E00E945D05E5
:101BBA00FD0114810181100F1E5F0C91025F0E94CA
:101BCA0025054EE453E0FD01E957FF4F00811181DD
:101BDA00228133810E94B1158AE00E94861C801BF3
:101BEA00082F0E94A104182F02E00E945D054EE40E
:101BFA0053E0FD01E957FF4F0081118122813381B2
:101C0A000E94B11530E020E00E941804FD01148101
:101C1A000181100F1E5F0C91075E0E9425059D0130
:101C2A0029573F4F8D0141DEE7CE0E94FD1BD801A7
:101C3A00B801695F7F4F54E04FE0F8013381228198
:101C4A0011810C910E9489050BE00E94D20413E0D5
:101C5A000C910B5F0E94250530E021E002EA12E0B8
:101C6A000E94FE0318E002E00E945D0530E021E0D8
:101C7A0006EA12E00E94FE0315E002E00E945D05FA
:101C8A0030E021E00DEA12E00E94FE030FE00E941C
:101C9A00D204FD018181839590E01AC0182F0C911E
:101CAA00035F0E94250510E003EB0E94E6031AE099
:101CBA0002E00E945D0510E003EB0E94E60318E0D3
:101CCA0002E00E945D0510E003EB0E94E6038395A3
:101CDA00FD01018110E02381020F191F01501040FC
:101CEA0080179107DCF212E00C91035F0E94250530
:101CFA0010E001ED0E94E6031AE002E00E945D0591
:101D0A0010E001ED0E94E60318E002E00E945D0582
:101D1A0010E001ED0E94E60315E101E00E945D0575
:101D2A0011E003E00E945D0510E00FEC0E94E6035B
:101D3A001AE003E00E945D0510E00FEC0E94E60342
:101D4A001CE003E00E945D0510E00FEC0E94E60330
:101D5A0004EC11E00E94D40B00939901FD019583D4
:101D6A0096839D01295F3F4F04EB11E00E94D70B38
:101D7A0000939901002309F0AFC0FD0181818E5FB4
:101D8A0048C00FE00E94D20430E020E007EA11E0E8
:101D9A000E9418049CE007EA11E00E94861C901B2E
:101DAA00092F0E94A104192F02E00E945D05182F35
:101DBA000C91025F0E9425054EE453E0EEE9F1E042
:101DCA0000811181228133810E94B1159AE00E941B
:101DDA00861C901B092F0E94A104192F02E00E9461
:101DEA005D054EE453E0EEE9F1E0008111812281C4
:101DFA0033810E94B11530E020E00E941804182FA8
:101E0A000C91075E0E9425052EE931E08D014DDD1A
:101E1A00839590E0FD01018110E02381020F191FD3
:101E2A000F5F1F4F801791070CF056C0182F0C91A7
:101E3A0003950E9425052EE931E004EB11E00E948A
:101E4A00D80B00939901002309F046C00091A7011D
:101E5A00002309F441C0FD01058116810F5F1F4F60
:101E6A0005831683448150E08C012181021B1040B6
:101E7A00025010404017510749F49D0129573F4F1E
:101E8A00EEE9F1E0890146E10E94EA1B0091A60110
:101E9A0004FF77CF0AE00E94D20430E020E007EA8C
:101EAA0011E00E9418049CE007EA11E00E94861CD7
:101EBA00901B092F0E94A104192F02E00E945D05C0
:101ECA00182F0C91025F0E94250530E021E00AEBF1
:101EDA0012E00E94FE0393CFFD018581968101974E
:101EEA0004818017904018F405810A9504838D01B6
:101EFA0086DD00E010E00E94D40B009399017CCDAE
:101F0A009A938A93C80110E00AE00E94040518E136
:101F1A0001E00E94250510E00BE50E94E60330E08F
:101F2A0020E007968C010E94180430E020E005ECBE
:101F3A0012E00E94FE030FE00E94D2040E94C8042D
:101F4A0000E00E948B040E94CD040E94BE04899185
:101F5A00999108950E94FB1B280100E00E94100538
:101F6A0019E101E00E94250580E001C08395820104
:101F7A000E94D90B801738F5282F82010E94DB0BAB
:101F8A00012BA1F317E001E00E940405282F82012A
:101F9A000E94DB0BF8010491A1E0B0E00CC011E053
:101FAA000E94E603282F82010E94DB0B0A0F1B1FE7
:101FBA00F8010491A3950023C9F20C3781F700E0D8
:101FCA000E94D204EFCF00E00E948B04E6E00C945A
:101FDA00081C088119812A813B814650504039F0FA
:101FEA004A5F504061F04351504061F01DC00130DA
:101FFA00104020403040C1F40E941F1015C00E94BA
:10200A00451012C0EEECF3E00C94AF1B0E94641171
:10201A000BC00E94651108C00E94661105C00E948B
:10202A00671102C00E94681100E010E020E030E071
:10203A00289608950E94080C0E94C30410E00FE03D
:10204A000E94040502E00E94730411E001E00E946C
:10205A0025050E943D0C01EF11E00E941A0E0EE8C0
:10206A0012E00E941A0E00EF11E00E94AF0F0091D9
:10207A00FC001091FD000E94850F0FE00C94D20421
:10208A000E94FE1BA02FE2EEF3E00C94A91B04E6CB
:10209A0010E020E030E00E9422160EC104E011E0B8
:1020AA000E94861C002351F000E000930401009175
:1020BA00FC001091FD000E94850FFEC0E091FC001B
:1020CA00F091FD00E157FF4F008104FF33C02EEF6E
:1020DA0030E00091FC001091FD00095F1F4F0E9443
:1020EA004E1C012B51F02EEF30E00091FC001091B4
:1020FA00FD00095F1F4F0E943D1C2091FC0030919A
:10210A00FD0020573F4F0091FC001091FD00095F30
:10211A001F4F0E943D1C00E0E091FC00F091FD0081
:10212A0004830E94C3040091FC001091FD000E94E8
:10213A001A0EBDCF29EC32E00091FC001091FD008F
:10214A0000571F4F0E94E30B012B11F006E6A0CFA8
:10215A002EEC32E00091FC001091FD0000571F4F59
:10216A000E94E30B012B09F4A7C007E691CF04E014
:10217A0011E00E94861C802F002379F010E008E00D
:10218A000E94E60301E00E94A10400E08A95F0E0C3
:10219A00E82FEC5FFE4F00838FC00091FC00109186
:1021AA00FD00095F1F4F0E94861C802F082F8A9509
:1021BA0010E0E091FC00F091FD00E00FF11F0781B3
:1021CA000F3211F0882391F7E091FC00F091FD00A5
:1021DA00E80FF11F1087E091FC00F091FD001483D5
:1021EA00A0CFE091FC00F091FD000481002309F4E6
:1021FA0063C00A9504830E94C3040E94C804009124
:10220A00FC001091FD000E941A0E0E94CD040E944B
:10221A00BE0452C0E091FC00F091FD00048110E080
:10222A00838190E00197081719070CF045C00395C0
:10223A00E1CF00E0E091FC00F091FD00DBCFE091FE
:10224A00FC00F091FD000581D4CF0E94C3042091C7
:10225A00FC003091FD0001EF11E0213F314049F4CB
:10226A000EE812E00093FC001093FD0001EF11E06C
:10227A0006C00093FC001093FD000EE812E00E94D5
:10228A00040D0091FC001091FD000E94040D0FCF77
:10229A0010E00A2F0E94E60304E011E00E94861C67
:1022AA00802F90E0E02FF0E0EC5FFE4FA083839553
:1022BA00FC01EC5FFE4F9083E3E00C940B1C089545
:1022CA0008950895089508958A93FA93EA933A929D
:1022DA002A921A920A927A936A935A934A933A934F
:1022EA002A931A930A938FB70E94A8118FBF099154
:1022FA001991299139914991599169917991099045
:10230A00199029903990E991F991899118958A93B0
:10231A00FA93EA933A922A921A920A927A936A93CF
:10232A005A934A933A932A931A930A938FB70CB102
:10233A000E94AD12DBCF0E94E3120E94CF120E94CC
:10234A00D6120C94C712EBE2F3E0008111812281CC
:10235A0033810F5F1F4F2F4F3F4F0083118322831B
:10236A003383EFE2F3E0008111810F5F1F4F008397
:10237A001183E1E3F3E0008111810F5F1F4F0083B6
:10238A001183E3E3F3E0008111810F5F1F4F0083A4
:10239A001183E5E3F3E0008111810F5F1F4F008392
:1023AA001183E7E3F3E0008111810F5F1F4F008380
:1023BA00118302E804BD00912F03109130030A3003
:1023CA00104009F0B6C000918501109186010117ED
:1023DA0009F4A8C0F0E00F70E02FEB57FE4F12810E
:1023EA001B3109F061C000918501039500938501B5
:1023FA00F0E00F70E02FEB57FE4F1281009185013C
:10240A0020918601021711F01B3129F41BE10BE11F
:10241A000E94241787C01B3509F084C003950093D6
:10242A008501F0E00F70E02FEB57FE4F1281113457
:10243A0041F40091850103950093850111E406E2B8
:10244A00E7CF123441F40091850103950093850189
:10245A0012E408E2DDCF133441F4009185010395BB
:10246A000093850113E405E2D3CF143441F40091BB
:10247A00850103950093850114E407E2C9CF183456
:10248A0041F40091850103950093850118E404E263
:10249A00BFCF1B3409F046C0009185010395009314
:1024AA0085011BE403E2B4CF1830A1F40091850141
:1024BA0003950093850110918601011741F0F0E020
:1024CA000F70E02FEB57FE4F0281083059F518E0E4
:1024DA0008E09ECF193041F40091850103950093DD
:1024EA00850119E009E094CF1D3041F4009185017E
:1024FA000395009385011DE00DE08ACF012F0A5153
:10250A00053640F0012F0058003320F0012F005CFF
:10251A00023340F4012F0E9424170091850103958C
:10252A00009385010E94FF1600E000932F03009399
:10253A00300300913103109132030436104039F40C
:10254A000E94161700E000933103009332030895A6
:10255A004091860150E02091850130E0421B5040B5
:10256A004031504071F012E914BD209186012F705C
:10257A00F901EB57FE4F0283009186010395009300
:10258A008601089505B70F7005BF05B705BF00E4BA
:10259A0009BF089504E005BD02E804BD00E003BDDB
:1025AA00089500E20BB900E00AB90CE009B900E0AD
:1025BA0000BD08E90AB906E800BD089500B70B7F17
:1025CA0000BF00E00ABB03EB07BB00E004BB01BB92
:1025DA000BBB00E408BB00E005BB02BB089518E092
:1025EA0007FB16F0C59801C0C59A000FC79A0000EC
:1025FA00C7981A95A9F7089500E0C59A28E0C79ADE
:10260A00000FB6990160C79800002A95C1F708958E
:10261A000E94FC1B402ECA01DB0107FB5EF4E89412
:10262A0047F840E050E060E070E007E7F1DF023091
:10263A0008F06FC1C49AE0DFC498DEDF042DCFDF53
:10264A000B2FCDDF0A2FCBDF092FC9DF082FC7DFFA
:10265A0081E000E4401611F485E904C008E440165C
:10266A0009F487E8082FBBDF8AE0C6DF07FB0EF70D
:10267A008A95D9F7DECF0E94FD1B249703E708BB92
:10268A0000EB07BBB09983C0C49907C040E050E093
:10269A0060E070E000E010E0D7D084E6ADDF8A9514
:1026AA00E9F7A0E040E050E060E070E000E4B0DF6D
:1026BA00013009F064C04AEA51E060E070E008E4E1
:1026CA00A7DF0130B9F598DFFE01E80FFA1F008392
:1026DA0083958430C0F30A81013009F050C00B8120
:1026EA000A3A09F04CC080EE9EE240E050E060E019
:1026FA0070E409EE8DDF002319F00197B1F73FC0AE
:10270A00892BE9F140E050E060E070E00AE780DF01
:10271A000023A9F580E070DFFE01E80FFA1F0083AD
:10272A0083958430C0F3088106FF02C0ACE027C05D
:10273A00A4E025C040E050E060E070E009EE68DF08
:10274A00023018F4A2E0B9EE02C0A1E0B1E488EACE
:10275A0091E640E050E060E070E00B2F59DF002383
:10276A0019F00197B1F70AC0892B41F040E052E015
:10277A0060E070E000E54CDF002309F0A0E0A093E0
:10278A0039030E949114AA2311F000E001C001E06C
:10279A002496E4E00C940A1C0E94F81BD801C90193
:1027AA0049845A84B09B02C001E04BC000913903AE
:1027BA0003FD07C0762F652F542F40E0550F661F83
:1027CA00771F8824839401E523DF0023B9F500E30A
:1027DA00602E05E7702E10DF0F3F39F40FEF600E01
:1027EA00701E062D0729B9F729C00E3F39F502E0F8
:1027FA00602E702E681A790A64187508082F092B3A
:10280A0019F0FADE0197E9F70A2F0B2B49F0F4DEEB
:10281A000D930FEF400E501E042D0529C1F706C077
:10282A000FEF400E501E042D0529D1F7E5DE0FEFFC
:10283A00600E701E062D0729C9F788240E9491147C
:10284A00082DEBE00C94051C0E94FC1BD801B09BE0
:10285A0002C001E05DC0B199FCCF44244394012B2E
:10286A00C1F0CA010BC00D91BADEEAE3F3E00081C0
:10287A00118101501040008311830197082F092B01
:10288A0031F000913A0310913B03012B61F7442484
:10289A003EC0042F052B062B072BD1F000913903DC
:1028AA0003FD07C0762F652F542F40E0550F661F92
:1028BA00771F08E5ADDE002351F50FEF90DE0EEF2E
:1028CA008EDE00E012E000933A0310933B03DFCF61
:1028DA0080913A0390913B03029602C000E07FDEAA
:1028EA008C010197012BD1F787DE0F71053069F44E
:1028FA0088EE9DEF04C0082F092B39F001977CDE82
:10290A000F3FC9F7892B09F044240E949114042D22
:10291A0000C0E5E00C94091C0C9401130E94CD152B
:10292A000E94D61500E010E0089500E010E0089536
:10293A0020E030E0F801208321832283238328E0EA
:10294A002483358308950E94FD1BD801C9015CD0F8
:10295A00002341F0ECE3F3E08C0142E150E00E94F5
:10296A00EA1B21C0FD014281538102E110E00E946D
:10297A00291B9D01200F311F2A5F3F4F8C01F9014E
:10298A0042E150E00E94EA1BFD01028113810F5FC0
:10299A001F4F0283138384819581019780179107C2
:1029AA0010F442834383E8E00C940A1C0E94FD1B46
:1029BA00D801C9010E943515012B21F102E110E06D
:1029CA004D915C9111970E94291B9D01200F311F87
:1029DA002A5F3F4F8901FC0142E150E00E94EA1B55
:1029EA000D911C910F5F1F4F1C930E93FD01848163
:1029FA00958101970D911C9111978017910710F4F9
:102A0A004D934C93E4E0D0CFF801208131810281CB
:102A1A0013812017310709F401C002C001E00895AB
:102A2A0000E00895F8012281338140815181241701
:102A3A0035079A0130F402811381201B310B890179
:102A4A000895428153812417350748F4248135813A
:102A5A00241B350B00811181020F131F089565CFC6
:102A6A009A938A93F801848195810E941715801B95
:102A7A00910B8C018991999108950AEA13E00C94BB
:102A8A009D140E94FC1B2597C801042E8A019B01F4
:102A9A003695279517950795088319832A833B83CB
:102AAA003695279517950795488159816A817B81C3
:102ABA00400F511F621F731F488359836A837B83A8
:102ACA0044E00881152F9B010E94711B4881400F29
:102ADA00511F621F731F488359836A837B8330E0C7
:102AEA00450F561F671F731F488359836A837B8369
:102AFA00460F571F631F731F488359836A837B835B
:102B0A00442E43E0042D152F9B010E94711B08835C
:102B1A0019832A833B83000F001A042D087F001AA9
:102B2A000C82002D0A3070F00A500C83088119813A
:102B3A002A813B810F5F1F4F2F4F3F4F0883198315
:102B4A002A833B838C01FE0145E050E00E94EA1B88
:102B5A002596E5E00C94091CBA93AA932597DA0105
:102B6A001A9640E04C93A801B9018E018ADF0C81C4
:102B7A00005D0E93088119812A813B81402F412BE8
:102B8A00422B432B81F78D012596A991B99108957E
:102B9A00F8940AEA13E000934004109341040C9459
:102BAA00A011789445E0E0E0F1E0008111812281F2
:102BBA00338121D0E0E0F1E000811181228133816B
:102BCA0031D006C008E913E0F5D008E913E077D060
:102BDA0000E00A930A9320E030E040E050E060E031
:102BEA0070E008E913E05BD0002361F7E8E9F3E05D
:102BFA000681178108950E94FD1BC801D90100E0D2
:102C0A000A930A930A930A930A930A930A930A93D2
:102C1A0050E0082FD1D08C019D010FD001E0E4E0F3
:102C2A000C940A1C50E05A935A935A935A935A9303
:102C3A005A935A935A934FE0BFC00E94F91B280136
:102C4A003901EEE5F3E080819181A281B3813A9363
:102C5A002A931A930A9300E00A930A930A930A930F
:102C6A0046E050E08C019D01A7D0BA93AA939A93AB
:102C7A008A9301E010E01A931A931A930A9346E092
:102C8A0050E08201930198D0EEE5F3E04082518250
:102C9A00628273828C019D01E8E00C94061C088014
:102CAA0019801A920A923A932A9398010091400441
:102CBA00109141040E94A81401E022960895F80197
:102CCA004081518162817381443620E05207620754
:102CDA007207B9F442855385648575857A936A9338
:102CEA005A934A9346815781608571857A936A938C
:102CFA005A934A934481558104E610E030E00C94DB
:102D0A008A024536520762077207B9F4428553852B
:102D1A00648575857A936A935A934A934681578153
:102D2A00608571857A936A935A934A93448155814F
:102D3A0005E610E030E00C94EE0F463652076207C3
:102D4A007207B9F442855385648575857A936A93C7
:102D5A005A934A9346815781608571857A936A931B
:102D6A005A934A934481558106E610E030E00C9468
:102D7A00E519473650406040704042855385648566
:102D8A0075857A936A935A934A93468157816085E7
:102D9A0071857A936A935A934A934481558129F4A7
:102DAA0007E610E030E00C9494170081118122812B
:102DBA003381A8C000E008950E94FD1B0C801D808D
:102DCA002E803F8088859985AA85BB85E2E6F3E057
:102DDA0000831183228333834483558306821782B7
:102DEA002086318682879387A487B58744D001E0FD
:102DFA00ECE016CF0E948D17E4E7F3E0008311831D
:102E0A002283338303E111E00483158301E010E098
:102E1A0006831783108711871287138714871587EC
:102E2A002AC00E948D17E4E7F3E00083118322830E
:102E3A00338303E111E00483158302E0E8CF9A9318
:102E4A008A93902F812F0E948D17E6E8F3E0008382
:102E5A0011832283338300E011E004831583968370
:102E6A00078300870187828703870487058703D042
:102E7A00899199910895E2E6F3E000811181228116
:102E8A003381012B022B032B51F09F010091400447
:102E9A00109141040E94DB1402E613E013C0E4E738
:102EAA00F3E00081118122813381012B022B032B54
:102EBA0079F09F0100914004109141040E94DB14B3
:102ECA0004E713E0ECE3F3E042E150E00C94EA1B80
:102EDA00E6E8F3E00081118122813381012B022B84
:102EEA00032B79F09F0100914004109141040E9444
:102EFA00DB1406E813E0ECE3F3E042E150E00E9461
:102F0A00EA1B089500E010E020E030E028960895DA
:102F1A00EEE5F3E000811181228133810895088171
:102F2A0019812A813B814650504021F04A5F504026
:102F3A0049F00AC0013010402040304029F40E9474
:102F4A00B81802C00E94D91900E010E020E030E071
:102F5A00289608950E94F91B45E454E020E031E0E8
:102F6A0004E011E00E94D60B00939901002339F482
:102F7A0000914504109146040030114019F0009167
:102F8A0099016BC0E4E0F1E0008511852285338563
:102F9A00073511442645354411F00CE05EC08CE03B
:102FAA0090E0FC01EC5FFE4F0081118122813381A8
:102FBA00FC01EC5FFE4F448055806680778008965E
:102FCA0006561D462447304261F00E5F134F2F4FBD
:102FDA00304409F448C0025010402F4E3241A9F142
:102FEA004CC0820193010051104020403040053509
:102FFA0010402040304010F00AE02FC0FC01EC5F86
:10300A00FE4F0081013011F00BE027C0FC01EC5F9C
:10301A00FE4F0281013011F00230B1F7FC01EC5F82
:10302A00FE4F0685083011F0003171F7FC01EC5FA4
:10303A00FE4F4481558160E070E000E412E42FE025
:10304A0030E00E94791B0A950CBF840D951D883CBF
:10305A0000E0900708F4A5CF0FE010E020E030E090
:10306A00E8E00C94061CA0E0E4ECF1E0808F918F7C
:10307A00A28FA38F82019301F3CF0EE0EECF0E94BD
:10308A00FA1B04E011E00E94D50B0093990100237A
:10309A0009F05AC00E94AF17C801D901003001E0F7
:1030AA00900700E0A007B00710F403E659C00093A8
:1030BA004404009342040093430445E454E020E0AE
:1030CA0032E0E4ECF1E0008C118C2019310910E0B7
:1030DA000E94D60B00939901009145041091460471
:1030EA00801B910BA040B04066246394813004E0B9
:1030FA00900700E0A007B00720F0442404E0502E17
:10310A0001C02C0145E454E0920100E010E00E9465
:10311A00D60B009399010023B9F40091450410914C
:10312A0046044016510681F4801B910BA040B04022
:10313A00660CB09904C0639401E0601629F000910E
:10314A0045040030144091F2009144040023E1F751
:10315A0000E810E01BBD0ABD19BD08BD0091990128
:10316A00E7E00C94071C0E94FD1B0E94C304E3EDD8
:10317A00F2E0A4E0B1E00E94801C2091FC003091B2
:10318A00FD00295F3F4F04E011E00E943D1C2EEF35
:10319A0030E004E011E00E944E1C012B31F02EEFCA
:1031AA0030E004E011E00E943D1C2091FC003091C7
:1031BA00FD0020573F4F04E011E00E943D1C64E0EF
:1031CA0071E057E040E032E12CE313E00AE00E94AC
:1031DA00890515E00BE00E94250530E021E000EEAC
:1031EA0012E00E94FE0316E00BE00E94250530E083
:1031FA0021E00BEE12E00E94FE0317E00BE00E94B2
:10320A00250530E021E002EF12E00E94FE0318E0FB
:10321A000BE00E94250530E021E00FEF12E00E944A
:10322A00FE0319E00BE00E94250530E021E001E1F0
:10323A0013E00E94FE031BE00BE00E94250530E02C
:10324A0021E00DE113E00E94FE031CE00BE00E9466
:10325A00250530E021E00BEE12E00E94FE031DE09E
:10326A000BE00E94250530E021E00BE213E00E940A
:10327A00FE031EE00BE00E94250530E021E007E492
:10328A0013E00E94FE031FE00BE00E94250530E0D8
:10329A0021E00CE513E00E94FE0310E10BE00E941E
:1032AA00250530E021E00FEF12E00E94FE0311E154
:1032BA000BE00E94250530E021E00BE713E00E94B5
:1032CA00FE0312E10BE00E94250530E021E003E84D
:1032DA0013E00E94FE0313E10BE00E94250530E093
:1032EA0021E00CE813E00E94FE0314E10BE00E94C7
:1032FA00250530E021E004E913E00E94FE0315E110
:10330A000BE00E94250530E021E004EA13E00E9468
:10331A00FE0385E002C08A3041F0182F0BE20E94BA
:10332A00250510E00AE30E94E6038395863198F3A7
:10333A0004EC11E00E94D40B009399012091FC0047
:10334A003091FD00295F3F4F04E011E00E94741C98
:10335A002EEF30E004E011E00E944E1C012B31F008
:10336A002EEF30E004E011E00E943D1C2091FC00A9
:10337A003091FD0020573F4F04E011E00E943D1CB0
:10338A0000919901002321F404E011E00E944418FD
:10339A0000E010E00E94D40B0093990100E0009332
:1033AA000401E4E00C940A1C0B3120E0104039F4CB
:1033BA002093040105E610E030E00E9422160895E9
:1033CA00088119812A813B814650504021F04A5F89
:1033DA00504049F00AC0013010402040304029F4E2
:1033EA000E94361A02C00E94BC1A00E010E020E0D7
:1033FA0030E0289608959A938A93C80117E000E06E
:10340A000E94040511E001E00E94250530E020E059
:10341A008C010E94180400E00E948B0411E00CE366
:10342A000E94250530E020E002EB13E00E94FE0333
:10343A0011E006E40E9425054EE453E0E091FC0009
:10344A00F091FD00E957FF4F0081118122813381FC
:10345A000E94B11530E020E00E94180489919991E8
:10346A0008959A938A9322970E94C30404EC11E068
:10347A000E94D40B00939901002309F06BC014E059
:10348A000FE00E94040502E00E9473042091FC00F0
:10349A003091FD00295F3F4F04E011E00E94741C47
:1034AA002EEF30E004E011E00E944E1C012B31F0B7
:1034BA002EEF30E004E011E00E943D1C2091FC0058
:1034CA003091FD0020573F4F04E011E00E943D1C5F
:1034DA0004E011E00E94001A12E001E00E942505B2
:1034EA0014E00FE00E94040590E09883998304E0B9
:1034FA0011E00E94D50B00939901AE0120E830E05B
:10350A0004E011E00E94D60B009399010091990101
:10351A00002301F508811981012BE1F080E003C045
:10352A000E94E6038395082F10E02881398102174B
:10353A00130770F4E82FF0E0EC5FFE4F00810D30C6
:10354A0021F00A3069F311E0EBCF9395973140F3FC
:10355A00973198F200E010E00E94D40B0093990191
:10356A0000E00093040122968991999108950B3104
:10357A0020E0104039F42093040105E610E030E021
:10358A000E94221608950C94901C0E94F91BD801DF
:10359A00290182E03D0109C002E0600E711E8230FD
:1035AA0081F002E0600E00E0701E6414750479F088
:1035BA00F3012591349110E02030304069F38230D4
:1035CA0081F3F3010591F491E02F0995EACF8A95E9
:1035DA0009F7E8E00C94061C0BEF0DBF00E00EBFE4
:1035EA00C4EDD0E00E94131C002311F00E94231C9A
:1035FA0006E014E028E034E00E94CA1A0E949314FC
:10360A000E94091B0C94C81A0C94C81A0024E8E0FA
:10361A00EA9532F0001F001C0416D0F3041AF8CF02
:10362A00001F402D00950895FF27442312F4F160EE
:10363A004195002312F4F09501950E940B1BF0FDB1
:10364A000195F1FD41950895149F102D059F100DC8
:10365A00049F002D110D08954A951AF0000F111FAD
:10366A00FBCF08954A951AF016950795FBCF089552
:10367A0000241124EFE0001F111F001C111C041666
:10368A00150610F0041A150AEA95AAF7001F111F69
:10369A00A0010095109508952224349F302D259F6E
:1036AA00300D169F300D079F300D249F202D310DB0
:1036BA00159F200D311D069F200D311D149F102DC1
:1036CA00210D321D059F100D211D321D049F002D55
:1036DA00110D221D321D08954A952AF03695279517
:1036EA0017950795F9CF0895002411241001E0E2F7
:1036FA00EA9592F0001F111F221F331F001C111C94
:10370A00221C331C041615062606370688F3041AEB
:10371A00150A260A370AECCF001F111F221F331F72
:10372A00A001B101009510952095309508957591E5
:10373A00659155914591159011FA25903590089506
:10374A00F9DF041B10E003C0F4DF041B150B20E0B3
:10375A0030E005C0ECDF041B150B260B370BB8F065
:10376A0010FC17C045910590E00FF11F04171005D2
:10377A0040E02407340758F436F404910024F10198
:10378A00E01BF0090994E00FF11F25903590F10133
:10379A00099411F4D6F7F1CF31960EF0319650E034
:1037AA0060E070E045914B3F48F089F34F3F29F0C4
:1037BA004E3F11F07591659155914591041B150B7A
:1037CA00260B370B39F318F3E7CFAF93BF93D80122
:1037DA0001900D9241505040D9F7BF91AF91089591
:1037EA00BA92AA929A928A927A926A925A924A922F
:1037FA00BA93AA939A938A930895BB84AA849984C4
:10380A0088847F806E805D804C80BB81AA8199818B
:10381A008881F0E0EC0FFD1FEF01089501E00895A3
:10382A0020E006D0E9F70895259102D0E9F7089536
:10383A002D9301501040202F212B089582E299E305
:10384A00FC0105911491FC013296A591B491FC01F9
:10385A00349625913491422F432B19F0F901E4DF74
:10386A0001C0DEDF069619E38E32910748F3089508
:10387A005B2F6A2FD80101C011964C914423E1F7BE
:10388A00F90141919F014D934423D1F7A62FB52FFA
:10389A00089502C02F5F3F4FF8014081F90150811E
:1038AA00451739F4F80131968F01442399F700E05E
:1038BA0005C018F40FEF1FEF089501E010E0089516
:1038CA000D912591021721F40023D1F700E005C0DC
:1038DA0018F40FEF1FEF089501E010E008955B2F31
:1038EA006A2FD801F90141919F014D934423D1F7E1
:1038FA00A62FB52F08958D0125912D932223E1F747
:10390A000895F80101C0319620812223E1F7E01BD6
:10391A00F10B8F010895FFCF430304010000080053
:0C392A00FC002E39F1012F0064000000A9
:0400000300000000F9
:00000001FF
