:100000000C94EF000C9417010C9417010C94170139
:100010000C9417010C9417010C9417010C94170100
:100020000C9417010C9417010C9417010C941701F0
:100030000C9417010C9417010C9417010C941701E0
:100040000C9417010C9417010C9417010C941701D0
:100050000C941701001F000000001F00001F10106B
:1000600010101F00001F181818181F00001F1C1C5C
:100070001C1C1F00001F1E1E1E1E1F00001F1F1F16
:100080001F1F1F0003070F1F0F070300001F1F1F65
:100090001F1F1F001B1B1B1B1B1B1B00181C1E1FD5
:1000A0001E1C18000004040E0E1F1F00001F1F0E50
:1000B0000E0404000000000000000000000E1915EE
:1000C000130E0000000E1515150E0000000E13157E
:1000D000190E0000000E111F110E00000001020396
:1000E0000405060708090A0B0C0D0E0F1011121358
:1000F0001415161718191A1B1C1D1E1F2021222348
:100100002425262728292A2B2C2D2E2F3031323337
:100110003435363738393A3B3C3D3E3F4041424327
:100120004445464748494A4B4C4D4E4F5051525317
:100130005455565758595A5B205D5E5F6061626343
:100140006465666768696A6B6C6D6E6F70717273F7
:100150007475767778797A5B205DE97F202020209E
:10016000202020202020202020202020202020208F
:10017000202020202020202020202020CB20496962
:100180000420FEEFA2CC00C92020200200000000C5
:1001900000000000B54E00000000000041A042A198
:1001A000E045A3A4A5A64BA74D484FA8504354A98A
:1001B000AA58E1ABACE2ADAE62AFB0B161B2B3B4DC
:1001C000E365B6B7B8B9BABBBCBD6FBE7063BF79E3
:1001D000E478E5C0C1E6C2C3C4C5C6C72104112482
:1001E0001FBECFE5D4E0DEBFCDBF10E0A0E6B0E09B
:1001F000E8EAF8E002C005900D92A236B107D9F7FF
:1002000010E0A2E6B0E001C01D92A736B107E1F709
:1002100011E0CEEDD1E004C02297FE010E944E0411
:10022000CC3DD107C9F70E9445040C9452040C94AC
:100230000000B89AC09A0000C0982AE02A95F1F709
:1002400035E004C0232F2A95F1F701970097D1F7E5
:100250000895BC9ABD9ABE9ABF9A80FF02C0C49A04
:1002600001C0C49881FF02C0C59A01C0C59882FF31
:1002700002C0C69A01C0C69883FF02C0C79A0895FB
:10028000C798089500B602FE03C080B78B7F80BF79
:10029000BC98BD98BE98BF98C49AC59AC69AC79A8A
:1002A00085E08A95F1F786B390E024E096958795EE
:1002B0002A95E1F78170B5998260B6998460B79903
:1002C0008860089580936100089580936000089588
:1002D0000F931F93182F062FA69A882319F08130A9
:1002E00021F402C0AE9801C0AE9AB99AC198802F8D
:1002F00082958F700E942901112311F0113021F491
:1003000082E390E00E941901802F0E9429011123AD
:1003100011F0113021F482E390E00E94190180E095
:100320000E942901113009F4AE981F910F91089590
:10033000982F80916600882371F0992319F09130ED
:1003400051F405C080E06CE10E946801089580E0EE
:1003500068E10E946801089580E00E949801089574
:1003600081E00E949801089580916600882341F001
:1003700080E061E00E94680180E49FE10197F1F76D
:1003800008951F9300B602FE03C080B78B7F80BF25
:10039000A69AAE98B99AC19ABF98C79A86B3C198DF
:1003A00087FDF0CFA69AAE98B99AC19A80E090E006
:1003B0000E9419010E944201182F1295107780E0C7
:1003C00090E00E9419010E944201C198812B1F9167
:1003D000089580916600882341F080E062E00E94E9
:1003E000680180E49FE10197F1F70895982F8091CB
:1003F0006600882349F0913011F0933009F4605C75
:10040000606880E00E9468010895982F80916600DE
:10041000882389F0E0916400F0916500E90FF11DF7
:1004200064916A3029F481E060E00E94F601089549
:1004300081E00E94680108951F93182F862F642F72
:100440000E94F601812F0E9405021F910895682FD6
:1004500080916600882321F06C6080E00E94680132
:100460000895682F80916600882321F06E6080E0F7
:100470000E94680108951F93182F862F642F0E94F1
:10048000F601812F0E9431021F9108950895089569
:10049000FF920F931F93CF93DF93162FF42EEC014F
:1004A00080916600882301F10E94C101082FFF0C92
:1004B000FF0CFF0C110F110F110FC10FD11D10E018
:1004C000612F6F0D606480E00E946801FE016491FD
:1004D00081E00E9468011F5F2196183089F700684B
:1004E00080E0602F0E946801DF91CF911F910F91F2
:1004F000FF90089580936600813009F07AC0A69A33
:10050000AE98B99AC19884EF91E020E931E0F90101
:100510003197F1F70197D9F783E00E94290188E22A
:1005200090E00E94190188E290E00E94190182E0A7
:100530000E94290188E290E00E94190188E290E07F
:100540000E9419018CE20E94290188E290E00E9439
:10055000190180E066E00E9468010E94B40180E019
:100560006CE00E9468010E94E90180E060E00E9466
:10057000F601809162009091630060E040E00E948B
:100580004802809162009091630061E041E00E9426
:100590004802809162009091630062E042E00E9414
:1005A0004802809162009091630063E043E00E9402
:1005B0004802809162009091630064E044E00E94F0
:1005C0004802809162009091630065E045E00E94DE
:1005D0004802809162009091630066E046E00E94CC
:1005E0004802809162009091630067E047E00E94BA
:1005F00048020895FF920F931F93CF93DF93EC016E
:10060000162FF42E809166008823F1F00E94C1011C
:10061000082FFF0CFF0CFF0C110F110F110FC10F52
:10062000D11D10E0612F6F0D606480E00E946801B1
:1006300081E069910E9468011F5F183099F7006896
:1006400080E0602F0E946801DF91CF911F910F9190
:10065000FF9008959F92AF92BF92CF92DF92EF9258
:10066000FF920F931F93CF93DF935C01D62E942EAE
:1006700080916600882309F47FC00E94C101E82EA2
:1006800010E000E0C02ECC0CCC0CCC0CE501FF241B
:100690006F2D6C0D606480E00E9468010330B9F139
:1006A000043028F4013019F1023088F409C0053013
:1006B00021F1053038F0063061F00730B1F52DC07A
:1006C000188101C0188D1695169516952EC0898132
:1006D00001C0898D90E0A0E0B0E08E739070A070B2
:1006E000B070B695A79597958795182F1EC08881ED
:1006F0008770880F880F198105C0888D8770880FD3
:10070000880F198D12951695169513700DC0898155
:1007100081708295807F1A8105C0898D8170829554
:10072000807F1A8D12951F70180F81E0612F0E9433
:100730006801F394239688E0F81609F0A9CF0F5FBB
:10074000083009F09FCF00E0FD2CF394102F190D15
:10075000802F6D2D412F0E941C02802F8C5F6F2DEA
:10076000412F0E941C020F5F043081F780E8E82AC5
:1007700080E06E2D0E946801DF91CF911F910F9153
:10078000FF90EF90DF90CF90BF90AF909F90089533
:100790000F931F93FC0180916600882361F03097CE
:1007A00039F409C08F010F5F1F4F0E940502F80145
:1007B00084918823B9F71F910F9108950F931F9388
:1007C0008C01862F642F0E94F601C8010E94C80385
:1007D0001F910F910895282FCB01622F40E00E94B6
:1007E000DE030895CF93DF93EC01809166008823A8
:1007F00049F0209721F406C021960E9405028881C5
:100800008823D1F7DF91CF9108950F931F938C0127
:10081000862F642F0E94F601C8010E94F2031F91E7
:100820000F910895282FCB01622F40E00E9405040C
:10083000089508950F93822F602F0E94F6010F9163
:10084000089584E590E090936300809362008CEDBE
:1008500090E0909365008093640008957894FFCFB2
:1008600008950895089508950895089508950895A0
:100870000895089508950895089508950895089590
:10088000089508950895089508950E9430040E94DF
:100890002E0480E090E00895EE0FFF1F0590F49184
:0808A000E02D0994F894FFCF4C
:0208A80002103C
:00000001FF
