:020000020000FC
:100000000C943D0318951895189518951895189502
:100010001895189518951895189518951895189578
:100020001895189518951895189518951895189568
:100030001895189518951895189518951895189558
:100040001895189518951895189518951895189548
:1000500018951895001F000000001F00001F1010C9
:1000600010101F00001F181818181F00001F1C1C5C
:100070001C1C1F00001F1E1E1E1E1F00001F1F1F16
:100080001F1F1F0003070F1F0F070300001F1F1F65
:100090001F1F1F001B1B1B1B1B1B1B00181C1E1FD5
:1000A0001E1C18000004040E0E1F1F00001F1F0E50
:1000B0000E0404000000000000000000000E1915EE
:1000C000130E0000000E1515150E0000000E13157E
:1000D000190E0000000E111F110E00000001020396
:1000E0000405060708090A0B0C0D0E0F1011121358
:1000F0001415161718191A1B1C1D1E1F2021222348
:100100002425262728292A2B2C2D2E2F3031323337
:100110003435363738393A3B3C3D3E3F4041424327
:100120004445464748494A4B4C4D4E4F5051525317
:100130005455565758595A5B205D5E5F6061626343
:100140006465666768696A6B6C6D6E6F70717273F7
:100150007475767778797A5B205DE97F202020209E
:10016000202020202020202020202020202020208F
:10017000202020202020202020202020CB20496962
:100180000420FEEFA2CC00C92020200200000000C5
:1001900000000000B54E00000000000041A042A198
:1001A000E045A3A4A5A64BA74D484FA8504354A98A
:1001B000AA58E1ABACE2ADAE62AFB0B161B2B3B4DC
:1001C000E365B6B7B8B9BABBBCBD6FBE7063BF79E3
:1001D000E478E5C0C1E6C2C3C4C5C6C7202020205C
:1001E0002020202020202020202020202050696E48
:1001F000626F61726420494920C4E5ECEE0A202058
:10020000202020202020202020202020202020C04E
:10021000E2F2EEF03A20F3EDE8205B4941525D0056
:10022000D2E5ECEFE5F0E0F2F3F0E03A2020202018
:100230000ACDE0EFF0FFE6E5EDE8E53A20202020EA
:1002400020008A93802F0E9488028A9519F08A954F
:1002500021F005C00E941E0202C00E941D02899169
:1002600008950091A800002359F011E000E00E94D9
:100270008B020FE31FE101501040E9F700C00000BE
:1002800008951091A800112369F0F0E0E02FE452E6
:10029000FF4F14911A3019F410E001E017C001E08B
:1002A0000E948B02089501E00C940B020091A800BB
:1002B000002359F012E000E00E948B020FE31FE1DF
:1002C00001501040E9F700C0000008952091A800F7
:1002D000222359F00A9511F0025009F4105C012F05
:1002E0000068102F00E00E948B0208950E945103C5
:1002F000C801A22F432E0091A800002321F10E94E3
:10030000BC02502E440C440C440CAA0FAA0FAA0F96
:10031000B0E0142D1B0F106400E00E948B022A2F06
:1003200030E02B0F331FFC01E20FF31F149101E0AB
:100330000E948B02B395B83060F300E8502A152D67
:1003400000E00E948B02E6E00C9458039A938A9393
:10035000C8010091A800002359F0082F012B21F4B7
:1003600007C00591CF018DDFFC0104910023C9F77F
:100370008991999108959A938A93C8018901A6DF7A
:100380008C01E4DFF5CFB89AC09A0000C0982AE04B
:100390002A95F1F700C004C025E02A95F1F7000086
:1003A000980101501040232BB9F70895BC9ABD9ACB
:1003B000BE9ABF9A00FB16F4C49A01C0C49801FB10
:1003C00016F4C59A01C0C59802FB16F4C69A01C07E
:1003D000C69803FB16F4C79A0895C798089500E0DD
:1003E00010B712FF03C010B71B7F10BFBC98BD9899
:1003F000BE98BF98C49AC59AC69AC79A15E01A952E
:10040000F1F70000B49901E0B5990260B699046073
:10041000B799086008951091A800112369F000238E
:1004200019F00A9529F008951CE100E00C948B0264
:1004300018E100E00E948B0208950895A69AAE98F4
:10044000B99AC1980FEF10E722E001501040204008
:10045000E1F700C0000003E00E94D60108E210E0CE
:100460000E94C30108E210E00E94C30102E00E9462
:10047000D60108E210E00E94C30108E210E00E94E9
:10048000C3010CE20E94D60108E210E00E94C30101
:1004900016E000E00E948B020E9431011CE000E0A7
:1004A0000E948B020E94560110E000E00E9466014B
:1004B00030E020E004E510E00E94760131E021E028
:1004C00004E510E00E94760132E022E004E510E04D
:1004D0000E94760133E023E004E510E00E947601FB
:1004E00034E024E004E510E00E94760135E025E0E8
:1004F00004E510E00E94760136E026E004E510E015
:100500000E94760137E027E004E510E00C947601C4
:100510000093A80008959A938A93C801A69A00238D
:1005200019F00A9519F003C0AE9801C0AE9AB99AB5
:10053000C198012F02950F700E94D601082F8823C1
:1005400011F00A9521F402E310E00E94C301092F83
:100550000E94D601082F882311F00A9521F402E3A6
:1005600010E00E94C30100E00E94D601813009F42E
:10057000AE988991999108958A930E94D802002398
:10058000E1F7A69AAE98B99AC19A00E010E00E94ED
:10059000C3010E94EF01802F00E010E00E94C30120
:1005A0000E94EF01C19882958077082B8991089568
:1005B00000B702FF03C000B70B7F00BFA69AAE983A
:1005C000B99AC19ABF98C79A16B3C198012F000F64
:1005D00000E0001F08958A9330E020E00CED11E068
:1005E0000E94BB0180E10E9453010FEF14E32CE055
:1005F000015010402040E1F700C00000082F8A950C
:10060000002389F70FEF17EA21E601501040204040
:10061000E1F700C000000E9431010E94560130E065
:1006200020E000E212E00E94BB017894FFCF0E941C
:1006300024030E9423030C941D0305B70F7005BF0C
:1006400005B705BF0895089500B70B7F00BF00E010
:100650000ABB0BBB07BB08BB04BB05BB01BB02BB92
:1006600008950E94170301E00E9421010E94EB02FD
:1006700000E010E008950C948D0307EA0DBF00E040
:100680000EBFC0E8D0E00E946303002311F00E9477
:1006900073030E9431030E944F030C943B030C949C
:1006A0003B035A924A92BA93AA939A938A930895D3
:1006B0005D804C80BB81AA8199818881F0E0EC0F3C
:1006C000FD1FEF01089501E0089520E006D0E9F74D
:1006D0000895259102D0E9F708952D930150104017
:1006E000202F212B08958CE197E0FC0105911491B6
:1006F000FC013296A591B491FC0134962591349178
:10070000422F432B19F0F901E4DF01C0DEDF06962A
:1007100017E08232910748F30895FFCF0100A80047
:020720000000D7
:0400000300000000F9
:00000001FF
