:020000020000FC
:10000000F6C218951895189581C192C1A3C1C4C1B3
:1000100018951895D4C11895189518951895189590
:100020001895189518951B5B3F32356C0020202CD5
:1000300020202020202020203C2020202020272796
:100040002222F92D2D2020203E20202020FF2020BC
:100050006A20207C20F020202220202020F8204927
:1000600069202020FAF12320226A537320808182A4
:10007000838485868788898A8B8C8D8E8F909192D8
:10008000939495969798999A9B9C9D9E9FA0A1A2C8
:10009000A3A4A5A6A7A8A9AAABACADAEAFE0E1E228
:1000A000E3E4E5E6E7E8E9EAEBECEDEEEF1B5B0005
:1000B000302E302E302E32303600323620EEEAF23C
:1000C000FFE1F0FF203230313320E32E00C4E2E8BC
:1000D000E3E0F2E5EBFC3A20C2FBEAEBFEF7E5EDEC
:0900E000001F62000002608406AA
:1000EA005D9BFECF112319F01A9519F00DC00CB9BA
:1000FA000BC007FB3EF4F0E00F77E02FE35DFF4F04
:10010A00149101C0102F1CB95E9BFECF5898089518
:10011A0082D2C801B22FA32F442403C01B2FE0DFD1
:10012A0043945524FC01E40DF51D04910023B1F715
:10013A00EA2FF0E031974E165F0681F3E6E072C2CD
:10014A008A93802F30E020E00DEA10E0E1DF882377
:10015A0019F08A9521F006C010E000E305C010E00E
:10016A0001E302C010E002E3BBDF10E00AE454C07E
:10017A0030E020E006E210E0CBCF8A93802F30E017
:10018A0020E00DEA10E0C4DF83FB10E016F401E37F
:10019A0001C002E3A5DF10E00DE6A2DF30E020E0B7
:1001AA000DEA10E0B5DF10E003E32EC08A93802F3A
:1001BA0030E020E00DEA10E0ABDF83FB10E016F43C
:1001CA0005E301C006E38CDF10E00DE689DF30E0CD
:1001DA0020E00DEA10E09CDF10E004E315C01FD216
:1001EA00902F812F00E006D0092FC7DF082FDEDF0E
:1001FA00E2E01CC28A93802F30E020E00DEA10E092
:10020A0087DF10E08F7003C06BDF10E08770805DBE
:10021A00082F66DF10E00DE663DF89910895FED1AD
:10022A00902FA12F002359F1112349F1013538F5F7
:10023A001A3128F530E020E00DEA10E069DF10E01D
:10024A004AE00A2FDAD1005D4BDF10E04AE00A2FBC
:10025A00D4D1042F005D44DF10E00BE341DF10E04E
:10026A004AE0092FCAD1005D3BDF10E04AE0092FBE
:10027A00C4D1042F005D34DF10E006E631DFE3E08D
:10028A00D4C100EB10E008950AEB10E008957894C9
:10029A006FDF10E00FE0A3DF02E052DF18E101E0B8
:1002AA00BEDFEFDF30E020E033DF10E000E218DFEE
:1002BA0010E008E215DFE8DF30E021E029DF10E096
:1002CA0009E20EDF19E101E0AADF30E021E00DECDE
:1002DA0010E01EDFFFCFF89400E0E4E70083E5E7D3
:1002EA000083E6E70083EBE700830183028303834D
:1002FA000483058379D083D087D08CD096D09AD0C6
:10030A006BC08A93FA93EA933A922A921A920A92C1
:10031A007A936A935A934A933A932A931A930A932B
:10032A008FB799D023C08A93FA93EA933A922A9282
:10033A001A920A927A936A935A934A933A932A930D
:10034A001A930A938FB7B4D011C08A93FA93EA9397
:10035A003A922A921A920A927A936A935A934A93EF
:10036A003A932A931A930A938FB7A3D08FBF09910E
:10037A0019912991399149915991699179910990E4
:10038A00199029903990E991F991899118958A9350
:10039A00FA93EA933A922A921A920A927A936A936F
:1003AA005A934A933A932A931A930A938FB70CB1A2
:1003BA0092D0DCCF8A93FA93EA933A922A921A92CB
:1003CA000A927A936A935A934A933A932A931A937C
:1003DA000A938FB796D0CACF05B70F7805BF05B76E
:1003EA0005BF02E009BF089505B70F7705BF00E012
:1003FA000ABB0BBB08E007BB00E008BB089503E09B
:10040A0003BF02E802BF089500E00EBD0DBD0CBD9A
:10041A000FBD089500E20BB900E00AB903E309B978
:10042A0000E002B908E90AB9089508E008B900E04D
:10043A0001B908950BB70F7B0BBF0BB70F770BBF33
:10044A0005B7007F05BF05B705BF0BB70F730BBF15
:10045A000BB70BBF089520E030E0E5E700810023E9
:10046A0029F00A9571F00A9589F01FC0E7E7208103
:10047A0031813695279500EC0FBD01E0E5E7008351
:10048A0014C0E0E62081318102E00BC0E7E7208159
:10049A00318136952795E0E600811181201B310BC9
:1004AA0000E0E5E7008300E80FBD3BBD2ABD0895E3
:1004BA000895E9E7008111810F5F1F4F00831183BF
:1004CA0002E802BF008111810A3020E0104011F4D5
:1004DA00208321830895E2E6418150E0208130E0C3
:1004EA00421B50404031504059F032BF11811F70B9
:1004FA00E12FEE5902830091630003950093630094
:10050A000895E4E70081002309F065C0E6E7008169
:10051A000023D9F445995FC000E00EBD0EE90DBD78
:10052A0007E50CBD0CB510E0EBE7008311831DB5A0
:10053A0000E00083118301E0E6E700830EB5026064
:10054A000EBD09B7006809BF0895013069F40CB5FA
:10055A0010E0EBE7028313831DB500E002831383E7
:10056A0002E0E6E7008308950230A9F50CB510E031
:10057A00EBE7048315831DB500E004831583E6E7E2
:10058A000083EBE72081318104811581021B130B63
:10059A0016950795E7E700831183EBE742815381BC
:1005AA00040F151F021B130B98013695279500E0BF
:1005BA000EBD0DBD0CBD3BBD2ABD00E80FBD0EB57D
:1005CA000A600EBD09B7006409BF01E0E4E70083D1
:1005DA0000E0E5E7008308957EDE59DE00E010E0E2
:1005EA0008954AC004EA0DBFC1E924D0002309F0E6
:1005FA002DD0F2DF01D0F5CFF4CF0024E8E0EA9560
:10060A0032F0001F001C0416D0F3041AF8CF001FA2
:10061A00402D009508955A924A92BA93AA939A93B2
:10062A008A9308955D804C80BB81AA8199818881D3
:10063A00CE0F089501E0089510E01D930A95E9F799
:10064A00089515911D930A95E1F7089581EE90E0BA
:10065A00FC010591A491FC01329625913491122F47
:10066A00132B19F0F901EDDF01C0E6DF049610E063
:0C067A00893E910768F30895FFCFE80364
:0400000300000000F9
:00000001FF
